{
	"contracts/HTLC.sol": {
		"HTLC": {
			"abi": [
				{
					"anonymous": false,
					"inputs": [
						{
							"indexed": true,
							"internalType": "bytes32",
							"name": "swapId",
							"type": "bytes32"
						}
					],
					"name": "Refunded",
					"type": "event"
				},
				{
					"anonymous": false,
					"inputs": [
						{
							"indexed": true,
							"internalType": "bytes32",
							"name": "swapId",
							"type": "bytes32"
						},
						{
							"indexed": true,
							"internalType": "address",
							"name": "sender",
							"type": "address"
						},
						{
							"indexed": true,
							"internalType": "address",
							"name": "receiver",
							"type": "address"
						},
						{
							"indexed": false,
							"internalType": "uint256",
							"name": "amount",
							"type": "uint256"
						},
						{
							"indexed": false,
							"internalType": "bytes32",
							"name": "hashlock",
							"type": "bytes32"
						},
						{
							"indexed": false,
							"internalType": "uint256",
							"name": "timelock",
							"type": "uint256"
						}
					],
					"name": "SwapCreated",
					"type": "event"
				},
				{
					"anonymous": false,
					"inputs": [
						{
							"indexed": true,
							"internalType": "bytes32",
							"name": "swapId",
							"type": "bytes32"
						},
						{
							"indexed": false,
							"internalType": "bytes32",
							"name": "secret",
							"type": "bytes32"
						}
					],
					"name": "SwapWithdrawn",
					"type": "event"
				},
				{
					"inputs": [
						{
							"internalType": "address",
							"name": "receiver",
							"type": "address"
						},
						{
							"internalType": "bytes32",
							"name": "hashlock",
							"type": "bytes32"
						},
						{
							"internalType": "uint256",
							"name": "timelock",
							"type": "uint256"
						}
					],
					"name": "createSwap",
					"outputs": [
						{
							"internalType": "bytes32",
							"name": "swapId",
							"type": "bytes32"
						}
					],
					"stateMutability": "payable",
					"type": "function"
				},
				{
					"inputs": [
						{
							"internalType": "bytes32",
							"name": "swapId",
							"type": "bytes32"
						}
					],
					"name": "getSwap",
					"outputs": [
						{
							"components": [
								{
									"internalType": "address",
									"name": "sender",
									"type": "address"
								},
								{
									"internalType": "address",
									"name": "receiver",
									"type": "address"
								},
								{
									"internalType": "uint256",
									"name": "amount",
									"type": "uint256"
								},
								{
									"internalType": "uint256",
									"name": "timelock",
									"type": "uint256"
								},
								{
									"internalType": "bytes32",
									"name": "hashlock",
									"type": "bytes32"
								},
								{
									"internalType": "bool",
									"name": "withdrawn",
									"type": "bool"
								},
								{
									"internalType": "bool",
									"name": "refunded",
									"type": "bool"
								},
								{
									"internalType": "bytes32",
									"name": "secret",
									"type": "bytes32"
								}
							],
							"internalType": "struct HTLC.Swap",
							"name": "",
							"type": "tuple"
						}
					],
					"stateMutability": "view",
					"type": "function"
				},
				{
					"inputs": [
						{
							"internalType": "bytes32",
							"name": "swapId",
							"type": "bytes32"
						}
					],
					"name": "refund",
					"outputs": [],
					"stateMutability": "nonpayable",
					"type": "function"
				},
				{
					"inputs": [
						{
							"internalType": "bytes32",
							"name": "",
							"type": "bytes32"
						}
					],
					"name": "swaps",
					"outputs": [
						{
							"internalType": "address",
							"name": "sender",
							"type": "address"
						},
						{
							"internalType": "address",
							"name": "receiver",
							"type": "address"
						},
						{
							"internalType": "uint256",
							"name": "amount",
							"type": "uint256"
						},
						{
							"internalType": "uint256",
							"name": "timelock",
							"type": "uint256"
						},
						{
							"internalType": "bytes32",
							"name": "hashlock",
							"type": "bytes32"
						},
						{
							"internalType": "bool",
							"name": "withdrawn",
							"type": "bool"
						},
						{
							"internalType": "bool",
							"name": "refunded",
							"type": "bool"
						},
						{
							"internalType": "bytes32",
							"name": "secret",
							"type": "bytes32"
						}
					],
					"stateMutability": "view",
					"type": "function"
				},
				{
					"inputs": [
						{
							"internalType": "bytes32",
							"name": "swapId",
							"type": "bytes32"
						},
						{
							"internalType": "bytes32",
							"name": "secret",
							"type": "bytes32"
						}
					],
					"name": "withdraw",
					"outputs": [],
					"stateMutability": "nonpayable",
					"type": "function"
				}
			],
			"devdoc": {
				"kind": "dev",
				"methods": {},
				"version": 1
			},
			"evm": {
				"assembly": "    /* \"contracts/HTLC.sol\":57:2852  contract HTLC {... */\n  mstore(0x40, 0x80)\n  callvalue\n  dup1\n  iszero\n  tag_1\n  jumpi\n  revert(0x00, 0x00)\ntag_1:\n  pop\n  dataSize(sub_0)\n  dup1\n  dataOffset(sub_0)\n  0x00\n  codecopy\n  0x00\n  return\nstop\n\nsub_0: assembly {\n        /* \"contracts/HTLC.sol\":57:2852  contract HTLC {... */\n      mstore(0x40, 0x80)\n      jumpi(tag_1, lt(calldatasize, 0x04))\n      shr(0xe0, calldataload(0x00))\n      dup1\n      0x3da0e66e\n      eq\n      tag_2\n      jumpi\n      dup1\n      0x63615149\n      eq\n      tag_3\n      jumpi\n      dup1\n      0x7249fbb6\n      eq\n      tag_4\n      jumpi\n      dup1\n      0x944eff63\n      eq\n      tag_5\n      jumpi\n      dup1\n      0xeb84e7f2\n      eq\n      tag_6\n      jumpi\n    tag_1:\n      revert(0x00, 0x00)\n        /* \"contracts/HTLC.sol\":2744:2850  function getSwap(bytes32 swapId) external view returns (Swap memory) {... */\n    tag_2:\n      callvalue\n      dup1\n      iszero\n      tag_7\n      jumpi\n      revert(0x00, 0x00)\n    tag_7:\n      pop\n      tag_8\n      0x04\n      dup1\n      calldatasize\n      sub\n      dup2\n      add\n      swap1\n      tag_9\n      swap2\n      swap1\n      tag_10\n      jump\t// in\n    tag_9:\n      tag_11\n      jump\t// in\n    tag_8:\n      mload(0x40)\n      tag_12\n      swap2\n      swap1\n      tag_13\n      jump\t// in\n    tag_12:\n      mload(0x40)\n      dup1\n      swap2\n      sub\n      swap1\n      return\n        /* \"contracts/HTLC.sol\":1685:2314  function withdraw(bytes32 swapId, bytes32 secret) external {... */\n    tag_3:\n      callvalue\n      dup1\n      iszero\n      tag_14\n      jumpi\n      revert(0x00, 0x00)\n    tag_14:\n      pop\n      tag_15\n      0x04\n      dup1\n      calldatasize\n      sub\n      dup2\n      add\n      swap1\n      tag_16\n      swap2\n      swap1\n      tag_17\n      jump\t// in\n    tag_16:\n      tag_18\n      jump\t// in\n    tag_15:\n      stop\n        /* \"contracts/HTLC.sol\":2320:2739  function refund(bytes32 swapId) external {... */\n    tag_4:\n      callvalue\n      dup1\n      iszero\n      tag_19\n      jumpi\n      revert(0x00, 0x00)\n    tag_19:\n      pop\n      tag_20\n      0x04\n      dup1\n      calldatasize\n      sub\n      dup2\n      add\n      swap1\n      tag_21\n      swap2\n      swap1\n      tag_10\n      jump\t// in\n    tag_21:\n      tag_22\n      jump\t// in\n    tag_20:\n      stop\n        /* \"contracts/HTLC.sol\":691:1680  function createSwap(... */\n    tag_5:\n      tag_23\n      0x04\n      dup1\n      calldatasize\n      sub\n      dup2\n      add\n      swap1\n      tag_24\n      swap2\n      swap1\n      tag_25\n      jump\t// in\n    tag_24:\n      tag_26\n      jump\t// in\n    tag_23:\n      mload(0x40)\n      tag_27\n      swap2\n      swap1\n      tag_28\n      jump\t// in\n    tag_27:\n      mload(0x40)\n      dup1\n      swap2\n      sub\n      swap1\n      return\n        /* \"contracts/HTLC.sol\":319:356  mapping(bytes32 => Swap) public swaps */\n    tag_6:\n      callvalue\n      dup1\n      iszero\n      tag_29\n      jumpi\n      revert(0x00, 0x00)\n    tag_29:\n      pop\n      tag_30\n      0x04\n      dup1\n      calldatasize\n      sub\n      dup2\n      add\n      swap1\n      tag_31\n      swap2\n      swap1\n      tag_10\n      jump\t// in\n    tag_31:\n      tag_32\n      jump\t// in\n    tag_30:\n      mload(0x40)\n      tag_33\n      swap9\n      swap8\n      swap7\n      swap6\n      swap5\n      swap4\n      swap3\n      swap2\n      swap1\n      tag_34\n      jump\t// in\n    tag_33:\n      mload(0x40)\n      dup1\n      swap2\n      sub\n      swap1\n      return\n        /* \"contracts/HTLC.sol\":2744:2850  function getSwap(bytes32 swapId) external view returns (Swap memory) {... */\n    tag_11:\n        /* \"contracts/HTLC.sol\":2800:2811  Swap memory */\n      tag_35\n      tag_36\n      jump\t// in\n    tag_35:\n        /* \"contracts/HTLC.sol\":2830:2835  swaps */\n      0x00\n        /* \"contracts/HTLC.sol\":2830:2843  swaps[swapId] */\n      0x00\n        /* \"contracts/HTLC.sol\":2836:2842  swapId */\n      dup4\n        /* \"contracts/HTLC.sol\":2830:2843  swaps[swapId] */\n      dup2\n      mstore\n      0x20\n      add\n      swap1\n      dup2\n      mstore\n      0x20\n      add\n      0x00\n      keccak256\n        /* \"contracts/HTLC.sol\":2823:2843  return swaps[swapId] */\n      mload(0x40)\n      dup1\n      0x0100\n      add\n      0x40\n      mstore\n      swap1\n      dup2\n      0x00\n      dup3\n      add\n      0x00\n      swap1\n      sload\n      swap1\n      0x0100\n      exp\n      swap1\n      div\n      0xffffffffffffffffffffffffffffffffffffffff\n      and\n      0xffffffffffffffffffffffffffffffffffffffff\n      and\n      0xffffffffffffffffffffffffffffffffffffffff\n      and\n      dup2\n      mstore\n      0x20\n      add\n      0x01\n      dup3\n      add\n      0x00\n      swap1\n      sload\n      swap1\n      0x0100\n      exp\n      swap1\n      div\n      0xffffffffffffffffffffffffffffffffffffffff\n      and\n      0xffffffffffffffffffffffffffffffffffffffff\n      and\n      0xffffffffffffffffffffffffffffffffffffffff\n      and\n      dup2\n      mstore\n      0x20\n      add\n      0x02\n      dup3\n      add\n      sload\n      dup2\n      mstore\n      0x20\n      add\n      0x03\n      dup3\n      add\n      sload\n      dup2\n      mstore\n      0x20\n      add\n      0x04\n      dup3\n      add\n      sload\n      dup2\n      mstore\n      0x20\n      add\n      0x05\n      dup3\n      add\n      0x00\n      swap1\n      sload\n      swap1\n      0x0100\n      exp\n      swap1\n      div\n      0xff\n      and\n      iszero\n      iszero\n      iszero\n      iszero\n      dup2\n      mstore\n      0x20\n      add\n      0x05\n      dup3\n      add\n      0x01\n      swap1\n      sload\n      swap1\n      0x0100\n      exp\n      swap1\n      div\n      0xff\n      and\n      iszero\n      iszero\n      iszero\n      iszero\n      dup2\n      mstore\n      0x20\n      add\n      0x06\n      dup3\n      add\n      sload\n      dup2\n      mstore\n      pop\n      pop\n      swap1\n      pop\n        /* \"contracts/HTLC.sol\":2744:2850  function getSwap(bytes32 swapId) external view returns (Swap memory) {... */\n      swap2\n      swap1\n      pop\n      jump\t// out\n        /* \"contracts/HTLC.sol\":1685:2314  function withdraw(bytes32 swapId, bytes32 secret) external {... */\n    tag_18:\n        /* \"contracts/HTLC.sol\":1754:1768  Swap storage s */\n      0x00\n        /* \"contracts/HTLC.sol\":1771:1776  swaps */\n      0x00\n        /* \"contracts/HTLC.sol\":1771:1784  swaps[swapId] */\n      0x00\n        /* \"contracts/HTLC.sol\":1777:1783  swapId */\n      dup5\n        /* \"contracts/HTLC.sol\":1771:1784  swaps[swapId] */\n      dup2\n      mstore\n      0x20\n      add\n      swap1\n      dup2\n      mstore\n      0x20\n      add\n      0x00\n      keccak256\n        /* \"contracts/HTLC.sol\":1754:1784  Swap storage s = swaps[swapId] */\n      swap1\n      pop\n        /* \"contracts/HTLC.sol\":1818:1828  msg.sender */\n      caller\n        /* \"contracts/HTLC.sol\":1804:1828  s.receiver == msg.sender */\n      0xffffffffffffffffffffffffffffffffffffffff\n      and\n        /* \"contracts/HTLC.sol\":1804:1805  s */\n      dup2\n        /* \"contracts/HTLC.sol\":1804:1814  s.receiver */\n      0x01\n      add\n      0x00\n      swap1\n      sload\n      swap1\n      0x0100\n      exp\n      swap1\n      div\n      0xffffffffffffffffffffffffffffffffffffffff\n      and\n        /* \"contracts/HTLC.sol\":1804:1828  s.receiver == msg.sender */\n      0xffffffffffffffffffffffffffffffffffffffff\n      and\n      eq\n        /* \"contracts/HTLC.sol\":1795:1845  require (s.receiver == msg.sender, \"Not receiver\") */\n      tag_39\n      jumpi\n      mload(0x40)\n      0x08c379a000000000000000000000000000000000000000000000000000000000\n      dup2\n      mstore\n      0x04\n      add\n      tag_40\n      swap1\n      tag_41\n      jump\t// in\n    tag_40:\n      mload(0x40)\n      dup1\n      swap2\n      sub\n      swap1\n      revert\n    tag_39:\n        /* \"contracts/HTLC.sol\":1864:1865  s */\n      dup1\n        /* \"contracts/HTLC.sol\":1864:1875  s.withdrawn */\n      0x05\n      add\n      0x00\n      swap1\n      sload\n      swap1\n      0x0100\n      exp\n      swap1\n      div\n      0xff\n      and\n        /* \"contracts/HTLC.sol\":1863:1875  !s.withdrawn */\n      iszero\n        /* \"contracts/HTLC.sol\":1855:1897  require(!s.withdrawn, \"Already withdrawn\") */\n      tag_42\n      jumpi\n      mload(0x40)\n      0x08c379a000000000000000000000000000000000000000000000000000000000\n      dup2\n      mstore\n      0x04\n      add\n      tag_43\n      swap1\n      tag_44\n      jump\t// in\n    tag_43:\n      mload(0x40)\n      dup1\n      swap2\n      sub\n      swap1\n      revert\n    tag_42:\n        /* \"contracts/HTLC.sol\":1916:1917  s */\n      dup1\n        /* \"contracts/HTLC.sol\":1916:1926  s.refunded */\n      0x05\n      add\n      0x01\n      swap1\n      sload\n      swap1\n      0x0100\n      exp\n      swap1\n      div\n      0xff\n      and\n        /* \"contracts/HTLC.sol\":1915:1926  !s.refunded */\n      iszero\n        /* \"contracts/HTLC.sol\":1907:1947  require(!s.refunded, \"Already refunded\") */\n      tag_45\n      jumpi\n      mload(0x40)\n      0x08c379a000000000000000000000000000000000000000000000000000000000\n      dup2\n      mstore\n      0x04\n      add\n      tag_46\n      swap1\n      tag_47\n      jump\t// in\n    tag_46:\n      mload(0x40)\n      dup1\n      swap2\n      sub\n      swap1\n      revert\n    tag_45:\n        /* \"contracts/HTLC.sol\":1983:1984  s */\n      dup1\n        /* \"contracts/HTLC.sol\":1983:1993  s.timelock */\n      0x03\n      add\n      sload\n        /* \"contracts/HTLC.sol\":1965:1980  block.timestamp */\n      timestamp\n        /* \"contracts/HTLC.sol\":1965:1993  block.timestamp < s.timelock */\n      lt\n        /* \"contracts/HTLC.sol\":1957:2014  require(block.timestamp < s.timelock, \"Timelock expired\") */\n      tag_48\n      jumpi\n      mload(0x40)\n      0x08c379a000000000000000000000000000000000000000000000000000000000\n      dup2\n      mstore\n      0x04\n      add\n      tag_49\n      swap1\n      tag_50\n      jump\t// in\n    tag_49:\n      mload(0x40)\n      dup1\n      swap2\n      sub\n      swap1\n      revert\n    tag_48:\n        /* \"contracts/HTLC.sol\":2071:2072  s */\n      dup1\n        /* \"contracts/HTLC.sol\":2071:2081  s.hashlock */\n      0x04\n      add\n      sload\n        /* \"contracts/HTLC.sol\":2059:2065  secret */\n      dup3\n        /* \"contracts/HTLC.sol\":2042:2066  abi.encodePacked(secret) */\n      add(0x20, mload(0x40))\n      tag_51\n      swap2\n      swap1\n      tag_52\n      jump\t// in\n    tag_51:\n      mload(0x40)\n      0x20\n      dup2\n      dup4\n      sub\n      sub\n      dup2\n      mstore\n      swap1\n      0x40\n      mstore\n        /* \"contracts/HTLC.sol\":2032:2067  keccak256(abi.encodePacked(secret)) */\n      dup1\n      mload\n      swap1\n      0x20\n      add\n      keccak256\n        /* \"contracts/HTLC.sol\":2032:2081  keccak256(abi.encodePacked(secret)) == s.hashlock */\n      eq\n        /* \"contracts/HTLC.sol\":2024:2100  require(keccak256(abi.encodePacked(secret)) == s.hashlock, \"Invalid secret\") */\n      tag_53\n      jumpi\n      mload(0x40)\n      0x08c379a000000000000000000000000000000000000000000000000000000000\n      dup2\n      mstore\n      0x04\n      add\n      tag_54\n      swap1\n      tag_55\n      jump\t// in\n    tag_54:\n      mload(0x40)\n      dup1\n      swap2\n      sub\n      swap1\n      revert\n    tag_53:\n        /* \"contracts/HTLC.sol\":2152:2158  secret */\n      dup2\n        /* \"contracts/HTLC.sol\":2141:2142  s */\n      dup2\n        /* \"contracts/HTLC.sol\":2141:2149  s.secret */\n      0x06\n      add\n        /* \"contracts/HTLC.sol\":2141:2158  s.secret = secret */\n      dup2\n      swap1\n      sstore\n      pop\n        /* \"contracts/HTLC.sol\":2182:2186  true */\n      0x01\n        /* \"contracts/HTLC.sol\":2168:2169  s */\n      dup2\n        /* \"contracts/HTLC.sol\":2168:2179  s.withdrawn */\n      0x05\n      add\n      0x00\n        /* \"contracts/HTLC.sol\":2168:2186  s.withdrawn = true */\n      0x0100\n      exp\n      dup2\n      sload\n      dup2\n      0xff\n      mul\n      not\n      and\n      swap1\n      dup4\n      iszero\n      iszero\n      mul\n      or\n      swap1\n      sstore\n      pop\n        /* \"contracts/HTLC.sol\":2233:2234  s */\n      dup1\n        /* \"contracts/HTLC.sol\":2233:2243  s.receiver */\n      0x01\n      add\n      0x00\n      swap1\n      sload\n      swap1\n      0x0100\n      exp\n      swap1\n      div\n      0xffffffffffffffffffffffffffffffffffffffff\n      and\n        /* \"contracts/HTLC.sol\":2225:2253  payable(s.receiver).transfer */\n      0xffffffffffffffffffffffffffffffffffffffff\n      and\n        /* \"contracts/HTLC.sol\":2225:2263  payable(s.receiver).transfer(s.amount) */\n      0x08fc\n        /* \"contracts/HTLC.sol\":2254:2255  s */\n      dup3\n        /* \"contracts/HTLC.sol\":2254:2262  s.amount */\n      0x02\n      add\n      sload\n        /* \"contracts/HTLC.sol\":2225:2263  payable(s.receiver).transfer(s.amount) */\n      swap1\n      dup2\n      iszero\n      mul\n      swap1\n      mload(0x40)\n      0x00\n      mload(0x40)\n      dup1\n      dup4\n      sub\n      dup2\n      dup6\n      dup9\n      dup9\n      call\n      swap4\n      pop\n      pop\n      pop\n      pop\n      iszero\n      dup1\n      iszero\n      tag_57\n      jumpi\n      returndatacopy(0x00, 0x00, returndatasize)\n      revert(0x00, returndatasize)\n    tag_57:\n      pop\n        /* \"contracts/HTLC.sol\":2292:2298  swapId */\n      dup3\n        /* \"contracts/HTLC.sol\":2278:2307  SwapWithdrawn(swapId, secret) */\n      0xab7f1bbfb937adff2a70a94108db9e1b9f0b4b78aca33abe667a7c55c76a0782\n        /* \"contracts/HTLC.sol\":2300:2306  secret */\n      dup4\n        /* \"contracts/HTLC.sol\":2278:2307  SwapWithdrawn(swapId, secret) */\n      mload(0x40)\n      tag_58\n      swap2\n      swap1\n      tag_28\n      jump\t// in\n    tag_58:\n      mload(0x40)\n      dup1\n      swap2\n      sub\n      swap1\n      log2\n        /* \"contracts/HTLC.sol\":1744:2314  {... */\n      pop\n        /* \"contracts/HTLC.sol\":1685:2314  function withdraw(bytes32 swapId, bytes32 secret) external {... */\n      pop\n      pop\n      jump\t// out\n        /* \"contracts/HTLC.sol\":2320:2739  function refund(bytes32 swapId) external {... */\n    tag_22:\n        /* \"contracts/HTLC.sol\":2371:2385  Swap storage s */\n      0x00\n        /* \"contracts/HTLC.sol\":2388:2393  swaps */\n      0x00\n        /* \"contracts/HTLC.sol\":2388:2401  swaps[swapId] */\n      0x00\n        /* \"contracts/HTLC.sol\":2394:2400  swapId */\n      dup4\n        /* \"contracts/HTLC.sol\":2388:2401  swaps[swapId] */\n      dup2\n      mstore\n      0x20\n      add\n      swap1\n      dup2\n      mstore\n      0x20\n      add\n      0x00\n      keccak256\n        /* \"contracts/HTLC.sol\":2371:2401  Swap storage s = swaps[swapId] */\n      swap1\n      pop\n        /* \"contracts/HTLC.sol\":2433:2443  msg.sender */\n      caller\n        /* \"contracts/HTLC.sol\":2421:2443  s.sender == msg.sender */\n      0xffffffffffffffffffffffffffffffffffffffff\n      and\n        /* \"contracts/HTLC.sol\":2421:2422  s */\n      dup2\n        /* \"contracts/HTLC.sol\":2421:2429  s.sender */\n      0x00\n      add\n      0x00\n      swap1\n      sload\n      swap1\n      0x0100\n      exp\n      swap1\n      div\n      0xffffffffffffffffffffffffffffffffffffffff\n      and\n        /* \"contracts/HTLC.sol\":2421:2443  s.sender == msg.sender */\n      0xffffffffffffffffffffffffffffffffffffffff\n      and\n      eq\n        /* \"contracts/HTLC.sol\":2412:2458  require (s.sender == msg.sender, \"Not sender\") */\n      tag_60\n      jumpi\n      mload(0x40)\n      0x08c379a000000000000000000000000000000000000000000000000000000000\n      dup2\n      mstore\n      0x04\n      add\n      tag_61\n      swap1\n      tag_62\n      jump\t// in\n    tag_61:\n      mload(0x40)\n      dup1\n      swap2\n      sub\n      swap1\n      revert\n    tag_60:\n        /* \"contracts/HTLC.sol\":2477:2478  s */\n      dup1\n        /* \"contracts/HTLC.sol\":2477:2488  s.withdrawn */\n      0x05\n      add\n      0x00\n      swap1\n      sload\n      swap1\n      0x0100\n      exp\n      swap1\n      div\n      0xff\n      and\n        /* \"contracts/HTLC.sol\":2476:2488  !s.withdrawn */\n      iszero\n        /* \"contracts/HTLC.sol\":2468:2510  require(!s.withdrawn, \"Already withdrawn\") */\n      tag_63\n      jumpi\n      mload(0x40)\n      0x08c379a000000000000000000000000000000000000000000000000000000000\n      dup2\n      mstore\n      0x04\n      add\n      tag_64\n      swap1\n      tag_44\n      jump\t// in\n    tag_64:\n      mload(0x40)\n      dup1\n      swap2\n      sub\n      swap1\n      revert\n    tag_63:\n        /* \"contracts/HTLC.sol\":2529:2530  s */\n      dup1\n        /* \"contracts/HTLC.sol\":2529:2539  s.refunded */\n      0x05\n      add\n      0x01\n      swap1\n      sload\n      swap1\n      0x0100\n      exp\n      swap1\n      div\n      0xff\n      and\n        /* \"contracts/HTLC.sol\":2528:2539  !s.refunded */\n      iszero\n        /* \"contracts/HTLC.sol\":2520:2560  require(!s.refunded, \"Already refunded\") */\n      tag_65\n      jumpi\n      mload(0x40)\n      0x08c379a000000000000000000000000000000000000000000000000000000000\n      dup2\n      mstore\n      0x04\n      add\n      tag_66\n      swap1\n      tag_47\n      jump\t// in\n    tag_66:\n      mload(0x40)\n      dup1\n      swap2\n      sub\n      swap1\n      revert\n    tag_65:\n        /* \"contracts/HTLC.sol\":2596:2597  s */\n      dup1\n        /* \"contracts/HTLC.sol\":2596:2606  s.timelock */\n      0x03\n      add\n      sload\n        /* \"contracts/HTLC.sol\":2578:2593  block.timestamp */\n      timestamp\n        /* \"contracts/HTLC.sol\":2578:2606  block.timestamp < s.timelock */\n      lt\n        /* \"contracts/HTLC.sol\":2570:2627  require(block.timestamp < s.timelock, \"Timelock expired\") */\n      tag_67\n      jumpi\n      mload(0x40)\n      0x08c379a000000000000000000000000000000000000000000000000000000000\n      dup2\n      mstore\n      0x04\n      add\n      tag_68\n      swap1\n      tag_50\n      jump\t// in\n    tag_68:\n      mload(0x40)\n      dup1\n      swap2\n      sub\n      swap1\n      revert\n    tag_67:\n        /* \"contracts/HTLC.sol\":2651:2655  true */\n      0x01\n        /* \"contracts/HTLC.sol\":2638:2639  s */\n      dup2\n        /* \"contracts/HTLC.sol\":2638:2648  s.refunded */\n      0x05\n      add\n      0x01\n        /* \"contracts/HTLC.sol\":2638:2655  s.refunded = true */\n      0x0100\n      exp\n      dup2\n      sload\n      dup2\n      0xff\n      mul\n      not\n      and\n      swap1\n      dup4\n      iszero\n      iszero\n      mul\n      or\n      swap1\n      sstore\n      pop\n        /* \"contracts/HTLC.sol\":2673:2674  s */\n      dup1\n        /* \"contracts/HTLC.sol\":2673:2681  s.sender */\n      0x00\n      add\n      0x00\n      swap1\n      sload\n      swap1\n      0x0100\n      exp\n      swap1\n      div\n      0xffffffffffffffffffffffffffffffffffffffff\n      and\n        /* \"contracts/HTLC.sol\":2665:2691  payable(s.sender).transfer */\n      0xffffffffffffffffffffffffffffffffffffffff\n      and\n        /* \"contracts/HTLC.sol\":2665:2701  payable(s.sender).transfer(s.amount) */\n      0x08fc\n        /* \"contracts/HTLC.sol\":2692:2693  s */\n      dup3\n        /* \"contracts/HTLC.sol\":2692:2700  s.amount */\n      0x02\n      add\n      sload\n        /* \"contracts/HTLC.sol\":2665:2701  payable(s.sender).transfer(s.amount) */\n      swap1\n      dup2\n      iszero\n      mul\n      swap1\n      mload(0x40)\n      0x00\n      mload(0x40)\n      dup1\n      dup4\n      sub\n      dup2\n      dup6\n      dup9\n      dup9\n      call\n      swap4\n      pop\n      pop\n      pop\n      pop\n      iszero\n      dup1\n      iszero\n      tag_70\n      jumpi\n      returndatacopy(0x00, 0x00, returndatasize)\n      revert(0x00, returndatasize)\n    tag_70:\n      pop\n        /* \"contracts/HTLC.sol\":2725:2731  swapId */\n      dup2\n        /* \"contracts/HTLC.sol\":2716:2732  Refunded(swapId) */\n      0xfe509803c09416b28ff3d8f690c8b0c61462a892c46d5430c8fb20abe472daf0\n      mload(0x40)\n      mload(0x40)\n      dup1\n      swap2\n      sub\n      swap1\n      log2\n        /* \"contracts/HTLC.sol\":2361:2739  {... */\n      pop\n        /* \"contracts/HTLC.sol\":2320:2739  function refund(bytes32 swapId) external {... */\n      pop\n      jump\t// out\n        /* \"contracts/HTLC.sol\":691:1680  function createSwap(... */\n    tag_26:\n        /* \"contracts/HTLC.sol\":822:836  bytes32 swapId */\n      0x00\n        /* \"contracts/HTLC.sol\":867:868  0 */\n      0x00\n        /* \"contracts/HTLC.sol\":855:864  msg.value */\n      callvalue\n        /* \"contracts/HTLC.sol\":855:868  msg.value > 0 */\n      gt\n        /* \"contracts/HTLC.sol\":847:884  require(msg.value > 0, \"no ETH sent\") */\n      tag_72\n      jumpi\n      mload(0x40)\n      0x08c379a000000000000000000000000000000000000000000000000000000000\n      dup2\n      mstore\n      0x04\n      add\n      tag_73\n      swap1\n      tag_74\n      jump\t// in\n    tag_73:\n      mload(0x40)\n      dup1\n      swap2\n      sub\n      swap1\n      revert\n    tag_72:\n        /* \"contracts/HTLC.sol\":950:951  0 */\n      0x00\n        /* \"contracts/HTLC.sol\":930:952  receiver != address(0) */\n      0xffffffffffffffffffffffffffffffffffffffff\n      and\n        /* \"contracts/HTLC.sol\":930:938  receiver */\n      dup5\n        /* \"contracts/HTLC.sol\":930:952  receiver != address(0) */\n      0xffffffffffffffffffffffffffffffffffffffff\n      and\n      sub\n        /* \"contracts/HTLC.sol\":922:972  require(receiver != address(0), \"Invlid receiver\") */\n      tag_75\n      jumpi\n      mload(0x40)\n      0x08c379a000000000000000000000000000000000000000000000000000000000\n      dup2\n      mstore\n      0x04\n      add\n      tag_76\n      swap1\n      tag_77\n      jump\t// in\n    tag_76:\n      mload(0x40)\n      dup1\n      swap2\n      sub\n      swap1\n      revert\n    tag_75:\n        /* \"contracts/HTLC.sol\":982:1000  uint256 unlockTime */\n      0x00\n        /* \"contracts/HTLC.sol\":1021:1029  timelock */\n      dup3\n        /* \"contracts/HTLC.sol\":1003:1018  block.timestamp */\n      timestamp\n        /* \"contracts/HTLC.sol\":1003:1029  block.timestamp + timelock */\n      tag_78\n      swap2\n      swap1\n      tag_79\n      jump\t// in\n    tag_78:\n        /* \"contracts/HTLC.sol\":982:1029  uint256 unlockTime = block.timestamp + timelock */\n      swap1\n      pop\n        /* \"contracts/HTLC.sol\":1097:1107  msg.sender */\n      caller\n        /* \"contracts/HTLC.sol\":1109:1117  receiver */\n      dup6\n        /* \"contracts/HTLC.sol\":1119:1128  msg.value */\n      callvalue\n        /* \"contracts/HTLC.sol\":1130:1138  hashlock */\n      dup7\n        /* \"contracts/HTLC.sol\":1140:1150  unlockTime */\n      dup5\n        /* \"contracts/HTLC.sol\":1152:1164  block.number */\n      number\n        /* \"contracts/HTLC.sol\":1080:1165  abi.encodePacked(msg.sender, receiver, msg.value, hashlock, unlockTime, block.number) */\n      add(0x20, mload(0x40))\n      tag_80\n      swap7\n      swap6\n      swap5\n      swap4\n      swap3\n      swap2\n      swap1\n      tag_81\n      jump\t// in\n    tag_80:\n      mload(0x40)\n      0x20\n      dup2\n      dup4\n      sub\n      sub\n      dup2\n      mstore\n      swap1\n      0x40\n      mstore\n        /* \"contracts/HTLC.sol\":1070:1166  keccak256(abi.encodePacked(msg.sender, receiver, msg.value, hashlock, unlockTime, block.number)) */\n      dup1\n      mload\n      swap1\n      0x20\n      add\n      keccak256\n        /* \"contracts/HTLC.sol\":1061:1166  swapId = keccak256(abi.encodePacked(msg.sender, receiver, msg.value, hashlock, unlockTime, block.number)) */\n      swap2\n      pop\n        /* \"contracts/HTLC.sol\":1216:1217  0 */\n      0x00\n        /* \"contracts/HTLC.sol\":1184:1218  swaps[swapId].sender == address(0) */\n      0xffffffffffffffffffffffffffffffffffffffff\n      and\n        /* \"contracts/HTLC.sol\":1184:1189  swaps */\n      0x00\n        /* \"contracts/HTLC.sol\":1184:1197  swaps[swapId] */\n      0x00\n        /* \"contracts/HTLC.sol\":1190:1196  swapId */\n      dup5\n        /* \"contracts/HTLC.sol\":1184:1197  swaps[swapId] */\n      dup2\n      mstore\n      0x20\n      add\n      swap1\n      dup2\n      mstore\n      0x20\n      add\n      0x00\n      keccak256\n        /* \"contracts/HTLC.sol\":1184:1204  swaps[swapId].sender */\n      0x00\n      add\n      0x00\n      swap1\n      sload\n      swap1\n      0x0100\n      exp\n      swap1\n      div\n      0xffffffffffffffffffffffffffffffffffffffff\n      and\n        /* \"contracts/HTLC.sol\":1184:1218  swaps[swapId].sender == address(0) */\n      0xffffffffffffffffffffffffffffffffffffffff\n      and\n      eq\n        /* \"contracts/HTLC.sol\":1176:1242  require(swaps[swapId].sender == address(0), \"Swap already exists\") */\n      tag_82\n      jumpi\n      mload(0x40)\n      0x08c379a000000000000000000000000000000000000000000000000000000000\n      dup2\n      mstore\n      0x04\n      add\n      tag_83\n      swap1\n      tag_84\n      jump\t// in\n    tag_83:\n      mload(0x40)\n      dup1\n      swap2\n      sub\n      swap1\n      revert\n    tag_82:\n        /* \"contracts/HTLC.sol\":1323:1584  Swap({... */\n      mload(0x40)\n      dup1\n      0x0100\n      add\n      0x40\n      mstore\n      dup1\n        /* \"contracts/HTLC.sol\":1350:1360  msg.sender */\n      caller\n        /* \"contracts/HTLC.sol\":1323:1584  Swap({... */\n      0xffffffffffffffffffffffffffffffffffffffff\n      and\n      dup2\n      mstore\n      0x20\n      add\n        /* \"contracts/HTLC.sol\":1384:1392  receiver */\n      dup7\n        /* \"contracts/HTLC.sol\":1323:1584  Swap({... */\n      0xffffffffffffffffffffffffffffffffffffffff\n      and\n      dup2\n      mstore\n      0x20\n      add\n        /* \"contracts/HTLC.sol\":1414:1423  msg.value */\n      callvalue\n        /* \"contracts/HTLC.sol\":1323:1584  Swap({... */\n      dup2\n      mstore\n      0x20\n      add\n        /* \"contracts/HTLC.sol\":1479:1489  unlockTime */\n      dup3\n        /* \"contracts/HTLC.sol\":1323:1584  Swap({... */\n      dup2\n      mstore\n      0x20\n      add\n        /* \"contracts/HTLC.sol\":1447:1455  hashlock */\n      dup6\n        /* \"contracts/HTLC.sol\":1323:1584  Swap({... */\n      dup2\n      mstore\n      0x20\n      add\n        /* \"contracts/HTLC.sol\":1514:1519  false */\n      0x00\n        /* \"contracts/HTLC.sol\":1323:1584  Swap({... */\n      iszero\n      iszero\n      dup2\n      mstore\n      0x20\n      add\n        /* \"contracts/HTLC.sol\":1543:1548  false */\n      0x00\n        /* \"contracts/HTLC.sol\":1323:1584  Swap({... */\n      iszero\n      iszero\n      dup2\n      mstore\n      0x20\n      add\n        /* \"contracts/HTLC.sol\":1570:1573  0x0 */\n      0x00\n        /* \"contracts/HTLC.sol\":1323:1584  Swap({... */\n      0x00\n      shl\n      dup2\n      mstore\n      pop\n        /* \"contracts/HTLC.sol\":1307:1312  swaps */\n      0x00\n        /* \"contracts/HTLC.sol\":1307:1320  swaps[swapId] */\n      0x00\n        /* \"contracts/HTLC.sol\":1313:1319  swapId */\n      dup5\n        /* \"contracts/HTLC.sol\":1307:1320  swaps[swapId] */\n      dup2\n      mstore\n      0x20\n      add\n      swap1\n      dup2\n      mstore\n      0x20\n      add\n      0x00\n      keccak256\n        /* \"contracts/HTLC.sol\":1307:1584  swaps[swapId] = Swap({... */\n      0x00\n      dup3\n      add\n      mload\n      dup2\n      0x00\n      add\n      exp(0x0100, 0x00)\n      dup2\n      sload\n      dup2\n      0xffffffffffffffffffffffffffffffffffffffff\n      mul\n      not\n      and\n      swap1\n      dup4\n      0xffffffffffffffffffffffffffffffffffffffff\n      and\n      mul\n      or\n      swap1\n      sstore\n      pop\n      0x20\n      dup3\n      add\n      mload\n      dup2\n      0x01\n      add\n      exp(0x0100, 0x00)\n      dup2\n      sload\n      dup2\n      0xffffffffffffffffffffffffffffffffffffffff\n      mul\n      not\n      and\n      swap1\n      dup4\n      0xffffffffffffffffffffffffffffffffffffffff\n      and\n      mul\n      or\n      swap1\n      sstore\n      pop\n      0x40\n      dup3\n      add\n      mload\n      dup2\n      0x02\n      add\n      sstore\n      0x60\n      dup3\n      add\n      mload\n      dup2\n      0x03\n      add\n      sstore\n      0x80\n      dup3\n      add\n      mload\n      dup2\n      0x04\n      add\n      sstore\n      0xa0\n      dup3\n      add\n      mload\n      dup2\n      0x05\n      add\n      exp(0x0100, 0x00)\n      dup2\n      sload\n      dup2\n      0xff\n      mul\n      not\n      and\n      swap1\n      dup4\n      iszero\n      iszero\n      mul\n      or\n      swap1\n      sstore\n      pop\n      0xc0\n      dup3\n      add\n      mload\n      dup2\n      0x05\n      add\n      exp(0x0100, 0x01)\n      dup2\n      sload\n      dup2\n      0xff\n      mul\n      not\n      and\n      swap1\n      dup4\n      iszero\n      iszero\n      mul\n      or\n      swap1\n      sstore\n      pop\n      0xe0\n      dup3\n      add\n      mload\n      dup2\n      0x06\n      add\n      sstore\n      swap1\n      pop\n      pop\n        /* \"contracts/HTLC.sol\":1631:1639  receiver */\n      dup5\n        /* \"contracts/HTLC.sol\":1599:1673  SwapCreated(swapId, msg.sender, receiver, msg.value, hashlock, unlockTime) */\n      0xffffffffffffffffffffffffffffffffffffffff\n      and\n        /* \"contracts/HTLC.sol\":1619:1629  msg.sender */\n      caller\n        /* \"contracts/HTLC.sol\":1599:1673  SwapCreated(swapId, msg.sender, receiver, msg.value, hashlock, unlockTime) */\n      0xffffffffffffffffffffffffffffffffffffffff\n      and\n        /* \"contracts/HTLC.sol\":1611:1617  swapId */\n      dup4\n        /* \"contracts/HTLC.sol\":1599:1673  SwapCreated(swapId, msg.sender, receiver, msg.value, hashlock, unlockTime) */\n      0x5daec4fa6dfb41e446aa1d129f0ab3efab20bed0a0c05b273bedf1c4283c9e10\n        /* \"contracts/HTLC.sol\":1641:1650  msg.value */\n      callvalue\n        /* \"contracts/HTLC.sol\":1652:1660  hashlock */\n      dup9\n        /* \"contracts/HTLC.sol\":1662:1672  unlockTime */\n      dup7\n        /* \"contracts/HTLC.sol\":1599:1673  SwapCreated(swapId, msg.sender, receiver, msg.value, hashlock, unlockTime) */\n      mload(0x40)\n      tag_85\n      swap4\n      swap3\n      swap2\n      swap1\n      tag_86\n      jump\t// in\n    tag_85:\n      mload(0x40)\n      dup1\n      swap2\n      sub\n      swap1\n      log4\n        /* \"contracts/HTLC.sol\":837:1680  {... */\n      pop\n        /* \"contracts/HTLC.sol\":691:1680  function createSwap(... */\n      swap4\n      swap3\n      pop\n      pop\n      pop\n      jump\t// out\n        /* \"contracts/HTLC.sol\":319:356  mapping(bytes32 => Swap) public swaps */\n    tag_32:\n      mstore(0x20, 0x00)\n      dup1\n      0x00\n      mstore\n      keccak256(0x00, 0x40)\n      0x00\n      swap2\n      pop\n      swap1\n      pop\n      dup1\n      0x00\n      add\n      0x00\n      swap1\n      sload\n      swap1\n      0x0100\n      exp\n      swap1\n      div\n      0xffffffffffffffffffffffffffffffffffffffff\n      and\n      swap1\n      dup1\n      0x01\n      add\n      0x00\n      swap1\n      sload\n      swap1\n      0x0100\n      exp\n      swap1\n      div\n      0xffffffffffffffffffffffffffffffffffffffff\n      and\n      swap1\n      dup1\n      0x02\n      add\n      sload\n      swap1\n      dup1\n      0x03\n      add\n      sload\n      swap1\n      dup1\n      0x04\n      add\n      sload\n      swap1\n      dup1\n      0x05\n      add\n      0x00\n      swap1\n      sload\n      swap1\n      0x0100\n      exp\n      swap1\n      div\n      0xff\n      and\n      swap1\n      dup1\n      0x05\n      add\n      0x01\n      swap1\n      sload\n      swap1\n      0x0100\n      exp\n      swap1\n      div\n      0xff\n      and\n      swap1\n      dup1\n      0x06\n      add\n      sload\n      swap1\n      pop\n      dup9\n      jump\t// out\n    tag_36:\n      mload(0x40)\n      dup1\n      0x0100\n      add\n      0x40\n      mstore\n      dup1\n      and(0xffffffffffffffffffffffffffffffffffffffff, 0x00)\n      dup2\n      mstore\n      0x20\n      add\n      and(0xffffffffffffffffffffffffffffffffffffffff, 0x00)\n      dup2\n      mstore\n      0x20\n      add\n      0x00\n      dup2\n      mstore\n      0x20\n      add\n      0x00\n      dup2\n      mstore\n      0x20\n      add\n      0x00\n      dup2\n      mstore\n      0x20\n      add\n      iszero(iszero(0x00))\n      dup2\n      mstore\n      0x20\n      add\n      iszero(iszero(0x00))\n      dup2\n      mstore\n      0x20\n      add\n      0x00\n      dup2\n      mstore\n      pop\n      swap1\n      jump\t// out\n        /* \"#utility.yul\":88:205   */\n    tag_88:\n        /* \"#utility.yul\":197:198   */\n      0x00\n        /* \"#utility.yul\":194:195   */\n      0x00\n        /* \"#utility.yul\":187:199   */\n      revert\n        /* \"#utility.yul\":334:411   */\n    tag_90:\n        /* \"#utility.yul\":371:378   */\n      0x00\n        /* \"#utility.yul\":400:405   */\n      dup2\n        /* \"#utility.yul\":389:405   */\n      swap1\n      pop\n        /* \"#utility.yul\":334:411   */\n      swap2\n      swap1\n      pop\n      jump\t// out\n        /* \"#utility.yul\":417:539   */\n    tag_91:\n        /* \"#utility.yul\":490:514   */\n      tag_144\n        /* \"#utility.yul\":508:513   */\n      dup2\n        /* \"#utility.yul\":490:514   */\n      tag_90\n      jump\t// in\n    tag_144:\n        /* \"#utility.yul\":483:488   */\n      dup2\n        /* \"#utility.yul\":480:515   */\n      eq\n        /* \"#utility.yul\":470:533   */\n      tag_145\n      jumpi\n        /* \"#utility.yul\":529:530   */\n      0x00\n        /* \"#utility.yul\":526:527   */\n      0x00\n        /* \"#utility.yul\":519:531   */\n      revert\n        /* \"#utility.yul\":470:533   */\n    tag_145:\n        /* \"#utility.yul\":417:539   */\n      pop\n      jump\t// out\n        /* \"#utility.yul\":545:684   */\n    tag_92:\n        /* \"#utility.yul\":591:596   */\n      0x00\n        /* \"#utility.yul\":629:635   */\n      dup2\n        /* \"#utility.yul\":616:636   */\n      calldataload\n        /* \"#utility.yul\":607:636   */\n      swap1\n      pop\n        /* \"#utility.yul\":645:678   */\n      tag_147\n        /* \"#utility.yul\":672:677   */\n      dup2\n        /* \"#utility.yul\":645:678   */\n      tag_91\n      jump\t// in\n    tag_147:\n        /* \"#utility.yul\":545:684   */\n      swap3\n      swap2\n      pop\n      pop\n      jump\t// out\n        /* \"#utility.yul\":690:1019   */\n    tag_10:\n        /* \"#utility.yul\":749:755   */\n      0x00\n        /* \"#utility.yul\":798:800   */\n      0x20\n        /* \"#utility.yul\":786:795   */\n      dup3\n        /* \"#utility.yul\":777:784   */\n      dup5\n        /* \"#utility.yul\":773:796   */\n      sub\n        /* \"#utility.yul\":769:801   */\n      slt\n        /* \"#utility.yul\":766:885   */\n      iszero\n      tag_149\n      jumpi\n        /* \"#utility.yul\":804:883   */\n      tag_150\n      tag_88\n      jump\t// in\n    tag_150:\n        /* \"#utility.yul\":766:885   */\n    tag_149:\n        /* \"#utility.yul\":924:925   */\n      0x00\n        /* \"#utility.yul\":949:1002   */\n      tag_151\n        /* \"#utility.yul\":994:1001   */\n      dup5\n        /* \"#utility.yul\":985:991   */\n      dup3\n        /* \"#utility.yul\":974:983   */\n      dup6\n        /* \"#utility.yul\":970:992   */\n      add\n        /* \"#utility.yul\":949:1002   */\n      tag_92\n      jump\t// in\n    tag_151:\n        /* \"#utility.yul\":939:1002   */\n      swap2\n      pop\n        /* \"#utility.yul\":895:1012   */\n      pop\n        /* \"#utility.yul\":690:1019   */\n      swap3\n      swap2\n      pop\n      pop\n      jump\t// out\n        /* \"#utility.yul\":1025:1151   */\n    tag_93:\n        /* \"#utility.yul\":1062:1069   */\n      0x00\n        /* \"#utility.yul\":1102:1144   */\n      0xffffffffffffffffffffffffffffffffffffffff\n        /* \"#utility.yul\":1095:1100   */\n      dup3\n        /* \"#utility.yul\":1091:1145   */\n      and\n        /* \"#utility.yul\":1080:1145   */\n      swap1\n      pop\n        /* \"#utility.yul\":1025:1151   */\n      swap2\n      swap1\n      pop\n      jump\t// out\n        /* \"#utility.yul\":1157:1253   */\n    tag_94:\n        /* \"#utility.yul\":1194:1201   */\n      0x00\n        /* \"#utility.yul\":1223:1247   */\n      tag_154\n        /* \"#utility.yul\":1241:1246   */\n      dup3\n        /* \"#utility.yul\":1223:1247   */\n      tag_93\n      jump\t// in\n    tag_154:\n        /* \"#utility.yul\":1212:1247   */\n      swap1\n      pop\n        /* \"#utility.yul\":1157:1253   */\n      swap2\n      swap1\n      pop\n      jump\t// out\n        /* \"#utility.yul\":1259:1367   */\n    tag_95:\n        /* \"#utility.yul\":1336:1360   */\n      tag_156\n        /* \"#utility.yul\":1354:1359   */\n      dup2\n        /* \"#utility.yul\":1336:1360   */\n      tag_94\n      jump\t// in\n    tag_156:\n        /* \"#utility.yul\":1331:1334   */\n      dup3\n        /* \"#utility.yul\":1324:1361   */\n      mstore\n        /* \"#utility.yul\":1259:1367   */\n      pop\n      pop\n      jump\t// out\n        /* \"#utility.yul\":1373:1450   */\n    tag_96:\n        /* \"#utility.yul\":1410:1417   */\n      0x00\n        /* \"#utility.yul\":1439:1444   */\n      dup2\n        /* \"#utility.yul\":1428:1444   */\n      swap1\n      pop\n        /* \"#utility.yul\":1373:1450   */\n      swap2\n      swap1\n      pop\n      jump\t// out\n        /* \"#utility.yul\":1456:1564   */\n    tag_97:\n        /* \"#utility.yul\":1533:1557   */\n      tag_159\n        /* \"#utility.yul\":1551:1556   */\n      dup2\n        /* \"#utility.yul\":1533:1557   */\n      tag_96\n      jump\t// in\n    tag_159:\n        /* \"#utility.yul\":1528:1531   */\n      dup3\n        /* \"#utility.yul\":1521:1558   */\n      mstore\n        /* \"#utility.yul\":1456:1564   */\n      pop\n      pop\n      jump\t// out\n        /* \"#utility.yul\":1570:1678   */\n    tag_98:\n        /* \"#utility.yul\":1647:1671   */\n      tag_161\n        /* \"#utility.yul\":1665:1670   */\n      dup2\n        /* \"#utility.yul\":1647:1671   */\n      tag_90\n      jump\t// in\n    tag_161:\n        /* \"#utility.yul\":1642:1645   */\n      dup3\n        /* \"#utility.yul\":1635:1672   */\n      mstore\n        /* \"#utility.yul\":1570:1678   */\n      pop\n      pop\n      jump\t// out\n        /* \"#utility.yul\":1684:1774   */\n    tag_99:\n        /* \"#utility.yul\":1718:1725   */\n      0x00\n        /* \"#utility.yul\":1761:1766   */\n      dup2\n        /* \"#utility.yul\":1754:1767   */\n      iszero\n        /* \"#utility.yul\":1747:1768   */\n      iszero\n        /* \"#utility.yul\":1736:1768   */\n      swap1\n      pop\n        /* \"#utility.yul\":1684:1774   */\n      swap2\n      swap1\n      pop\n      jump\t// out\n        /* \"#utility.yul\":1780:1879   */\n    tag_100:\n        /* \"#utility.yul\":1851:1872   */\n      tag_164\n        /* \"#utility.yul\":1866:1871   */\n      dup2\n        /* \"#utility.yul\":1851:1872   */\n      tag_99\n      jump\t// in\n    tag_164:\n        /* \"#utility.yul\":1846:1849   */\n      dup3\n        /* \"#utility.yul\":1839:1873   */\n      mstore\n        /* \"#utility.yul\":1780:1879   */\n      pop\n      pop\n      jump\t// out\n        /* \"#utility.yul\":1929:3487   */\n    tag_101:\n        /* \"#utility.yul\":2066:2072   */\n      0x0100\n        /* \"#utility.yul\":2061:2064   */\n      dup3\n        /* \"#utility.yul\":2057:2073   */\n      add\n        /* \"#utility.yul\":2157:2161   */\n      0x00\n        /* \"#utility.yul\":2150:2155   */\n      dup3\n        /* \"#utility.yul\":2146:2162   */\n      add\n        /* \"#utility.yul\":2140:2163   */\n      mload\n        /* \"#utility.yul\":2176:2239   */\n      tag_166\n        /* \"#utility.yul\":2233:2237   */\n      0x00\n        /* \"#utility.yul\":2228:2231   */\n      dup6\n        /* \"#utility.yul\":2224:2238   */\n      add\n        /* \"#utility.yul\":2210:2222   */\n      dup3\n        /* \"#utility.yul\":2176:2239   */\n      tag_95\n      jump\t// in\n    tag_166:\n        /* \"#utility.yul\":2083:2249   */\n      pop\n        /* \"#utility.yul\":2335:2339   */\n      0x20\n        /* \"#utility.yul\":2328:2333   */\n      dup3\n        /* \"#utility.yul\":2324:2340   */\n      add\n        /* \"#utility.yul\":2318:2341   */\n      mload\n        /* \"#utility.yul\":2354:2417   */\n      tag_167\n        /* \"#utility.yul\":2411:2415   */\n      0x20\n        /* \"#utility.yul\":2406:2409   */\n      dup6\n        /* \"#utility.yul\":2402:2416   */\n      add\n        /* \"#utility.yul\":2388:2400   */\n      dup3\n        /* \"#utility.yul\":2354:2417   */\n      tag_95\n      jump\t// in\n    tag_167:\n        /* \"#utility.yul\":2259:2427   */\n      pop\n        /* \"#utility.yul\":2511:2515   */\n      0x40\n        /* \"#utility.yul\":2504:2509   */\n      dup3\n        /* \"#utility.yul\":2500:2516   */\n      add\n        /* \"#utility.yul\":2494:2517   */\n      mload\n        /* \"#utility.yul\":2530:2593   */\n      tag_168\n        /* \"#utility.yul\":2587:2591   */\n      0x40\n        /* \"#utility.yul\":2582:2585   */\n      dup6\n        /* \"#utility.yul\":2578:2592   */\n      add\n        /* \"#utility.yul\":2564:2576   */\n      dup3\n        /* \"#utility.yul\":2530:2593   */\n      tag_97\n      jump\t// in\n    tag_168:\n        /* \"#utility.yul\":2437:2603   */\n      pop\n        /* \"#utility.yul\":2689:2693   */\n      0x60\n        /* \"#utility.yul\":2682:2687   */\n      dup3\n        /* \"#utility.yul\":2678:2694   */\n      add\n        /* \"#utility.yul\":2672:2695   */\n      mload\n        /* \"#utility.yul\":2708:2771   */\n      tag_169\n        /* \"#utility.yul\":2765:2769   */\n      0x60\n        /* \"#utility.yul\":2760:2763   */\n      dup6\n        /* \"#utility.yul\":2756:2770   */\n      add\n        /* \"#utility.yul\":2742:2754   */\n      dup3\n        /* \"#utility.yul\":2708:2771   */\n      tag_97\n      jump\t// in\n    tag_169:\n        /* \"#utility.yul\":2613:2781   */\n      pop\n        /* \"#utility.yul\":2867:2871   */\n      0x80\n        /* \"#utility.yul\":2860:2865   */\n      dup3\n        /* \"#utility.yul\":2856:2872   */\n      add\n        /* \"#utility.yul\":2850:2873   */\n      mload\n        /* \"#utility.yul\":2886:2949   */\n      tag_170\n        /* \"#utility.yul\":2943:2947   */\n      0x80\n        /* \"#utility.yul\":2938:2941   */\n      dup6\n        /* \"#utility.yul\":2934:2948   */\n      add\n        /* \"#utility.yul\":2920:2932   */\n      dup3\n        /* \"#utility.yul\":2886:2949   */\n      tag_98\n      jump\t// in\n    tag_170:\n        /* \"#utility.yul\":2791:2959   */\n      pop\n        /* \"#utility.yul\":3046:3050   */\n      0xa0\n        /* \"#utility.yul\":3039:3044   */\n      dup3\n        /* \"#utility.yul\":3035:3051   */\n      add\n        /* \"#utility.yul\":3029:3052   */\n      mload\n        /* \"#utility.yul\":3065:3122   */\n      tag_171\n        /* \"#utility.yul\":3116:3120   */\n      0xa0\n        /* \"#utility.yul\":3111:3114   */\n      dup6\n        /* \"#utility.yul\":3107:3121   */\n      add\n        /* \"#utility.yul\":3093:3105   */\n      dup3\n        /* \"#utility.yul\":3065:3122   */\n      tag_100\n      jump\t// in\n    tag_171:\n        /* \"#utility.yul\":2969:3132   */\n      pop\n        /* \"#utility.yul\":3218:3222   */\n      0xc0\n        /* \"#utility.yul\":3211:3216   */\n      dup3\n        /* \"#utility.yul\":3207:3223   */\n      add\n        /* \"#utility.yul\":3201:3224   */\n      mload\n        /* \"#utility.yul\":3237:3294   */\n      tag_172\n        /* \"#utility.yul\":3288:3292   */\n      0xc0\n        /* \"#utility.yul\":3283:3286   */\n      dup6\n        /* \"#utility.yul\":3279:3293   */\n      add\n        /* \"#utility.yul\":3265:3277   */\n      dup3\n        /* \"#utility.yul\":3237:3294   */\n      tag_100\n      jump\t// in\n    tag_172:\n        /* \"#utility.yul\":3142:3304   */\n      pop\n        /* \"#utility.yul\":3388:3392   */\n      0xe0\n        /* \"#utility.yul\":3381:3386   */\n      dup3\n        /* \"#utility.yul\":3377:3393   */\n      add\n        /* \"#utility.yul\":3371:3394   */\n      mload\n        /* \"#utility.yul\":3407:3470   */\n      tag_173\n        /* \"#utility.yul\":3464:3468   */\n      0xe0\n        /* \"#utility.yul\":3459:3462   */\n      dup6\n        /* \"#utility.yul\":3455:3469   */\n      add\n        /* \"#utility.yul\":3441:3453   */\n      dup3\n        /* \"#utility.yul\":3407:3470   */\n      tag_98\n      jump\t// in\n    tag_173:\n        /* \"#utility.yul\":3314:3480   */\n      pop\n        /* \"#utility.yul\":2035:3487   */\n      pop\n        /* \"#utility.yul\":1929:3487   */\n      pop\n      pop\n      jump\t// out\n        /* \"#utility.yul\":3493:3796   */\n    tag_13:\n        /* \"#utility.yul\":3626:3630   */\n      0x00\n        /* \"#utility.yul\":3664:3667   */\n      0x0100\n        /* \"#utility.yul\":3653:3662   */\n      dup3\n        /* \"#utility.yul\":3649:3668   */\n      add\n        /* \"#utility.yul\":3641:3668   */\n      swap1\n      pop\n        /* \"#utility.yul\":3678:3789   */\n      tag_175\n        /* \"#utility.yul\":3786:3787   */\n      0x00\n        /* \"#utility.yul\":3775:3784   */\n      dup4\n        /* \"#utility.yul\":3771:3788   */\n      add\n        /* \"#utility.yul\":3762:3768   */\n      dup5\n        /* \"#utility.yul\":3678:3789   */\n      tag_101\n      jump\t// in\n    tag_175:\n        /* \"#utility.yul\":3493:3796   */\n      swap3\n      swap2\n      pop\n      pop\n      jump\t// out\n        /* \"#utility.yul\":3802:4276   */\n    tag_17:\n        /* \"#utility.yul\":3870:3876   */\n      0x00\n        /* \"#utility.yul\":3878:3884   */\n      0x00\n        /* \"#utility.yul\":3927:3929   */\n      0x40\n        /* \"#utility.yul\":3915:3924   */\n      dup4\n        /* \"#utility.yul\":3906:3913   */\n      dup6\n        /* \"#utility.yul\":3902:3925   */\n      sub\n        /* \"#utility.yul\":3898:3930   */\n      slt\n        /* \"#utility.yul\":3895:4014   */\n      iszero\n      tag_177\n      jumpi\n        /* \"#utility.yul\":3933:4012   */\n      tag_178\n      tag_88\n      jump\t// in\n    tag_178:\n        /* \"#utility.yul\":3895:4014   */\n    tag_177:\n        /* \"#utility.yul\":4053:4054   */\n      0x00\n        /* \"#utility.yul\":4078:4131   */\n      tag_179\n        /* \"#utility.yul\":4123:4130   */\n      dup6\n        /* \"#utility.yul\":4114:4120   */\n      dup3\n        /* \"#utility.yul\":4103:4112   */\n      dup7\n        /* \"#utility.yul\":4099:4121   */\n      add\n        /* \"#utility.yul\":4078:4131   */\n      tag_92\n      jump\t// in\n    tag_179:\n        /* \"#utility.yul\":4068:4131   */\n      swap3\n      pop\n        /* \"#utility.yul\":4024:4141   */\n      pop\n        /* \"#utility.yul\":4180:4182   */\n      0x20\n        /* \"#utility.yul\":4206:4259   */\n      tag_180\n        /* \"#utility.yul\":4251:4258   */\n      dup6\n        /* \"#utility.yul\":4242:4248   */\n      dup3\n        /* \"#utility.yul\":4231:4240   */\n      dup7\n        /* \"#utility.yul\":4227:4249   */\n      add\n        /* \"#utility.yul\":4206:4259   */\n      tag_92\n      jump\t// in\n    tag_180:\n        /* \"#utility.yul\":4196:4259   */\n      swap2\n      pop\n        /* \"#utility.yul\":4151:4269   */\n      pop\n        /* \"#utility.yul\":3802:4276   */\n      swap3\n      pop\n      swap3\n      swap1\n      pop\n      jump\t// out\n        /* \"#utility.yul\":4282:4404   */\n    tag_102:\n        /* \"#utility.yul\":4355:4379   */\n      tag_182\n        /* \"#utility.yul\":4373:4378   */\n      dup2\n        /* \"#utility.yul\":4355:4379   */\n      tag_94\n      jump\t// in\n    tag_182:\n        /* \"#utility.yul\":4348:4353   */\n      dup2\n        /* \"#utility.yul\":4345:4380   */\n      eq\n        /* \"#utility.yul\":4335:4398   */\n      tag_183\n      jumpi\n        /* \"#utility.yul\":4394:4395   */\n      0x00\n        /* \"#utility.yul\":4391:4392   */\n      0x00\n        /* \"#utility.yul\":4384:4396   */\n      revert\n        /* \"#utility.yul\":4335:4398   */\n    tag_183:\n        /* \"#utility.yul\":4282:4404   */\n      pop\n      jump\t// out\n        /* \"#utility.yul\":4410:4549   */\n    tag_103:\n        /* \"#utility.yul\":4456:4461   */\n      0x00\n        /* \"#utility.yul\":4494:4500   */\n      dup2\n        /* \"#utility.yul\":4481:4501   */\n      calldataload\n        /* \"#utility.yul\":4472:4501   */\n      swap1\n      pop\n        /* \"#utility.yul\":4510:4543   */\n      tag_185\n        /* \"#utility.yul\":4537:4542   */\n      dup2\n        /* \"#utility.yul\":4510:4543   */\n      tag_102\n      jump\t// in\n    tag_185:\n        /* \"#utility.yul\":4410:4549   */\n      swap3\n      swap2\n      pop\n      pop\n      jump\t// out\n        /* \"#utility.yul\":4555:4677   */\n    tag_104:\n        /* \"#utility.yul\":4628:4652   */\n      tag_187\n        /* \"#utility.yul\":4646:4651   */\n      dup2\n        /* \"#utility.yul\":4628:4652   */\n      tag_96\n      jump\t// in\n    tag_187:\n        /* \"#utility.yul\":4621:4626   */\n      dup2\n        /* \"#utility.yul\":4618:4653   */\n      eq\n        /* \"#utility.yul\":4608:4671   */\n      tag_188\n      jumpi\n        /* \"#utility.yul\":4667:4668   */\n      0x00\n        /* \"#utility.yul\":4664:4665   */\n      0x00\n        /* \"#utility.yul\":4657:4669   */\n      revert\n        /* \"#utility.yul\":4608:4671   */\n    tag_188:\n        /* \"#utility.yul\":4555:4677   */\n      pop\n      jump\t// out\n        /* \"#utility.yul\":4683:4822   */\n    tag_105:\n        /* \"#utility.yul\":4729:4734   */\n      0x00\n        /* \"#utility.yul\":4767:4773   */\n      dup2\n        /* \"#utility.yul\":4754:4774   */\n      calldataload\n        /* \"#utility.yul\":4745:4774   */\n      swap1\n      pop\n        /* \"#utility.yul\":4783:4816   */\n      tag_190\n        /* \"#utility.yul\":4810:4815   */\n      dup2\n        /* \"#utility.yul\":4783:4816   */\n      tag_104\n      jump\t// in\n    tag_190:\n        /* \"#utility.yul\":4683:4822   */\n      swap3\n      swap2\n      pop\n      pop\n      jump\t// out\n        /* \"#utility.yul\":4828:5447   */\n    tag_25:\n        /* \"#utility.yul\":4905:4911   */\n      0x00\n        /* \"#utility.yul\":4913:4919   */\n      0x00\n        /* \"#utility.yul\":4921:4927   */\n      0x00\n        /* \"#utility.yul\":4970:4972   */\n      0x60\n        /* \"#utility.yul\":4958:4967   */\n      dup5\n        /* \"#utility.yul\":4949:4956   */\n      dup7\n        /* \"#utility.yul\":4945:4968   */\n      sub\n        /* \"#utility.yul\":4941:4973   */\n      slt\n        /* \"#utility.yul\":4938:5057   */\n      iszero\n      tag_192\n      jumpi\n        /* \"#utility.yul\":4976:5055   */\n      tag_193\n      tag_88\n      jump\t// in\n    tag_193:\n        /* \"#utility.yul\":4938:5057   */\n    tag_192:\n        /* \"#utility.yul\":5096:5097   */\n      0x00\n        /* \"#utility.yul\":5121:5174   */\n      tag_194\n        /* \"#utility.yul\":5166:5173   */\n      dup7\n        /* \"#utility.yul\":5157:5163   */\n      dup3\n        /* \"#utility.yul\":5146:5155   */\n      dup8\n        /* \"#utility.yul\":5142:5164   */\n      add\n        /* \"#utility.yul\":5121:5174   */\n      tag_103\n      jump\t// in\n    tag_194:\n        /* \"#utility.yul\":5111:5174   */\n      swap4\n      pop\n        /* \"#utility.yul\":5067:5184   */\n      pop\n        /* \"#utility.yul\":5223:5225   */\n      0x20\n        /* \"#utility.yul\":5249:5302   */\n      tag_195\n        /* \"#utility.yul\":5294:5301   */\n      dup7\n        /* \"#utility.yul\":5285:5291   */\n      dup3\n        /* \"#utility.yul\":5274:5283   */\n      dup8\n        /* \"#utility.yul\":5270:5292   */\n      add\n        /* \"#utility.yul\":5249:5302   */\n      tag_92\n      jump\t// in\n    tag_195:\n        /* \"#utility.yul\":5239:5302   */\n      swap3\n      pop\n        /* \"#utility.yul\":5194:5312   */\n      pop\n        /* \"#utility.yul\":5351:5353   */\n      0x40\n        /* \"#utility.yul\":5377:5430   */\n      tag_196\n        /* \"#utility.yul\":5422:5429   */\n      dup7\n        /* \"#utility.yul\":5413:5419   */\n      dup3\n        /* \"#utility.yul\":5402:5411   */\n      dup8\n        /* \"#utility.yul\":5398:5420   */\n      add\n        /* \"#utility.yul\":5377:5430   */\n      tag_105\n      jump\t// in\n    tag_196:\n        /* \"#utility.yul\":5367:5430   */\n      swap2\n      pop\n        /* \"#utility.yul\":5322:5440   */\n      pop\n        /* \"#utility.yul\":4828:5447   */\n      swap3\n      pop\n      swap3\n      pop\n      swap3\n      jump\t// out\n        /* \"#utility.yul\":5453:5571   */\n    tag_106:\n        /* \"#utility.yul\":5540:5564   */\n      tag_198\n        /* \"#utility.yul\":5558:5563   */\n      dup2\n        /* \"#utility.yul\":5540:5564   */\n      tag_90\n      jump\t// in\n    tag_198:\n        /* \"#utility.yul\":5535:5538   */\n      dup3\n        /* \"#utility.yul\":5528:5565   */\n      mstore\n        /* \"#utility.yul\":5453:5571   */\n      pop\n      pop\n      jump\t// out\n        /* \"#utility.yul\":5577:5799   */\n    tag_28:\n        /* \"#utility.yul\":5670:5674   */\n      0x00\n        /* \"#utility.yul\":5708:5710   */\n      0x20\n        /* \"#utility.yul\":5697:5706   */\n      dup3\n        /* \"#utility.yul\":5693:5711   */\n      add\n        /* \"#utility.yul\":5685:5711   */\n      swap1\n      pop\n        /* \"#utility.yul\":5721:5792   */\n      tag_200\n        /* \"#utility.yul\":5789:5790   */\n      0x00\n        /* \"#utility.yul\":5778:5787   */\n      dup4\n        /* \"#utility.yul\":5774:5791   */\n      add\n        /* \"#utility.yul\":5765:5771   */\n      dup5\n        /* \"#utility.yul\":5721:5792   */\n      tag_106\n      jump\t// in\n    tag_200:\n        /* \"#utility.yul\":5577:5799   */\n      swap3\n      swap2\n      pop\n      pop\n      jump\t// out\n        /* \"#utility.yul\":5805:5923   */\n    tag_107:\n        /* \"#utility.yul\":5892:5916   */\n      tag_202\n        /* \"#utility.yul\":5910:5915   */\n      dup2\n        /* \"#utility.yul\":5892:5916   */\n      tag_94\n      jump\t// in\n    tag_202:\n        /* \"#utility.yul\":5887:5890   */\n      dup3\n        /* \"#utility.yul\":5880:5917   */\n      mstore\n        /* \"#utility.yul\":5805:5923   */\n      pop\n      pop\n      jump\t// out\n        /* \"#utility.yul\":5929:6047   */\n    tag_108:\n        /* \"#utility.yul\":6016:6040   */\n      tag_204\n        /* \"#utility.yul\":6034:6039   */\n      dup2\n        /* \"#utility.yul\":6016:6040   */\n      tag_96\n      jump\t// in\n    tag_204:\n        /* \"#utility.yul\":6011:6014   */\n      dup3\n        /* \"#utility.yul\":6004:6041   */\n      mstore\n        /* \"#utility.yul\":5929:6047   */\n      pop\n      pop\n      jump\t// out\n        /* \"#utility.yul\":6053:6162   */\n    tag_109:\n        /* \"#utility.yul\":6134:6155   */\n      tag_206\n        /* \"#utility.yul\":6149:6154   */\n      dup2\n        /* \"#utility.yul\":6134:6155   */\n      tag_99\n      jump\t// in\n    tag_206:\n        /* \"#utility.yul\":6129:6132   */\n      dup3\n        /* \"#utility.yul\":6122:6156   */\n      mstore\n        /* \"#utility.yul\":6053:6162   */\n      pop\n      pop\n      jump\t// out\n        /* \"#utility.yul\":6168:7141   */\n    tag_34:\n        /* \"#utility.yul\":6445:6449   */\n      0x00\n        /* \"#utility.yul\":6483:6486   */\n      0x0100\n        /* \"#utility.yul\":6472:6481   */\n      dup3\n        /* \"#utility.yul\":6468:6487   */\n      add\n        /* \"#utility.yul\":6460:6487   */\n      swap1\n      pop\n        /* \"#utility.yul\":6497:6568   */\n      tag_208\n        /* \"#utility.yul\":6565:6566   */\n      0x00\n        /* \"#utility.yul\":6554:6563   */\n      dup4\n        /* \"#utility.yul\":6550:6567   */\n      add\n        /* \"#utility.yul\":6541:6547   */\n      dup12\n        /* \"#utility.yul\":6497:6568   */\n      tag_107\n      jump\t// in\n    tag_208:\n        /* \"#utility.yul\":6578:6650   */\n      tag_209\n        /* \"#utility.yul\":6646:6648   */\n      0x20\n        /* \"#utility.yul\":6635:6644   */\n      dup4\n        /* \"#utility.yul\":6631:6649   */\n      add\n        /* \"#utility.yul\":6622:6628   */\n      dup11\n        /* \"#utility.yul\":6578:6650   */\n      tag_107\n      jump\t// in\n    tag_209:\n        /* \"#utility.yul\":6660:6732   */\n      tag_210\n        /* \"#utility.yul\":6728:6730   */\n      0x40\n        /* \"#utility.yul\":6717:6726   */\n      dup4\n        /* \"#utility.yul\":6713:6731   */\n      add\n        /* \"#utility.yul\":6704:6710   */\n      dup10\n        /* \"#utility.yul\":6660:6732   */\n      tag_108\n      jump\t// in\n    tag_210:\n        /* \"#utility.yul\":6742:6814   */\n      tag_211\n        /* \"#utility.yul\":6810:6812   */\n      0x60\n        /* \"#utility.yul\":6799:6808   */\n      dup4\n        /* \"#utility.yul\":6795:6813   */\n      add\n        /* \"#utility.yul\":6786:6792   */\n      dup9\n        /* \"#utility.yul\":6742:6814   */\n      tag_108\n      jump\t// in\n    tag_211:\n        /* \"#utility.yul\":6824:6897   */\n      tag_212\n        /* \"#utility.yul\":6892:6895   */\n      0x80\n        /* \"#utility.yul\":6881:6890   */\n      dup4\n        /* \"#utility.yul\":6877:6896   */\n      add\n        /* \"#utility.yul\":6868:6874   */\n      dup8\n        /* \"#utility.yul\":6824:6897   */\n      tag_106\n      jump\t// in\n    tag_212:\n        /* \"#utility.yul\":6907:6974   */\n      tag_213\n        /* \"#utility.yul\":6969:6972   */\n      0xa0\n        /* \"#utility.yul\":6958:6967   */\n      dup4\n        /* \"#utility.yul\":6954:6973   */\n      add\n        /* \"#utility.yul\":6945:6951   */\n      dup7\n        /* \"#utility.yul\":6907:6974   */\n      tag_109\n      jump\t// in\n    tag_213:\n        /* \"#utility.yul\":6984:7051   */\n      tag_214\n        /* \"#utility.yul\":7046:7049   */\n      0xc0\n        /* \"#utility.yul\":7035:7044   */\n      dup4\n        /* \"#utility.yul\":7031:7050   */\n      add\n        /* \"#utility.yul\":7022:7028   */\n      dup6\n        /* \"#utility.yul\":6984:7051   */\n      tag_109\n      jump\t// in\n    tag_214:\n        /* \"#utility.yul\":7061:7134   */\n      tag_215\n        /* \"#utility.yul\":7129:7132   */\n      0xe0\n        /* \"#utility.yul\":7118:7127   */\n      dup4\n        /* \"#utility.yul\":7114:7133   */\n      add\n        /* \"#utility.yul\":7105:7111   */\n      dup5\n        /* \"#utility.yul\":7061:7134   */\n      tag_106\n      jump\t// in\n    tag_215:\n        /* \"#utility.yul\":6168:7141   */\n      swap10\n      swap9\n      pop\n      pop\n      pop\n      pop\n      pop\n      pop\n      pop\n      pop\n      pop\n      jump\t// out\n        /* \"#utility.yul\":7147:7316   */\n    tag_110:\n        /* \"#utility.yul\":7231:7242   */\n      0x00\n        /* \"#utility.yul\":7265:7271   */\n      dup3\n        /* \"#utility.yul\":7260:7263   */\n      dup3\n        /* \"#utility.yul\":7253:7272   */\n      mstore\n        /* \"#utility.yul\":7305:7309   */\n      0x20\n        /* \"#utility.yul\":7300:7303   */\n      dup3\n        /* \"#utility.yul\":7296:7310   */\n      add\n        /* \"#utility.yul\":7281:7310   */\n      swap1\n      pop\n        /* \"#utility.yul\":7147:7316   */\n      swap3\n      swap2\n      pop\n      pop\n      jump\t// out\n        /* \"#utility.yul\":7322:7484   */\n    tag_111:\n        /* \"#utility.yul\":7462:7476   */\n      0x4e6f742072656365697665720000000000000000000000000000000000000000\n        /* \"#utility.yul\":7458:7459   */\n      0x00\n        /* \"#utility.yul\":7450:7456   */\n      dup3\n        /* \"#utility.yul\":7446:7460   */\n      add\n        /* \"#utility.yul\":7439:7477   */\n      mstore\n        /* \"#utility.yul\":7322:7484   */\n      pop\n      jump\t// out\n        /* \"#utility.yul\":7490:7856   */\n    tag_112:\n        /* \"#utility.yul\":7632:7635   */\n      0x00\n        /* \"#utility.yul\":7653:7720   */\n      tag_219\n        /* \"#utility.yul\":7717:7719   */\n      0x0c\n        /* \"#utility.yul\":7712:7715   */\n      dup4\n        /* \"#utility.yul\":7653:7720   */\n      tag_110\n      jump\t// in\n    tag_219:\n        /* \"#utility.yul\":7646:7720   */\n      swap2\n      pop\n        /* \"#utility.yul\":7729:7822   */\n      tag_220\n        /* \"#utility.yul\":7818:7821   */\n      dup3\n        /* \"#utility.yul\":7729:7822   */\n      tag_111\n      jump\t// in\n    tag_220:\n        /* \"#utility.yul\":7847:7849   */\n      0x20\n        /* \"#utility.yul\":7842:7845   */\n      dup3\n        /* \"#utility.yul\":7838:7850   */\n      add\n        /* \"#utility.yul\":7831:7850   */\n      swap1\n      pop\n        /* \"#utility.yul\":7490:7856   */\n      swap2\n      swap1\n      pop\n      jump\t// out\n        /* \"#utility.yul\":7862:8281   */\n    tag_41:\n        /* \"#utility.yul\":8028:8032   */\n      0x00\n        /* \"#utility.yul\":8066:8068   */\n      0x20\n        /* \"#utility.yul\":8055:8064   */\n      dup3\n        /* \"#utility.yul\":8051:8069   */\n      add\n        /* \"#utility.yul\":8043:8069   */\n      swap1\n      pop\n        /* \"#utility.yul\":8115:8124   */\n      dup2\n        /* \"#utility.yul\":8109:8113   */\n      dup2\n        /* \"#utility.yul\":8105:8125   */\n      sub\n        /* \"#utility.yul\":8101:8102   */\n      0x00\n        /* \"#utility.yul\":8090:8099   */\n      dup4\n        /* \"#utility.yul\":8086:8103   */\n      add\n        /* \"#utility.yul\":8079:8126   */\n      mstore\n        /* \"#utility.yul\":8143:8274   */\n      tag_222\n        /* \"#utility.yul\":8269:8273   */\n      dup2\n        /* \"#utility.yul\":8143:8274   */\n      tag_112\n      jump\t// in\n    tag_222:\n        /* \"#utility.yul\":8135:8274   */\n      swap1\n      pop\n        /* \"#utility.yul\":7862:8281   */\n      swap2\n      swap1\n      pop\n      jump\t// out\n        /* \"#utility.yul\":8287:8454   */\n    tag_113:\n        /* \"#utility.yul\":8427:8446   */\n      0x416c72656164792077697468647261776e000000000000000000000000000000\n        /* \"#utility.yul\":8423:8424   */\n      0x00\n        /* \"#utility.yul\":8415:8421   */\n      dup3\n        /* \"#utility.yul\":8411:8425   */\n      add\n        /* \"#utility.yul\":8404:8447   */\n      mstore\n        /* \"#utility.yul\":8287:8454   */\n      pop\n      jump\t// out\n        /* \"#utility.yul\":8460:8826   */\n    tag_114:\n        /* \"#utility.yul\":8602:8605   */\n      0x00\n        /* \"#utility.yul\":8623:8690   */\n      tag_225\n        /* \"#utility.yul\":8687:8689   */\n      0x11\n        /* \"#utility.yul\":8682:8685   */\n      dup4\n        /* \"#utility.yul\":8623:8690   */\n      tag_110\n      jump\t// in\n    tag_225:\n        /* \"#utility.yul\":8616:8690   */\n      swap2\n      pop\n        /* \"#utility.yul\":8699:8792   */\n      tag_226\n        /* \"#utility.yul\":8788:8791   */\n      dup3\n        /* \"#utility.yul\":8699:8792   */\n      tag_113\n      jump\t// in\n    tag_226:\n        /* \"#utility.yul\":8817:8819   */\n      0x20\n        /* \"#utility.yul\":8812:8815   */\n      dup3\n        /* \"#utility.yul\":8808:8820   */\n      add\n        /* \"#utility.yul\":8801:8820   */\n      swap1\n      pop\n        /* \"#utility.yul\":8460:8826   */\n      swap2\n      swap1\n      pop\n      jump\t// out\n        /* \"#utility.yul\":8832:9251   */\n    tag_44:\n        /* \"#utility.yul\":8998:9002   */\n      0x00\n        /* \"#utility.yul\":9036:9038   */\n      0x20\n        /* \"#utility.yul\":9025:9034   */\n      dup3\n        /* \"#utility.yul\":9021:9039   */\n      add\n        /* \"#utility.yul\":9013:9039   */\n      swap1\n      pop\n        /* \"#utility.yul\":9085:9094   */\n      dup2\n        /* \"#utility.yul\":9079:9083   */\n      dup2\n        /* \"#utility.yul\":9075:9095   */\n      sub\n        /* \"#utility.yul\":9071:9072   */\n      0x00\n        /* \"#utility.yul\":9060:9069   */\n      dup4\n        /* \"#utility.yul\":9056:9073   */\n      add\n        /* \"#utility.yul\":9049:9096   */\n      mstore\n        /* \"#utility.yul\":9113:9244   */\n      tag_228\n        /* \"#utility.yul\":9239:9243   */\n      dup2\n        /* \"#utility.yul\":9113:9244   */\n      tag_114\n      jump\t// in\n    tag_228:\n        /* \"#utility.yul\":9105:9244   */\n      swap1\n      pop\n        /* \"#utility.yul\":8832:9251   */\n      swap2\n      swap1\n      pop\n      jump\t// out\n        /* \"#utility.yul\":9257:9423   */\n    tag_115:\n        /* \"#utility.yul\":9397:9415   */\n      0x416c726561647920726566756e64656400000000000000000000000000000000\n        /* \"#utility.yul\":9393:9394   */\n      0x00\n        /* \"#utility.yul\":9385:9391   */\n      dup3\n        /* \"#utility.yul\":9381:9395   */\n      add\n        /* \"#utility.yul\":9374:9416   */\n      mstore\n        /* \"#utility.yul\":9257:9423   */\n      pop\n      jump\t// out\n        /* \"#utility.yul\":9429:9795   */\n    tag_116:\n        /* \"#utility.yul\":9571:9574   */\n      0x00\n        /* \"#utility.yul\":9592:9659   */\n      tag_231\n        /* \"#utility.yul\":9656:9658   */\n      0x10\n        /* \"#utility.yul\":9651:9654   */\n      dup4\n        /* \"#utility.yul\":9592:9659   */\n      tag_110\n      jump\t// in\n    tag_231:\n        /* \"#utility.yul\":9585:9659   */\n      swap2\n      pop\n        /* \"#utility.yul\":9668:9761   */\n      tag_232\n        /* \"#utility.yul\":9757:9760   */\n      dup3\n        /* \"#utility.yul\":9668:9761   */\n      tag_115\n      jump\t// in\n    tag_232:\n        /* \"#utility.yul\":9786:9788   */\n      0x20\n        /* \"#utility.yul\":9781:9784   */\n      dup3\n        /* \"#utility.yul\":9777:9789   */\n      add\n        /* \"#utility.yul\":9770:9789   */\n      swap1\n      pop\n        /* \"#utility.yul\":9429:9795   */\n      swap2\n      swap1\n      pop\n      jump\t// out\n        /* \"#utility.yul\":9801:10220   */\n    tag_47:\n        /* \"#utility.yul\":9967:9971   */\n      0x00\n        /* \"#utility.yul\":10005:10007   */\n      0x20\n        /* \"#utility.yul\":9994:10003   */\n      dup3\n        /* \"#utility.yul\":9990:10008   */\n      add\n        /* \"#utility.yul\":9982:10008   */\n      swap1\n      pop\n        /* \"#utility.yul\":10054:10063   */\n      dup2\n        /* \"#utility.yul\":10048:10052   */\n      dup2\n        /* \"#utility.yul\":10044:10064   */\n      sub\n        /* \"#utility.yul\":10040:10041   */\n      0x00\n        /* \"#utility.yul\":10029:10038   */\n      dup4\n        /* \"#utility.yul\":10025:10042   */\n      add\n        /* \"#utility.yul\":10018:10065   */\n      mstore\n        /* \"#utility.yul\":10082:10213   */\n      tag_234\n        /* \"#utility.yul\":10208:10212   */\n      dup2\n        /* \"#utility.yul\":10082:10213   */\n      tag_116\n      jump\t// in\n    tag_234:\n        /* \"#utility.yul\":10074:10213   */\n      swap1\n      pop\n        /* \"#utility.yul\":9801:10220   */\n      swap2\n      swap1\n      pop\n      jump\t// out\n        /* \"#utility.yul\":10226:10392   */\n    tag_117:\n        /* \"#utility.yul\":10366:10384   */\n      0x54696d656c6f636b206578706972656400000000000000000000000000000000\n        /* \"#utility.yul\":10362:10363   */\n      0x00\n        /* \"#utility.yul\":10354:10360   */\n      dup3\n        /* \"#utility.yul\":10350:10364   */\n      add\n        /* \"#utility.yul\":10343:10385   */\n      mstore\n        /* \"#utility.yul\":10226:10392   */\n      pop\n      jump\t// out\n        /* \"#utility.yul\":10398:10764   */\n    tag_118:\n        /* \"#utility.yul\":10540:10543   */\n      0x00\n        /* \"#utility.yul\":10561:10628   */\n      tag_237\n        /* \"#utility.yul\":10625:10627   */\n      0x10\n        /* \"#utility.yul\":10620:10623   */\n      dup4\n        /* \"#utility.yul\":10561:10628   */\n      tag_110\n      jump\t// in\n    tag_237:\n        /* \"#utility.yul\":10554:10628   */\n      swap2\n      pop\n        /* \"#utility.yul\":10637:10730   */\n      tag_238\n        /* \"#utility.yul\":10726:10729   */\n      dup3\n        /* \"#utility.yul\":10637:10730   */\n      tag_117\n      jump\t// in\n    tag_238:\n        /* \"#utility.yul\":10755:10757   */\n      0x20\n        /* \"#utility.yul\":10750:10753   */\n      dup3\n        /* \"#utility.yul\":10746:10758   */\n      add\n        /* \"#utility.yul\":10739:10758   */\n      swap1\n      pop\n        /* \"#utility.yul\":10398:10764   */\n      swap2\n      swap1\n      pop\n      jump\t// out\n        /* \"#utility.yul\":10770:11189   */\n    tag_50:\n        /* \"#utility.yul\":10936:10940   */\n      0x00\n        /* \"#utility.yul\":10974:10976   */\n      0x20\n        /* \"#utility.yul\":10963:10972   */\n      dup3\n        /* \"#utility.yul\":10959:10977   */\n      add\n        /* \"#utility.yul\":10951:10977   */\n      swap1\n      pop\n        /* \"#utility.yul\":11023:11032   */\n      dup2\n        /* \"#utility.yul\":11017:11021   */\n      dup2\n        /* \"#utility.yul\":11013:11033   */\n      sub\n        /* \"#utility.yul\":11009:11010   */\n      0x00\n        /* \"#utility.yul\":10998:11007   */\n      dup4\n        /* \"#utility.yul\":10994:11011   */\n      add\n        /* \"#utility.yul\":10987:11034   */\n      mstore\n        /* \"#utility.yul\":11051:11182   */\n      tag_240\n        /* \"#utility.yul\":11177:11181   */\n      dup2\n        /* \"#utility.yul\":11051:11182   */\n      tag_118\n      jump\t// in\n    tag_240:\n        /* \"#utility.yul\":11043:11182   */\n      swap1\n      pop\n        /* \"#utility.yul\":10770:11189   */\n      swap2\n      swap1\n      pop\n      jump\t// out\n        /* \"#utility.yul\":11195:11274   */\n    tag_119:\n        /* \"#utility.yul\":11234:11241   */\n      0x00\n        /* \"#utility.yul\":11263:11268   */\n      dup2\n        /* \"#utility.yul\":11252:11268   */\n      swap1\n      pop\n        /* \"#utility.yul\":11195:11274   */\n      swap2\n      swap1\n      pop\n      jump\t// out\n        /* \"#utility.yul\":11280:11437   */\n    tag_120:\n        /* \"#utility.yul\":11385:11430   */\n      tag_243\n        /* \"#utility.yul\":11405:11429   */\n      tag_244\n        /* \"#utility.yul\":11423:11428   */\n      dup3\n        /* \"#utility.yul\":11405:11429   */\n      tag_90\n      jump\t// in\n    tag_244:\n        /* \"#utility.yul\":11385:11430   */\n      tag_119\n      jump\t// in\n    tag_243:\n        /* \"#utility.yul\":11380:11383   */\n      dup3\n        /* \"#utility.yul\":11373:11431   */\n      mstore\n        /* \"#utility.yul\":11280:11437   */\n      pop\n      pop\n      jump\t// out\n        /* \"#utility.yul\":11443:11699   */\n    tag_52:\n        /* \"#utility.yul\":11555:11558   */\n      0x00\n        /* \"#utility.yul\":11570:11645   */\n      tag_246\n        /* \"#utility.yul\":11641:11644   */\n      dup3\n        /* \"#utility.yul\":11632:11638   */\n      dup5\n        /* \"#utility.yul\":11570:11645   */\n      tag_120\n      jump\t// in\n    tag_246:\n        /* \"#utility.yul\":11670:11672   */\n      0x20\n        /* \"#utility.yul\":11665:11668   */\n      dup3\n        /* \"#utility.yul\":11661:11673   */\n      add\n        /* \"#utility.yul\":11654:11673   */\n      swap2\n      pop\n        /* \"#utility.yul\":11690:11693   */\n      dup2\n        /* \"#utility.yul\":11683:11693   */\n      swap1\n      pop\n        /* \"#utility.yul\":11443:11699   */\n      swap3\n      swap2\n      pop\n      pop\n      jump\t// out\n        /* \"#utility.yul\":11705:11869   */\n    tag_121:\n        /* \"#utility.yul\":11845:11861   */\n      0x496e76616c696420736563726574000000000000000000000000000000000000\n        /* \"#utility.yul\":11841:11842   */\n      0x00\n        /* \"#utility.yul\":11833:11839   */\n      dup3\n        /* \"#utility.yul\":11829:11843   */\n      add\n        /* \"#utility.yul\":11822:11862   */\n      mstore\n        /* \"#utility.yul\":11705:11869   */\n      pop\n      jump\t// out\n        /* \"#utility.yul\":11875:12241   */\n    tag_122:\n        /* \"#utility.yul\":12017:12020   */\n      0x00\n        /* \"#utility.yul\":12038:12105   */\n      tag_249\n        /* \"#utility.yul\":12102:12104   */\n      0x0e\n        /* \"#utility.yul\":12097:12100   */\n      dup4\n        /* \"#utility.yul\":12038:12105   */\n      tag_110\n      jump\t// in\n    tag_249:\n        /* \"#utility.yul\":12031:12105   */\n      swap2\n      pop\n        /* \"#utility.yul\":12114:12207   */\n      tag_250\n        /* \"#utility.yul\":12203:12206   */\n      dup3\n        /* \"#utility.yul\":12114:12207   */\n      tag_121\n      jump\t// in\n    tag_250:\n        /* \"#utility.yul\":12232:12234   */\n      0x20\n        /* \"#utility.yul\":12227:12230   */\n      dup3\n        /* \"#utility.yul\":12223:12235   */\n      add\n        /* \"#utility.yul\":12216:12235   */\n      swap1\n      pop\n        /* \"#utility.yul\":11875:12241   */\n      swap2\n      swap1\n      pop\n      jump\t// out\n        /* \"#utility.yul\":12247:12666   */\n    tag_55:\n        /* \"#utility.yul\":12413:12417   */\n      0x00\n        /* \"#utility.yul\":12451:12453   */\n      0x20\n        /* \"#utility.yul\":12440:12449   */\n      dup3\n        /* \"#utility.yul\":12436:12454   */\n      add\n        /* \"#utility.yul\":12428:12454   */\n      swap1\n      pop\n        /* \"#utility.yul\":12500:12509   */\n      dup2\n        /* \"#utility.yul\":12494:12498   */\n      dup2\n        /* \"#utility.yul\":12490:12510   */\n      sub\n        /* \"#utility.yul\":12486:12487   */\n      0x00\n        /* \"#utility.yul\":12475:12484   */\n      dup4\n        /* \"#utility.yul\":12471:12488   */\n      add\n        /* \"#utility.yul\":12464:12511   */\n      mstore\n        /* \"#utility.yul\":12528:12659   */\n      tag_252\n        /* \"#utility.yul\":12654:12658   */\n      dup2\n        /* \"#utility.yul\":12528:12659   */\n      tag_122\n      jump\t// in\n    tag_252:\n        /* \"#utility.yul\":12520:12659   */\n      swap1\n      pop\n        /* \"#utility.yul\":12247:12666   */\n      swap2\n      swap1\n      pop\n      jump\t// out\n        /* \"#utility.yul\":12672:12832   */\n    tag_123:\n        /* \"#utility.yul\":12812:12824   */\n      0x4e6f742073656e64657200000000000000000000000000000000000000000000\n        /* \"#utility.yul\":12808:12809   */\n      0x00\n        /* \"#utility.yul\":12800:12806   */\n      dup3\n        /* \"#utility.yul\":12796:12810   */\n      add\n        /* \"#utility.yul\":12789:12825   */\n      mstore\n        /* \"#utility.yul\":12672:12832   */\n      pop\n      jump\t// out\n        /* \"#utility.yul\":12838:13204   */\n    tag_124:\n        /* \"#utility.yul\":12980:12983   */\n      0x00\n        /* \"#utility.yul\":13001:13068   */\n      tag_255\n        /* \"#utility.yul\":13065:13067   */\n      0x0a\n        /* \"#utility.yul\":13060:13063   */\n      dup4\n        /* \"#utility.yul\":13001:13068   */\n      tag_110\n      jump\t// in\n    tag_255:\n        /* \"#utility.yul\":12994:13068   */\n      swap2\n      pop\n        /* \"#utility.yul\":13077:13170   */\n      tag_256\n        /* \"#utility.yul\":13166:13169   */\n      dup3\n        /* \"#utility.yul\":13077:13170   */\n      tag_123\n      jump\t// in\n    tag_256:\n        /* \"#utility.yul\":13195:13197   */\n      0x20\n        /* \"#utility.yul\":13190:13193   */\n      dup3\n        /* \"#utility.yul\":13186:13198   */\n      add\n        /* \"#utility.yul\":13179:13198   */\n      swap1\n      pop\n        /* \"#utility.yul\":12838:13204   */\n      swap2\n      swap1\n      pop\n      jump\t// out\n        /* \"#utility.yul\":13210:13629   */\n    tag_62:\n        /* \"#utility.yul\":13376:13380   */\n      0x00\n        /* \"#utility.yul\":13414:13416   */\n      0x20\n        /* \"#utility.yul\":13403:13412   */\n      dup3\n        /* \"#utility.yul\":13399:13417   */\n      add\n        /* \"#utility.yul\":13391:13417   */\n      swap1\n      pop\n        /* \"#utility.yul\":13463:13472   */\n      dup2\n        /* \"#utility.yul\":13457:13461   */\n      dup2\n        /* \"#utility.yul\":13453:13473   */\n      sub\n        /* \"#utility.yul\":13449:13450   */\n      0x00\n        /* \"#utility.yul\":13438:13447   */\n      dup4\n        /* \"#utility.yul\":13434:13451   */\n      add\n        /* \"#utility.yul\":13427:13474   */\n      mstore\n        /* \"#utility.yul\":13491:13622   */\n      tag_258\n        /* \"#utility.yul\":13617:13621   */\n      dup2\n        /* \"#utility.yul\":13491:13622   */\n      tag_124\n      jump\t// in\n    tag_258:\n        /* \"#utility.yul\":13483:13622   */\n      swap1\n      pop\n        /* \"#utility.yul\":13210:13629   */\n      swap2\n      swap1\n      pop\n      jump\t// out\n        /* \"#utility.yul\":13635:13796   */\n    tag_125:\n        /* \"#utility.yul\":13775:13788   */\n      0x6e6f204554482073656e74000000000000000000000000000000000000000000\n        /* \"#utility.yul\":13771:13772   */\n      0x00\n        /* \"#utility.yul\":13763:13769   */\n      dup3\n        /* \"#utility.yul\":13759:13773   */\n      add\n        /* \"#utility.yul\":13752:13789   */\n      mstore\n        /* \"#utility.yul\":13635:13796   */\n      pop\n      jump\t// out\n        /* \"#utility.yul\":13802:14168   */\n    tag_126:\n        /* \"#utility.yul\":13944:13947   */\n      0x00\n        /* \"#utility.yul\":13965:14032   */\n      tag_261\n        /* \"#utility.yul\":14029:14031   */\n      0x0b\n        /* \"#utility.yul\":14024:14027   */\n      dup4\n        /* \"#utility.yul\":13965:14032   */\n      tag_110\n      jump\t// in\n    tag_261:\n        /* \"#utility.yul\":13958:14032   */\n      swap2\n      pop\n        /* \"#utility.yul\":14041:14134   */\n      tag_262\n        /* \"#utility.yul\":14130:14133   */\n      dup3\n        /* \"#utility.yul\":14041:14134   */\n      tag_125\n      jump\t// in\n    tag_262:\n        /* \"#utility.yul\":14159:14161   */\n      0x20\n        /* \"#utility.yul\":14154:14157   */\n      dup3\n        /* \"#utility.yul\":14150:14162   */\n      add\n        /* \"#utility.yul\":14143:14162   */\n      swap1\n      pop\n        /* \"#utility.yul\":13802:14168   */\n      swap2\n      swap1\n      pop\n      jump\t// out\n        /* \"#utility.yul\":14174:14593   */\n    tag_74:\n        /* \"#utility.yul\":14340:14344   */\n      0x00\n        /* \"#utility.yul\":14378:14380   */\n      0x20\n        /* \"#utility.yul\":14367:14376   */\n      dup3\n        /* \"#utility.yul\":14363:14381   */\n      add\n        /* \"#utility.yul\":14355:14381   */\n      swap1\n      pop\n        /* \"#utility.yul\":14427:14436   */\n      dup2\n        /* \"#utility.yul\":14421:14425   */\n      dup2\n        /* \"#utility.yul\":14417:14437   */\n      sub\n        /* \"#utility.yul\":14413:14414   */\n      0x00\n        /* \"#utility.yul\":14402:14411   */\n      dup4\n        /* \"#utility.yul\":14398:14415   */\n      add\n        /* \"#utility.yul\":14391:14438   */\n      mstore\n        /* \"#utility.yul\":14455:14586   */\n      tag_264\n        /* \"#utility.yul\":14581:14585   */\n      dup2\n        /* \"#utility.yul\":14455:14586   */\n      tag_126\n      jump\t// in\n    tag_264:\n        /* \"#utility.yul\":14447:14586   */\n      swap1\n      pop\n        /* \"#utility.yul\":14174:14593   */\n      swap2\n      swap1\n      pop\n      jump\t// out\n        /* \"#utility.yul\":14599:14764   */\n    tag_127:\n        /* \"#utility.yul\":14739:14756   */\n      0x496e766c69642072656365697665720000000000000000000000000000000000\n        /* \"#utility.yul\":14735:14736   */\n      0x00\n        /* \"#utility.yul\":14727:14733   */\n      dup3\n        /* \"#utility.yul\":14723:14737   */\n      add\n        /* \"#utility.yul\":14716:14757   */\n      mstore\n        /* \"#utility.yul\":14599:14764   */\n      pop\n      jump\t// out\n        /* \"#utility.yul\":14770:15136   */\n    tag_128:\n        /* \"#utility.yul\":14912:14915   */\n      0x00\n        /* \"#utility.yul\":14933:15000   */\n      tag_267\n        /* \"#utility.yul\":14997:14999   */\n      0x0f\n        /* \"#utility.yul\":14992:14995   */\n      dup4\n        /* \"#utility.yul\":14933:15000   */\n      tag_110\n      jump\t// in\n    tag_267:\n        /* \"#utility.yul\":14926:15000   */\n      swap2\n      pop\n        /* \"#utility.yul\":15009:15102   */\n      tag_268\n        /* \"#utility.yul\":15098:15101   */\n      dup3\n        /* \"#utility.yul\":15009:15102   */\n      tag_127\n      jump\t// in\n    tag_268:\n        /* \"#utility.yul\":15127:15129   */\n      0x20\n        /* \"#utility.yul\":15122:15125   */\n      dup3\n        /* \"#utility.yul\":15118:15130   */\n      add\n        /* \"#utility.yul\":15111:15130   */\n      swap1\n      pop\n        /* \"#utility.yul\":14770:15136   */\n      swap2\n      swap1\n      pop\n      jump\t// out\n        /* \"#utility.yul\":15142:15561   */\n    tag_77:\n        /* \"#utility.yul\":15308:15312   */\n      0x00\n        /* \"#utility.yul\":15346:15348   */\n      0x20\n        /* \"#utility.yul\":15335:15344   */\n      dup3\n        /* \"#utility.yul\":15331:15349   */\n      add\n        /* \"#utility.yul\":15323:15349   */\n      swap1\n      pop\n        /* \"#utility.yul\":15395:15404   */\n      dup2\n        /* \"#utility.yul\":15389:15393   */\n      dup2\n        /* \"#utility.yul\":15385:15405   */\n      sub\n        /* \"#utility.yul\":15381:15382   */\n      0x00\n        /* \"#utility.yul\":15370:15379   */\n      dup4\n        /* \"#utility.yul\":15366:15383   */\n      add\n        /* \"#utility.yul\":15359:15406   */\n      mstore\n        /* \"#utility.yul\":15423:15554   */\n      tag_270\n        /* \"#utility.yul\":15549:15553   */\n      dup2\n        /* \"#utility.yul\":15423:15554   */\n      tag_128\n      jump\t// in\n    tag_270:\n        /* \"#utility.yul\":15415:15554   */\n      swap1\n      pop\n        /* \"#utility.yul\":15142:15561   */\n      swap2\n      swap1\n      pop\n      jump\t// out\n        /* \"#utility.yul\":15567:15747   */\n    tag_129:\n        /* \"#utility.yul\":15615:15692   */\n      0x4e487b7100000000000000000000000000000000000000000000000000000000\n        /* \"#utility.yul\":15612:15613   */\n      0x00\n        /* \"#utility.yul\":15605:15693   */\n      mstore\n        /* \"#utility.yul\":15712:15716   */\n      0x11\n        /* \"#utility.yul\":15709:15710   */\n      0x04\n        /* \"#utility.yul\":15702:15717   */\n      mstore\n        /* \"#utility.yul\":15736:15740   */\n      0x24\n        /* \"#utility.yul\":15733:15734   */\n      0x00\n        /* \"#utility.yul\":15726:15741   */\n      revert\n        /* \"#utility.yul\":15753:15944   */\n    tag_79:\n        /* \"#utility.yul\":15793:15796   */\n      0x00\n        /* \"#utility.yul\":15812:15832   */\n      tag_273\n        /* \"#utility.yul\":15830:15831   */\n      dup3\n        /* \"#utility.yul\":15812:15832   */\n      tag_96\n      jump\t// in\n    tag_273:\n        /* \"#utility.yul\":15807:15832   */\n      swap2\n      pop\n        /* \"#utility.yul\":15846:15866   */\n      tag_274\n        /* \"#utility.yul\":15864:15865   */\n      dup4\n        /* \"#utility.yul\":15846:15866   */\n      tag_96\n      jump\t// in\n    tag_274:\n        /* \"#utility.yul\":15841:15866   */\n      swap3\n      pop\n        /* \"#utility.yul\":15889:15890   */\n      dup3\n        /* \"#utility.yul\":15886:15887   */\n      dup3\n        /* \"#utility.yul\":15882:15891   */\n      add\n        /* \"#utility.yul\":15875:15891   */\n      swap1\n      pop\n        /* \"#utility.yul\":15910:15913   */\n      dup1\n        /* \"#utility.yul\":15907:15908   */\n      dup3\n        /* \"#utility.yul\":15904:15914   */\n      gt\n        /* \"#utility.yul\":15901:15937   */\n      iszero\n      tag_275\n      jumpi\n        /* \"#utility.yul\":15917:15935   */\n      tag_276\n      tag_129\n      jump\t// in\n    tag_276:\n        /* \"#utility.yul\":15901:15937   */\n    tag_275:\n        /* \"#utility.yul\":15753:15944   */\n      swap3\n      swap2\n      pop\n      pop\n      jump\t// out\n        /* \"#utility.yul\":15950:16044   */\n    tag_130:\n        /* \"#utility.yul\":15983:15991   */\n      0x00\n        /* \"#utility.yul\":16031:16036   */\n      dup2\n        /* \"#utility.yul\":16027:16029   */\n      0x60\n        /* \"#utility.yul\":16023:16037   */\n      shl\n        /* \"#utility.yul\":16002:16037   */\n      swap1\n      pop\n        /* \"#utility.yul\":15950:16044   */\n      swap2\n      swap1\n      pop\n      jump\t// out\n        /* \"#utility.yul\":16050:16144   */\n    tag_131:\n        /* \"#utility.yul\":16089:16096   */\n      0x00\n        /* \"#utility.yul\":16118:16138   */\n      tag_279\n        /* \"#utility.yul\":16132:16137   */\n      dup3\n        /* \"#utility.yul\":16118:16138   */\n      tag_130\n      jump\t// in\n    tag_279:\n        /* \"#utility.yul\":16107:16138   */\n      swap1\n      pop\n        /* \"#utility.yul\":16050:16144   */\n      swap2\n      swap1\n      pop\n      jump\t// out\n        /* \"#utility.yul\":16150:16250   */\n    tag_132:\n        /* \"#utility.yul\":16189:16196   */\n      0x00\n        /* \"#utility.yul\":16218:16244   */\n      tag_281\n        /* \"#utility.yul\":16238:16243   */\n      dup3\n        /* \"#utility.yul\":16218:16244   */\n      tag_131\n      jump\t// in\n    tag_281:\n        /* \"#utility.yul\":16207:16244   */\n      swap1\n      pop\n        /* \"#utility.yul\":16150:16250   */\n      swap2\n      swap1\n      pop\n      jump\t// out\n        /* \"#utility.yul\":16256:16413   */\n    tag_133:\n        /* \"#utility.yul\":16361:16406   */\n      tag_283\n        /* \"#utility.yul\":16381:16405   */\n      tag_284\n        /* \"#utility.yul\":16399:16404   */\n      dup3\n        /* \"#utility.yul\":16381:16405   */\n      tag_94\n      jump\t// in\n    tag_284:\n        /* \"#utility.yul\":16361:16406   */\n      tag_132\n      jump\t// in\n    tag_283:\n        /* \"#utility.yul\":16356:16359   */\n      dup3\n        /* \"#utility.yul\":16349:16407   */\n      mstore\n        /* \"#utility.yul\":16256:16413   */\n      pop\n      pop\n      jump\t// out\n        /* \"#utility.yul\":16419:16498   */\n    tag_134:\n        /* \"#utility.yul\":16458:16465   */\n      0x00\n        /* \"#utility.yul\":16487:16492   */\n      dup2\n        /* \"#utility.yul\":16476:16492   */\n      swap1\n      pop\n        /* \"#utility.yul\":16419:16498   */\n      swap2\n      swap1\n      pop\n      jump\t// out\n        /* \"#utility.yul\":16504:16661   */\n    tag_135:\n        /* \"#utility.yul\":16609:16654   */\n      tag_287\n        /* \"#utility.yul\":16629:16653   */\n      tag_288\n        /* \"#utility.yul\":16647:16652   */\n      dup3\n        /* \"#utility.yul\":16629:16653   */\n      tag_96\n      jump\t// in\n    tag_288:\n        /* \"#utility.yul\":16609:16654   */\n      tag_134\n      jump\t// in\n    tag_287:\n        /* \"#utility.yul\":16604:16607   */\n      dup3\n        /* \"#utility.yul\":16597:16655   */\n      mstore\n        /* \"#utility.yul\":16504:16661   */\n      pop\n      pop\n      jump\t// out\n        /* \"#utility.yul\":16667:17628   */\n    tag_81:\n        /* \"#utility.yul\":16919:16922   */\n      0x00\n        /* \"#utility.yul\":16934:17009   */\n      tag_290\n        /* \"#utility.yul\":17005:17008   */\n      dup3\n        /* \"#utility.yul\":16996:17002   */\n      dup10\n        /* \"#utility.yul\":16934:17009   */\n      tag_133\n      jump\t// in\n    tag_290:\n        /* \"#utility.yul\":17034:17036   */\n      0x14\n        /* \"#utility.yul\":17029:17032   */\n      dup3\n        /* \"#utility.yul\":17025:17037   */\n      add\n        /* \"#utility.yul\":17018:17037   */\n      swap2\n      pop\n        /* \"#utility.yul\":17047:17122   */\n      tag_291\n        /* \"#utility.yul\":17118:17121   */\n      dup3\n        /* \"#utility.yul\":17109:17115   */\n      dup9\n        /* \"#utility.yul\":17047:17122   */\n      tag_133\n      jump\t// in\n    tag_291:\n        /* \"#utility.yul\":17147:17149   */\n      0x14\n        /* \"#utility.yul\":17142:17145   */\n      dup3\n        /* \"#utility.yul\":17138:17150   */\n      add\n        /* \"#utility.yul\":17131:17150   */\n      swap2\n      pop\n        /* \"#utility.yul\":17160:17235   */\n      tag_292\n        /* \"#utility.yul\":17231:17234   */\n      dup3\n        /* \"#utility.yul\":17222:17228   */\n      dup8\n        /* \"#utility.yul\":17160:17235   */\n      tag_135\n      jump\t// in\n    tag_292:\n        /* \"#utility.yul\":17260:17262   */\n      0x20\n        /* \"#utility.yul\":17255:17258   */\n      dup3\n        /* \"#utility.yul\":17251:17263   */\n      add\n        /* \"#utility.yul\":17244:17263   */\n      swap2\n      pop\n        /* \"#utility.yul\":17273:17348   */\n      tag_293\n        /* \"#utility.yul\":17344:17347   */\n      dup3\n        /* \"#utility.yul\":17335:17341   */\n      dup7\n        /* \"#utility.yul\":17273:17348   */\n      tag_120\n      jump\t// in\n    tag_293:\n        /* \"#utility.yul\":17373:17375   */\n      0x20\n        /* \"#utility.yul\":17368:17371   */\n      dup3\n        /* \"#utility.yul\":17364:17376   */\n      add\n        /* \"#utility.yul\":17357:17376   */\n      swap2\n      pop\n        /* \"#utility.yul\":17386:17461   */\n      tag_294\n        /* \"#utility.yul\":17457:17460   */\n      dup3\n        /* \"#utility.yul\":17448:17454   */\n      dup6\n        /* \"#utility.yul\":17386:17461   */\n      tag_135\n      jump\t// in\n    tag_294:\n        /* \"#utility.yul\":17486:17488   */\n      0x20\n        /* \"#utility.yul\":17481:17484   */\n      dup3\n        /* \"#utility.yul\":17477:17489   */\n      add\n        /* \"#utility.yul\":17470:17489   */\n      swap2\n      pop\n        /* \"#utility.yul\":17499:17574   */\n      tag_295\n        /* \"#utility.yul\":17570:17573   */\n      dup3\n        /* \"#utility.yul\":17561:17567   */\n      dup5\n        /* \"#utility.yul\":17499:17574   */\n      tag_135\n      jump\t// in\n    tag_295:\n        /* \"#utility.yul\":17599:17601   */\n      0x20\n        /* \"#utility.yul\":17594:17597   */\n      dup3\n        /* \"#utility.yul\":17590:17602   */\n      add\n        /* \"#utility.yul\":17583:17602   */\n      swap2\n      pop\n        /* \"#utility.yul\":17619:17622   */\n      dup2\n        /* \"#utility.yul\":17612:17622   */\n      swap1\n      pop\n        /* \"#utility.yul\":16667:17628   */\n      swap8\n      swap7\n      pop\n      pop\n      pop\n      pop\n      pop\n      pop\n      pop\n      jump\t// out\n        /* \"#utility.yul\":17634:17803   */\n    tag_136:\n        /* \"#utility.yul\":17774:17795   */\n      0x5377617020616c72656164792065786973747300000000000000000000000000\n        /* \"#utility.yul\":17770:17771   */\n      0x00\n        /* \"#utility.yul\":17762:17768   */\n      dup3\n        /* \"#utility.yul\":17758:17772   */\n      add\n        /* \"#utility.yul\":17751:17796   */\n      mstore\n        /* \"#utility.yul\":17634:17803   */\n      pop\n      jump\t// out\n        /* \"#utility.yul\":17809:18175   */\n    tag_137:\n        /* \"#utility.yul\":17951:17954   */\n      0x00\n        /* \"#utility.yul\":17972:18039   */\n      tag_298\n        /* \"#utility.yul\":18036:18038   */\n      0x13\n        /* \"#utility.yul\":18031:18034   */\n      dup4\n        /* \"#utility.yul\":17972:18039   */\n      tag_110\n      jump\t// in\n    tag_298:\n        /* \"#utility.yul\":17965:18039   */\n      swap2\n      pop\n        /* \"#utility.yul\":18048:18141   */\n      tag_299\n        /* \"#utility.yul\":18137:18140   */\n      dup3\n        /* \"#utility.yul\":18048:18141   */\n      tag_136\n      jump\t// in\n    tag_299:\n        /* \"#utility.yul\":18166:18168   */\n      0x20\n        /* \"#utility.yul\":18161:18164   */\n      dup3\n        /* \"#utility.yul\":18157:18169   */\n      add\n        /* \"#utility.yul\":18150:18169   */\n      swap1\n      pop\n        /* \"#utility.yul\":17809:18175   */\n      swap2\n      swap1\n      pop\n      jump\t// out\n        /* \"#utility.yul\":18181:18600   */\n    tag_84:\n        /* \"#utility.yul\":18347:18351   */\n      0x00\n        /* \"#utility.yul\":18385:18387   */\n      0x20\n        /* \"#utility.yul\":18374:18383   */\n      dup3\n        /* \"#utility.yul\":18370:18388   */\n      add\n        /* \"#utility.yul\":18362:18388   */\n      swap1\n      pop\n        /* \"#utility.yul\":18434:18443   */\n      dup2\n        /* \"#utility.yul\":18428:18432   */\n      dup2\n        /* \"#utility.yul\":18424:18444   */\n      sub\n        /* \"#utility.yul\":18420:18421   */\n      0x00\n        /* \"#utility.yul\":18409:18418   */\n      dup4\n        /* \"#utility.yul\":18405:18422   */\n      add\n        /* \"#utility.yul\":18398:18445   */\n      mstore\n        /* \"#utility.yul\":18462:18593   */\n      tag_301\n        /* \"#utility.yul\":18588:18592   */\n      dup2\n        /* \"#utility.yul\":18462:18593   */\n      tag_137\n      jump\t// in\n    tag_301:\n        /* \"#utility.yul\":18454:18593   */\n      swap1\n      pop\n        /* \"#utility.yul\":18181:18600   */\n      swap2\n      swap1\n      pop\n      jump\t// out\n        /* \"#utility.yul\":18606:19048   */\n    tag_86:\n        /* \"#utility.yul\":18755:18759   */\n      0x00\n        /* \"#utility.yul\":18793:18795   */\n      0x60\n        /* \"#utility.yul\":18782:18791   */\n      dup3\n        /* \"#utility.yul\":18778:18796   */\n      add\n        /* \"#utility.yul\":18770:18796   */\n      swap1\n      pop\n        /* \"#utility.yul\":18806:18877   */\n      tag_303\n        /* \"#utility.yul\":18874:18875   */\n      0x00\n        /* \"#utility.yul\":18863:18872   */\n      dup4\n        /* \"#utility.yul\":18859:18876   */\n      add\n        /* \"#utility.yul\":18850:18856   */\n      dup7\n        /* \"#utility.yul\":18806:18877   */\n      tag_108\n      jump\t// in\n    tag_303:\n        /* \"#utility.yul\":18887:18959   */\n      tag_304\n        /* \"#utility.yul\":18955:18957   */\n      0x20\n        /* \"#utility.yul\":18944:18953   */\n      dup4\n        /* \"#utility.yul\":18940:18958   */\n      add\n        /* \"#utility.yul\":18931:18937   */\n      dup6\n        /* \"#utility.yul\":18887:18959   */\n      tag_106\n      jump\t// in\n    tag_304:\n        /* \"#utility.yul\":18969:19041   */\n      tag_305\n        /* \"#utility.yul\":19037:19039   */\n      0x40\n        /* \"#utility.yul\":19026:19035   */\n      dup4\n        /* \"#utility.yul\":19022:19040   */\n      add\n        /* \"#utility.yul\":19013:19019   */\n      dup5\n        /* \"#utility.yul\":18969:19041   */\n      tag_108\n      jump\t// in\n    tag_305:\n        /* \"#utility.yul\":18606:19048   */\n      swap5\n      swap4\n      pop\n      pop\n      pop\n      pop\n      jump\t// out\n\n    auxdata: 0xa264697066735822122057d850b58e81885bbc24943db323f4872e5ffeb59ca785d7874f00bbbdbaebbf64736f6c634300081e0033\n}\n",
				"bytecode": {
					"linkReferences": {},
					"object": "6080604052348015600e575f5ffd5b506114e28061001c5f395ff3fe608060405260043610610049575f3560e01c80633da0e66e1461004d57806363615149146100895780637249fbb6146100b1578063944eff63146100d9578063eb84e7f214610109575b5f5ffd5b348015610058575f5ffd5b50610073600480360381019061006e9190610c39565b61014c565b6040516100809190610d84565b60405180910390f35b348015610094575f5ffd5b506100af60048036038101906100aa9190610d9e565b61027d565b005b3480156100bc575f5ffd5b506100d760048036038101906100d29190610c39565b610543565b005b6100f360048036038101906100ee9190610e30565b610787565b6040516101009190610e8f565b60405180910390f35b348015610114575f5ffd5b5061012f600480360381019061012a9190610c39565b610afb565b604051610143989796959493929190610ed5565b60405180910390f35b610154610b95565b5f5f8381526020019081526020015f20604051806101000160405290815f82015f9054906101000a900473ffffffffffffffffffffffffffffffffffffffff1673ffffffffffffffffffffffffffffffffffffffff1673ffffffffffffffffffffffffffffffffffffffff168152602001600182015f9054906101000a900473ffffffffffffffffffffffffffffffffffffffff1673ffffffffffffffffffffffffffffffffffffffff1673ffffffffffffffffffffffffffffffffffffffff168152602001600282015481526020016003820154815260200160048201548152602001600582015f9054906101000a900460ff161515151581526020016005820160019054906101000a900460ff161515151581526020016006820154815250509050919050565b5f5f5f8481526020019081526020015f2090503373ffffffffffffffffffffffffffffffffffffffff16816001015f9054906101000a900473ffffffffffffffffffffffffffffffffffffffff1673ffffffffffffffffffffffffffffffffffffffff1614610321576040517f08c379a000000000000000000000000000000000000000000000000000000000815260040161031890610fab565b60405180910390fd5b806005015f9054906101000a900460ff1615610372576040517f08c379a000000000000000000000000000000000000000000000000000000000815260040161036990611013565b60405180910390fd5b8060050160019054906101000a900460ff16156103c4576040517f08c379a00000000000000000000000000000000000000000000000000000000081526004016103bb9061107b565b60405180910390fd5b8060030154421061040a576040517f08c379a0000000000000000000000000000000000000000000000000000000008152600401610401906110e3565b60405180910390fd5b8060040154826040516020016104209190611121565b6040516020818303038152906040528051906020012014610476576040517f08c379a000000000000000000000000000000000000000000000000000000000815260040161046d90611185565b60405180910390fd5b8181600601819055506001816005015f6101000a81548160ff021916908315150217905550806001015f9054906101000a900473ffffffffffffffffffffffffffffffffffffffff1673ffffffffffffffffffffffffffffffffffffffff166108fc826002015490811502906040515f60405180830381858888f19350505050158015610505573d5f5f3e3d5ffd5b50827fab7f1bbfb937adff2a70a94108db9e1b9f0b4b78aca33abe667a7c55c76a0782836040516105369190610e8f565b60405180910390a2505050565b5f5f5f8381526020019081526020015f2090503373ffffffffffffffffffffffffffffffffffffffff16815f015f9054906101000a900473ffffffffffffffffffffffffffffffffffffffff1673ffffffffffffffffffffffffffffffffffffffff16146105e6576040517f08c379a00000000000000000000000000000000000000000000000000000000081526004016105dd906111ed565b60405180910390fd5b806005015f9054906101000a900460ff1615610637576040517f08c379a000000000000000000000000000000000000000000000000000000000815260040161062e90611013565b60405180910390fd5b8060050160019054906101000a900460ff1615610689576040517f08c379a00000000000000000000000000000000000000000000000000000000081526004016106809061107b565b60405180910390fd5b806003015442106106cf576040517f08c379a00000000000000000000000000000000000000000000000000000000081526004016106c6906110e3565b60405180910390fd5b60018160050160016101000a81548160ff021916908315150217905550805f015f9054906101000a900473ffffffffffffffffffffffffffffffffffffffff1673ffffffffffffffffffffffffffffffffffffffff166108fc826002015490811502906040515f60405180830381858888f19350505050158015610755573d5f5f3e3d5ffd5b50817ffe509803c09416b28ff3d8f690c8b0c61462a892c46d5430c8fb20abe472daf060405160405180910390a25050565b5f5f34116107ca576040517f08c379a00000000000000000000000000000000000000000000000000000000081526004016107c190611255565b60405180910390fd5b5f73ffffffffffffffffffffffffffffffffffffffff168473ffffffffffffffffffffffffffffffffffffffff1603610838576040517f08c379a000000000000000000000000000000000000000000000000000000000815260040161082f906112bd565b60405180910390fd5b5f82426108459190611308565b9050338534868443604051602001610862969594939291906113a0565b6040516020818303038152906040528051906020012091505f73ffffffffffffffffffffffffffffffffffffffff165f5f8481526020019081526020015f205f015f9054906101000a900473ffffffffffffffffffffffffffffffffffffffff1673ffffffffffffffffffffffffffffffffffffffff1614610919576040517f08c379a000000000000000000000000000000000000000000000000000000000815260040161091090611459565b60405180910390fd5b6040518061010001604052803373ffffffffffffffffffffffffffffffffffffffff1681526020018673ffffffffffffffffffffffffffffffffffffffff1681526020013481526020018281526020018581526020015f151581526020015f151581526020015f5f1b8152505f5f8481526020019081526020015f205f820151815f015f6101000a81548173ffffffffffffffffffffffffffffffffffffffff021916908373ffffffffffffffffffffffffffffffffffffffff1602179055506020820151816001015f6101000a81548173ffffffffffffffffffffffffffffffffffffffff021916908373ffffffffffffffffffffffffffffffffffffffff16021790555060408201518160020155606082015181600301556080820151816004015560a0820151816005015f6101000a81548160ff02191690831515021790555060c08201518160050160016101000a81548160ff02191690831515021790555060e082015181600601559050508473ffffffffffffffffffffffffffffffffffffffff163373ffffffffffffffffffffffffffffffffffffffff16837f5daec4fa6dfb41e446aa1d129f0ab3efab20bed0a0c05b273bedf1c4283c9e10348886604051610aeb93929190611477565b60405180910390a4509392505050565b5f602052805f5260405f205f91509050805f015f9054906101000a900473ffffffffffffffffffffffffffffffffffffffff1690806001015f9054906101000a900473ffffffffffffffffffffffffffffffffffffffff1690806002015490806003015490806004015490806005015f9054906101000a900460ff16908060050160019054906101000a900460ff16908060060154905088565b6040518061010001604052805f73ffffffffffffffffffffffffffffffffffffffff1681526020015f73ffffffffffffffffffffffffffffffffffffffff1681526020015f81526020015f81526020015f81526020015f151581526020015f151581526020015f81525090565b5f5ffd5b5f819050919050565b610c1881610c06565b8114610c22575f5ffd5b50565b5f81359050610c3381610c0f565b92915050565b5f60208284031215610c4e57610c4d610c02565b5b5f610c5b84828501610c25565b91505092915050565b5f73ffffffffffffffffffffffffffffffffffffffff82169050919050565b5f610c8d82610c64565b9050919050565b610c9d81610c83565b82525050565b5f819050919050565b610cb581610ca3565b82525050565b610cc481610c06565b82525050565b5f8115159050919050565b610cde81610cca565b82525050565b61010082015f820151610cf95f850182610c94565b506020820151610d0c6020850182610c94565b506040820151610d1f6040850182610cac565b506060820151610d326060850182610cac565b506080820151610d456080850182610cbb565b5060a0820151610d5860a0850182610cd5565b5060c0820151610d6b60c0850182610cd5565b5060e0820151610d7e60e0850182610cbb565b50505050565b5f61010082019050610d985f830184610ce4565b92915050565b5f5f60408385031215610db457610db3610c02565b5b5f610dc185828601610c25565b9250506020610dd285828601610c25565b9150509250929050565b610de581610c83565b8114610def575f5ffd5b50565b5f81359050610e0081610ddc565b92915050565b610e0f81610ca3565b8114610e19575f5ffd5b50565b5f81359050610e2a81610e06565b92915050565b5f5f5f60608486031215610e4757610e46610c02565b5b5f610e5486828701610df2565b9350506020610e6586828701610c25565b9250506040610e7686828701610e1c565b9150509250925092565b610e8981610c06565b82525050565b5f602082019050610ea25f830184610e80565b92915050565b610eb181610c83565b82525050565b610ec081610ca3565b82525050565b610ecf81610cca565b82525050565b5f61010082019050610ee95f83018b610ea8565b610ef6602083018a610ea8565b610f036040830189610eb7565b610f106060830188610eb7565b610f1d6080830187610e80565b610f2a60a0830186610ec6565b610f3760c0830185610ec6565b610f4460e0830184610e80565b9998505050505050505050565b5f82825260208201905092915050565b7f4e6f7420726563656976657200000000000000000000000000000000000000005f82015250565b5f610f95600c83610f51565b9150610fa082610f61565b602082019050919050565b5f6020820190508181035f830152610fc281610f89565b9050919050565b7f416c72656164792077697468647261776e0000000000000000000000000000005f82015250565b5f610ffd601183610f51565b915061100882610fc9565b602082019050919050565b5f6020820190508181035f83015261102a81610ff1565b9050919050565b7f416c726561647920726566756e646564000000000000000000000000000000005f82015250565b5f611065601083610f51565b915061107082611031565b602082019050919050565b5f6020820190508181035f83015261109281611059565b9050919050565b7f54696d656c6f636b2065787069726564000000000000000000000000000000005f82015250565b5f6110cd601083610f51565b91506110d882611099565b602082019050919050565b5f6020820190508181035f8301526110fa816110c1565b9050919050565b5f819050919050565b61111b61111682610c06565b611101565b82525050565b5f61112c828461110a565b60208201915081905092915050565b7f496e76616c6964207365637265740000000000000000000000000000000000005f82015250565b5f61116f600e83610f51565b915061117a8261113b565b602082019050919050565b5f6020820190508181035f83015261119c81611163565b9050919050565b7f4e6f742073656e646572000000000000000000000000000000000000000000005f82015250565b5f6111d7600a83610f51565b91506111e2826111a3565b602082019050919050565b5f6020820190508181035f830152611204816111cb565b9050919050565b7f6e6f204554482073656e740000000000000000000000000000000000000000005f82015250565b5f61123f600b83610f51565b915061124a8261120b565b602082019050919050565b5f6020820190508181035f83015261126c81611233565b9050919050565b7f496e766c696420726563656976657200000000000000000000000000000000005f82015250565b5f6112a7600f83610f51565b91506112b282611273565b602082019050919050565b5f6020820190508181035f8301526112d48161129b565b9050919050565b7f4e487b71000000000000000000000000000000000000000000000000000000005f52601160045260245ffd5b5f61131282610ca3565b915061131d83610ca3565b9250828201905080821115611335576113346112db565b5b92915050565b5f8160601b9050919050565b5f6113518261133b565b9050919050565b5f61136282611347565b9050919050565b61137a61137582610c83565b611358565b82525050565b5f819050919050565b61139a61139582610ca3565b611380565b82525050565b5f6113ab8289611369565b6014820191506113bb8288611369565b6014820191506113cb8287611389565b6020820191506113db828661110a565b6020820191506113eb8285611389565b6020820191506113fb8284611389565b602082019150819050979650505050505050565b7f5377617020616c726561647920657869737473000000000000000000000000005f82015250565b5f611443601383610f51565b915061144e8261140f565b602082019050919050565b5f6020820190508181035f83015261147081611437565b9050919050565b5f60608201905061148a5f830186610eb7565b6114976020830185610e80565b6114a46040830184610eb7565b94935050505056fea264697066735822122057d850b58e81885bbc24943db323f4872e5ffeb59ca785d7874f00bbbdbaebbf64736f6c634300081e0033",
					"opcodes": "PUSH1 0x80 PUSH1 0x40 MSTORE CALLVALUE DUP1 ISZERO PUSH1 0xE JUMPI PUSH0 PUSH0 REVERT JUMPDEST POP PUSH2 0x14E2 DUP1 PUSH2 0x1C PUSH0 CODECOPY PUSH0 RETURN INVALID PUSH1 0x80 PUSH1 0x40 MSTORE PUSH1 0x4 CALLDATASIZE LT PUSH2 0x49 JUMPI PUSH0 CALLDATALOAD PUSH1 0xE0 SHR DUP1 PUSH4 0x3DA0E66E EQ PUSH2 0x4D JUMPI DUP1 PUSH4 0x63615149 EQ PUSH2 0x89 JUMPI DUP1 PUSH4 0x7249FBB6 EQ PUSH2 0xB1 JUMPI DUP1 PUSH4 0x944EFF63 EQ PUSH2 0xD9 JUMPI DUP1 PUSH4 0xEB84E7F2 EQ PUSH2 0x109 JUMPI JUMPDEST PUSH0 PUSH0 REVERT JUMPDEST CALLVALUE DUP1 ISZERO PUSH2 0x58 JUMPI PUSH0 PUSH0 REVERT JUMPDEST POP PUSH2 0x73 PUSH1 0x4 DUP1 CALLDATASIZE SUB DUP2 ADD SWAP1 PUSH2 0x6E SWAP2 SWAP1 PUSH2 0xC39 JUMP JUMPDEST PUSH2 0x14C JUMP JUMPDEST PUSH1 0x40 MLOAD PUSH2 0x80 SWAP2 SWAP1 PUSH2 0xD84 JUMP JUMPDEST PUSH1 0x40 MLOAD DUP1 SWAP2 SUB SWAP1 RETURN JUMPDEST CALLVALUE DUP1 ISZERO PUSH2 0x94 JUMPI PUSH0 PUSH0 REVERT JUMPDEST POP PUSH2 0xAF PUSH1 0x4 DUP1 CALLDATASIZE SUB DUP2 ADD SWAP1 PUSH2 0xAA SWAP2 SWAP1 PUSH2 0xD9E JUMP JUMPDEST PUSH2 0x27D JUMP JUMPDEST STOP JUMPDEST CALLVALUE DUP1 ISZERO PUSH2 0xBC JUMPI PUSH0 PUSH0 REVERT JUMPDEST POP PUSH2 0xD7 PUSH1 0x4 DUP1 CALLDATASIZE SUB DUP2 ADD SWAP1 PUSH2 0xD2 SWAP2 SWAP1 PUSH2 0xC39 JUMP JUMPDEST PUSH2 0x543 JUMP JUMPDEST STOP JUMPDEST PUSH2 0xF3 PUSH1 0x4 DUP1 CALLDATASIZE SUB DUP2 ADD SWAP1 PUSH2 0xEE SWAP2 SWAP1 PUSH2 0xE30 JUMP JUMPDEST PUSH2 0x787 JUMP JUMPDEST PUSH1 0x40 MLOAD PUSH2 0x100 SWAP2 SWAP1 PUSH2 0xE8F JUMP JUMPDEST PUSH1 0x40 MLOAD DUP1 SWAP2 SUB SWAP1 RETURN JUMPDEST CALLVALUE DUP1 ISZERO PUSH2 0x114 JUMPI PUSH0 PUSH0 REVERT JUMPDEST POP PUSH2 0x12F PUSH1 0x4 DUP1 CALLDATASIZE SUB DUP2 ADD SWAP1 PUSH2 0x12A SWAP2 SWAP1 PUSH2 0xC39 JUMP JUMPDEST PUSH2 0xAFB JUMP JUMPDEST PUSH1 0x40 MLOAD PUSH2 0x143 SWAP9 SWAP8 SWAP7 SWAP6 SWAP5 SWAP4 SWAP3 SWAP2 SWAP1 PUSH2 0xED5 JUMP JUMPDEST PUSH1 0x40 MLOAD DUP1 SWAP2 SUB SWAP1 RETURN JUMPDEST PUSH2 0x154 PUSH2 0xB95 JUMP JUMPDEST PUSH0 PUSH0 DUP4 DUP2 MSTORE PUSH1 0x20 ADD SWAP1 DUP2 MSTORE PUSH1 0x20 ADD PUSH0 KECCAK256 PUSH1 0x40 MLOAD DUP1 PUSH2 0x100 ADD PUSH1 0x40 MSTORE SWAP1 DUP2 PUSH0 DUP3 ADD PUSH0 SWAP1 SLOAD SWAP1 PUSH2 0x100 EXP SWAP1 DIV PUSH20 0xFFFFFFFFFFFFFFFFFFFFFFFFFFFFFFFFFFFFFFFF AND PUSH20 0xFFFFFFFFFFFFFFFFFFFFFFFFFFFFFFFFFFFFFFFF AND PUSH20 0xFFFFFFFFFFFFFFFFFFFFFFFFFFFFFFFFFFFFFFFF AND DUP2 MSTORE PUSH1 0x20 ADD PUSH1 0x1 DUP3 ADD PUSH0 SWAP1 SLOAD SWAP1 PUSH2 0x100 EXP SWAP1 DIV PUSH20 0xFFFFFFFFFFFFFFFFFFFFFFFFFFFFFFFFFFFFFFFF AND PUSH20 0xFFFFFFFFFFFFFFFFFFFFFFFFFFFFFFFFFFFFFFFF AND PUSH20 0xFFFFFFFFFFFFFFFFFFFFFFFFFFFFFFFFFFFFFFFF AND DUP2 MSTORE PUSH1 0x20 ADD PUSH1 0x2 DUP3 ADD SLOAD DUP2 MSTORE PUSH1 0x20 ADD PUSH1 0x3 DUP3 ADD SLOAD DUP2 MSTORE PUSH1 0x20 ADD PUSH1 0x4 DUP3 ADD SLOAD DUP2 MSTORE PUSH1 0x20 ADD PUSH1 0x5 DUP3 ADD PUSH0 SWAP1 SLOAD SWAP1 PUSH2 0x100 EXP SWAP1 DIV PUSH1 0xFF AND ISZERO ISZERO ISZERO ISZERO DUP2 MSTORE PUSH1 0x20 ADD PUSH1 0x5 DUP3 ADD PUSH1 0x1 SWAP1 SLOAD SWAP1 PUSH2 0x100 EXP SWAP1 DIV PUSH1 0xFF AND ISZERO ISZERO ISZERO ISZERO DUP2 MSTORE PUSH1 0x20 ADD PUSH1 0x6 DUP3 ADD SLOAD DUP2 MSTORE POP POP SWAP1 POP SWAP2 SWAP1 POP JUMP JUMPDEST PUSH0 PUSH0 PUSH0 DUP5 DUP2 MSTORE PUSH1 0x20 ADD SWAP1 DUP2 MSTORE PUSH1 0x20 ADD PUSH0 KECCAK256 SWAP1 POP CALLER PUSH20 0xFFFFFFFFFFFFFFFFFFFFFFFFFFFFFFFFFFFFFFFF AND DUP2 PUSH1 0x1 ADD PUSH0 SWAP1 SLOAD SWAP1 PUSH2 0x100 EXP SWAP1 DIV PUSH20 0xFFFFFFFFFFFFFFFFFFFFFFFFFFFFFFFFFFFFFFFF AND PUSH20 0xFFFFFFFFFFFFFFFFFFFFFFFFFFFFFFFFFFFFFFFF AND EQ PUSH2 0x321 JUMPI PUSH1 0x40 MLOAD PUSH32 0x8C379A000000000000000000000000000000000000000000000000000000000 DUP2 MSTORE PUSH1 0x4 ADD PUSH2 0x318 SWAP1 PUSH2 0xFAB JUMP JUMPDEST PUSH1 0x40 MLOAD DUP1 SWAP2 SUB SWAP1 REVERT JUMPDEST DUP1 PUSH1 0x5 ADD PUSH0 SWAP1 SLOAD SWAP1 PUSH2 0x100 EXP SWAP1 DIV PUSH1 0xFF AND ISZERO PUSH2 0x372 JUMPI PUSH1 0x40 MLOAD PUSH32 0x8C379A000000000000000000000000000000000000000000000000000000000 DUP2 MSTORE PUSH1 0x4 ADD PUSH2 0x369 SWAP1 PUSH2 0x1013 JUMP JUMPDEST PUSH1 0x40 MLOAD DUP1 SWAP2 SUB SWAP1 REVERT JUMPDEST DUP1 PUSH1 0x5 ADD PUSH1 0x1 SWAP1 SLOAD SWAP1 PUSH2 0x100 EXP SWAP1 DIV PUSH1 0xFF AND ISZERO PUSH2 0x3C4 JUMPI PUSH1 0x40 MLOAD PUSH32 0x8C379A000000000000000000000000000000000000000000000000000000000 DUP2 MSTORE PUSH1 0x4 ADD PUSH2 0x3BB SWAP1 PUSH2 0x107B JUMP JUMPDEST PUSH1 0x40 MLOAD DUP1 SWAP2 SUB SWAP1 REVERT JUMPDEST DUP1 PUSH1 0x3 ADD SLOAD TIMESTAMP LT PUSH2 0x40A JUMPI PUSH1 0x40 MLOAD PUSH32 0x8C379A000000000000000000000000000000000000000000000000000000000 DUP2 MSTORE PUSH1 0x4 ADD PUSH2 0x401 SWAP1 PUSH2 0x10E3 JUMP JUMPDEST PUSH1 0x40 MLOAD DUP1 SWAP2 SUB SWAP1 REVERT JUMPDEST DUP1 PUSH1 0x4 ADD SLOAD DUP3 PUSH1 0x40 MLOAD PUSH1 0x20 ADD PUSH2 0x420 SWAP2 SWAP1 PUSH2 0x1121 JUMP JUMPDEST PUSH1 0x40 MLOAD PUSH1 0x20 DUP2 DUP4 SUB SUB DUP2 MSTORE SWAP1 PUSH1 0x40 MSTORE DUP1 MLOAD SWAP1 PUSH1 0x20 ADD KECCAK256 EQ PUSH2 0x476 JUMPI PUSH1 0x40 MLOAD PUSH32 0x8C379A000000000000000000000000000000000000000000000000000000000 DUP2 MSTORE PUSH1 0x4 ADD PUSH2 0x46D SWAP1 PUSH2 0x1185 JUMP JUMPDEST PUSH1 0x40 MLOAD DUP1 SWAP2 SUB SWAP1 REVERT JUMPDEST DUP2 DUP2 PUSH1 0x6 ADD DUP2 SWAP1 SSTORE POP PUSH1 0x1 DUP2 PUSH1 0x5 ADD PUSH0 PUSH2 0x100 EXP DUP2 SLOAD DUP2 PUSH1 0xFF MUL NOT AND SWAP1 DUP4 ISZERO ISZERO MUL OR SWAP1 SSTORE POP DUP1 PUSH1 0x1 ADD PUSH0 SWAP1 SLOAD SWAP1 PUSH2 0x100 EXP SWAP1 DIV PUSH20 0xFFFFFFFFFFFFFFFFFFFFFFFFFFFFFFFFFFFFFFFF AND PUSH20 0xFFFFFFFFFFFFFFFFFFFFFFFFFFFFFFFFFFFFFFFF AND PUSH2 0x8FC DUP3 PUSH1 0x2 ADD SLOAD SWAP1 DUP2 ISZERO MUL SWAP1 PUSH1 0x40 MLOAD PUSH0 PUSH1 0x40 MLOAD DUP1 DUP4 SUB DUP2 DUP6 DUP9 DUP9 CALL SWAP4 POP POP POP POP ISZERO DUP1 ISZERO PUSH2 0x505 JUMPI RETURNDATASIZE PUSH0 PUSH0 RETURNDATACOPY RETURNDATASIZE PUSH0 REVERT JUMPDEST POP DUP3 PUSH32 0xAB7F1BBFB937ADFF2A70A94108DB9E1B9F0B4B78ACA33ABE667A7C55C76A0782 DUP4 PUSH1 0x40 MLOAD PUSH2 0x536 SWAP2 SWAP1 PUSH2 0xE8F JUMP JUMPDEST PUSH1 0x40 MLOAD DUP1 SWAP2 SUB SWAP1 LOG2 POP POP POP JUMP JUMPDEST PUSH0 PUSH0 PUSH0 DUP4 DUP2 MSTORE PUSH1 0x20 ADD SWAP1 DUP2 MSTORE PUSH1 0x20 ADD PUSH0 KECCAK256 SWAP1 POP CALLER PUSH20 0xFFFFFFFFFFFFFFFFFFFFFFFFFFFFFFFFFFFFFFFF AND DUP2 PUSH0 ADD PUSH0 SWAP1 SLOAD SWAP1 PUSH2 0x100 EXP SWAP1 DIV PUSH20 0xFFFFFFFFFFFFFFFFFFFFFFFFFFFFFFFFFFFFFFFF AND PUSH20 0xFFFFFFFFFFFFFFFFFFFFFFFFFFFFFFFFFFFFFFFF AND EQ PUSH2 0x5E6 JUMPI PUSH1 0x40 MLOAD PUSH32 0x8C379A000000000000000000000000000000000000000000000000000000000 DUP2 MSTORE PUSH1 0x4 ADD PUSH2 0x5DD SWAP1 PUSH2 0x11ED JUMP JUMPDEST PUSH1 0x40 MLOAD DUP1 SWAP2 SUB SWAP1 REVERT JUMPDEST DUP1 PUSH1 0x5 ADD PUSH0 SWAP1 SLOAD SWAP1 PUSH2 0x100 EXP SWAP1 DIV PUSH1 0xFF AND ISZERO PUSH2 0x637 JUMPI PUSH1 0x40 MLOAD PUSH32 0x8C379A000000000000000000000000000000000000000000000000000000000 DUP2 MSTORE PUSH1 0x4 ADD PUSH2 0x62E SWAP1 PUSH2 0x1013 JUMP JUMPDEST PUSH1 0x40 MLOAD DUP1 SWAP2 SUB SWAP1 REVERT JUMPDEST DUP1 PUSH1 0x5 ADD PUSH1 0x1 SWAP1 SLOAD SWAP1 PUSH2 0x100 EXP SWAP1 DIV PUSH1 0xFF AND ISZERO PUSH2 0x689 JUMPI PUSH1 0x40 MLOAD PUSH32 0x8C379A000000000000000000000000000000000000000000000000000000000 DUP2 MSTORE PUSH1 0x4 ADD PUSH2 0x680 SWAP1 PUSH2 0x107B JUMP JUMPDEST PUSH1 0x40 MLOAD DUP1 SWAP2 SUB SWAP1 REVERT JUMPDEST DUP1 PUSH1 0x3 ADD SLOAD TIMESTAMP LT PUSH2 0x6CF JUMPI PUSH1 0x40 MLOAD PUSH32 0x8C379A000000000000000000000000000000000000000000000000000000000 DUP2 MSTORE PUSH1 0x4 ADD PUSH2 0x6C6 SWAP1 PUSH2 0x10E3 JUMP JUMPDEST PUSH1 0x40 MLOAD DUP1 SWAP2 SUB SWAP1 REVERT JUMPDEST PUSH1 0x1 DUP2 PUSH1 0x5 ADD PUSH1 0x1 PUSH2 0x100 EXP DUP2 SLOAD DUP2 PUSH1 0xFF MUL NOT AND SWAP1 DUP4 ISZERO ISZERO MUL OR SWAP1 SSTORE POP DUP1 PUSH0 ADD PUSH0 SWAP1 SLOAD SWAP1 PUSH2 0x100 EXP SWAP1 DIV PUSH20 0xFFFFFFFFFFFFFFFFFFFFFFFFFFFFFFFFFFFFFFFF AND PUSH20 0xFFFFFFFFFFFFFFFFFFFFFFFFFFFFFFFFFFFFFFFF AND PUSH2 0x8FC DUP3 PUSH1 0x2 ADD SLOAD SWAP1 DUP2 ISZERO MUL SWAP1 PUSH1 0x40 MLOAD PUSH0 PUSH1 0x40 MLOAD DUP1 DUP4 SUB DUP2 DUP6 DUP9 DUP9 CALL SWAP4 POP POP POP POP ISZERO DUP1 ISZERO PUSH2 0x755 JUMPI RETURNDATASIZE PUSH0 PUSH0 RETURNDATACOPY RETURNDATASIZE PUSH0 REVERT JUMPDEST POP DUP2 PUSH32 0xFE509803C09416B28FF3D8F690C8B0C61462A892C46D5430C8FB20ABE472DAF0 PUSH1 0x40 MLOAD PUSH1 0x40 MLOAD DUP1 SWAP2 SUB SWAP1 LOG2 POP POP JUMP JUMPDEST PUSH0 PUSH0 CALLVALUE GT PUSH2 0x7CA JUMPI PUSH1 0x40 MLOAD PUSH32 0x8C379A000000000000000000000000000000000000000000000000000000000 DUP2 MSTORE PUSH1 0x4 ADD PUSH2 0x7C1 SWAP1 PUSH2 0x1255 JUMP JUMPDEST PUSH1 0x40 MLOAD DUP1 SWAP2 SUB SWAP1 REVERT JUMPDEST PUSH0 PUSH20 0xFFFFFFFFFFFFFFFFFFFFFFFFFFFFFFFFFFFFFFFF AND DUP5 PUSH20 0xFFFFFFFFFFFFFFFFFFFFFFFFFFFFFFFFFFFFFFFF AND SUB PUSH2 0x838 JUMPI PUSH1 0x40 MLOAD PUSH32 0x8C379A000000000000000000000000000000000000000000000000000000000 DUP2 MSTORE PUSH1 0x4 ADD PUSH2 0x82F SWAP1 PUSH2 0x12BD JUMP JUMPDEST PUSH1 0x40 MLOAD DUP1 SWAP2 SUB SWAP1 REVERT JUMPDEST PUSH0 DUP3 TIMESTAMP PUSH2 0x845 SWAP2 SWAP1 PUSH2 0x1308 JUMP JUMPDEST SWAP1 POP CALLER DUP6 CALLVALUE DUP7 DUP5 NUMBER PUSH1 0x40 MLOAD PUSH1 0x20 ADD PUSH2 0x862 SWAP7 SWAP6 SWAP5 SWAP4 SWAP3 SWAP2 SWAP1 PUSH2 0x13A0 JUMP JUMPDEST PUSH1 0x40 MLOAD PUSH1 0x20 DUP2 DUP4 SUB SUB DUP2 MSTORE SWAP1 PUSH1 0x40 MSTORE DUP1 MLOAD SWAP1 PUSH1 0x20 ADD KECCAK256 SWAP2 POP PUSH0 PUSH20 0xFFFFFFFFFFFFFFFFFFFFFFFFFFFFFFFFFFFFFFFF AND PUSH0 PUSH0 DUP5 DUP2 MSTORE PUSH1 0x20 ADD SWAP1 DUP2 MSTORE PUSH1 0x20 ADD PUSH0 KECCAK256 PUSH0 ADD PUSH0 SWAP1 SLOAD SWAP1 PUSH2 0x100 EXP SWAP1 DIV PUSH20 0xFFFFFFFFFFFFFFFFFFFFFFFFFFFFFFFFFFFFFFFF AND PUSH20 0xFFFFFFFFFFFFFFFFFFFFFFFFFFFFFFFFFFFFFFFF AND EQ PUSH2 0x919 JUMPI PUSH1 0x40 MLOAD PUSH32 0x8C379A000000000000000000000000000000000000000000000000000000000 DUP2 MSTORE PUSH1 0x4 ADD PUSH2 0x910 SWAP1 PUSH2 0x1459 JUMP JUMPDEST PUSH1 0x40 MLOAD DUP1 SWAP2 SUB SWAP1 REVERT JUMPDEST PUSH1 0x40 MLOAD DUP1 PUSH2 0x100 ADD PUSH1 0x40 MSTORE DUP1 CALLER PUSH20 0xFFFFFFFFFFFFFFFFFFFFFFFFFFFFFFFFFFFFFFFF AND DUP2 MSTORE PUSH1 0x20 ADD DUP7 PUSH20 0xFFFFFFFFFFFFFFFFFFFFFFFFFFFFFFFFFFFFFFFF AND DUP2 MSTORE PUSH1 0x20 ADD CALLVALUE DUP2 MSTORE PUSH1 0x20 ADD DUP3 DUP2 MSTORE PUSH1 0x20 ADD DUP6 DUP2 MSTORE PUSH1 0x20 ADD PUSH0 ISZERO ISZERO DUP2 MSTORE PUSH1 0x20 ADD PUSH0 ISZERO ISZERO DUP2 MSTORE PUSH1 0x20 ADD PUSH0 PUSH0 SHL DUP2 MSTORE POP PUSH0 PUSH0 DUP5 DUP2 MSTORE PUSH1 0x20 ADD SWAP1 DUP2 MSTORE PUSH1 0x20 ADD PUSH0 KECCAK256 PUSH0 DUP3 ADD MLOAD DUP2 PUSH0 ADD PUSH0 PUSH2 0x100 EXP DUP2 SLOAD DUP2 PUSH20 0xFFFFFFFFFFFFFFFFFFFFFFFFFFFFFFFFFFFFFFFF MUL NOT AND SWAP1 DUP4 PUSH20 0xFFFFFFFFFFFFFFFFFFFFFFFFFFFFFFFFFFFFFFFF AND MUL OR SWAP1 SSTORE POP PUSH1 0x20 DUP3 ADD MLOAD DUP2 PUSH1 0x1 ADD PUSH0 PUSH2 0x100 EXP DUP2 SLOAD DUP2 PUSH20 0xFFFFFFFFFFFFFFFFFFFFFFFFFFFFFFFFFFFFFFFF MUL NOT AND SWAP1 DUP4 PUSH20 0xFFFFFFFFFFFFFFFFFFFFFFFFFFFFFFFFFFFFFFFF AND MUL OR SWAP1 SSTORE POP PUSH1 0x40 DUP3 ADD MLOAD DUP2 PUSH1 0x2 ADD SSTORE PUSH1 0x60 DUP3 ADD MLOAD DUP2 PUSH1 0x3 ADD SSTORE PUSH1 0x80 DUP3 ADD MLOAD DUP2 PUSH1 0x4 ADD SSTORE PUSH1 0xA0 DUP3 ADD MLOAD DUP2 PUSH1 0x5 ADD PUSH0 PUSH2 0x100 EXP DUP2 SLOAD DUP2 PUSH1 0xFF MUL NOT AND SWAP1 DUP4 ISZERO ISZERO MUL OR SWAP1 SSTORE POP PUSH1 0xC0 DUP3 ADD MLOAD DUP2 PUSH1 0x5 ADD PUSH1 0x1 PUSH2 0x100 EXP DUP2 SLOAD DUP2 PUSH1 0xFF MUL NOT AND SWAP1 DUP4 ISZERO ISZERO MUL OR SWAP1 SSTORE POP PUSH1 0xE0 DUP3 ADD MLOAD DUP2 PUSH1 0x6 ADD SSTORE SWAP1 POP POP DUP5 PUSH20 0xFFFFFFFFFFFFFFFFFFFFFFFFFFFFFFFFFFFFFFFF AND CALLER PUSH20 0xFFFFFFFFFFFFFFFFFFFFFFFFFFFFFFFFFFFFFFFF AND DUP4 PUSH32 0x5DAEC4FA6DFB41E446AA1D129F0AB3EFAB20BED0A0C05B273BEDF1C4283C9E10 CALLVALUE DUP9 DUP7 PUSH1 0x40 MLOAD PUSH2 0xAEB SWAP4 SWAP3 SWAP2 SWAP1 PUSH2 0x1477 JUMP JUMPDEST PUSH1 0x40 MLOAD DUP1 SWAP2 SUB SWAP1 LOG4 POP SWAP4 SWAP3 POP POP POP JUMP JUMPDEST PUSH0 PUSH1 0x20 MSTORE DUP1 PUSH0 MSTORE PUSH1 0x40 PUSH0 KECCAK256 PUSH0 SWAP2 POP SWAP1 POP DUP1 PUSH0 ADD PUSH0 SWAP1 SLOAD SWAP1 PUSH2 0x100 EXP SWAP1 DIV PUSH20 0xFFFFFFFFFFFFFFFFFFFFFFFFFFFFFFFFFFFFFFFF AND SWAP1 DUP1 PUSH1 0x1 ADD PUSH0 SWAP1 SLOAD SWAP1 PUSH2 0x100 EXP SWAP1 DIV PUSH20 0xFFFFFFFFFFFFFFFFFFFFFFFFFFFFFFFFFFFFFFFF AND SWAP1 DUP1 PUSH1 0x2 ADD SLOAD SWAP1 DUP1 PUSH1 0x3 ADD SLOAD SWAP1 DUP1 PUSH1 0x4 ADD SLOAD SWAP1 DUP1 PUSH1 0x5 ADD PUSH0 SWAP1 SLOAD SWAP1 PUSH2 0x100 EXP SWAP1 DIV PUSH1 0xFF AND SWAP1 DUP1 PUSH1 0x5 ADD PUSH1 0x1 SWAP1 SLOAD SWAP1 PUSH2 0x100 EXP SWAP1 DIV PUSH1 0xFF AND SWAP1 DUP1 PUSH1 0x6 ADD SLOAD SWAP1 POP DUP9 JUMP JUMPDEST PUSH1 0x40 MLOAD DUP1 PUSH2 0x100 ADD PUSH1 0x40 MSTORE DUP1 PUSH0 PUSH20 0xFFFFFFFFFFFFFFFFFFFFFFFFFFFFFFFFFFFFFFFF AND DUP2 MSTORE PUSH1 0x20 ADD PUSH0 PUSH20 0xFFFFFFFFFFFFFFFFFFFFFFFFFFFFFFFFFFFFFFFF AND DUP2 MSTORE PUSH1 0x20 ADD PUSH0 DUP2 MSTORE PUSH1 0x20 ADD PUSH0 DUP2 MSTORE PUSH1 0x20 ADD PUSH0 DUP2 MSTORE PUSH1 0x20 ADD PUSH0 ISZERO ISZERO DUP2 MSTORE PUSH1 0x20 ADD PUSH0 ISZERO ISZERO DUP2 MSTORE PUSH1 0x20 ADD PUSH0 DUP2 MSTORE POP SWAP1 JUMP JUMPDEST PUSH0 PUSH0 REVERT JUMPDEST PUSH0 DUP2 SWAP1 POP SWAP2 SWAP1 POP JUMP JUMPDEST PUSH2 0xC18 DUP2 PUSH2 0xC06 JUMP JUMPDEST DUP2 EQ PUSH2 0xC22 JUMPI PUSH0 PUSH0 REVERT JUMPDEST POP JUMP JUMPDEST PUSH0 DUP2 CALLDATALOAD SWAP1 POP PUSH2 0xC33 DUP2 PUSH2 0xC0F JUMP JUMPDEST SWAP3 SWAP2 POP POP JUMP JUMPDEST PUSH0 PUSH1 0x20 DUP3 DUP5 SUB SLT ISZERO PUSH2 0xC4E JUMPI PUSH2 0xC4D PUSH2 0xC02 JUMP JUMPDEST JUMPDEST PUSH0 PUSH2 0xC5B DUP5 DUP3 DUP6 ADD PUSH2 0xC25 JUMP JUMPDEST SWAP2 POP POP SWAP3 SWAP2 POP POP JUMP JUMPDEST PUSH0 PUSH20 0xFFFFFFFFFFFFFFFFFFFFFFFFFFFFFFFFFFFFFFFF DUP3 AND SWAP1 POP SWAP2 SWAP1 POP JUMP JUMPDEST PUSH0 PUSH2 0xC8D DUP3 PUSH2 0xC64 JUMP JUMPDEST SWAP1 POP SWAP2 SWAP1 POP JUMP JUMPDEST PUSH2 0xC9D DUP2 PUSH2 0xC83 JUMP JUMPDEST DUP3 MSTORE POP POP JUMP JUMPDEST PUSH0 DUP2 SWAP1 POP SWAP2 SWAP1 POP JUMP JUMPDEST PUSH2 0xCB5 DUP2 PUSH2 0xCA3 JUMP JUMPDEST DUP3 MSTORE POP POP JUMP JUMPDEST PUSH2 0xCC4 DUP2 PUSH2 0xC06 JUMP JUMPDEST DUP3 MSTORE POP POP JUMP JUMPDEST PUSH0 DUP2 ISZERO ISZERO SWAP1 POP SWAP2 SWAP1 POP JUMP JUMPDEST PUSH2 0xCDE DUP2 PUSH2 0xCCA JUMP JUMPDEST DUP3 MSTORE POP POP JUMP JUMPDEST PUSH2 0x100 DUP3 ADD PUSH0 DUP3 ADD MLOAD PUSH2 0xCF9 PUSH0 DUP6 ADD DUP3 PUSH2 0xC94 JUMP JUMPDEST POP PUSH1 0x20 DUP3 ADD MLOAD PUSH2 0xD0C PUSH1 0x20 DUP6 ADD DUP3 PUSH2 0xC94 JUMP JUMPDEST POP PUSH1 0x40 DUP3 ADD MLOAD PUSH2 0xD1F PUSH1 0x40 DUP6 ADD DUP3 PUSH2 0xCAC JUMP JUMPDEST POP PUSH1 0x60 DUP3 ADD MLOAD PUSH2 0xD32 PUSH1 0x60 DUP6 ADD DUP3 PUSH2 0xCAC JUMP JUMPDEST POP PUSH1 0x80 DUP3 ADD MLOAD PUSH2 0xD45 PUSH1 0x80 DUP6 ADD DUP3 PUSH2 0xCBB JUMP JUMPDEST POP PUSH1 0xA0 DUP3 ADD MLOAD PUSH2 0xD58 PUSH1 0xA0 DUP6 ADD DUP3 PUSH2 0xCD5 JUMP JUMPDEST POP PUSH1 0xC0 DUP3 ADD MLOAD PUSH2 0xD6B PUSH1 0xC0 DUP6 ADD DUP3 PUSH2 0xCD5 JUMP JUMPDEST POP PUSH1 0xE0 DUP3 ADD MLOAD PUSH2 0xD7E PUSH1 0xE0 DUP6 ADD DUP3 PUSH2 0xCBB JUMP JUMPDEST POP POP POP POP JUMP JUMPDEST PUSH0 PUSH2 0x100 DUP3 ADD SWAP1 POP PUSH2 0xD98 PUSH0 DUP4 ADD DUP5 PUSH2 0xCE4 JUMP JUMPDEST SWAP3 SWAP2 POP POP JUMP JUMPDEST PUSH0 PUSH0 PUSH1 0x40 DUP4 DUP6 SUB SLT ISZERO PUSH2 0xDB4 JUMPI PUSH2 0xDB3 PUSH2 0xC02 JUMP JUMPDEST JUMPDEST PUSH0 PUSH2 0xDC1 DUP6 DUP3 DUP7 ADD PUSH2 0xC25 JUMP JUMPDEST SWAP3 POP POP PUSH1 0x20 PUSH2 0xDD2 DUP6 DUP3 DUP7 ADD PUSH2 0xC25 JUMP JUMPDEST SWAP2 POP POP SWAP3 POP SWAP3 SWAP1 POP JUMP JUMPDEST PUSH2 0xDE5 DUP2 PUSH2 0xC83 JUMP JUMPDEST DUP2 EQ PUSH2 0xDEF JUMPI PUSH0 PUSH0 REVERT JUMPDEST POP JUMP JUMPDEST PUSH0 DUP2 CALLDATALOAD SWAP1 POP PUSH2 0xE00 DUP2 PUSH2 0xDDC JUMP JUMPDEST SWAP3 SWAP2 POP POP JUMP JUMPDEST PUSH2 0xE0F DUP2 PUSH2 0xCA3 JUMP JUMPDEST DUP2 EQ PUSH2 0xE19 JUMPI PUSH0 PUSH0 REVERT JUMPDEST POP JUMP JUMPDEST PUSH0 DUP2 CALLDATALOAD SWAP1 POP PUSH2 0xE2A DUP2 PUSH2 0xE06 JUMP JUMPDEST SWAP3 SWAP2 POP POP JUMP JUMPDEST PUSH0 PUSH0 PUSH0 PUSH1 0x60 DUP5 DUP7 SUB SLT ISZERO PUSH2 0xE47 JUMPI PUSH2 0xE46 PUSH2 0xC02 JUMP JUMPDEST JUMPDEST PUSH0 PUSH2 0xE54 DUP7 DUP3 DUP8 ADD PUSH2 0xDF2 JUMP JUMPDEST SWAP4 POP POP PUSH1 0x20 PUSH2 0xE65 DUP7 DUP3 DUP8 ADD PUSH2 0xC25 JUMP JUMPDEST SWAP3 POP POP PUSH1 0x40 PUSH2 0xE76 DUP7 DUP3 DUP8 ADD PUSH2 0xE1C JUMP JUMPDEST SWAP2 POP POP SWAP3 POP SWAP3 POP SWAP3 JUMP JUMPDEST PUSH2 0xE89 DUP2 PUSH2 0xC06 JUMP JUMPDEST DUP3 MSTORE POP POP JUMP JUMPDEST PUSH0 PUSH1 0x20 DUP3 ADD SWAP1 POP PUSH2 0xEA2 PUSH0 DUP4 ADD DUP5 PUSH2 0xE80 JUMP JUMPDEST SWAP3 SWAP2 POP POP JUMP JUMPDEST PUSH2 0xEB1 DUP2 PUSH2 0xC83 JUMP JUMPDEST DUP3 MSTORE POP POP JUMP JUMPDEST PUSH2 0xEC0 DUP2 PUSH2 0xCA3 JUMP JUMPDEST DUP3 MSTORE POP POP JUMP JUMPDEST PUSH2 0xECF DUP2 PUSH2 0xCCA JUMP JUMPDEST DUP3 MSTORE POP POP JUMP JUMPDEST PUSH0 PUSH2 0x100 DUP3 ADD SWAP1 POP PUSH2 0xEE9 PUSH0 DUP4 ADD DUP12 PUSH2 0xEA8 JUMP JUMPDEST PUSH2 0xEF6 PUSH1 0x20 DUP4 ADD DUP11 PUSH2 0xEA8 JUMP JUMPDEST PUSH2 0xF03 PUSH1 0x40 DUP4 ADD DUP10 PUSH2 0xEB7 JUMP JUMPDEST PUSH2 0xF10 PUSH1 0x60 DUP4 ADD DUP9 PUSH2 0xEB7 JUMP JUMPDEST PUSH2 0xF1D PUSH1 0x80 DUP4 ADD DUP8 PUSH2 0xE80 JUMP JUMPDEST PUSH2 0xF2A PUSH1 0xA0 DUP4 ADD DUP7 PUSH2 0xEC6 JUMP JUMPDEST PUSH2 0xF37 PUSH1 0xC0 DUP4 ADD DUP6 PUSH2 0xEC6 JUMP JUMPDEST PUSH2 0xF44 PUSH1 0xE0 DUP4 ADD DUP5 PUSH2 0xE80 JUMP JUMPDEST SWAP10 SWAP9 POP POP POP POP POP POP POP POP POP JUMP JUMPDEST PUSH0 DUP3 DUP3 MSTORE PUSH1 0x20 DUP3 ADD SWAP1 POP SWAP3 SWAP2 POP POP JUMP JUMPDEST PUSH32 0x4E6F742072656365697665720000000000000000000000000000000000000000 PUSH0 DUP3 ADD MSTORE POP JUMP JUMPDEST PUSH0 PUSH2 0xF95 PUSH1 0xC DUP4 PUSH2 0xF51 JUMP JUMPDEST SWAP2 POP PUSH2 0xFA0 DUP3 PUSH2 0xF61 JUMP JUMPDEST PUSH1 0x20 DUP3 ADD SWAP1 POP SWAP2 SWAP1 POP JUMP JUMPDEST PUSH0 PUSH1 0x20 DUP3 ADD SWAP1 POP DUP2 DUP2 SUB PUSH0 DUP4 ADD MSTORE PUSH2 0xFC2 DUP2 PUSH2 0xF89 JUMP JUMPDEST SWAP1 POP SWAP2 SWAP1 POP JUMP JUMPDEST PUSH32 0x416C72656164792077697468647261776E000000000000000000000000000000 PUSH0 DUP3 ADD MSTORE POP JUMP JUMPDEST PUSH0 PUSH2 0xFFD PUSH1 0x11 DUP4 PUSH2 0xF51 JUMP JUMPDEST SWAP2 POP PUSH2 0x1008 DUP3 PUSH2 0xFC9 JUMP JUMPDEST PUSH1 0x20 DUP3 ADD SWAP1 POP SWAP2 SWAP1 POP JUMP JUMPDEST PUSH0 PUSH1 0x20 DUP3 ADD SWAP1 POP DUP2 DUP2 SUB PUSH0 DUP4 ADD MSTORE PUSH2 0x102A DUP2 PUSH2 0xFF1 JUMP JUMPDEST SWAP1 POP SWAP2 SWAP1 POP JUMP JUMPDEST PUSH32 0x416C726561647920726566756E64656400000000000000000000000000000000 PUSH0 DUP3 ADD MSTORE POP JUMP JUMPDEST PUSH0 PUSH2 0x1065 PUSH1 0x10 DUP4 PUSH2 0xF51 JUMP JUMPDEST SWAP2 POP PUSH2 0x1070 DUP3 PUSH2 0x1031 JUMP JUMPDEST PUSH1 0x20 DUP3 ADD SWAP1 POP SWAP2 SWAP1 POP JUMP JUMPDEST PUSH0 PUSH1 0x20 DUP3 ADD SWAP1 POP DUP2 DUP2 SUB PUSH0 DUP4 ADD MSTORE PUSH2 0x1092 DUP2 PUSH2 0x1059 JUMP JUMPDEST SWAP1 POP SWAP2 SWAP1 POP JUMP JUMPDEST PUSH32 0x54696D656C6F636B206578706972656400000000000000000000000000000000 PUSH0 DUP3 ADD MSTORE POP JUMP JUMPDEST PUSH0 PUSH2 0x10CD PUSH1 0x10 DUP4 PUSH2 0xF51 JUMP JUMPDEST SWAP2 POP PUSH2 0x10D8 DUP3 PUSH2 0x1099 JUMP JUMPDEST PUSH1 0x20 DUP3 ADD SWAP1 POP SWAP2 SWAP1 POP JUMP JUMPDEST PUSH0 PUSH1 0x20 DUP3 ADD SWAP1 POP DUP2 DUP2 SUB PUSH0 DUP4 ADD MSTORE PUSH2 0x10FA DUP2 PUSH2 0x10C1 JUMP JUMPDEST SWAP1 POP SWAP2 SWAP1 POP JUMP JUMPDEST PUSH0 DUP2 SWAP1 POP SWAP2 SWAP1 POP JUMP JUMPDEST PUSH2 0x111B PUSH2 0x1116 DUP3 PUSH2 0xC06 JUMP JUMPDEST PUSH2 0x1101 JUMP JUMPDEST DUP3 MSTORE POP POP JUMP JUMPDEST PUSH0 PUSH2 0x112C DUP3 DUP5 PUSH2 0x110A JUMP JUMPDEST PUSH1 0x20 DUP3 ADD SWAP2 POP DUP2 SWAP1 POP SWAP3 SWAP2 POP POP JUMP JUMPDEST PUSH32 0x496E76616C696420736563726574000000000000000000000000000000000000 PUSH0 DUP3 ADD MSTORE POP JUMP JUMPDEST PUSH0 PUSH2 0x116F PUSH1 0xE DUP4 PUSH2 0xF51 JUMP JUMPDEST SWAP2 POP PUSH2 0x117A DUP3 PUSH2 0x113B JUMP JUMPDEST PUSH1 0x20 DUP3 ADD SWAP1 POP SWAP2 SWAP1 POP JUMP JUMPDEST PUSH0 PUSH1 0x20 DUP3 ADD SWAP1 POP DUP2 DUP2 SUB PUSH0 DUP4 ADD MSTORE PUSH2 0x119C DUP2 PUSH2 0x1163 JUMP JUMPDEST SWAP1 POP SWAP2 SWAP1 POP JUMP JUMPDEST PUSH32 0x4E6F742073656E64657200000000000000000000000000000000000000000000 PUSH0 DUP3 ADD MSTORE POP JUMP JUMPDEST PUSH0 PUSH2 0x11D7 PUSH1 0xA DUP4 PUSH2 0xF51 JUMP JUMPDEST SWAP2 POP PUSH2 0x11E2 DUP3 PUSH2 0x11A3 JUMP JUMPDEST PUSH1 0x20 DUP3 ADD SWAP1 POP SWAP2 SWAP1 POP JUMP JUMPDEST PUSH0 PUSH1 0x20 DUP3 ADD SWAP1 POP DUP2 DUP2 SUB PUSH0 DUP4 ADD MSTORE PUSH2 0x1204 DUP2 PUSH2 0x11CB JUMP JUMPDEST SWAP1 POP SWAP2 SWAP1 POP JUMP JUMPDEST PUSH32 0x6E6F204554482073656E74000000000000000000000000000000000000000000 PUSH0 DUP3 ADD MSTORE POP JUMP JUMPDEST PUSH0 PUSH2 0x123F PUSH1 0xB DUP4 PUSH2 0xF51 JUMP JUMPDEST SWAP2 POP PUSH2 0x124A DUP3 PUSH2 0x120B JUMP JUMPDEST PUSH1 0x20 DUP3 ADD SWAP1 POP SWAP2 SWAP1 POP JUMP JUMPDEST PUSH0 PUSH1 0x20 DUP3 ADD SWAP1 POP DUP2 DUP2 SUB PUSH0 DUP4 ADD MSTORE PUSH2 0x126C DUP2 PUSH2 0x1233 JUMP JUMPDEST SWAP1 POP SWAP2 SWAP1 POP JUMP JUMPDEST PUSH32 0x496E766C69642072656365697665720000000000000000000000000000000000 PUSH0 DUP3 ADD MSTORE POP JUMP JUMPDEST PUSH0 PUSH2 0x12A7 PUSH1 0xF DUP4 PUSH2 0xF51 JUMP JUMPDEST SWAP2 POP PUSH2 0x12B2 DUP3 PUSH2 0x1273 JUMP JUMPDEST PUSH1 0x20 DUP3 ADD SWAP1 POP SWAP2 SWAP1 POP JUMP JUMPDEST PUSH0 PUSH1 0x20 DUP3 ADD SWAP1 POP DUP2 DUP2 SUB PUSH0 DUP4 ADD MSTORE PUSH2 0x12D4 DUP2 PUSH2 0x129B JUMP JUMPDEST SWAP1 POP SWAP2 SWAP1 POP JUMP JUMPDEST PUSH32 0x4E487B7100000000000000000000000000000000000000000000000000000000 PUSH0 MSTORE PUSH1 0x11 PUSH1 0x4 MSTORE PUSH1 0x24 PUSH0 REVERT JUMPDEST PUSH0 PUSH2 0x1312 DUP3 PUSH2 0xCA3 JUMP JUMPDEST SWAP2 POP PUSH2 0x131D DUP4 PUSH2 0xCA3 JUMP JUMPDEST SWAP3 POP DUP3 DUP3 ADD SWAP1 POP DUP1 DUP3 GT ISZERO PUSH2 0x1335 JUMPI PUSH2 0x1334 PUSH2 0x12DB JUMP JUMPDEST JUMPDEST SWAP3 SWAP2 POP POP JUMP JUMPDEST PUSH0 DUP2 PUSH1 0x60 SHL SWAP1 POP SWAP2 SWAP1 POP JUMP JUMPDEST PUSH0 PUSH2 0x1351 DUP3 PUSH2 0x133B JUMP JUMPDEST SWAP1 POP SWAP2 SWAP1 POP JUMP JUMPDEST PUSH0 PUSH2 0x1362 DUP3 PUSH2 0x1347 JUMP JUMPDEST SWAP1 POP SWAP2 SWAP1 POP JUMP JUMPDEST PUSH2 0x137A PUSH2 0x1375 DUP3 PUSH2 0xC83 JUMP JUMPDEST PUSH2 0x1358 JUMP JUMPDEST DUP3 MSTORE POP POP JUMP JUMPDEST PUSH0 DUP2 SWAP1 POP SWAP2 SWAP1 POP JUMP JUMPDEST PUSH2 0x139A PUSH2 0x1395 DUP3 PUSH2 0xCA3 JUMP JUMPDEST PUSH2 0x1380 JUMP JUMPDEST DUP3 MSTORE POP POP JUMP JUMPDEST PUSH0 PUSH2 0x13AB DUP3 DUP10 PUSH2 0x1369 JUMP JUMPDEST PUSH1 0x14 DUP3 ADD SWAP2 POP PUSH2 0x13BB DUP3 DUP9 PUSH2 0x1369 JUMP JUMPDEST PUSH1 0x14 DUP3 ADD SWAP2 POP PUSH2 0x13CB DUP3 DUP8 PUSH2 0x1389 JUMP JUMPDEST PUSH1 0x20 DUP3 ADD SWAP2 POP PUSH2 0x13DB DUP3 DUP7 PUSH2 0x110A JUMP JUMPDEST PUSH1 0x20 DUP3 ADD SWAP2 POP PUSH2 0x13EB DUP3 DUP6 PUSH2 0x1389 JUMP JUMPDEST PUSH1 0x20 DUP3 ADD SWAP2 POP PUSH2 0x13FB DUP3 DUP5 PUSH2 0x1389 JUMP JUMPDEST PUSH1 0x20 DUP3 ADD SWAP2 POP DUP2 SWAP1 POP SWAP8 SWAP7 POP POP POP POP POP POP POP JUMP JUMPDEST PUSH32 0x5377617020616C72656164792065786973747300000000000000000000000000 PUSH0 DUP3 ADD MSTORE POP JUMP JUMPDEST PUSH0 PUSH2 0x1443 PUSH1 0x13 DUP4 PUSH2 0xF51 JUMP JUMPDEST SWAP2 POP PUSH2 0x144E DUP3 PUSH2 0x140F JUMP JUMPDEST PUSH1 0x20 DUP3 ADD SWAP1 POP SWAP2 SWAP1 POP JUMP JUMPDEST PUSH0 PUSH1 0x20 DUP3 ADD SWAP1 POP DUP2 DUP2 SUB PUSH0 DUP4 ADD MSTORE PUSH2 0x1470 DUP2 PUSH2 0x1437 JUMP JUMPDEST SWAP1 POP SWAP2 SWAP1 POP JUMP JUMPDEST PUSH0 PUSH1 0x60 DUP3 ADD SWAP1 POP PUSH2 0x148A PUSH0 DUP4 ADD DUP7 PUSH2 0xEB7 JUMP JUMPDEST PUSH2 0x1497 PUSH1 0x20 DUP4 ADD DUP6 PUSH2 0xE80 JUMP JUMPDEST PUSH2 0x14A4 PUSH1 0x40 DUP4 ADD DUP5 PUSH2 0xEB7 JUMP JUMPDEST SWAP5 SWAP4 POP POP POP POP JUMP INVALID LOG2 PUSH5 0x6970667358 0x22 SLT KECCAK256 JUMPI 0xD8 POP 0xB5 DUP15 DUP2 DUP9 JUMPDEST 0xBC 0x24 SWAP5 RETURNDATASIZE 0xB3 0x23 DELEGATECALL DUP8 0x2E PUSH0 INVALID 0xB5 SWAP13 0xA7 DUP6 0xD7 DUP8 0x4F STOP 0xBB 0xBD 0xBA 0xEB 0xBF PUSH5 0x736F6C6343 STOP ADDMOD 0x1E STOP CALLER "
				},
				"gasEstimates": {
					"creation": {
						"codeDepositCost": "1069200",
						"executionCost": "1112",
						"totalCost": "1070312"
					},
					"external": {
						"createSwap(address,bytes32,uint256)": "infinite",
						"getSwap(bytes32)": "infinite",
						"refund(bytes32)": "infinite",
						"swaps(bytes32)": "infinite",
						"withdraw(bytes32,bytes32)": "infinite"
					}
				},
				"methodIdentifiers": {
					"createSwap(address,bytes32,uint256)": "944eff63",
					"getSwap(bytes32)": "3da0e66e",
					"refund(bytes32)": "7249fbb6",
					"swaps(bytes32)": "eb84e7f2",
					"withdraw(bytes32,bytes32)": "63615149"
				}
			},
			"storageLayout": {
				"storage": [
					{
						"astId": 23,
						"contract": "contracts/HTLC.sol:HTLC",
						"label": "swaps",
						"offset": 0,
						"slot": "0",
						"type": "t_mapping(t_bytes32,t_struct(Swap)18_storage)"
					}
				],
				"types": {
					"t_address": {
						"encoding": "inplace",
						"label": "address",
						"numberOfBytes": "20"
					},
					"t_bool": {
						"encoding": "inplace",
						"label": "bool",
						"numberOfBytes": "1"
					},
					"t_bytes32": {
						"encoding": "inplace",
						"label": "bytes32",
						"numberOfBytes": "32"
					},
					"t_mapping(t_bytes32,t_struct(Swap)18_storage)": {
						"encoding": "mapping",
						"key": "t_bytes32",
						"label": "mapping(bytes32 => struct HTLC.Swap)",
						"numberOfBytes": "32",
						"value": "t_struct(Swap)18_storage"
					},
					"t_struct(Swap)18_storage": {
						"encoding": "inplace",
						"label": "struct HTLC.Swap",
						"members": [
							{
								"astId": 3,
								"contract": "contracts/HTLC.sol:HTLC",
								"label": "sender",
								"offset": 0,
								"slot": "0",
								"type": "t_address"
							},
							{
								"astId": 5,
								"contract": "contracts/HTLC.sol:HTLC",
								"label": "receiver",
								"offset": 0,
								"slot": "1",
								"type": "t_address"
							},
							{
								"astId": 7,
								"contract": "contracts/HTLC.sol:HTLC",
								"label": "amount",
								"offset": 0,
								"slot": "2",
								"type": "t_uint256"
							},
							{
								"astId": 9,
								"contract": "contracts/HTLC.sol:HTLC",
								"label": "timelock",
								"offset": 0,
								"slot": "3",
								"type": "t_uint256"
							},
							{
								"astId": 11,
								"contract": "contracts/HTLC.sol:HTLC",
								"label": "hashlock",
								"offset": 0,
								"slot": "4",
								"type": "t_bytes32"
							},
							{
								"astId": 13,
								"contract": "contracts/HTLC.sol:HTLC",
								"label": "withdrawn",
								"offset": 0,
								"slot": "5",
								"type": "t_bool"
							},
							{
								"astId": 15,
								"contract": "contracts/HTLC.sol:HTLC",
								"label": "refunded",
								"offset": 1,
								"slot": "5",
								"type": "t_bool"
							},
							{
								"astId": 17,
								"contract": "contracts/HTLC.sol:HTLC",
								"label": "secret",
								"offset": 0,
								"slot": "6",
								"type": "t_bytes32"
							}
						],
						"numberOfBytes": "224"
					},
					"t_uint256": {
						"encoding": "inplace",
						"label": "uint256",
						"numberOfBytes": "32"
					}
				}
			},
			"userdoc": {
				"kind": "user",
				"methods": {},
				"version": 1
			}
		}
	}
}