{
	"contracts/FundMe.sol": {
		"FundMe": {
			"abi": [
				{
					"inputs": [],
					"stateMutability": "nonpayable",
					"type": "constructor"
				},
				{
					"inputs": [],
					"name": "MIN_USD",
					"outputs": [
						{
							"internalType": "uint256",
							"name": "",
							"type": "uint256"
						}
					],
					"stateMutability": "view",
					"type": "function"
				},
				{
					"inputs": [
						{
							"internalType": "address",
							"name": "",
							"type": "address"
						}
					],
					"name": "addressToAmountFunded",
					"outputs": [
						{
							"internalType": "uint256",
							"name": "amountFunded",
							"type": "uint256"
						}
					],
					"stateMutability": "view",
					"type": "function"
				},
				{
					"inputs": [],
					"name": "fund",
					"outputs": [],
					"stateMutability": "payable",
					"type": "function"
				},
				{
					"inputs": [
						{
							"internalType": "uint256",
							"name": "",
							"type": "uint256"
						}
					],
					"name": "funders",
					"outputs": [
						{
							"internalType": "address",
							"name": "",
							"type": "address"
						}
					],
					"stateMutability": "view",
					"type": "function"
				},
				{
					"inputs": [],
					"name": "i_owner",
					"outputs": [
						{
							"internalType": "address",
							"name": "",
							"type": "address"
						}
					],
					"stateMutability": "view",
					"type": "function"
				},
				{
					"inputs": [],
					"name": "withdraw",
					"outputs": [],
					"stateMutability": "nonpayable",
					"type": "function"
				}
			],
			"devdoc": {
				"kind": "dev",
				"methods": {},
				"version": 1
			},
			"evm": {
				"assembly": "    /* \"contracts/FundMe.sol\":175:1926  contract FundMe{... */\n  mstore(0x40, 0xa0)\n    /* \"contracts/FundMe.sol\":638:685  constructor() {... */\n  callvalue\n  dup1\n  iszero\n  tag_1\n  jumpi\n  revert(0x00, 0x00)\ntag_1:\n  pop\n    /* \"contracts/FundMe.sol\":670:680  msg.sender */\n  caller\n    /* \"contracts/FundMe.sol\":660:680  i_owner = msg.sender */\n  0xffffffffffffffffffffffffffffffffffffffff\n  and\n  0x80\n  dup2\n  0xffffffffffffffffffffffffffffffffffffffff\n  and\n  dup2\n  mstore\n  pop\n  pop\n    /* \"contracts/FundMe.sol\":175:1926  contract FundMe{... */\n  mload(0x80)\n  codecopy(0x00, dataOffset(sub_0), dataSize(sub_0))\n  0x00\n  assignImmutable(\"0x646d998f946f968f0675fd4e3cb527e1222094ea0d9cc1fd615146a8fe29802e\")\n  return(0x00, dataSize(sub_0))\nstop\n\nsub_0: assembly {\n        /* \"contracts/FundMe.sol\":175:1926  contract FundMe{... */\n      mstore(0x40, 0x80)\n      jumpi(tag_1, lt(calldatasize, 0x04))\n      shr(0xe0, calldataload(0x00))\n      dup1\n      0x213dbea2\n      eq\n      tag_2\n      jumpi\n      dup1\n      0x3ccfd60b\n      eq\n      tag_3\n      jumpi\n      dup1\n      0x3e47d6f3\n      eq\n      tag_4\n      jumpi\n      dup1\n      0xb60d4288\n      eq\n      tag_5\n      jumpi\n      dup1\n      0xdba6335f\n      eq\n      tag_6\n      jumpi\n      dup1\n      0xdc0d3dff\n      eq\n      tag_7\n      jumpi\n    tag_1:\n      revert(0x00, 0x00)\n        /* \"contracts/FundMe.sol\":429:467  uint256 public constant MIN_USD = 5e18 */\n    tag_2:\n      callvalue\n      dup1\n      iszero\n      tag_8\n      jumpi\n      revert(0x00, 0x00)\n    tag_8:\n      pop\n      tag_9\n      tag_10\n      jump\t// in\n    tag_9:\n      mload(0x40)\n      tag_11\n      swap2\n      swap1\n      tag_12\n      jump\t// in\n    tag_11:\n      mload(0x40)\n      dup1\n      swap2\n      sub\n      swap1\n      return\n        /* \"contracts/FundMe.sol\":966:1790  function withdraw() public onlyOwner{... */\n    tag_3:\n      callvalue\n      dup1\n      iszero\n      tag_13\n      jumpi\n      revert(0x00, 0x00)\n    tag_13:\n      pop\n      tag_14\n      tag_15\n      jump\t// in\n    tag_14:\n      stop\n        /* \"contracts/FundMe.sol\":526:595  mapping(address => uint256 amountFunded) public addressToAmountFunded */\n    tag_4:\n      callvalue\n      dup1\n      iszero\n      tag_16\n      jumpi\n      revert(0x00, 0x00)\n    tag_16:\n      pop\n      tag_17\n      0x04\n      dup1\n      calldatasize\n      sub\n      dup2\n      add\n      swap1\n      tag_18\n      swap2\n      swap1\n      tag_19\n      jump\t// in\n    tag_18:\n      tag_20\n      jump\t// in\n    tag_17:\n      mload(0x40)\n      tag_21\n      swap2\n      swap1\n      tag_12\n      jump\t// in\n    tag_21:\n      mload(0x40)\n      dup1\n      swap2\n      sub\n      swap1\n      return\n        /* \"contracts/FundMe.sol\":690:960  function fund() public payable { ... */\n    tag_5:\n      tag_22\n      tag_23\n      jump\t// in\n    tag_22:\n      stop\n        /* \"contracts/FundMe.sol\":602:634  address public immutable i_owner */\n    tag_6:\n      callvalue\n      dup1\n      iszero\n      tag_24\n      jumpi\n      revert(0x00, 0x00)\n    tag_24:\n      pop\n      tag_25\n      tag_26\n      jump\t// in\n    tag_25:\n      mload(0x40)\n      tag_27\n      swap2\n      swap1\n      tag_28\n      jump\t// in\n    tag_27:\n      mload(0x40)\n      dup1\n      swap2\n      sub\n      swap1\n      return\n        /* \"contracts/FundMe.sol\":496:520  address[] public funders */\n    tag_7:\n      callvalue\n      dup1\n      iszero\n      tag_29\n      jumpi\n      revert(0x00, 0x00)\n    tag_29:\n      pop\n      tag_30\n      0x04\n      dup1\n      calldatasize\n      sub\n      dup2\n      add\n      swap1\n      tag_31\n      swap2\n      swap1\n      tag_32\n      jump\t// in\n    tag_31:\n      tag_33\n      jump\t// in\n    tag_30:\n      mload(0x40)\n      tag_34\n      swap2\n      swap1\n      tag_28\n      jump\t// in\n    tag_34:\n      mload(0x40)\n      dup1\n      swap2\n      sub\n      swap1\n      return\n        /* \"contracts/FundMe.sol\":429:467  uint256 public constant MIN_USD = 5e18 */\n    tag_10:\n        /* \"contracts/FundMe.sol\":463:467  5e18 */\n      0x4563918244f40000\n        /* \"contracts/FundMe.sol\":429:467  uint256 public constant MIN_USD = 5e18 */\n      dup2\n      jump\t// out\n        /* \"contracts/FundMe.sol\":966:1790  function withdraw() public onlyOwner{... */\n    tag_15:\n        /* \"contracts/FundMe.sol\":1846:1853  i_owner */\n      immutable(\"0x646d998f946f968f0675fd4e3cb527e1222094ea0d9cc1fd615146a8fe29802e\")\n        /* \"contracts/FundMe.sol\":1832:1853  msg.sender == i_owner */\n      0xffffffffffffffffffffffffffffffffffffffff\n      and\n        /* \"contracts/FundMe.sol\":1832:1842  msg.sender */\n      caller\n        /* \"contracts/FundMe.sol\":1832:1853  msg.sender == i_owner */\n      0xffffffffffffffffffffffffffffffffffffffff\n      and\n      eq\n        /* \"contracts/FundMe.sol\":1824:1875  require(msg.sender == i_owner, \"Must be the owner\") */\n      tag_36\n      jumpi\n      mload(0x40)\n      0x08c379a000000000000000000000000000000000000000000000000000000000\n      dup2\n      mstore\n      0x04\n      add\n      tag_37\n      swap1\n      tag_38\n      jump\t// in\n    tag_37:\n      mload(0x40)\n      dup1\n      swap2\n      sub\n      swap1\n      revert\n    tag_36:\n        /* \"contracts/FundMe.sol\":1032:1051  uint256 funderIndex */\n      0x00\n        /* \"contracts/FundMe.sol\":1054:1055  0 */\n      0x00\n        /* \"contracts/FundMe.sol\":1032:1055  uint256 funderIndex = 0 */\n      swap1\n      pop\n        /* \"contracts/FundMe.sol\":1027:1201  for (uint256 funderIndex = 0; funderIndex < funders.length; funderIndex++){... */\n    tag_40:\n        /* \"contracts/FundMe.sol\":1071:1078  funders */\n      0x00\n        /* \"contracts/FundMe.sol\":1071:1085  funders.length */\n      dup1\n      sload\n      swap1\n      pop\n        /* \"contracts/FundMe.sol\":1057:1068  funderIndex */\n      dup2\n        /* \"contracts/FundMe.sol\":1057:1085  funderIndex < funders.length */\n      lt\n        /* \"contracts/FundMe.sol\":1027:1201  for (uint256 funderIndex = 0; funderIndex < funders.length; funderIndex++){... */\n      iszero\n      tag_41\n      jumpi\n        /* \"contracts/FundMe.sol\":1111:1125  address funder */\n      0x00\n        /* \"contracts/FundMe.sol\":1128:1135  funders */\n      0x00\n        /* \"contracts/FundMe.sol\":1136:1147  funderIndex */\n      dup3\n        /* \"contracts/FundMe.sol\":1128:1148  funders[funderIndex] */\n      dup2\n      sload\n      dup2\n      lt\n      tag_43\n      jumpi\n      tag_44\n      tag_45\n      jump\t// in\n    tag_44:\n    tag_43:\n      swap1\n      0x00\n      mstore\n      keccak256(0x00, 0x20)\n      add\n      0x00\n      swap1\n      sload\n      swap1\n      0x0100\n      exp\n      swap1\n      div\n      0xffffffffffffffffffffffffffffffffffffffff\n      and\n        /* \"contracts/FundMe.sol\":1111:1148  address funder = funders[funderIndex] */\n      swap1\n      pop\n        /* \"contracts/FundMe.sol\":1190:1191  0 */\n      0x00\n        /* \"contracts/FundMe.sol\":1158:1179  addressToAmountFunded */\n      0x01\n        /* \"contracts/FundMe.sol\":1158:1187  addressToAmountFunded[funder] */\n      0x00\n        /* \"contracts/FundMe.sol\":1180:1186  funder */\n      dup4\n        /* \"contracts/FundMe.sol\":1158:1187  addressToAmountFunded[funder] */\n      0xffffffffffffffffffffffffffffffffffffffff\n      and\n      0xffffffffffffffffffffffffffffffffffffffff\n      and\n      dup2\n      mstore\n      0x20\n      add\n      swap1\n      dup2\n      mstore\n      0x20\n      add\n      0x00\n      keccak256\n        /* \"contracts/FundMe.sol\":1158:1191  addressToAmountFunded[funder] = 0 */\n      dup2\n      swap1\n      sstore\n      pop\n        /* \"contracts/FundMe.sol\":1101:1201  {... */\n      pop\n        /* \"contracts/FundMe.sol\":1087:1100  funderIndex++ */\n      dup1\n      dup1\n      0x01\n      add\n      swap2\n      pop\n      pop\n        /* \"contracts/FundMe.sol\":1027:1201  for (uint256 funderIndex = 0; funderIndex < funders.length; funderIndex++){... */\n      jump(tag_40)\n    tag_41:\n      pop\n        /* \"contracts/FundMe.sol\":1257:1258  0 */\n      0x00\n        /* \"contracts/FundMe.sol\":1243:1259  new address[](0) */\n      0xffffffffffffffff\n      dup2\n      gt\n      iszero\n      tag_47\n      jumpi\n      tag_48\n      tag_49\n      jump\t// in\n    tag_48:\n    tag_47:\n      mload(0x40)\n      swap1\n      dup1\n      dup3\n      mstore\n      dup1\n      0x20\n      mul\n      0x20\n      add\n      dup3\n      add\n      0x40\n      mstore\n      dup1\n      iszero\n      tag_50\n      jumpi\n      dup2\n      0x20\n      add\n      0x20\n      dup3\n      mul\n      dup1\n      calldatasize\n      dup4\n      calldatacopy\n      dup1\n      dup3\n      add\n      swap2\n      pop\n      pop\n      swap1\n      pop\n    tag_50:\n      pop\n        /* \"contracts/FundMe.sol\":1233:1240  funders */\n      0x00\n        /* \"contracts/FundMe.sol\":1233:1259  funders = new address[](0) */\n      swap1\n      dup1\n      mload\n      swap1\n      0x20\n      add\n      swap1\n      tag_51\n      swap3\n      swap2\n      swap1\n      tag_52\n      jump\t// in\n    tag_51:\n      pop\n        /* \"contracts/FundMe.sol\":1660:1676  bool callSuccess */\n      0x00\n        /* \"contracts/FundMe.sol\":1690:1700  msg.sender */\n      caller\n        /* \"contracts/FundMe.sol\":1682:1706  payable(msg.sender).call */\n      0xffffffffffffffffffffffffffffffffffffffff\n      and\n        /* \"contracts/FundMe.sol\":1714:1735  address(this).balance */\n      selfbalance\n        /* \"contracts/FundMe.sol\":1682:1740  payable(msg.sender).call{value: address(this).balance}(\"\") */\n      mload(0x40)\n      tag_53\n      swap1\n      tag_54\n      jump\t// in\n    tag_53:\n      0x00\n      mload(0x40)\n      dup1\n      dup4\n      sub\n      dup2\n      dup6\n      dup8\n      gas\n      call\n      swap3\n      pop\n      pop\n      pop\n      returndatasize\n      dup1\n      0x00\n      dup2\n      eq\n      tag_57\n      jumpi\n      mload(0x40)\n      swap2\n      pop\n      and(add(returndatasize, 0x3f), not(0x1f))\n      dup3\n      add\n      0x40\n      mstore\n      returndatasize\n      dup3\n      mstore\n      returndatasize\n      0x00\n      0x20\n      dup5\n      add\n      returndatacopy\n      jump(tag_56)\n    tag_57:\n      0x60\n      swap2\n      pop\n    tag_56:\n      pop\n        /* \"contracts/FundMe.sol\":1659:1740  (bool callSuccess, ) = payable(msg.sender).call{value: address(this).balance}(\"\") */\n      pop\n      swap1\n      pop\n        /* \"contracts/FundMe.sol\":1756:1767  callSuccess */\n      dup1\n        /* \"contracts/FundMe.sol\":1748:1783  require(callSuccess, \"Call failed\") */\n      tag_58\n      jumpi\n      mload(0x40)\n      0x08c379a000000000000000000000000000000000000000000000000000000000\n      dup2\n      mstore\n      0x04\n      add\n      tag_59\n      swap1\n      tag_60\n      jump\t// in\n    tag_59:\n      mload(0x40)\n      dup1\n      swap2\n      sub\n      swap1\n      revert\n    tag_58:\n        /* \"contracts/FundMe.sol\":1002:1790  {... */\n      pop\n        /* \"contracts/FundMe.sol\":966:1790  function withdraw() public onlyOwner{... */\n      jump\t// out\n        /* \"contracts/FundMe.sol\":526:595  mapping(address => uint256 amountFunded) public addressToAmountFunded */\n    tag_20:\n      mstore(0x20, 0x01)\n      dup1\n      0x00\n      mstore\n      keccak256(0x00, 0x40)\n      0x00\n      swap2\n      pop\n      swap1\n      pop\n      sload\n      dup2\n      jump\t// out\n        /* \"contracts/FundMe.sol\":690:960  function fund() public payable { ... */\n    tag_23:\n        /* \"contracts/FundMe.sol\":463:467  5e18 */\n      0x4563918244f40000\n        /* \"contracts/FundMe.sol\":740:765  msg.value.getConversion() */\n      tag_62\n        /* \"contracts/FundMe.sol\":740:749  msg.value */\n      callvalue\n        /* \"contracts/FundMe.sol\":740:763  msg.value.getConversion */\n      tag_63\n        /* \"contracts/FundMe.sol\":740:765  msg.value.getConversion() */\n      jump\t// in\n    tag_62:\n        /* \"contracts/FundMe.sol\":740:777  msg.value.getConversion() >=  MIN_USD */\n      lt\n      iszero\n        /* \"contracts/FundMe.sol\":732:805  require(msg.value.getConversion() >=  MIN_USD,  \"didn't send enough ETH\") */\n      tag_64\n      jumpi\n      mload(0x40)\n      0x08c379a000000000000000000000000000000000000000000000000000000000\n      dup2\n      mstore\n      0x04\n      add\n      tag_65\n      swap1\n      tag_66\n      jump\t// in\n    tag_65:\n      mload(0x40)\n      dup1\n      swap2\n      sub\n      swap1\n      revert\n    tag_64:\n        /* \"contracts/FundMe.sol\":815:822  funders */\n      0x00\n        /* \"contracts/FundMe.sol\":828:838  msg.sender */\n      caller\n        /* \"contracts/FundMe.sol\":815:839  funders.push(msg.sender) */\n      swap1\n      dup1\n      0x01\n      dup2\n      sload\n      add\n      dup1\n      dup3\n      sstore\n      dup1\n      swap2\n      pop\n      pop\n      0x01\n      swap1\n      sub\n      swap1\n      0x00\n      mstore\n      keccak256(0x00, 0x20)\n      add\n      0x00\n      swap1\n      swap2\n      swap1\n      swap2\n      swap1\n      swap2\n      0x0100\n      exp\n      dup2\n      sload\n      dup2\n      0xffffffffffffffffffffffffffffffffffffffff\n      mul\n      not\n      and\n      swap1\n      dup4\n      0xffffffffffffffffffffffffffffffffffffffff\n      and\n      mul\n      or\n      swap1\n      sstore\n      pop\n        /* \"contracts/FundMe.sol\":921:930  msg.value */\n      callvalue\n        /* \"contracts/FundMe.sol\":885:906  addressToAmountFunded */\n      0x01\n        /* \"contracts/FundMe.sol\":885:918  addressToAmountFunded[msg.sender] */\n      0x00\n        /* \"contracts/FundMe.sol\":907:917  msg.sender */\n      caller\n        /* \"contracts/FundMe.sol\":885:918  addressToAmountFunded[msg.sender] */\n      0xffffffffffffffffffffffffffffffffffffffff\n      and\n      0xffffffffffffffffffffffffffffffffffffffff\n      and\n      dup2\n      mstore\n      0x20\n      add\n      swap1\n      dup2\n      mstore\n      0x20\n      add\n      0x00\n      keccak256\n      sload\n        /* \"contracts/FundMe.sol\":885:930  addressToAmountFunded[msg.sender] + msg.value */\n      tag_68\n      swap2\n      swap1\n      tag_69\n      jump\t// in\n    tag_68:\n        /* \"contracts/FundMe.sol\":849:870  addressToAmountFunded */\n      0x01\n        /* \"contracts/FundMe.sol\":849:882  addressToAmountFunded[msg.sender] */\n      0x00\n        /* \"contracts/FundMe.sol\":871:881  msg.sender */\n      caller\n        /* \"contracts/FundMe.sol\":849:882  addressToAmountFunded[msg.sender] */\n      0xffffffffffffffffffffffffffffffffffffffff\n      and\n      0xffffffffffffffffffffffffffffffffffffffff\n      and\n      dup2\n      mstore\n      0x20\n      add\n      swap1\n      dup2\n      mstore\n      0x20\n      add\n      0x00\n      keccak256\n        /* \"contracts/FundMe.sol\":849:930  addressToAmountFunded[msg.sender] = addressToAmountFunded[msg.sender] + msg.value */\n      dup2\n      swap1\n      sstore\n      pop\n        /* \"contracts/FundMe.sol\":690:960  function fund() public payable { ... */\n      jump\t// out\n        /* \"contracts/FundMe.sol\":602:634  address public immutable i_owner */\n    tag_26:\n      immutable(\"0x646d998f946f968f0675fd4e3cb527e1222094ea0d9cc1fd615146a8fe29802e\")\n      dup2\n      jump\t// out\n        /* \"contracts/FundMe.sol\":496:520  address[] public funders */\n    tag_33:\n      0x00\n      dup2\n      dup2\n      sload\n      dup2\n      lt\n      tag_70\n      jumpi\n      0x00\n      dup1\n      revert\n    tag_70:\n      swap1\n      0x00\n      mstore\n      keccak256(0x00, 0x20)\n      add\n      0x00\n      swap2\n      pop\n      sload\n      swap1\n      0x0100\n      exp\n      swap1\n      div\n      0xffffffffffffffffffffffffffffffffffffffff\n      and\n      dup2\n      jump\t// out\n        /* \"contracts/converter.sol\":930:1187  function getConversion(uint256 ethAmount) internal view returns (uint256) {... */\n    tag_63:\n        /* \"contracts/converter.sol\":995:1002  uint256 */\n      0x00\n        /* \"contracts/converter.sol\":1014:1030  uint256 ethPrice */\n      0x00\n        /* \"contracts/converter.sol\":1033:1043  getPrice() */\n      tag_73\n        /* \"contracts/converter.sol\":1033:1041  getPrice */\n      tag_74\n        /* \"contracts/converter.sol\":1033:1043  getPrice() */\n      jump\t// in\n    tag_73:\n        /* \"contracts/converter.sol\":1014:1043  uint256 ethPrice = getPrice() */\n      swap1\n      pop\n        /* \"contracts/converter.sol\":1095:1117  uint256 ethAmountInUsd */\n      0x00\n        /* \"contracts/converter.sol\":1145:1149  1e18 */\n      0x0de0b6b3a7640000\n        /* \"contracts/converter.sol\":1132:1141  ethAmount */\n      dup5\n        /* \"contracts/converter.sol\":1121:1129  ethPrice */\n      dup4\n        /* \"contracts/converter.sol\":1121:1141  ethPrice * ethAmount */\n      tag_75\n      swap2\n      swap1\n      tag_76\n      jump\t// in\n    tag_75:\n        /* \"contracts/converter.sol\":1120:1149  (ethPrice * ethAmount) / 1e18 */\n      tag_77\n      swap2\n      swap1\n      tag_78\n      jump\t// in\n    tag_77:\n        /* \"contracts/converter.sol\":1095:1149  uint256 ethAmountInUsd = (ethPrice * ethAmount) / 1e18 */\n      swap1\n      pop\n        /* \"contracts/converter.sol\":1166:1180  ethAmountInUsd */\n      dup1\n        /* \"contracts/converter.sol\":1159:1180  return ethAmountInUsd */\n      swap3\n      pop\n      pop\n      pop\n        /* \"contracts/converter.sol\":930:1187  function getConversion(uint256 ethAmount) internal view returns (uint256) {... */\n      swap2\n      swap1\n      pop\n      jump\t// out\n        /* \"contracts/converter.sol\":193:661  function getPrice() internal view returns(uint256) {... */\n    tag_74:\n        /* \"contracts/converter.sol\":235:242  uint256 */\n      0x00\n        /* \"contracts/converter.sol\":423:454  AggregatorV3Interface priceFeed */\n      0x00\n        /* \"contracts/converter.sol\":479:521  0x694AA1769357215DE4FAC081bf1f309aDC325306 */\n      0x694aa1769357215de4fac081bf1f309adc325306\n        /* \"contracts/converter.sol\":423:522  AggregatorV3Interface priceFeed = AggregatorV3Interface(0x694AA1769357215DE4FAC081bf1f309aDC325306) */\n      swap1\n      pop\n        /* \"contracts/converter.sol\":532:544  int256 price */\n      0x00\n        /* \"contracts/converter.sol\":551:560  priceFeed */\n      dup2\n        /* \"contracts/converter.sol\":551:576  priceFeed.latestRoundData */\n      0xffffffffffffffffffffffffffffffffffffffff\n      and\n      0xfeaf968c\n        /* \"contracts/converter.sol\":551:578  priceFeed.latestRoundData() */\n      mload(0x40)\n      dup2\n      0xffffffff\n      and\n      0xe0\n      shl\n      dup2\n      mstore\n      0x04\n      add\n      0xa0\n      mload(0x40)\n      dup1\n      dup4\n      sub\n      dup2\n      dup7\n      gas\n      staticcall\n      iszero\n      dup1\n      iszero\n      tag_81\n      jumpi\n      returndatacopy(0x00, 0x00, returndatasize)\n      revert(0x00, returndatasize)\n    tag_81:\n      pop\n      pop\n      pop\n      pop\n      mload(0x40)\n      returndatasize\n      not(0x1f)\n      0x1f\n      dup3\n      add\n      and\n      dup3\n      add\n      dup1\n      0x40\n      mstore\n      pop\n      dup2\n      add\n      swap1\n      tag_82\n      swap2\n      swap1\n      tag_83\n      jump\t// in\n    tag_82:\n        /* \"contracts/converter.sol\":530:578  (,int256 price,,,) = priceFeed.latestRoundData() */\n      pop\n      pop\n      pop\n      swap2\n      pop\n      pop\n        /* \"contracts/converter.sol\":649:653  1e10 */\n      0x02540be400\n        /* \"contracts/converter.sol\":641:646  price */\n      dup2\n        /* \"contracts/converter.sol\":641:653  price * 1e10 */\n      tag_84\n      swap2\n      swap1\n      tag_85\n      jump\t// in\n    tag_84:\n        /* \"contracts/converter.sol\":626:654  return uint256(price * 1e10) */\n      swap3\n      pop\n      pop\n      pop\n        /* \"contracts/converter.sol\":193:661  function getPrice() internal view returns(uint256) {... */\n      swap1\n      jump\t// out\n    tag_52:\n      dup3\n      dup1\n      sload\n      dup3\n      dup3\n      sstore\n      swap1\n      0x00\n      mstore\n      keccak256(0x00, 0x20)\n      swap1\n      dup2\n      add\n      swap3\n      dup3\n      iszero\n      tag_86\n      jumpi\n      swap2\n      0x20\n      mul\n      dup3\n      add\n    tag_87:\n      dup3\n      dup2\n      gt\n      iszero\n      tag_88\n      jumpi\n      dup3\n      mload\n      dup3\n      exp(0x0100, 0x00)\n      dup2\n      sload\n      dup2\n      0xffffffffffffffffffffffffffffffffffffffff\n      mul\n      not\n      and\n      swap1\n      dup4\n      0xffffffffffffffffffffffffffffffffffffffff\n      and\n      mul\n      or\n      swap1\n      sstore\n      pop\n      swap2\n      0x20\n      add\n      swap2\n      swap1\n      0x01\n      add\n      swap1\n      jump(tag_87)\n    tag_88:\n    tag_86:\n      pop\n      swap1\n      pop\n      tag_89\n      swap2\n      swap1\n      tag_90\n      jump\t// in\n    tag_89:\n      pop\n      swap1\n      jump\t// out\n    tag_90:\n    tag_91:\n      dup1\n      dup3\n      gt\n      iszero\n      tag_92\n      jumpi\n      0x00\n      dup2\n      0x00\n      swap1\n      sstore\n      pop\n      0x01\n      add\n      jump(tag_91)\n    tag_92:\n      pop\n      swap1\n      jump\t// out\n        /* \"#utility.yul\":7:84   */\n    tag_93:\n        /* \"#utility.yul\":44:51   */\n      0x00\n        /* \"#utility.yul\":73:78   */\n      dup2\n        /* \"#utility.yul\":62:78   */\n      swap1\n      pop\n        /* \"#utility.yul\":7:84   */\n      swap2\n      swap1\n      pop\n      jump\t// out\n        /* \"#utility.yul\":90:208   */\n    tag_94:\n        /* \"#utility.yul\":177:201   */\n      tag_127\n        /* \"#utility.yul\":195:200   */\n      dup2\n        /* \"#utility.yul\":177:201   */\n      tag_93\n      jump\t// in\n    tag_127:\n        /* \"#utility.yul\":172:175   */\n      dup3\n        /* \"#utility.yul\":165:202   */\n      mstore\n        /* \"#utility.yul\":90:208   */\n      pop\n      pop\n      jump\t// out\n        /* \"#utility.yul\":214:436   */\n    tag_12:\n        /* \"#utility.yul\":307:311   */\n      0x00\n        /* \"#utility.yul\":345:347   */\n      0x20\n        /* \"#utility.yul\":334:343   */\n      dup3\n        /* \"#utility.yul\":330:348   */\n      add\n        /* \"#utility.yul\":322:348   */\n      swap1\n      pop\n        /* \"#utility.yul\":358:429   */\n      tag_129\n        /* \"#utility.yul\":426:427   */\n      0x00\n        /* \"#utility.yul\":415:424   */\n      dup4\n        /* \"#utility.yul\":411:428   */\n      add\n        /* \"#utility.yul\":402:408   */\n      dup5\n        /* \"#utility.yul\":358:429   */\n      tag_94\n      jump\t// in\n    tag_129:\n        /* \"#utility.yul\":214:436   */\n      swap3\n      swap2\n      pop\n      pop\n      jump\t// out\n        /* \"#utility.yul\":523:640   */\n    tag_96:\n        /* \"#utility.yul\":632:633   */\n      0x00\n        /* \"#utility.yul\":629:630   */\n      0x00\n        /* \"#utility.yul\":622:634   */\n      revert\n        /* \"#utility.yul\":769:895   */\n    tag_98:\n        /* \"#utility.yul\":806:813   */\n      0x00\n        /* \"#utility.yul\":846:888   */\n      0xffffffffffffffffffffffffffffffffffffffff\n        /* \"#utility.yul\":839:844   */\n      dup3\n        /* \"#utility.yul\":835:889   */\n      and\n        /* \"#utility.yul\":824:889   */\n      swap1\n      pop\n        /* \"#utility.yul\":769:895   */\n      swap2\n      swap1\n      pop\n      jump\t// out\n        /* \"#utility.yul\":901:997   */\n    tag_99:\n        /* \"#utility.yul\":938:945   */\n      0x00\n        /* \"#utility.yul\":967:991   */\n      tag_135\n        /* \"#utility.yul\":985:990   */\n      dup3\n        /* \"#utility.yul\":967:991   */\n      tag_98\n      jump\t// in\n    tag_135:\n        /* \"#utility.yul\":956:991   */\n      swap1\n      pop\n        /* \"#utility.yul\":901:997   */\n      swap2\n      swap1\n      pop\n      jump\t// out\n        /* \"#utility.yul\":1003:1125   */\n    tag_100:\n        /* \"#utility.yul\":1076:1100   */\n      tag_137\n        /* \"#utility.yul\":1094:1099   */\n      dup2\n        /* \"#utility.yul\":1076:1100   */\n      tag_99\n      jump\t// in\n    tag_137:\n        /* \"#utility.yul\":1069:1074   */\n      dup2\n        /* \"#utility.yul\":1066:1101   */\n      eq\n        /* \"#utility.yul\":1056:1119   */\n      tag_138\n      jumpi\n        /* \"#utility.yul\":1115:1116   */\n      0x00\n        /* \"#utility.yul\":1112:1113   */\n      0x00\n        /* \"#utility.yul\":1105:1117   */\n      revert\n        /* \"#utility.yul\":1056:1119   */\n    tag_138:\n        /* \"#utility.yul\":1003:1125   */\n      pop\n      jump\t// out\n        /* \"#utility.yul\":1131:1270   */\n    tag_101:\n        /* \"#utility.yul\":1177:1182   */\n      0x00\n        /* \"#utility.yul\":1215:1221   */\n      dup2\n        /* \"#utility.yul\":1202:1222   */\n      calldataload\n        /* \"#utility.yul\":1193:1222   */\n      swap1\n      pop\n        /* \"#utility.yul\":1231:1264   */\n      tag_140\n        /* \"#utility.yul\":1258:1263   */\n      dup2\n        /* \"#utility.yul\":1231:1264   */\n      tag_100\n      jump\t// in\n    tag_140:\n        /* \"#utility.yul\":1131:1270   */\n      swap3\n      swap2\n      pop\n      pop\n      jump\t// out\n        /* \"#utility.yul\":1276:1605   */\n    tag_19:\n        /* \"#utility.yul\":1335:1341   */\n      0x00\n        /* \"#utility.yul\":1384:1386   */\n      0x20\n        /* \"#utility.yul\":1372:1381   */\n      dup3\n        /* \"#utility.yul\":1363:1370   */\n      dup5\n        /* \"#utility.yul\":1359:1382   */\n      sub\n        /* \"#utility.yul\":1355:1387   */\n      slt\n        /* \"#utility.yul\":1352:1471   */\n      iszero\n      tag_142\n      jumpi\n        /* \"#utility.yul\":1390:1469   */\n      tag_143\n      tag_96\n      jump\t// in\n    tag_143:\n        /* \"#utility.yul\":1352:1471   */\n    tag_142:\n        /* \"#utility.yul\":1510:1511   */\n      0x00\n        /* \"#utility.yul\":1535:1588   */\n      tag_144\n        /* \"#utility.yul\":1580:1587   */\n      dup5\n        /* \"#utility.yul\":1571:1577   */\n      dup3\n        /* \"#utility.yul\":1560:1569   */\n      dup6\n        /* \"#utility.yul\":1556:1578   */\n      add\n        /* \"#utility.yul\":1535:1588   */\n      tag_101\n      jump\t// in\n    tag_144:\n        /* \"#utility.yul\":1525:1588   */\n      swap2\n      pop\n        /* \"#utility.yul\":1481:1598   */\n      pop\n        /* \"#utility.yul\":1276:1605   */\n      swap3\n      swap2\n      pop\n      pop\n      jump\t// out\n        /* \"#utility.yul\":1611:1729   */\n    tag_102:\n        /* \"#utility.yul\":1698:1722   */\n      tag_146\n        /* \"#utility.yul\":1716:1721   */\n      dup2\n        /* \"#utility.yul\":1698:1722   */\n      tag_99\n      jump\t// in\n    tag_146:\n        /* \"#utility.yul\":1693:1696   */\n      dup3\n        /* \"#utility.yul\":1686:1723   */\n      mstore\n        /* \"#utility.yul\":1611:1729   */\n      pop\n      pop\n      jump\t// out\n        /* \"#utility.yul\":1735:1957   */\n    tag_28:\n        /* \"#utility.yul\":1828:1832   */\n      0x00\n        /* \"#utility.yul\":1866:1868   */\n      0x20\n        /* \"#utility.yul\":1855:1864   */\n      dup3\n        /* \"#utility.yul\":1851:1869   */\n      add\n        /* \"#utility.yul\":1843:1869   */\n      swap1\n      pop\n        /* \"#utility.yul\":1879:1950   */\n      tag_148\n        /* \"#utility.yul\":1947:1948   */\n      0x00\n        /* \"#utility.yul\":1936:1945   */\n      dup4\n        /* \"#utility.yul\":1932:1949   */\n      add\n        /* \"#utility.yul\":1923:1929   */\n      dup5\n        /* \"#utility.yul\":1879:1950   */\n      tag_102\n      jump\t// in\n    tag_148:\n        /* \"#utility.yul\":1735:1957   */\n      swap3\n      swap2\n      pop\n      pop\n      jump\t// out\n        /* \"#utility.yul\":1963:2085   */\n    tag_103:\n        /* \"#utility.yul\":2036:2060   */\n      tag_150\n        /* \"#utility.yul\":2054:2059   */\n      dup2\n        /* \"#utility.yul\":2036:2060   */\n      tag_93\n      jump\t// in\n    tag_150:\n        /* \"#utility.yul\":2029:2034   */\n      dup2\n        /* \"#utility.yul\":2026:2061   */\n      eq\n        /* \"#utility.yul\":2016:2079   */\n      tag_151\n      jumpi\n        /* \"#utility.yul\":2075:2076   */\n      0x00\n        /* \"#utility.yul\":2072:2073   */\n      0x00\n        /* \"#utility.yul\":2065:2077   */\n      revert\n        /* \"#utility.yul\":2016:2079   */\n    tag_151:\n        /* \"#utility.yul\":1963:2085   */\n      pop\n      jump\t// out\n        /* \"#utility.yul\":2091:2230   */\n    tag_104:\n        /* \"#utility.yul\":2137:2142   */\n      0x00\n        /* \"#utility.yul\":2175:2181   */\n      dup2\n        /* \"#utility.yul\":2162:2182   */\n      calldataload\n        /* \"#utility.yul\":2153:2182   */\n      swap1\n      pop\n        /* \"#utility.yul\":2191:2224   */\n      tag_153\n        /* \"#utility.yul\":2218:2223   */\n      dup2\n        /* \"#utility.yul\":2191:2224   */\n      tag_103\n      jump\t// in\n    tag_153:\n        /* \"#utility.yul\":2091:2230   */\n      swap3\n      swap2\n      pop\n      pop\n      jump\t// out\n        /* \"#utility.yul\":2236:2565   */\n    tag_32:\n        /* \"#utility.yul\":2295:2301   */\n      0x00\n        /* \"#utility.yul\":2344:2346   */\n      0x20\n        /* \"#utility.yul\":2332:2341   */\n      dup3\n        /* \"#utility.yul\":2323:2330   */\n      dup5\n        /* \"#utility.yul\":2319:2342   */\n      sub\n        /* \"#utility.yul\":2315:2347   */\n      slt\n        /* \"#utility.yul\":2312:2431   */\n      iszero\n      tag_155\n      jumpi\n        /* \"#utility.yul\":2350:2429   */\n      tag_156\n      tag_96\n      jump\t// in\n    tag_156:\n        /* \"#utility.yul\":2312:2431   */\n    tag_155:\n        /* \"#utility.yul\":2470:2471   */\n      0x00\n        /* \"#utility.yul\":2495:2548   */\n      tag_157\n        /* \"#utility.yul\":2540:2547   */\n      dup5\n        /* \"#utility.yul\":2531:2537   */\n      dup3\n        /* \"#utility.yul\":2520:2529   */\n      dup6\n        /* \"#utility.yul\":2516:2538   */\n      add\n        /* \"#utility.yul\":2495:2548   */\n      tag_104\n      jump\t// in\n    tag_157:\n        /* \"#utility.yul\":2485:2548   */\n      swap2\n      pop\n        /* \"#utility.yul\":2441:2558   */\n      pop\n        /* \"#utility.yul\":2236:2565   */\n      swap3\n      swap2\n      pop\n      pop\n      jump\t// out\n        /* \"#utility.yul\":2571:2740   */\n    tag_105:\n        /* \"#utility.yul\":2655:2666   */\n      0x00\n        /* \"#utility.yul\":2689:2695   */\n      dup3\n        /* \"#utility.yul\":2684:2687   */\n      dup3\n        /* \"#utility.yul\":2677:2696   */\n      mstore\n        /* \"#utility.yul\":2729:2733   */\n      0x20\n        /* \"#utility.yul\":2724:2727   */\n      dup3\n        /* \"#utility.yul\":2720:2734   */\n      add\n        /* \"#utility.yul\":2705:2734   */\n      swap1\n      pop\n        /* \"#utility.yul\":2571:2740   */\n      swap3\n      swap2\n      pop\n      pop\n      jump\t// out\n        /* \"#utility.yul\":2746:2913   */\n    tag_106:\n        /* \"#utility.yul\":2886:2905   */\n      0x4d75737420626520746865206f776e6572000000000000000000000000000000\n        /* \"#utility.yul\":2882:2883   */\n      0x00\n        /* \"#utility.yul\":2874:2880   */\n      dup3\n        /* \"#utility.yul\":2870:2884   */\n      add\n        /* \"#utility.yul\":2863:2906   */\n      mstore\n        /* \"#utility.yul\":2746:2913   */\n      pop\n      jump\t// out\n        /* \"#utility.yul\":2919:3285   */\n    tag_107:\n        /* \"#utility.yul\":3061:3064   */\n      0x00\n        /* \"#utility.yul\":3082:3149   */\n      tag_161\n        /* \"#utility.yul\":3146:3148   */\n      0x11\n        /* \"#utility.yul\":3141:3144   */\n      dup4\n        /* \"#utility.yul\":3082:3149   */\n      tag_105\n      jump\t// in\n    tag_161:\n        /* \"#utility.yul\":3075:3149   */\n      swap2\n      pop\n        /* \"#utility.yul\":3158:3251   */\n      tag_162\n        /* \"#utility.yul\":3247:3250   */\n      dup3\n        /* \"#utility.yul\":3158:3251   */\n      tag_106\n      jump\t// in\n    tag_162:\n        /* \"#utility.yul\":3276:3278   */\n      0x20\n        /* \"#utility.yul\":3271:3274   */\n      dup3\n        /* \"#utility.yul\":3267:3279   */\n      add\n        /* \"#utility.yul\":3260:3279   */\n      swap1\n      pop\n        /* \"#utility.yul\":2919:3285   */\n      swap2\n      swap1\n      pop\n      jump\t// out\n        /* \"#utility.yul\":3291:3710   */\n    tag_38:\n        /* \"#utility.yul\":3457:3461   */\n      0x00\n        /* \"#utility.yul\":3495:3497   */\n      0x20\n        /* \"#utility.yul\":3484:3493   */\n      dup3\n        /* \"#utility.yul\":3480:3498   */\n      add\n        /* \"#utility.yul\":3472:3498   */\n      swap1\n      pop\n        /* \"#utility.yul\":3544:3553   */\n      dup2\n        /* \"#utility.yul\":3538:3542   */\n      dup2\n        /* \"#utility.yul\":3534:3554   */\n      sub\n        /* \"#utility.yul\":3530:3531   */\n      0x00\n        /* \"#utility.yul\":3519:3528   */\n      dup4\n        /* \"#utility.yul\":3515:3532   */\n      add\n        /* \"#utility.yul\":3508:3555   */\n      mstore\n        /* \"#utility.yul\":3572:3703   */\n      tag_164\n        /* \"#utility.yul\":3698:3702   */\n      dup2\n        /* \"#utility.yul\":3572:3703   */\n      tag_107\n      jump\t// in\n    tag_164:\n        /* \"#utility.yul\":3564:3703   */\n      swap1\n      pop\n        /* \"#utility.yul\":3291:3710   */\n      swap2\n      swap1\n      pop\n      jump\t// out\n        /* \"#utility.yul\":3716:3896   */\n    tag_45:\n        /* \"#utility.yul\":3764:3841   */\n      0x4e487b7100000000000000000000000000000000000000000000000000000000\n        /* \"#utility.yul\":3761:3762   */\n      0x00\n        /* \"#utility.yul\":3754:3842   */\n      mstore\n        /* \"#utility.yul\":3861:3865   */\n      0x32\n        /* \"#utility.yul\":3858:3859   */\n      0x04\n        /* \"#utility.yul\":3851:3866   */\n      mstore\n        /* \"#utility.yul\":3885:3889   */\n      0x24\n        /* \"#utility.yul\":3882:3883   */\n      0x00\n        /* \"#utility.yul\":3875:3890   */\n      revert\n        /* \"#utility.yul\":3902:4082   */\n    tag_49:\n        /* \"#utility.yul\":3950:4027   */\n      0x4e487b7100000000000000000000000000000000000000000000000000000000\n        /* \"#utility.yul\":3947:3948   */\n      0x00\n        /* \"#utility.yul\":3940:4028   */\n      mstore\n        /* \"#utility.yul\":4047:4051   */\n      0x41\n        /* \"#utility.yul\":4044:4045   */\n      0x04\n        /* \"#utility.yul\":4037:4052   */\n      mstore\n        /* \"#utility.yul\":4071:4075   */\n      0x24\n        /* \"#utility.yul\":4068:4069   */\n      0x00\n        /* \"#utility.yul\":4061:4076   */\n      revert\n        /* \"#utility.yul\":4088:4235   */\n    tag_108:\n        /* \"#utility.yul\":4189:4200   */\n      0x00\n        /* \"#utility.yul\":4226:4229   */\n      dup2\n        /* \"#utility.yul\":4211:4229   */\n      swap1\n      pop\n        /* \"#utility.yul\":4088:4235   */\n      swap3\n      swap2\n      pop\n      pop\n      jump\t// out\n        /* \"#utility.yul\":4241:4355   */\n    tag_109:\n      pop\n      jump\t// out\n        /* \"#utility.yul\":4361:4759   */\n    tag_110:\n        /* \"#utility.yul\":4520:4523   */\n      0x00\n        /* \"#utility.yul\":4541:4624   */\n      tag_170\n        /* \"#utility.yul\":4622:4623   */\n      0x00\n        /* \"#utility.yul\":4617:4620   */\n      dup4\n        /* \"#utility.yul\":4541:4624   */\n      tag_108\n      jump\t// in\n    tag_170:\n        /* \"#utility.yul\":4534:4624   */\n      swap2\n      pop\n        /* \"#utility.yul\":4633:4726   */\n      tag_171\n        /* \"#utility.yul\":4722:4725   */\n      dup3\n        /* \"#utility.yul\":4633:4726   */\n      tag_109\n      jump\t// in\n    tag_171:\n        /* \"#utility.yul\":4751:4752   */\n      0x00\n        /* \"#utility.yul\":4746:4749   */\n      dup3\n        /* \"#utility.yul\":4742:4753   */\n      add\n        /* \"#utility.yul\":4735:4753   */\n      swap1\n      pop\n        /* \"#utility.yul\":4361:4759   */\n      swap2\n      swap1\n      pop\n      jump\t// out\n        /* \"#utility.yul\":4765:5144   */\n    tag_54:\n        /* \"#utility.yul\":4949:4952   */\n      0x00\n        /* \"#utility.yul\":4971:5118   */\n      tag_173\n        /* \"#utility.yul\":5114:5117   */\n      dup3\n        /* \"#utility.yul\":4971:5118   */\n      tag_110\n      jump\t// in\n    tag_173:\n        /* \"#utility.yul\":4964:5118   */\n      swap2\n      pop\n        /* \"#utility.yul\":5135:5138   */\n      dup2\n        /* \"#utility.yul\":5128:5138   */\n      swap1\n      pop\n        /* \"#utility.yul\":4765:5144   */\n      swap2\n      swap1\n      pop\n      jump\t// out\n        /* \"#utility.yul\":5150:5311   */\n    tag_111:\n        /* \"#utility.yul\":5290:5303   */\n      0x43616c6c206661696c6564000000000000000000000000000000000000000000\n        /* \"#utility.yul\":5286:5287   */\n      0x00\n        /* \"#utility.yul\":5278:5284   */\n      dup3\n        /* \"#utility.yul\":5274:5288   */\n      add\n        /* \"#utility.yul\":5267:5304   */\n      mstore\n        /* \"#utility.yul\":5150:5311   */\n      pop\n      jump\t// out\n        /* \"#utility.yul\":5317:5683   */\n    tag_112:\n        /* \"#utility.yul\":5459:5462   */\n      0x00\n        /* \"#utility.yul\":5480:5547   */\n      tag_176\n        /* \"#utility.yul\":5544:5546   */\n      0x0b\n        /* \"#utility.yul\":5539:5542   */\n      dup4\n        /* \"#utility.yul\":5480:5547   */\n      tag_105\n      jump\t// in\n    tag_176:\n        /* \"#utility.yul\":5473:5547   */\n      swap2\n      pop\n        /* \"#utility.yul\":5556:5649   */\n      tag_177\n        /* \"#utility.yul\":5645:5648   */\n      dup3\n        /* \"#utility.yul\":5556:5649   */\n      tag_111\n      jump\t// in\n    tag_177:\n        /* \"#utility.yul\":5674:5676   */\n      0x20\n        /* \"#utility.yul\":5669:5672   */\n      dup3\n        /* \"#utility.yul\":5665:5677   */\n      add\n        /* \"#utility.yul\":5658:5677   */\n      swap1\n      pop\n        /* \"#utility.yul\":5317:5683   */\n      swap2\n      swap1\n      pop\n      jump\t// out\n        /* \"#utility.yul\":5689:6108   */\n    tag_60:\n        /* \"#utility.yul\":5855:5859   */\n      0x00\n        /* \"#utility.yul\":5893:5895   */\n      0x20\n        /* \"#utility.yul\":5882:5891   */\n      dup3\n        /* \"#utility.yul\":5878:5896   */\n      add\n        /* \"#utility.yul\":5870:5896   */\n      swap1\n      pop\n        /* \"#utility.yul\":5942:5951   */\n      dup2\n        /* \"#utility.yul\":5936:5940   */\n      dup2\n        /* \"#utility.yul\":5932:5952   */\n      sub\n        /* \"#utility.yul\":5928:5929   */\n      0x00\n        /* \"#utility.yul\":5917:5926   */\n      dup4\n        /* \"#utility.yul\":5913:5930   */\n      add\n        /* \"#utility.yul\":5906:5953   */\n      mstore\n        /* \"#utility.yul\":5970:6101   */\n      tag_179\n        /* \"#utility.yul\":6096:6100   */\n      dup2\n        /* \"#utility.yul\":5970:6101   */\n      tag_112\n      jump\t// in\n    tag_179:\n        /* \"#utility.yul\":5962:6101   */\n      swap1\n      pop\n        /* \"#utility.yul\":5689:6108   */\n      swap2\n      swap1\n      pop\n      jump\t// out\n        /* \"#utility.yul\":6114:6286   */\n    tag_113:\n        /* \"#utility.yul\":6254:6278   */\n      0x6469646e27742073656e6420656e6f7567682045544800000000000000000000\n        /* \"#utility.yul\":6250:6251   */\n      0x00\n        /* \"#utility.yul\":6242:6248   */\n      dup3\n        /* \"#utility.yul\":6238:6252   */\n      add\n        /* \"#utility.yul\":6231:6279   */\n      mstore\n        /* \"#utility.yul\":6114:6286   */\n      pop\n      jump\t// out\n        /* \"#utility.yul\":6292:6658   */\n    tag_114:\n        /* \"#utility.yul\":6434:6437   */\n      0x00\n        /* \"#utility.yul\":6455:6522   */\n      tag_182\n        /* \"#utility.yul\":6519:6521   */\n      0x16\n        /* \"#utility.yul\":6514:6517   */\n      dup4\n        /* \"#utility.yul\":6455:6522   */\n      tag_105\n      jump\t// in\n    tag_182:\n        /* \"#utility.yul\":6448:6522   */\n      swap2\n      pop\n        /* \"#utility.yul\":6531:6624   */\n      tag_183\n        /* \"#utility.yul\":6620:6623   */\n      dup3\n        /* \"#utility.yul\":6531:6624   */\n      tag_113\n      jump\t// in\n    tag_183:\n        /* \"#utility.yul\":6649:6651   */\n      0x20\n        /* \"#utility.yul\":6644:6647   */\n      dup3\n        /* \"#utility.yul\":6640:6652   */\n      add\n        /* \"#utility.yul\":6633:6652   */\n      swap1\n      pop\n        /* \"#utility.yul\":6292:6658   */\n      swap2\n      swap1\n      pop\n      jump\t// out\n        /* \"#utility.yul\":6664:7083   */\n    tag_66:\n        /* \"#utility.yul\":6830:6834   */\n      0x00\n        /* \"#utility.yul\":6868:6870   */\n      0x20\n        /* \"#utility.yul\":6857:6866   */\n      dup3\n        /* \"#utility.yul\":6853:6871   */\n      add\n        /* \"#utility.yul\":6845:6871   */\n      swap1\n      pop\n        /* \"#utility.yul\":6917:6926   */\n      dup2\n        /* \"#utility.yul\":6911:6915   */\n      dup2\n        /* \"#utility.yul\":6907:6927   */\n      sub\n        /* \"#utility.yul\":6903:6904   */\n      0x00\n        /* \"#utility.yul\":6892:6901   */\n      dup4\n        /* \"#utility.yul\":6888:6905   */\n      add\n        /* \"#utility.yul\":6881:6928   */\n      mstore\n        /* \"#utility.yul\":6945:7076   */\n      tag_185\n        /* \"#utility.yul\":7071:7075   */\n      dup2\n        /* \"#utility.yul\":6945:7076   */\n      tag_114\n      jump\t// in\n    tag_185:\n        /* \"#utility.yul\":6937:7076   */\n      swap1\n      pop\n        /* \"#utility.yul\":6664:7083   */\n      swap2\n      swap1\n      pop\n      jump\t// out\n        /* \"#utility.yul\":7089:7269   */\n    tag_115:\n        /* \"#utility.yul\":7137:7214   */\n      0x4e487b7100000000000000000000000000000000000000000000000000000000\n        /* \"#utility.yul\":7134:7135   */\n      0x00\n        /* \"#utility.yul\":7127:7215   */\n      mstore\n        /* \"#utility.yul\":7234:7238   */\n      0x11\n        /* \"#utility.yul\":7231:7232   */\n      0x04\n        /* \"#utility.yul\":7224:7239   */\n      mstore\n        /* \"#utility.yul\":7258:7262   */\n      0x24\n        /* \"#utility.yul\":7255:7256   */\n      0x00\n        /* \"#utility.yul\":7248:7263   */\n      revert\n        /* \"#utility.yul\":7275:7466   */\n    tag_69:\n        /* \"#utility.yul\":7315:7318   */\n      0x00\n        /* \"#utility.yul\":7334:7354   */\n      tag_188\n        /* \"#utility.yul\":7352:7353   */\n      dup3\n        /* \"#utility.yul\":7334:7354   */\n      tag_93\n      jump\t// in\n    tag_188:\n        /* \"#utility.yul\":7329:7354   */\n      swap2\n      pop\n        /* \"#utility.yul\":7368:7388   */\n      tag_189\n        /* \"#utility.yul\":7386:7387   */\n      dup4\n        /* \"#utility.yul\":7368:7388   */\n      tag_93\n      jump\t// in\n    tag_189:\n        /* \"#utility.yul\":7363:7388   */\n      swap3\n      pop\n        /* \"#utility.yul\":7411:7412   */\n      dup3\n        /* \"#utility.yul\":7408:7409   */\n      dup3\n        /* \"#utility.yul\":7404:7413   */\n      add\n        /* \"#utility.yul\":7397:7413   */\n      swap1\n      pop\n        /* \"#utility.yul\":7432:7435   */\n      dup1\n        /* \"#utility.yul\":7429:7430   */\n      dup3\n        /* \"#utility.yul\":7426:7436   */\n      gt\n        /* \"#utility.yul\":7423:7459   */\n      iszero\n      tag_190\n      jumpi\n        /* \"#utility.yul\":7439:7457   */\n      tag_191\n      tag_115\n      jump\t// in\n    tag_191:\n        /* \"#utility.yul\":7423:7459   */\n    tag_190:\n        /* \"#utility.yul\":7275:7466   */\n      swap3\n      swap2\n      pop\n      pop\n      jump\t// out\n        /* \"#utility.yul\":7472:7882   */\n    tag_76:\n        /* \"#utility.yul\":7512:7519   */\n      0x00\n        /* \"#utility.yul\":7535:7555   */\n      tag_193\n        /* \"#utility.yul\":7553:7554   */\n      dup3\n        /* \"#utility.yul\":7535:7555   */\n      tag_93\n      jump\t// in\n    tag_193:\n        /* \"#utility.yul\":7530:7555   */\n      swap2\n      pop\n        /* \"#utility.yul\":7569:7589   */\n      tag_194\n        /* \"#utility.yul\":7587:7588   */\n      dup4\n        /* \"#utility.yul\":7569:7589   */\n      tag_93\n      jump\t// in\n    tag_194:\n        /* \"#utility.yul\":7564:7589   */\n      swap3\n      pop\n        /* \"#utility.yul\":7624:7625   */\n      dup3\n        /* \"#utility.yul\":7621:7622   */\n      dup3\n        /* \"#utility.yul\":7617:7626   */\n      mul\n        /* \"#utility.yul\":7646:7676   */\n      tag_195\n        /* \"#utility.yul\":7664:7675   */\n      dup2\n        /* \"#utility.yul\":7646:7676   */\n      tag_93\n      jump\t// in\n    tag_195:\n        /* \"#utility.yul\":7635:7676   */\n      swap2\n      pop\n        /* \"#utility.yul\":7825:7826   */\n      dup3\n        /* \"#utility.yul\":7816:7823   */\n      dup3\n        /* \"#utility.yul\":7812:7827   */\n      div\n        /* \"#utility.yul\":7809:7810   */\n      dup5\n        /* \"#utility.yul\":7806:7828   */\n      eq\n        /* \"#utility.yul\":7786:7787   */\n      dup4\n        /* \"#utility.yul\":7779:7788   */\n      iszero\n        /* \"#utility.yul\":7759:7842   */\n      or\n        /* \"#utility.yul\":7736:7875   */\n      tag_196\n      jumpi\n        /* \"#utility.yul\":7855:7873   */\n      tag_197\n      tag_115\n      jump\t// in\n    tag_197:\n        /* \"#utility.yul\":7736:7875   */\n    tag_196:\n        /* \"#utility.yul\":7520:7882   */\n      pop\n        /* \"#utility.yul\":7472:7882   */\n      swap3\n      swap2\n      pop\n      pop\n      jump\t// out\n        /* \"#utility.yul\":7888:8068   */\n    tag_116:\n        /* \"#utility.yul\":7936:8013   */\n      0x4e487b7100000000000000000000000000000000000000000000000000000000\n        /* \"#utility.yul\":7933:7934   */\n      0x00\n        /* \"#utility.yul\":7926:8014   */\n      mstore\n        /* \"#utility.yul\":8033:8037   */\n      0x12\n        /* \"#utility.yul\":8030:8031   */\n      0x04\n        /* \"#utility.yul\":8023:8038   */\n      mstore\n        /* \"#utility.yul\":8057:8061   */\n      0x24\n        /* \"#utility.yul\":8054:8055   */\n      0x00\n        /* \"#utility.yul\":8047:8062   */\n      revert\n        /* \"#utility.yul\":8074:8259   */\n    tag_78:\n        /* \"#utility.yul\":8114:8115   */\n      0x00\n        /* \"#utility.yul\":8131:8151   */\n      tag_200\n        /* \"#utility.yul\":8149:8150   */\n      dup3\n        /* \"#utility.yul\":8131:8151   */\n      tag_93\n      jump\t// in\n    tag_200:\n        /* \"#utility.yul\":8126:8151   */\n      swap2\n      pop\n        /* \"#utility.yul\":8165:8185   */\n      tag_201\n        /* \"#utility.yul\":8183:8184   */\n      dup4\n        /* \"#utility.yul\":8165:8185   */\n      tag_93\n      jump\t// in\n    tag_201:\n        /* \"#utility.yul\":8160:8185   */\n      swap3\n      pop\n        /* \"#utility.yul\":8204:8205   */\n      dup3\n        /* \"#utility.yul\":8194:8229   */\n      tag_202\n      jumpi\n        /* \"#utility.yul\":8209:8227   */\n      tag_203\n      tag_116\n      jump\t// in\n    tag_203:\n        /* \"#utility.yul\":8194:8229   */\n    tag_202:\n        /* \"#utility.yul\":8251:8252   */\n      dup3\n        /* \"#utility.yul\":8248:8249   */\n      dup3\n        /* \"#utility.yul\":8244:8253   */\n      div\n        /* \"#utility.yul\":8239:8253   */\n      swap1\n      pop\n        /* \"#utility.yul\":8074:8259   */\n      swap3\n      swap2\n      pop\n      pop\n      jump\t// out\n        /* \"#utility.yul\":8265:8370   */\n    tag_117:\n        /* \"#utility.yul\":8301:8308   */\n      0x00\n        /* \"#utility.yul\":8341:8363   */\n      0xffffffffffffffffffff\n        /* \"#utility.yul\":8334:8339   */\n      dup3\n        /* \"#utility.yul\":8330:8364   */\n      and\n        /* \"#utility.yul\":8319:8364   */\n      swap1\n      pop\n        /* \"#utility.yul\":8265:8370   */\n      swap2\n      swap1\n      pop\n      jump\t// out\n        /* \"#utility.yul\":8376:8496   */\n    tag_118:\n        /* \"#utility.yul\":8448:8471   */\n      tag_206\n        /* \"#utility.yul\":8465:8470   */\n      dup2\n        /* \"#utility.yul\":8448:8471   */\n      tag_117\n      jump\t// in\n    tag_206:\n        /* \"#utility.yul\":8441:8446   */\n      dup2\n        /* \"#utility.yul\":8438:8472   */\n      eq\n        /* \"#utility.yul\":8428:8490   */\n      tag_207\n      jumpi\n        /* \"#utility.yul\":8486:8487   */\n      0x00\n        /* \"#utility.yul\":8483:8484   */\n      0x00\n        /* \"#utility.yul\":8476:8488   */\n      revert\n        /* \"#utility.yul\":8428:8490   */\n    tag_207:\n        /* \"#utility.yul\":8376:8496   */\n      pop\n      jump\t// out\n        /* \"#utility.yul\":8502:8643   */\n    tag_119:\n        /* \"#utility.yul\":8558:8563   */\n      0x00\n        /* \"#utility.yul\":8589:8595   */\n      dup2\n        /* \"#utility.yul\":8583:8596   */\n      mload\n        /* \"#utility.yul\":8574:8596   */\n      swap1\n      pop\n        /* \"#utility.yul\":8605:8637   */\n      tag_209\n        /* \"#utility.yul\":8631:8636   */\n      dup2\n        /* \"#utility.yul\":8605:8637   */\n      tag_118\n      jump\t// in\n    tag_209:\n        /* \"#utility.yul\":8502:8643   */\n      swap3\n      swap2\n      pop\n      pop\n      jump\t// out\n        /* \"#utility.yul\":8649:8725   */\n    tag_120:\n        /* \"#utility.yul\":8685:8692   */\n      0x00\n        /* \"#utility.yul\":8714:8719   */\n      dup2\n        /* \"#utility.yul\":8703:8719   */\n      swap1\n      pop\n        /* \"#utility.yul\":8649:8725   */\n      swap2\n      swap1\n      pop\n      jump\t// out\n        /* \"#utility.yul\":8731:8851   */\n    tag_121:\n        /* \"#utility.yul\":8803:8826   */\n      tag_212\n        /* \"#utility.yul\":8820:8825   */\n      dup2\n        /* \"#utility.yul\":8803:8826   */\n      tag_120\n      jump\t// in\n    tag_212:\n        /* \"#utility.yul\":8796:8801   */\n      dup2\n        /* \"#utility.yul\":8793:8827   */\n      eq\n        /* \"#utility.yul\":8783:8845   */\n      tag_213\n      jumpi\n        /* \"#utility.yul\":8841:8842   */\n      0x00\n        /* \"#utility.yul\":8838:8839   */\n      0x00\n        /* \"#utility.yul\":8831:8843   */\n      revert\n        /* \"#utility.yul\":8783:8845   */\n    tag_213:\n        /* \"#utility.yul\":8731:8851   */\n      pop\n      jump\t// out\n        /* \"#utility.yul\":8857:8998   */\n    tag_122:\n        /* \"#utility.yul\":8913:8918   */\n      0x00\n        /* \"#utility.yul\":8944:8950   */\n      dup2\n        /* \"#utility.yul\":8938:8951   */\n      mload\n        /* \"#utility.yul\":8929:8951   */\n      swap1\n      pop\n        /* \"#utility.yul\":8960:8992   */\n      tag_215\n        /* \"#utility.yul\":8986:8991   */\n      dup2\n        /* \"#utility.yul\":8960:8992   */\n      tag_121\n      jump\t// in\n    tag_215:\n        /* \"#utility.yul\":8857:8998   */\n      swap3\n      swap2\n      pop\n      pop\n      jump\t// out\n        /* \"#utility.yul\":9004:9147   */\n    tag_123:\n        /* \"#utility.yul\":9061:9066   */\n      0x00\n        /* \"#utility.yul\":9092:9098   */\n      dup2\n        /* \"#utility.yul\":9086:9099   */\n      mload\n        /* \"#utility.yul\":9077:9099   */\n      swap1\n      pop\n        /* \"#utility.yul\":9108:9141   */\n      tag_217\n        /* \"#utility.yul\":9135:9140   */\n      dup2\n        /* \"#utility.yul\":9108:9141   */\n      tag_103\n      jump\t// in\n    tag_217:\n        /* \"#utility.yul\":9004:9147   */\n      swap3\n      swap2\n      pop\n      pop\n      jump\t// out\n        /* \"#utility.yul\":9153:10124   */\n    tag_83:\n        /* \"#utility.yul\":9256:9262   */\n      0x00\n        /* \"#utility.yul\":9264:9270   */\n      0x00\n        /* \"#utility.yul\":9272:9278   */\n      0x00\n        /* \"#utility.yul\":9280:9286   */\n      0x00\n        /* \"#utility.yul\":9288:9294   */\n      0x00\n        /* \"#utility.yul\":9337:9340   */\n      0xa0\n        /* \"#utility.yul\":9325:9334   */\n      dup7\n        /* \"#utility.yul\":9316:9323   */\n      dup9\n        /* \"#utility.yul\":9312:9335   */\n      sub\n        /* \"#utility.yul\":9308:9341   */\n      slt\n        /* \"#utility.yul\":9305:9425   */\n      iszero\n      tag_219\n      jumpi\n        /* \"#utility.yul\":9344:9423   */\n      tag_220\n      tag_96\n      jump\t// in\n    tag_220:\n        /* \"#utility.yul\":9305:9425   */\n    tag_219:\n        /* \"#utility.yul\":9464:9465   */\n      0x00\n        /* \"#utility.yul\":9489:9552   */\n      tag_221\n        /* \"#utility.yul\":9544:9551   */\n      dup9\n        /* \"#utility.yul\":9535:9541   */\n      dup3\n        /* \"#utility.yul\":9524:9533   */\n      dup10\n        /* \"#utility.yul\":9520:9542   */\n      add\n        /* \"#utility.yul\":9489:9552   */\n      tag_119\n      jump\t// in\n    tag_221:\n        /* \"#utility.yul\":9479:9552   */\n      swap6\n      pop\n        /* \"#utility.yul\":9435:9562   */\n      pop\n        /* \"#utility.yul\":9601:9603   */\n      0x20\n        /* \"#utility.yul\":9627:9690   */\n      tag_222\n        /* \"#utility.yul\":9682:9689   */\n      dup9\n        /* \"#utility.yul\":9673:9679   */\n      dup3\n        /* \"#utility.yul\":9662:9671   */\n      dup10\n        /* \"#utility.yul\":9658:9680   */\n      add\n        /* \"#utility.yul\":9627:9690   */\n      tag_122\n      jump\t// in\n    tag_222:\n        /* \"#utility.yul\":9617:9690   */\n      swap5\n      pop\n        /* \"#utility.yul\":9572:9700   */\n      pop\n        /* \"#utility.yul\":9739:9741   */\n      0x40\n        /* \"#utility.yul\":9765:9829   */\n      tag_223\n        /* \"#utility.yul\":9821:9828   */\n      dup9\n        /* \"#utility.yul\":9812:9818   */\n      dup3\n        /* \"#utility.yul\":9801:9810   */\n      dup10\n        /* \"#utility.yul\":9797:9819   */\n      add\n        /* \"#utility.yul\":9765:9829   */\n      tag_123\n      jump\t// in\n    tag_223:\n        /* \"#utility.yul\":9755:9829   */\n      swap4\n      pop\n        /* \"#utility.yul\":9710:9839   */\n      pop\n        /* \"#utility.yul\":9878:9880   */\n      0x60\n        /* \"#utility.yul\":9904:9968   */\n      tag_224\n        /* \"#utility.yul\":9960:9967   */\n      dup9\n        /* \"#utility.yul\":9951:9957   */\n      dup3\n        /* \"#utility.yul\":9940:9949   */\n      dup10\n        /* \"#utility.yul\":9936:9958   */\n      add\n        /* \"#utility.yul\":9904:9968   */\n      tag_123\n      jump\t// in\n    tag_224:\n        /* \"#utility.yul\":9894:9968   */\n      swap3\n      pop\n        /* \"#utility.yul\":9849:9978   */\n      pop\n        /* \"#utility.yul\":10017:10020   */\n      0x80\n        /* \"#utility.yul\":10044:10107   */\n      tag_225\n        /* \"#utility.yul\":10099:10106   */\n      dup9\n        /* \"#utility.yul\":10090:10096   */\n      dup3\n        /* \"#utility.yul\":10079:10088   */\n      dup10\n        /* \"#utility.yul\":10075:10097   */\n      add\n        /* \"#utility.yul\":10044:10107   */\n      tag_119\n      jump\t// in\n    tag_225:\n        /* \"#utility.yul\":10034:10107   */\n      swap2\n      pop\n        /* \"#utility.yul\":9988:10117   */\n      pop\n        /* \"#utility.yul\":9153:10124   */\n      swap3\n      swap6\n      pop\n      swap3\n      swap6\n      swap1\n      swap4\n      pop\n      jump\t// out\n        /* \"#utility.yul\":10130:10686   */\n    tag_85:\n        /* \"#utility.yul\":10169:10176   */\n      0x00\n        /* \"#utility.yul\":10192:10211   */\n      tag_227\n        /* \"#utility.yul\":10209:10210   */\n      dup3\n        /* \"#utility.yul\":10192:10211   */\n      tag_120\n      jump\t// in\n    tag_227:\n        /* \"#utility.yul\":10187:10211   */\n      swap2\n      pop\n        /* \"#utility.yul\":10225:10244   */\n      tag_228\n        /* \"#utility.yul\":10242:10243   */\n      dup4\n        /* \"#utility.yul\":10225:10244   */\n      tag_120\n      jump\t// in\n    tag_228:\n        /* \"#utility.yul\":10220:10244   */\n      swap3\n      pop\n        /* \"#utility.yul\":10279:10280   */\n      dup3\n        /* \"#utility.yul\":10276:10277   */\n      dup3\n        /* \"#utility.yul\":10272:10281   */\n      mul\n        /* \"#utility.yul\":10301:10330   */\n      tag_229\n        /* \"#utility.yul\":10318:10329   */\n      dup2\n        /* \"#utility.yul\":10301:10330   */\n      tag_120\n      jump\t// in\n    tag_229:\n        /* \"#utility.yul\":10290:10330   */\n      swap2\n      pop\n        /* \"#utility.yul\":10388:10454   */\n      0x8000000000000000000000000000000000000000000000000000000000000000\n        /* \"#utility.yul\":10385:10386   */\n      dup5\n        /* \"#utility.yul\":10382:10455   */\n      eq\n        /* \"#utility.yul\":10378:10379   */\n      0x00\n        /* \"#utility.yul\":10375:10376   */\n      dup5\n        /* \"#utility.yul\":10371:10380   */\n      slt\n        /* \"#utility.yul\":10367:10456   */\n      and\n        /* \"#utility.yul\":10364:10479   */\n      iszero\n      tag_230\n      jumpi\n        /* \"#utility.yul\":10459:10477   */\n      tag_231\n      tag_115\n      jump\t// in\n    tag_231:\n        /* \"#utility.yul\":10364:10479   */\n    tag_230:\n        /* \"#utility.yul\":10629:10630   */\n      dup3\n        /* \"#utility.yul\":10620:10627   */\n      dup3\n        /* \"#utility.yul\":10615:10631   */\n      sdiv\n        /* \"#utility.yul\":10612:10613   */\n      dup5\n        /* \"#utility.yul\":10609:10632   */\n      eq\n        /* \"#utility.yul\":10589:10590   */\n      dup4\n        /* \"#utility.yul\":10582:10591   */\n      iszero\n        /* \"#utility.yul\":10562:10646   */\n      or\n        /* \"#utility.yul\":10539:10679   */\n      tag_232\n      jumpi\n        /* \"#utility.yul\":10659:10677   */\n      tag_233\n      tag_115\n      jump\t// in\n    tag_233:\n        /* \"#utility.yul\":10539:10679   */\n    tag_232:\n        /* \"#utility.yul\":10177:10686   */\n      pop\n        /* \"#utility.yul\":10130:10686   */\n      swap3\n      swap2\n      pop\n      pop\n      jump\t// out\n\n    auxdata: 0xa2646970667358221220d48916c3db88eaff3cca6e2b861c70f25f2a833b2d1d905b81fab4456d2ba11b64736f6c634300081e0033\n}\n",
				"bytecode": {
					"linkReferences": {},
					"object": "60a0604052348015600e575f5ffd5b503373ffffffffffffffffffffffffffffffffffffffff1660808173ffffffffffffffffffffffffffffffffffffffff1681525050608051610c786100625f395f818161015201526104dc0152610c785ff3fe608060405260043610610054575f3560e01c8063213dbea2146100585780633ccfd60b146100825780633e47d6f314610098578063b60d4288146100d4578063dba6335f146100de578063dc0d3dff14610108575b5f5ffd5b348015610063575f5ffd5b5061006c610144565b60405161007991906106cf565b60405180910390f35b34801561008d575f5ffd5b50610096610150565b005b3480156100a3575f5ffd5b506100be60048036038101906100b99190610746565b610387565b6040516100cb91906106cf565b60405180910390f35b6100dc61039c565b005b3480156100e9575f5ffd5b506100f26104da565b6040516100ff9190610780565b60405180910390f35b348015610113575f5ffd5b5061012e600480360381019061012991906107c3565b6104fe565b60405161013b9190610780565b60405180910390f35b674563918244f4000081565b7f000000000000000000000000000000000000000000000000000000000000000073ffffffffffffffffffffffffffffffffffffffff163373ffffffffffffffffffffffffffffffffffffffff16146101de576040517f08c379a00000000000000000000000000000000000000000000000000000000081526004016101d590610848565b60405180910390fd5b5f5f90505b5f8054905081101561027d575f5f828154811061020357610202610866565b5b905f5260205f20015f9054906101000a900473ffffffffffffffffffffffffffffffffffffffff1690505f60015f8373ffffffffffffffffffffffffffffffffffffffff1673ffffffffffffffffffffffffffffffffffffffff1681526020019081526020015f20819055505080806001019150506101e3565b505f67ffffffffffffffff81111561029857610297610893565b5b6040519080825280602002602001820160405280156102c65781602001602082028036833780820191505090505b505f90805190602001906102db929190610615565b505f3373ffffffffffffffffffffffffffffffffffffffff1647604051610301906108ed565b5f6040518083038185875af1925050503d805f811461033b576040519150601f19603f3d011682016040523d82523d5f602084013e610340565b606091505b5050905080610384576040517f08c379a000000000000000000000000000000000000000000000000000000000815260040161037b9061094b565b60405180910390fd5b50565b6001602052805f5260405f205f915090505481565b674563918244f400006103ae34610538565b10156103ef576040517f08c379a00000000000000000000000000000000000000000000000000000000081526004016103e6906109b3565b60405180910390fd5b5f33908060018154018082558091505060019003905f5260205f20015f9091909190916101000a81548173ffffffffffffffffffffffffffffffffffffffff021916908373ffffffffffffffffffffffffffffffffffffffff1602179055503460015f3373ffffffffffffffffffffffffffffffffffffffff1673ffffffffffffffffffffffffffffffffffffffff1681526020019081526020015f205461049791906109fe565b60015f3373ffffffffffffffffffffffffffffffffffffffff1673ffffffffffffffffffffffffffffffffffffffff1681526020019081526020015f2081905550565b7f000000000000000000000000000000000000000000000000000000000000000081565b5f818154811061050c575f80fd5b905f5260205f20015f915054906101000a900473ffffffffffffffffffffffffffffffffffffffff1681565b5f5f610542610570565b90505f670de0b6b3a7640000848361055a9190610a31565b6105649190610a9f565b90508092505050919050565b5f5f73694aa1769357215de4fac081bf1f309adc32530690505f8173ffffffffffffffffffffffffffffffffffffffff1663feaf968c6040518163ffffffff1660e01b815260040160a060405180830381865afa1580156105d3573d5f5f3e3d5ffd5b505050506040513d601f19601f820116820180604052508101906105f79190610b55565b5050509150506402540be4008161060e9190610bcc565b9250505090565b828054828255905f5260205f2090810192821561068b579160200282015b8281111561068a578251825f6101000a81548173ffffffffffffffffffffffffffffffffffffffff021916908373ffffffffffffffffffffffffffffffffffffffff16021790555091602001919060010190610633565b5b509050610698919061069c565b5090565b5b808211156106b3575f815f90555060010161069d565b5090565b5f819050919050565b6106c9816106b7565b82525050565b5f6020820190506106e25f8301846106c0565b92915050565b5f5ffd5b5f73ffffffffffffffffffffffffffffffffffffffff82169050919050565b5f610715826106ec565b9050919050565b6107258161070b565b811461072f575f5ffd5b50565b5f813590506107408161071c565b92915050565b5f6020828403121561075b5761075a6106e8565b5b5f61076884828501610732565b91505092915050565b61077a8161070b565b82525050565b5f6020820190506107935f830184610771565b92915050565b6107a2816106b7565b81146107ac575f5ffd5b50565b5f813590506107bd81610799565b92915050565b5f602082840312156107d8576107d76106e8565b5b5f6107e5848285016107af565b91505092915050565b5f82825260208201905092915050565b7f4d75737420626520746865206f776e65720000000000000000000000000000005f82015250565b5f6108326011836107ee565b915061083d826107fe565b602082019050919050565b5f6020820190508181035f83015261085f81610826565b9050919050565b7f4e487b71000000000000000000000000000000000000000000000000000000005f52603260045260245ffd5b7f4e487b71000000000000000000000000000000000000000000000000000000005f52604160045260245ffd5b5f81905092915050565b50565b5f6108d85f836108c0565b91506108e3826108ca565b5f82019050919050565b5f6108f7826108cd565b9150819050919050565b7f43616c6c206661696c65640000000000000000000000000000000000000000005f82015250565b5f610935600b836107ee565b915061094082610901565b602082019050919050565b5f6020820190508181035f83015261096281610929565b9050919050565b7f6469646e27742073656e6420656e6f75676820455448000000000000000000005f82015250565b5f61099d6016836107ee565b91506109a882610969565b602082019050919050565b5f6020820190508181035f8301526109ca81610991565b9050919050565b7f4e487b71000000000000000000000000000000000000000000000000000000005f52601160045260245ffd5b5f610a08826106b7565b9150610a13836106b7565b9250828201905080821115610a2b57610a2a6109d1565b5b92915050565b5f610a3b826106b7565b9150610a46836106b7565b9250828202610a54816106b7565b91508282048414831517610a6b57610a6a6109d1565b5b5092915050565b7f4e487b71000000000000000000000000000000000000000000000000000000005f52601260045260245ffd5b5f610aa9826106b7565b9150610ab4836106b7565b925082610ac457610ac3610a72565b5b828204905092915050565b5f69ffffffffffffffffffff82169050919050565b610aed81610acf565b8114610af7575f5ffd5b50565b5f81519050610b0881610ae4565b92915050565b5f819050919050565b610b2081610b0e565b8114610b2a575f5ffd5b50565b5f81519050610b3b81610b17565b92915050565b5f81519050610b4f81610799565b92915050565b5f5f5f5f5f60a08688031215610b6e57610b6d6106e8565b5b5f610b7b88828901610afa565b9550506020610b8c88828901610b2d565b9450506040610b9d88828901610b41565b9350506060610bae88828901610b41565b9250506080610bbf88828901610afa565b9150509295509295909350565b5f610bd682610b0e565b9150610be183610b0e565b9250828202610bef81610b0e565b91507f800000000000000000000000000000000000000000000000000000000000000084145f84121615610c2657610c256109d1565b5b8282058414831517610c3b57610c3a6109d1565b5b509291505056fea2646970667358221220d48916c3db88eaff3cca6e2b861c70f25f2a833b2d1d905b81fab4456d2ba11b64736f6c634300081e0033",
					"opcodes": "PUSH1 0xA0 PUSH1 0x40 MSTORE CALLVALUE DUP1 ISZERO PUSH1 0xE JUMPI PUSH0 PUSH0 REVERT JUMPDEST POP CALLER PUSH20 0xFFFFFFFFFFFFFFFFFFFFFFFFFFFFFFFFFFFFFFFF AND PUSH1 0x80 DUP2 PUSH20 0xFFFFFFFFFFFFFFFFFFFFFFFFFFFFFFFFFFFFFFFF AND DUP2 MSTORE POP POP PUSH1 0x80 MLOAD PUSH2 0xC78 PUSH2 0x62 PUSH0 CODECOPY PUSH0 DUP2 DUP2 PUSH2 0x152 ADD MSTORE PUSH2 0x4DC ADD MSTORE PUSH2 0xC78 PUSH0 RETURN INVALID PUSH1 0x80 PUSH1 0x40 MSTORE PUSH1 0x4 CALLDATASIZE LT PUSH2 0x54 JUMPI PUSH0 CALLDATALOAD PUSH1 0xE0 SHR DUP1 PUSH4 0x213DBEA2 EQ PUSH2 0x58 JUMPI DUP1 PUSH4 0x3CCFD60B EQ PUSH2 0x82 JUMPI DUP1 PUSH4 0x3E47D6F3 EQ PUSH2 0x98 JUMPI DUP1 PUSH4 0xB60D4288 EQ PUSH2 0xD4 JUMPI DUP1 PUSH4 0xDBA6335F EQ PUSH2 0xDE JUMPI DUP1 PUSH4 0xDC0D3DFF EQ PUSH2 0x108 JUMPI JUMPDEST PUSH0 PUSH0 REVERT JUMPDEST CALLVALUE DUP1 ISZERO PUSH2 0x63 JUMPI PUSH0 PUSH0 REVERT JUMPDEST POP PUSH2 0x6C PUSH2 0x144 JUMP JUMPDEST PUSH1 0x40 MLOAD PUSH2 0x79 SWAP2 SWAP1 PUSH2 0x6CF JUMP JUMPDEST PUSH1 0x40 MLOAD DUP1 SWAP2 SUB SWAP1 RETURN JUMPDEST CALLVALUE DUP1 ISZERO PUSH2 0x8D JUMPI PUSH0 PUSH0 REVERT JUMPDEST POP PUSH2 0x96 PUSH2 0x150 JUMP JUMPDEST STOP JUMPDEST CALLVALUE DUP1 ISZERO PUSH2 0xA3 JUMPI PUSH0 PUSH0 REVERT JUMPDEST POP PUSH2 0xBE PUSH1 0x4 DUP1 CALLDATASIZE SUB DUP2 ADD SWAP1 PUSH2 0xB9 SWAP2 SWAP1 PUSH2 0x746 JUMP JUMPDEST PUSH2 0x387 JUMP JUMPDEST PUSH1 0x40 MLOAD PUSH2 0xCB SWAP2 SWAP1 PUSH2 0x6CF JUMP JUMPDEST PUSH1 0x40 MLOAD DUP1 SWAP2 SUB SWAP1 RETURN JUMPDEST PUSH2 0xDC PUSH2 0x39C JUMP JUMPDEST STOP JUMPDEST CALLVALUE DUP1 ISZERO PUSH2 0xE9 JUMPI PUSH0 PUSH0 REVERT JUMPDEST POP PUSH2 0xF2 PUSH2 0x4DA JUMP JUMPDEST PUSH1 0x40 MLOAD PUSH2 0xFF SWAP2 SWAP1 PUSH2 0x780 JUMP JUMPDEST PUSH1 0x40 MLOAD DUP1 SWAP2 SUB SWAP1 RETURN JUMPDEST CALLVALUE DUP1 ISZERO PUSH2 0x113 JUMPI PUSH0 PUSH0 REVERT JUMPDEST POP PUSH2 0x12E PUSH1 0x4 DUP1 CALLDATASIZE SUB DUP2 ADD SWAP1 PUSH2 0x129 SWAP2 SWAP1 PUSH2 0x7C3 JUMP JUMPDEST PUSH2 0x4FE JUMP JUMPDEST PUSH1 0x40 MLOAD PUSH2 0x13B SWAP2 SWAP1 PUSH2 0x780 JUMP JUMPDEST PUSH1 0x40 MLOAD DUP1 SWAP2 SUB SWAP1 RETURN JUMPDEST PUSH8 0x4563918244F40000 DUP2 JUMP JUMPDEST PUSH32 0x0 PUSH20 0xFFFFFFFFFFFFFFFFFFFFFFFFFFFFFFFFFFFFFFFF AND CALLER PUSH20 0xFFFFFFFFFFFFFFFFFFFFFFFFFFFFFFFFFFFFFFFF AND EQ PUSH2 0x1DE JUMPI PUSH1 0x40 MLOAD PUSH32 0x8C379A000000000000000000000000000000000000000000000000000000000 DUP2 MSTORE PUSH1 0x4 ADD PUSH2 0x1D5 SWAP1 PUSH2 0x848 JUMP JUMPDEST PUSH1 0x40 MLOAD DUP1 SWAP2 SUB SWAP1 REVERT JUMPDEST PUSH0 PUSH0 SWAP1 POP JUMPDEST PUSH0 DUP1 SLOAD SWAP1 POP DUP2 LT ISZERO PUSH2 0x27D JUMPI PUSH0 PUSH0 DUP3 DUP2 SLOAD DUP2 LT PUSH2 0x203 JUMPI PUSH2 0x202 PUSH2 0x866 JUMP JUMPDEST JUMPDEST SWAP1 PUSH0 MSTORE PUSH1 0x20 PUSH0 KECCAK256 ADD PUSH0 SWAP1 SLOAD SWAP1 PUSH2 0x100 EXP SWAP1 DIV PUSH20 0xFFFFFFFFFFFFFFFFFFFFFFFFFFFFFFFFFFFFFFFF AND SWAP1 POP PUSH0 PUSH1 0x1 PUSH0 DUP4 PUSH20 0xFFFFFFFFFFFFFFFFFFFFFFFFFFFFFFFFFFFFFFFF AND PUSH20 0xFFFFFFFFFFFFFFFFFFFFFFFFFFFFFFFFFFFFFFFF AND DUP2 MSTORE PUSH1 0x20 ADD SWAP1 DUP2 MSTORE PUSH1 0x20 ADD PUSH0 KECCAK256 DUP2 SWAP1 SSTORE POP POP DUP1 DUP1 PUSH1 0x1 ADD SWAP2 POP POP PUSH2 0x1E3 JUMP JUMPDEST POP PUSH0 PUSH8 0xFFFFFFFFFFFFFFFF DUP2 GT ISZERO PUSH2 0x298 JUMPI PUSH2 0x297 PUSH2 0x893 JUMP JUMPDEST JUMPDEST PUSH1 0x40 MLOAD SWAP1 DUP1 DUP3 MSTORE DUP1 PUSH1 0x20 MUL PUSH1 0x20 ADD DUP3 ADD PUSH1 0x40 MSTORE DUP1 ISZERO PUSH2 0x2C6 JUMPI DUP2 PUSH1 0x20 ADD PUSH1 0x20 DUP3 MUL DUP1 CALLDATASIZE DUP4 CALLDATACOPY DUP1 DUP3 ADD SWAP2 POP POP SWAP1 POP JUMPDEST POP PUSH0 SWAP1 DUP1 MLOAD SWAP1 PUSH1 0x20 ADD SWAP1 PUSH2 0x2DB SWAP3 SWAP2 SWAP1 PUSH2 0x615 JUMP JUMPDEST POP PUSH0 CALLER PUSH20 0xFFFFFFFFFFFFFFFFFFFFFFFFFFFFFFFFFFFFFFFF AND SELFBALANCE PUSH1 0x40 MLOAD PUSH2 0x301 SWAP1 PUSH2 0x8ED JUMP JUMPDEST PUSH0 PUSH1 0x40 MLOAD DUP1 DUP4 SUB DUP2 DUP6 DUP8 GAS CALL SWAP3 POP POP POP RETURNDATASIZE DUP1 PUSH0 DUP2 EQ PUSH2 0x33B JUMPI PUSH1 0x40 MLOAD SWAP2 POP PUSH1 0x1F NOT PUSH1 0x3F RETURNDATASIZE ADD AND DUP3 ADD PUSH1 0x40 MSTORE RETURNDATASIZE DUP3 MSTORE RETURNDATASIZE PUSH0 PUSH1 0x20 DUP5 ADD RETURNDATACOPY PUSH2 0x340 JUMP JUMPDEST PUSH1 0x60 SWAP2 POP JUMPDEST POP POP SWAP1 POP DUP1 PUSH2 0x384 JUMPI PUSH1 0x40 MLOAD PUSH32 0x8C379A000000000000000000000000000000000000000000000000000000000 DUP2 MSTORE PUSH1 0x4 ADD PUSH2 0x37B SWAP1 PUSH2 0x94B JUMP JUMPDEST PUSH1 0x40 MLOAD DUP1 SWAP2 SUB SWAP1 REVERT JUMPDEST POP JUMP JUMPDEST PUSH1 0x1 PUSH1 0x20 MSTORE DUP1 PUSH0 MSTORE PUSH1 0x40 PUSH0 KECCAK256 PUSH0 SWAP2 POP SWAP1 POP SLOAD DUP2 JUMP JUMPDEST PUSH8 0x4563918244F40000 PUSH2 0x3AE CALLVALUE PUSH2 0x538 JUMP JUMPDEST LT ISZERO PUSH2 0x3EF JUMPI PUSH1 0x40 MLOAD PUSH32 0x8C379A000000000000000000000000000000000000000000000000000000000 DUP2 MSTORE PUSH1 0x4 ADD PUSH2 0x3E6 SWAP1 PUSH2 0x9B3 JUMP JUMPDEST PUSH1 0x40 MLOAD DUP1 SWAP2 SUB SWAP1 REVERT JUMPDEST PUSH0 CALLER SWAP1 DUP1 PUSH1 0x1 DUP2 SLOAD ADD DUP1 DUP3 SSTORE DUP1 SWAP2 POP POP PUSH1 0x1 SWAP1 SUB SWAP1 PUSH0 MSTORE PUSH1 0x20 PUSH0 KECCAK256 ADD PUSH0 SWAP1 SWAP2 SWAP1 SWAP2 SWAP1 SWAP2 PUSH2 0x100 EXP DUP2 SLOAD DUP2 PUSH20 0xFFFFFFFFFFFFFFFFFFFFFFFFFFFFFFFFFFFFFFFF MUL NOT AND SWAP1 DUP4 PUSH20 0xFFFFFFFFFFFFFFFFFFFFFFFFFFFFFFFFFFFFFFFF AND MUL OR SWAP1 SSTORE POP CALLVALUE PUSH1 0x1 PUSH0 CALLER PUSH20 0xFFFFFFFFFFFFFFFFFFFFFFFFFFFFFFFFFFFFFFFF AND PUSH20 0xFFFFFFFFFFFFFFFFFFFFFFFFFFFFFFFFFFFFFFFF AND DUP2 MSTORE PUSH1 0x20 ADD SWAP1 DUP2 MSTORE PUSH1 0x20 ADD PUSH0 KECCAK256 SLOAD PUSH2 0x497 SWAP2 SWAP1 PUSH2 0x9FE JUMP JUMPDEST PUSH1 0x1 PUSH0 CALLER PUSH20 0xFFFFFFFFFFFFFFFFFFFFFFFFFFFFFFFFFFFFFFFF AND PUSH20 0xFFFFFFFFFFFFFFFFFFFFFFFFFFFFFFFFFFFFFFFF AND DUP2 MSTORE PUSH1 0x20 ADD SWAP1 DUP2 MSTORE PUSH1 0x20 ADD PUSH0 KECCAK256 DUP2 SWAP1 SSTORE POP JUMP JUMPDEST PUSH32 0x0 DUP2 JUMP JUMPDEST PUSH0 DUP2 DUP2 SLOAD DUP2 LT PUSH2 0x50C JUMPI PUSH0 DUP1 REVERT JUMPDEST SWAP1 PUSH0 MSTORE PUSH1 0x20 PUSH0 KECCAK256 ADD PUSH0 SWAP2 POP SLOAD SWAP1 PUSH2 0x100 EXP SWAP1 DIV PUSH20 0xFFFFFFFFFFFFFFFFFFFFFFFFFFFFFFFFFFFFFFFF AND DUP2 JUMP JUMPDEST PUSH0 PUSH0 PUSH2 0x542 PUSH2 0x570 JUMP JUMPDEST SWAP1 POP PUSH0 PUSH8 0xDE0B6B3A7640000 DUP5 DUP4 PUSH2 0x55A SWAP2 SWAP1 PUSH2 0xA31 JUMP JUMPDEST PUSH2 0x564 SWAP2 SWAP1 PUSH2 0xA9F JUMP JUMPDEST SWAP1 POP DUP1 SWAP3 POP POP POP SWAP2 SWAP1 POP JUMP JUMPDEST PUSH0 PUSH0 PUSH20 0x694AA1769357215DE4FAC081BF1F309ADC325306 SWAP1 POP PUSH0 DUP2 PUSH20 0xFFFFFFFFFFFFFFFFFFFFFFFFFFFFFFFFFFFFFFFF AND PUSH4 0xFEAF968C PUSH1 0x40 MLOAD DUP2 PUSH4 0xFFFFFFFF AND PUSH1 0xE0 SHL DUP2 MSTORE PUSH1 0x4 ADD PUSH1 0xA0 PUSH1 0x40 MLOAD DUP1 DUP4 SUB DUP2 DUP7 GAS STATICCALL ISZERO DUP1 ISZERO PUSH2 0x5D3 JUMPI RETURNDATASIZE PUSH0 PUSH0 RETURNDATACOPY RETURNDATASIZE PUSH0 REVERT JUMPDEST POP POP POP POP PUSH1 0x40 MLOAD RETURNDATASIZE PUSH1 0x1F NOT PUSH1 0x1F DUP3 ADD AND DUP3 ADD DUP1 PUSH1 0x40 MSTORE POP DUP2 ADD SWAP1 PUSH2 0x5F7 SWAP2 SWAP1 PUSH2 0xB55 JUMP JUMPDEST POP POP POP SWAP2 POP POP PUSH5 0x2540BE400 DUP2 PUSH2 0x60E SWAP2 SWAP1 PUSH2 0xBCC JUMP JUMPDEST SWAP3 POP POP POP SWAP1 JUMP JUMPDEST DUP3 DUP1 SLOAD DUP3 DUP3 SSTORE SWAP1 PUSH0 MSTORE PUSH1 0x20 PUSH0 KECCAK256 SWAP1 DUP2 ADD SWAP3 DUP3 ISZERO PUSH2 0x68B JUMPI SWAP2 PUSH1 0x20 MUL DUP3 ADD JUMPDEST DUP3 DUP2 GT ISZERO PUSH2 0x68A JUMPI DUP3 MLOAD DUP3 PUSH0 PUSH2 0x100 EXP DUP2 SLOAD DUP2 PUSH20 0xFFFFFFFFFFFFFFFFFFFFFFFFFFFFFFFFFFFFFFFF MUL NOT AND SWAP1 DUP4 PUSH20 0xFFFFFFFFFFFFFFFFFFFFFFFFFFFFFFFFFFFFFFFF AND MUL OR SWAP1 SSTORE POP SWAP2 PUSH1 0x20 ADD SWAP2 SWAP1 PUSH1 0x1 ADD SWAP1 PUSH2 0x633 JUMP JUMPDEST JUMPDEST POP SWAP1 POP PUSH2 0x698 SWAP2 SWAP1 PUSH2 0x69C JUMP JUMPDEST POP SWAP1 JUMP JUMPDEST JUMPDEST DUP1 DUP3 GT ISZERO PUSH2 0x6B3 JUMPI PUSH0 DUP2 PUSH0 SWAP1 SSTORE POP PUSH1 0x1 ADD PUSH2 0x69D JUMP JUMPDEST POP SWAP1 JUMP JUMPDEST PUSH0 DUP2 SWAP1 POP SWAP2 SWAP1 POP JUMP JUMPDEST PUSH2 0x6C9 DUP2 PUSH2 0x6B7 JUMP JUMPDEST DUP3 MSTORE POP POP JUMP JUMPDEST PUSH0 PUSH1 0x20 DUP3 ADD SWAP1 POP PUSH2 0x6E2 PUSH0 DUP4 ADD DUP5 PUSH2 0x6C0 JUMP JUMPDEST SWAP3 SWAP2 POP POP JUMP JUMPDEST PUSH0 PUSH0 REVERT JUMPDEST PUSH0 PUSH20 0xFFFFFFFFFFFFFFFFFFFFFFFFFFFFFFFFFFFFFFFF DUP3 AND SWAP1 POP SWAP2 SWAP1 POP JUMP JUMPDEST PUSH0 PUSH2 0x715 DUP3 PUSH2 0x6EC JUMP JUMPDEST SWAP1 POP SWAP2 SWAP1 POP JUMP JUMPDEST PUSH2 0x725 DUP2 PUSH2 0x70B JUMP JUMPDEST DUP2 EQ PUSH2 0x72F JUMPI PUSH0 PUSH0 REVERT JUMPDEST POP JUMP JUMPDEST PUSH0 DUP2 CALLDATALOAD SWAP1 POP PUSH2 0x740 DUP2 PUSH2 0x71C JUMP JUMPDEST SWAP3 SWAP2 POP POP JUMP JUMPDEST PUSH0 PUSH1 0x20 DUP3 DUP5 SUB SLT ISZERO PUSH2 0x75B JUMPI PUSH2 0x75A PUSH2 0x6E8 JUMP JUMPDEST JUMPDEST PUSH0 PUSH2 0x768 DUP5 DUP3 DUP6 ADD PUSH2 0x732 JUMP JUMPDEST SWAP2 POP POP SWAP3 SWAP2 POP POP JUMP JUMPDEST PUSH2 0x77A DUP2 PUSH2 0x70B JUMP JUMPDEST DUP3 MSTORE POP POP JUMP JUMPDEST PUSH0 PUSH1 0x20 DUP3 ADD SWAP1 POP PUSH2 0x793 PUSH0 DUP4 ADD DUP5 PUSH2 0x771 JUMP JUMPDEST SWAP3 SWAP2 POP POP JUMP JUMPDEST PUSH2 0x7A2 DUP2 PUSH2 0x6B7 JUMP JUMPDEST DUP2 EQ PUSH2 0x7AC JUMPI PUSH0 PUSH0 REVERT JUMPDEST POP JUMP JUMPDEST PUSH0 DUP2 CALLDATALOAD SWAP1 POP PUSH2 0x7BD DUP2 PUSH2 0x799 JUMP JUMPDEST SWAP3 SWAP2 POP POP JUMP JUMPDEST PUSH0 PUSH1 0x20 DUP3 DUP5 SUB SLT ISZERO PUSH2 0x7D8 JUMPI PUSH2 0x7D7 PUSH2 0x6E8 JUMP JUMPDEST JUMPDEST PUSH0 PUSH2 0x7E5 DUP5 DUP3 DUP6 ADD PUSH2 0x7AF JUMP JUMPDEST SWAP2 POP POP SWAP3 SWAP2 POP POP JUMP JUMPDEST PUSH0 DUP3 DUP3 MSTORE PUSH1 0x20 DUP3 ADD SWAP1 POP SWAP3 SWAP2 POP POP JUMP JUMPDEST PUSH32 0x4D75737420626520746865206F776E6572000000000000000000000000000000 PUSH0 DUP3 ADD MSTORE POP JUMP JUMPDEST PUSH0 PUSH2 0x832 PUSH1 0x11 DUP4 PUSH2 0x7EE JUMP JUMPDEST SWAP2 POP PUSH2 0x83D DUP3 PUSH2 0x7FE JUMP JUMPDEST PUSH1 0x20 DUP3 ADD SWAP1 POP SWAP2 SWAP1 POP JUMP JUMPDEST PUSH0 PUSH1 0x20 DUP3 ADD SWAP1 POP DUP2 DUP2 SUB PUSH0 DUP4 ADD MSTORE PUSH2 0x85F DUP2 PUSH2 0x826 JUMP JUMPDEST SWAP1 POP SWAP2 SWAP1 POP JUMP JUMPDEST PUSH32 0x4E487B7100000000000000000000000000000000000000000000000000000000 PUSH0 MSTORE PUSH1 0x32 PUSH1 0x4 MSTORE PUSH1 0x24 PUSH0 REVERT JUMPDEST PUSH32 0x4E487B7100000000000000000000000000000000000000000000000000000000 PUSH0 MSTORE PUSH1 0x41 PUSH1 0x4 MSTORE PUSH1 0x24 PUSH0 REVERT JUMPDEST PUSH0 DUP2 SWAP1 POP SWAP3 SWAP2 POP POP JUMP JUMPDEST POP JUMP JUMPDEST PUSH0 PUSH2 0x8D8 PUSH0 DUP4 PUSH2 0x8C0 JUMP JUMPDEST SWAP2 POP PUSH2 0x8E3 DUP3 PUSH2 0x8CA JUMP JUMPDEST PUSH0 DUP3 ADD SWAP1 POP SWAP2 SWAP1 POP JUMP JUMPDEST PUSH0 PUSH2 0x8F7 DUP3 PUSH2 0x8CD JUMP JUMPDEST SWAP2 POP DUP2 SWAP1 POP SWAP2 SWAP1 POP JUMP JUMPDEST PUSH32 0x43616C6C206661696C6564000000000000000000000000000000000000000000 PUSH0 DUP3 ADD MSTORE POP JUMP JUMPDEST PUSH0 PUSH2 0x935 PUSH1 0xB DUP4 PUSH2 0x7EE JUMP JUMPDEST SWAP2 POP PUSH2 0x940 DUP3 PUSH2 0x901 JUMP JUMPDEST PUSH1 0x20 DUP3 ADD SWAP1 POP SWAP2 SWAP1 POP JUMP JUMPDEST PUSH0 PUSH1 0x20 DUP3 ADD SWAP1 POP DUP2 DUP2 SUB PUSH0 DUP4 ADD MSTORE PUSH2 0x962 DUP2 PUSH2 0x929 JUMP JUMPDEST SWAP1 POP SWAP2 SWAP1 POP JUMP JUMPDEST PUSH32 0x6469646E27742073656E6420656E6F7567682045544800000000000000000000 PUSH0 DUP3 ADD MSTORE POP JUMP JUMPDEST PUSH0 PUSH2 0x99D PUSH1 0x16 DUP4 PUSH2 0x7EE JUMP JUMPDEST SWAP2 POP PUSH2 0x9A8 DUP3 PUSH2 0x969 JUMP JUMPDEST PUSH1 0x20 DUP3 ADD SWAP1 POP SWAP2 SWAP1 POP JUMP JUMPDEST PUSH0 PUSH1 0x20 DUP3 ADD SWAP1 POP DUP2 DUP2 SUB PUSH0 DUP4 ADD MSTORE PUSH2 0x9CA DUP2 PUSH2 0x991 JUMP JUMPDEST SWAP1 POP SWAP2 SWAP1 POP JUMP JUMPDEST PUSH32 0x4E487B7100000000000000000000000000000000000000000000000000000000 PUSH0 MSTORE PUSH1 0x11 PUSH1 0x4 MSTORE PUSH1 0x24 PUSH0 REVERT JUMPDEST PUSH0 PUSH2 0xA08 DUP3 PUSH2 0x6B7 JUMP JUMPDEST SWAP2 POP PUSH2 0xA13 DUP4 PUSH2 0x6B7 JUMP JUMPDEST SWAP3 POP DUP3 DUP3 ADD SWAP1 POP DUP1 DUP3 GT ISZERO PUSH2 0xA2B JUMPI PUSH2 0xA2A PUSH2 0x9D1 JUMP JUMPDEST JUMPDEST SWAP3 SWAP2 POP POP JUMP JUMPDEST PUSH0 PUSH2 0xA3B DUP3 PUSH2 0x6B7 JUMP JUMPDEST SWAP2 POP PUSH2 0xA46 DUP4 PUSH2 0x6B7 JUMP JUMPDEST SWAP3 POP DUP3 DUP3 MUL PUSH2 0xA54 DUP2 PUSH2 0x6B7 JUMP JUMPDEST SWAP2 POP DUP3 DUP3 DIV DUP5 EQ DUP4 ISZERO OR PUSH2 0xA6B JUMPI PUSH2 0xA6A PUSH2 0x9D1 JUMP JUMPDEST JUMPDEST POP SWAP3 SWAP2 POP POP JUMP JUMPDEST PUSH32 0x4E487B7100000000000000000000000000000000000000000000000000000000 PUSH0 MSTORE PUSH1 0x12 PUSH1 0x4 MSTORE PUSH1 0x24 PUSH0 REVERT JUMPDEST PUSH0 PUSH2 0xAA9 DUP3 PUSH2 0x6B7 JUMP JUMPDEST SWAP2 POP PUSH2 0xAB4 DUP4 PUSH2 0x6B7 JUMP JUMPDEST SWAP3 POP DUP3 PUSH2 0xAC4 JUMPI PUSH2 0xAC3 PUSH2 0xA72 JUMP JUMPDEST JUMPDEST DUP3 DUP3 DIV SWAP1 POP SWAP3 SWAP2 POP POP JUMP JUMPDEST PUSH0 PUSH10 0xFFFFFFFFFFFFFFFFFFFF DUP3 AND SWAP1 POP SWAP2 SWAP1 POP JUMP JUMPDEST PUSH2 0xAED DUP2 PUSH2 0xACF JUMP JUMPDEST DUP2 EQ PUSH2 0xAF7 JUMPI PUSH0 PUSH0 REVERT JUMPDEST POP JUMP JUMPDEST PUSH0 DUP2 MLOAD SWAP1 POP PUSH2 0xB08 DUP2 PUSH2 0xAE4 JUMP JUMPDEST SWAP3 SWAP2 POP POP JUMP JUMPDEST PUSH0 DUP2 SWAP1 POP SWAP2 SWAP1 POP JUMP JUMPDEST PUSH2 0xB20 DUP2 PUSH2 0xB0E JUMP JUMPDEST DUP2 EQ PUSH2 0xB2A JUMPI PUSH0 PUSH0 REVERT JUMPDEST POP JUMP JUMPDEST PUSH0 DUP2 MLOAD SWAP1 POP PUSH2 0xB3B DUP2 PUSH2 0xB17 JUMP JUMPDEST SWAP3 SWAP2 POP POP JUMP JUMPDEST PUSH0 DUP2 MLOAD SWAP1 POP PUSH2 0xB4F DUP2 PUSH2 0x799 JUMP JUMPDEST SWAP3 SWAP2 POP POP JUMP JUMPDEST PUSH0 PUSH0 PUSH0 PUSH0 PUSH0 PUSH1 0xA0 DUP7 DUP9 SUB SLT ISZERO PUSH2 0xB6E JUMPI PUSH2 0xB6D PUSH2 0x6E8 JUMP JUMPDEST JUMPDEST PUSH0 PUSH2 0xB7B DUP9 DUP3 DUP10 ADD PUSH2 0xAFA JUMP JUMPDEST SWAP6 POP POP PUSH1 0x20 PUSH2 0xB8C DUP9 DUP3 DUP10 ADD PUSH2 0xB2D JUMP JUMPDEST SWAP5 POP POP PUSH1 0x40 PUSH2 0xB9D DUP9 DUP3 DUP10 ADD PUSH2 0xB41 JUMP JUMPDEST SWAP4 POP POP PUSH1 0x60 PUSH2 0xBAE DUP9 DUP3 DUP10 ADD PUSH2 0xB41 JUMP JUMPDEST SWAP3 POP POP PUSH1 0x80 PUSH2 0xBBF DUP9 DUP3 DUP10 ADD PUSH2 0xAFA JUMP JUMPDEST SWAP2 POP POP SWAP3 SWAP6 POP SWAP3 SWAP6 SWAP1 SWAP4 POP JUMP JUMPDEST PUSH0 PUSH2 0xBD6 DUP3 PUSH2 0xB0E JUMP JUMPDEST SWAP2 POP PUSH2 0xBE1 DUP4 PUSH2 0xB0E JUMP JUMPDEST SWAP3 POP DUP3 DUP3 MUL PUSH2 0xBEF DUP2 PUSH2 0xB0E JUMP JUMPDEST SWAP2 POP PUSH32 0x8000000000000000000000000000000000000000000000000000000000000000 DUP5 EQ PUSH0 DUP5 SLT AND ISZERO PUSH2 0xC26 JUMPI PUSH2 0xC25 PUSH2 0x9D1 JUMP JUMPDEST JUMPDEST DUP3 DUP3 SDIV DUP5 EQ DUP4 ISZERO OR PUSH2 0xC3B JUMPI PUSH2 0xC3A PUSH2 0x9D1 JUMP JUMPDEST JUMPDEST POP SWAP3 SWAP2 POP POP JUMP INVALID LOG2 PUSH5 0x6970667358 0x22 SLT KECCAK256 0xD4 DUP10 AND 0xC3 0xDB DUP9 0xEA SELFDESTRUCT EXTCODECOPY 0xCA PUSH15 0x2B861C70F25F2A833B2D1D905B81FA 0xB4 GASLIMIT PUSH14 0x2BA11B64736F6C634300081E0033 "
				},
				"gasEstimates": {
					"creation": {
						"codeDepositCost": "638400",
						"executionCost": "infinite",
						"totalCost": "infinite"
					},
					"external": {
						"MIN_USD()": "303",
						"addressToAmountFunded(address)": "2824",
						"fund()": "infinite",
						"funders(uint256)": "5031",
						"i_owner()": "infinite",
						"withdraw()": "infinite"
					}
				},
				"methodIdentifiers": {
					"MIN_USD()": "213dbea2",
					"addressToAmountFunded(address)": "3e47d6f3",
					"fund()": "b60d4288",
					"funders(uint256)": "dc0d3dff",
					"i_owner()": "dba6335f",
					"withdraw()": "3ccfd60b"
				}
			},
			"storageLayout": {
				"storage": [
					{
						"astId": 58,
						"contract": "contracts/FundMe.sol:FundMe",
						"label": "funders",
						"offset": 0,
						"slot": "0",
						"type": "t_array(t_address)dyn_storage"
					},
					{
						"astId": 62,
						"contract": "contracts/FundMe.sol:FundMe",
						"label": "addressToAmountFunded",
						"offset": 0,
						"slot": "1",
						"type": "t_mapping(t_address,t_uint256)"
					}
				],
				"types": {
					"t_address": {
						"encoding": "inplace",
						"label": "address",
						"numberOfBytes": "20"
					},
					"t_array(t_address)dyn_storage": {
						"base": "t_address",
						"encoding": "dynamic_array",
						"label": "address[]",
						"numberOfBytes": "32"
					},
					"t_mapping(t_address,t_uint256)": {
						"encoding": "mapping",
						"key": "t_address",
						"label": "mapping(address => uint256)",
						"numberOfBytes": "32",
						"value": "t_uint256"
					},
					"t_uint256": {
						"encoding": "inplace",
						"label": "uint256",
						"numberOfBytes": "32"
					}
				}
			},
			"userdoc": {
				"kind": "user",
				"methods": {},
				"version": 1
			}
		}
	}
}