{
	"contracts/FundMe.sol": {
		"FundMe": {
			"abi": [
				{
					"inputs": [],
					"stateMutability": "nonpayable",
					"type": "constructor"
				},
				{
					"inputs": [
						{
							"internalType": "address",
							"name": "",
							"type": "address"
						}
					],
					"name": "addressToAmountFunded",
					"outputs": [
						{
							"internalType": "uint256",
							"name": "amountFunded",
							"type": "uint256"
						}
					],
					"stateMutability": "view",
					"type": "function"
				},
				{
					"inputs": [],
					"name": "fund",
					"outputs": [],
					"stateMutability": "payable",
					"type": "function"
				},
				{
					"inputs": [
						{
							"internalType": "uint256",
							"name": "",
							"type": "uint256"
						}
					],
					"name": "funders",
					"outputs": [
						{
							"internalType": "address",
							"name": "",
							"type": "address"
						}
					],
					"stateMutability": "view",
					"type": "function"
				},
				{
					"inputs": [],
					"name": "minUsd",
					"outputs": [
						{
							"internalType": "uint256",
							"name": "",
							"type": "uint256"
						}
					],
					"stateMutability": "view",
					"type": "function"
				},
				{
					"inputs": [],
					"name": "owner",
					"outputs": [
						{
							"internalType": "address",
							"name": "",
							"type": "address"
						}
					],
					"stateMutability": "view",
					"type": "function"
				},
				{
					"inputs": [],
					"name": "withdraw",
					"outputs": [],
					"stateMutability": "nonpayable",
					"type": "function"
				}
			],
			"devdoc": {
				"kind": "dev",
				"methods": {},
				"version": 1
			},
			"evm": {
				"assembly": "    /* \"contracts/FundMe.sol\":101:1801  contract FundMe{... */\n  mstore(0x40, 0x80)\n    /* \"contracts/FundMe.sol\":379:383  5e18 */\n  0x4563918244f40000\n    /* \"contracts/FundMe.sol\":355:383  uint256 public minUsd = 5e18 */\n  0x00\n  sstore\n    /* \"contracts/FundMe.sol\":519:564  constructor() {... */\n  callvalue\n  dup1\n  iszero\n  tag_1\n  jumpi\n  revert(0x00, 0x00)\ntag_1:\n  pop\n    /* \"contracts/FundMe.sol\":549:559  msg.sender */\n  caller\n    /* \"contracts/FundMe.sol\":541:546  owner */\n  0x03\n  0x00\n    /* \"contracts/FundMe.sol\":541:559  owner = msg.sender */\n  0x0100\n  exp\n  dup2\n  sload\n  dup2\n  0xffffffffffffffffffffffffffffffffffffffff\n  mul\n  not\n  and\n  swap1\n  dup4\n  0xffffffffffffffffffffffffffffffffffffffff\n  and\n  mul\n  or\n  swap1\n  sstore\n  pop\n    /* \"contracts/FundMe.sol\":101:1801  contract FundMe{... */\n  dataSize(sub_0)\n  dup1\n  dataOffset(sub_0)\n  0x00\n  codecopy\n  0x00\n  return\nstop\n\nsub_0: assembly {\n        /* \"contracts/FundMe.sol\":101:1801  contract FundMe{... */\n      mstore(0x40, 0x80)\n      jumpi(tag_1, lt(calldatasize, 0x04))\n      shr(0xe0, calldataload(0x00))\n      dup1\n      0x3ccfd60b\n      eq\n      tag_2\n      jumpi\n      dup1\n      0x3e47d6f3\n      eq\n      tag_3\n      jumpi\n      dup1\n      0x51b80e41\n      eq\n      tag_4\n      jumpi\n      dup1\n      0x8da5cb5b\n      eq\n      tag_5\n      jumpi\n      dup1\n      0xb60d4288\n      eq\n      tag_6\n      jumpi\n      dup1\n      0xdc0d3dff\n      eq\n      tag_7\n      jumpi\n    tag_1:\n      revert(0x00, 0x00)\n        /* \"contracts/FundMe.sol\":843:1667  function withdraw() public onlyOwner{... */\n    tag_2:\n      callvalue\n      dup1\n      iszero\n      tag_8\n      jumpi\n      revert(0x00, 0x00)\n    tag_8:\n      pop\n      tag_9\n      tag_10\n      jump\t// in\n    tag_9:\n      stop\n        /* \"contracts/FundMe.sol\":419:488  mapping(address => uint256 amountFunded) public addressToAmountFunded */\n    tag_3:\n      callvalue\n      dup1\n      iszero\n      tag_11\n      jumpi\n      revert(0x00, 0x00)\n    tag_11:\n      pop\n      tag_12\n      0x04\n      dup1\n      calldatasize\n      sub\n      dup2\n      add\n      swap1\n      tag_13\n      swap2\n      swap1\n      tag_14\n      jump\t// in\n    tag_13:\n      tag_15\n      jump\t// in\n    tag_12:\n      mload(0x40)\n      tag_16\n      swap2\n      swap1\n      tag_17\n      jump\t// in\n    tag_16:\n      mload(0x40)\n      dup1\n      swap2\n      sub\n      swap1\n      return\n        /* \"contracts/FundMe.sol\":355:383  uint256 public minUsd = 5e18 */\n    tag_4:\n      callvalue\n      dup1\n      iszero\n      tag_18\n      jumpi\n      revert(0x00, 0x00)\n    tag_18:\n      pop\n      tag_19\n      tag_20\n      jump\t// in\n    tag_19:\n      mload(0x40)\n      tag_21\n      swap2\n      swap1\n      tag_17\n      jump\t// in\n    tag_21:\n      mload(0x40)\n      dup1\n      swap2\n      sub\n      swap1\n      return\n        /* \"contracts/FundMe.sol\":495:515  address public owner */\n    tag_5:\n      callvalue\n      dup1\n      iszero\n      tag_22\n      jumpi\n      revert(0x00, 0x00)\n    tag_22:\n      pop\n      tag_23\n      tag_24\n      jump\t// in\n    tag_23:\n      mload(0x40)\n      tag_25\n      swap2\n      swap1\n      tag_26\n      jump\t// in\n    tag_25:\n      mload(0x40)\n      dup1\n      swap2\n      sub\n      swap1\n      return\n        /* \"contracts/FundMe.sol\":569:837  function fund() public payable { ... */\n    tag_6:\n      tag_27\n      tag_28\n      jump\t// in\n    tag_27:\n      stop\n        /* \"contracts/FundMe.sol\":389:413  address[] public funders */\n    tag_7:\n      callvalue\n      dup1\n      iszero\n      tag_29\n      jumpi\n      revert(0x00, 0x00)\n    tag_29:\n      pop\n      tag_30\n      0x04\n      dup1\n      calldatasize\n      sub\n      dup2\n      add\n      swap1\n      tag_31\n      swap2\n      swap1\n      tag_32\n      jump\t// in\n    tag_31:\n      tag_33\n      jump\t// in\n    tag_30:\n      mload(0x40)\n      tag_34\n      swap2\n      swap1\n      tag_26\n      jump\t// in\n    tag_34:\n      mload(0x40)\n      dup1\n      swap2\n      sub\n      swap1\n      return\n        /* \"contracts/FundMe.sol\":843:1667  function withdraw() public onlyOwner{... */\n    tag_10:\n        /* \"contracts/FundMe.sol\":1723:1728  owner */\n      0x03\n      0x00\n      swap1\n      sload\n      swap1\n      0x0100\n      exp\n      swap1\n      div\n      0xffffffffffffffffffffffffffffffffffffffff\n      and\n        /* \"contracts/FundMe.sol\":1709:1728  msg.sender == owner */\n      0xffffffffffffffffffffffffffffffffffffffff\n      and\n        /* \"contracts/FundMe.sol\":1709:1719  msg.sender */\n      caller\n        /* \"contracts/FundMe.sol\":1709:1728  msg.sender == owner */\n      0xffffffffffffffffffffffffffffffffffffffff\n      and\n      eq\n        /* \"contracts/FundMe.sol\":1701:1750  require(msg.sender == owner, \"Must be the owner\") */\n      tag_36\n      jumpi\n      mload(0x40)\n      0x08c379a000000000000000000000000000000000000000000000000000000000\n      dup2\n      mstore\n      0x04\n      add\n      tag_37\n      swap1\n      tag_38\n      jump\t// in\n    tag_37:\n      mload(0x40)\n      dup1\n      swap2\n      sub\n      swap1\n      revert\n    tag_36:\n        /* \"contracts/FundMe.sol\":909:928  uint256 funderIndex */\n      0x00\n        /* \"contracts/FundMe.sol\":931:932  0 */\n      0x00\n        /* \"contracts/FundMe.sol\":909:932  uint256 funderIndex = 0 */\n      swap1\n      pop\n        /* \"contracts/FundMe.sol\":904:1078  for (uint256 funderIndex = 0; funderIndex < funders.length; funderIndex++){... */\n    tag_40:\n        /* \"contracts/FundMe.sol\":948:955  funders */\n      0x01\n        /* \"contracts/FundMe.sol\":948:962  funders.length */\n      dup1\n      sload\n      swap1\n      pop\n        /* \"contracts/FundMe.sol\":934:945  funderIndex */\n      dup2\n        /* \"contracts/FundMe.sol\":934:962  funderIndex < funders.length */\n      lt\n        /* \"contracts/FundMe.sol\":904:1078  for (uint256 funderIndex = 0; funderIndex < funders.length; funderIndex++){... */\n      iszero\n      tag_41\n      jumpi\n        /* \"contracts/FundMe.sol\":988:1002  address funder */\n      0x00\n        /* \"contracts/FundMe.sol\":1005:1012  funders */\n      0x01\n        /* \"contracts/FundMe.sol\":1013:1024  funderIndex */\n      dup3\n        /* \"contracts/FundMe.sol\":1005:1025  funders[funderIndex] */\n      dup2\n      sload\n      dup2\n      lt\n      tag_43\n      jumpi\n      tag_44\n      tag_45\n      jump\t// in\n    tag_44:\n    tag_43:\n      swap1\n      0x00\n      mstore\n      keccak256(0x00, 0x20)\n      add\n      0x00\n      swap1\n      sload\n      swap1\n      0x0100\n      exp\n      swap1\n      div\n      0xffffffffffffffffffffffffffffffffffffffff\n      and\n        /* \"contracts/FundMe.sol\":988:1025  address funder = funders[funderIndex] */\n      swap1\n      pop\n        /* \"contracts/FundMe.sol\":1067:1068  0 */\n      0x00\n        /* \"contracts/FundMe.sol\":1035:1056  addressToAmountFunded */\n      0x02\n        /* \"contracts/FundMe.sol\":1035:1064  addressToAmountFunded[funder] */\n      0x00\n        /* \"contracts/FundMe.sol\":1057:1063  funder */\n      dup4\n        /* \"contracts/FundMe.sol\":1035:1064  addressToAmountFunded[funder] */\n      0xffffffffffffffffffffffffffffffffffffffff\n      and\n      0xffffffffffffffffffffffffffffffffffffffff\n      and\n      dup2\n      mstore\n      0x20\n      add\n      swap1\n      dup2\n      mstore\n      0x20\n      add\n      0x00\n      keccak256\n        /* \"contracts/FundMe.sol\":1035:1068  addressToAmountFunded[funder] = 0 */\n      dup2\n      swap1\n      sstore\n      pop\n        /* \"contracts/FundMe.sol\":978:1078  {... */\n      pop\n        /* \"contracts/FundMe.sol\":964:977  funderIndex++ */\n      dup1\n      dup1\n      0x01\n      add\n      swap2\n      pop\n      pop\n        /* \"contracts/FundMe.sol\":904:1078  for (uint256 funderIndex = 0; funderIndex < funders.length; funderIndex++){... */\n      jump(tag_40)\n    tag_41:\n      pop\n        /* \"contracts/FundMe.sol\":1134:1135  0 */\n      0x00\n        /* \"contracts/FundMe.sol\":1120:1136  new address[](0) */\n      0xffffffffffffffff\n      dup2\n      gt\n      iszero\n      tag_47\n      jumpi\n      tag_48\n      tag_49\n      jump\t// in\n    tag_48:\n    tag_47:\n      mload(0x40)\n      swap1\n      dup1\n      dup3\n      mstore\n      dup1\n      0x20\n      mul\n      0x20\n      add\n      dup3\n      add\n      0x40\n      mstore\n      dup1\n      iszero\n      tag_50\n      jumpi\n      dup2\n      0x20\n      add\n      0x20\n      dup3\n      mul\n      dup1\n      calldatasize\n      dup4\n      calldatacopy\n      dup1\n      dup3\n      add\n      swap2\n      pop\n      pop\n      swap1\n      pop\n    tag_50:\n      pop\n        /* \"contracts/FundMe.sol\":1110:1117  funders */\n      0x01\n        /* \"contracts/FundMe.sol\":1110:1136  funders = new address[](0) */\n      swap1\n      dup1\n      mload\n      swap1\n      0x20\n      add\n      swap1\n      tag_51\n      swap3\n      swap2\n      swap1\n      tag_52\n      jump\t// in\n    tag_51:\n      pop\n        /* \"contracts/FundMe.sol\":1537:1553  bool callSuccess */\n      0x00\n        /* \"contracts/FundMe.sol\":1567:1577  msg.sender */\n      caller\n        /* \"contracts/FundMe.sol\":1559:1583  payable(msg.sender).call */\n      0xffffffffffffffffffffffffffffffffffffffff\n      and\n        /* \"contracts/FundMe.sol\":1591:1612  address(this).balance */\n      selfbalance\n        /* \"contracts/FundMe.sol\":1559:1617  payable(msg.sender).call{value: address(this).balance}(\"\") */\n      mload(0x40)\n      tag_53\n      swap1\n      tag_54\n      jump\t// in\n    tag_53:\n      0x00\n      mload(0x40)\n      dup1\n      dup4\n      sub\n      dup2\n      dup6\n      dup8\n      gas\n      call\n      swap3\n      pop\n      pop\n      pop\n      returndatasize\n      dup1\n      0x00\n      dup2\n      eq\n      tag_57\n      jumpi\n      mload(0x40)\n      swap2\n      pop\n      and(add(returndatasize, 0x3f), not(0x1f))\n      dup3\n      add\n      0x40\n      mstore\n      returndatasize\n      dup3\n      mstore\n      returndatasize\n      0x00\n      0x20\n      dup5\n      add\n      returndatacopy\n      jump(tag_56)\n    tag_57:\n      0x60\n      swap2\n      pop\n    tag_56:\n      pop\n        /* \"contracts/FundMe.sol\":1536:1617  (bool callSuccess, ) = payable(msg.sender).call{value: address(this).balance}(\"\") */\n      pop\n      swap1\n      pop\n        /* \"contracts/FundMe.sol\":1633:1644  callSuccess */\n      dup1\n        /* \"contracts/FundMe.sol\":1625:1660  require(callSuccess, \"Call failed\") */\n      tag_58\n      jumpi\n      mload(0x40)\n      0x08c379a000000000000000000000000000000000000000000000000000000000\n      dup2\n      mstore\n      0x04\n      add\n      tag_59\n      swap1\n      tag_60\n      jump\t// in\n    tag_59:\n      mload(0x40)\n      dup1\n      swap2\n      sub\n      swap1\n      revert\n    tag_58:\n        /* \"contracts/FundMe.sol\":879:1667  {... */\n      pop\n        /* \"contracts/FundMe.sol\":843:1667  function withdraw() public onlyOwner{... */\n      jump\t// out\n        /* \"contracts/FundMe.sol\":419:488  mapping(address => uint256 amountFunded) public addressToAmountFunded */\n    tag_15:\n      mstore(0x20, 0x02)\n      dup1\n      0x00\n      mstore\n      keccak256(0x00, 0x40)\n      0x00\n      swap2\n      pop\n      swap1\n      pop\n      sload\n      dup2\n      jump\t// out\n        /* \"contracts/FundMe.sol\":355:383  uint256 public minUsd = 5e18 */\n    tag_20:\n      sload(0x00)\n      dup2\n      jump\t// out\n        /* \"contracts/FundMe.sol\":495:515  address public owner */\n    tag_24:\n      0x03\n      0x00\n      swap1\n      sload\n      swap1\n      0x0100\n      exp\n      swap1\n      div\n      0xffffffffffffffffffffffffffffffffffffffff\n      and\n      dup2\n      jump\t// out\n        /* \"contracts/FundMe.sol\":569:837  function fund() public payable { ... */\n    tag_28:\n        /* \"contracts/FundMe.sol\":648:654  minUsd */\n      sload(0x00)\n        /* \"contracts/FundMe.sol\":619:644  msg.value.getConversion() */\n      tag_62\n        /* \"contracts/FundMe.sol\":619:628  msg.value */\n      callvalue\n        /* \"contracts/FundMe.sol\":619:642  msg.value.getConversion */\n      tag_63\n        /* \"contracts/FundMe.sol\":619:644  msg.value.getConversion() */\n      jump\t// in\n    tag_62:\n        /* \"contracts/FundMe.sol\":619:654  msg.value.getConversion() >= minUsd */\n      lt\n      iszero\n        /* \"contracts/FundMe.sol\":611:682  require(msg.value.getConversion() >= minUsd,  \"didn't send enough ETH\") */\n      tag_64\n      jumpi\n      mload(0x40)\n      0x08c379a000000000000000000000000000000000000000000000000000000000\n      dup2\n      mstore\n      0x04\n      add\n      tag_65\n      swap1\n      tag_66\n      jump\t// in\n    tag_65:\n      mload(0x40)\n      dup1\n      swap2\n      sub\n      swap1\n      revert\n    tag_64:\n        /* \"contracts/FundMe.sol\":692:699  funders */\n      0x01\n        /* \"contracts/FundMe.sol\":705:715  msg.sender */\n      caller\n        /* \"contracts/FundMe.sol\":692:716  funders.push(msg.sender) */\n      swap1\n      dup1\n      0x01\n      dup2\n      sload\n      add\n      dup1\n      dup3\n      sstore\n      dup1\n      swap2\n      pop\n      pop\n      0x01\n      swap1\n      sub\n      swap1\n      0x00\n      mstore\n      keccak256(0x00, 0x20)\n      add\n      0x00\n      swap1\n      swap2\n      swap1\n      swap2\n      swap1\n      swap2\n      0x0100\n      exp\n      dup2\n      sload\n      dup2\n      0xffffffffffffffffffffffffffffffffffffffff\n      mul\n      not\n      and\n      swap1\n      dup4\n      0xffffffffffffffffffffffffffffffffffffffff\n      and\n      mul\n      or\n      swap1\n      sstore\n      pop\n        /* \"contracts/FundMe.sol\":798:807  msg.value */\n      callvalue\n        /* \"contracts/FundMe.sol\":762:783  addressToAmountFunded */\n      0x02\n        /* \"contracts/FundMe.sol\":762:795  addressToAmountFunded[msg.sender] */\n      0x00\n        /* \"contracts/FundMe.sol\":784:794  msg.sender */\n      caller\n        /* \"contracts/FundMe.sol\":762:795  addressToAmountFunded[msg.sender] */\n      0xffffffffffffffffffffffffffffffffffffffff\n      and\n      0xffffffffffffffffffffffffffffffffffffffff\n      and\n      dup2\n      mstore\n      0x20\n      add\n      swap1\n      dup2\n      mstore\n      0x20\n      add\n      0x00\n      keccak256\n      sload\n        /* \"contracts/FundMe.sol\":762:807  addressToAmountFunded[msg.sender] + msg.value */\n      tag_68\n      swap2\n      swap1\n      tag_69\n      jump\t// in\n    tag_68:\n        /* \"contracts/FundMe.sol\":726:747  addressToAmountFunded */\n      0x02\n        /* \"contracts/FundMe.sol\":726:759  addressToAmountFunded[msg.sender] */\n      0x00\n        /* \"contracts/FundMe.sol\":748:758  msg.sender */\n      caller\n        /* \"contracts/FundMe.sol\":726:759  addressToAmountFunded[msg.sender] */\n      0xffffffffffffffffffffffffffffffffffffffff\n      and\n      0xffffffffffffffffffffffffffffffffffffffff\n      and\n      dup2\n      mstore\n      0x20\n      add\n      swap1\n      dup2\n      mstore\n      0x20\n      add\n      0x00\n      keccak256\n        /* \"contracts/FundMe.sol\":726:807  addressToAmountFunded[msg.sender] = addressToAmountFunded[msg.sender] + msg.value */\n      dup2\n      swap1\n      sstore\n      pop\n        /* \"contracts/FundMe.sol\":569:837  function fund() public payable { ... */\n      jump\t// out\n        /* \"contracts/FundMe.sol\":389:413  address[] public funders */\n    tag_33:\n      0x01\n      dup2\n      dup2\n      sload\n      dup2\n      lt\n      tag_70\n      jumpi\n      0x00\n      dup1\n      revert\n    tag_70:\n      swap1\n      0x00\n      mstore\n      keccak256(0x00, 0x20)\n      add\n      0x00\n      swap2\n      pop\n      sload\n      swap1\n      0x0100\n      exp\n      swap1\n      div\n      0xffffffffffffffffffffffffffffffffffffffff\n      and\n      dup2\n      jump\t// out\n        /* \"contracts/converter.sol\":930:1187  function getConversion(uint256 ethAmount) internal view returns (uint256) {... */\n    tag_63:\n        /* \"contracts/converter.sol\":995:1002  uint256 */\n      0x00\n        /* \"contracts/converter.sol\":1014:1030  uint256 ethPrice */\n      0x00\n        /* \"contracts/converter.sol\":1033:1043  getPrice() */\n      tag_73\n        /* \"contracts/converter.sol\":1033:1041  getPrice */\n      tag_74\n        /* \"contracts/converter.sol\":1033:1043  getPrice() */\n      jump\t// in\n    tag_73:\n        /* \"contracts/converter.sol\":1014:1043  uint256 ethPrice = getPrice() */\n      swap1\n      pop\n        /* \"contracts/converter.sol\":1095:1117  uint256 ethAmountInUsd */\n      0x00\n        /* \"contracts/converter.sol\":1145:1149  1e18 */\n      0x0de0b6b3a7640000\n        /* \"contracts/converter.sol\":1132:1141  ethAmount */\n      dup5\n        /* \"contracts/converter.sol\":1121:1129  ethPrice */\n      dup4\n        /* \"contracts/converter.sol\":1121:1141  ethPrice * ethAmount */\n      tag_75\n      swap2\n      swap1\n      tag_76\n      jump\t// in\n    tag_75:\n        /* \"contracts/converter.sol\":1120:1149  (ethPrice * ethAmount) / 1e18 */\n      tag_77\n      swap2\n      swap1\n      tag_78\n      jump\t// in\n    tag_77:\n        /* \"contracts/converter.sol\":1095:1149  uint256 ethAmountInUsd = (ethPrice * ethAmount) / 1e18 */\n      swap1\n      pop\n        /* \"contracts/converter.sol\":1166:1180  ethAmountInUsd */\n      dup1\n        /* \"contracts/converter.sol\":1159:1180  return ethAmountInUsd */\n      swap3\n      pop\n      pop\n      pop\n        /* \"contracts/converter.sol\":930:1187  function getConversion(uint256 ethAmount) internal view returns (uint256) {... */\n      swap2\n      swap1\n      pop\n      jump\t// out\n        /* \"contracts/converter.sol\":193:661  function getPrice() internal view returns(uint256) {... */\n    tag_74:\n        /* \"contracts/converter.sol\":235:242  uint256 */\n      0x00\n        /* \"contracts/converter.sol\":423:454  AggregatorV3Interface priceFeed */\n      0x00\n        /* \"contracts/converter.sol\":479:521  0x694AA1769357215DE4FAC081bf1f309aDC325306 */\n      0x694aa1769357215de4fac081bf1f309adc325306\n        /* \"contracts/converter.sol\":423:522  AggregatorV3Interface priceFeed = AggregatorV3Interface(0x694AA1769357215DE4FAC081bf1f309aDC325306) */\n      swap1\n      pop\n        /* \"contracts/converter.sol\":532:544  int256 price */\n      0x00\n        /* \"contracts/converter.sol\":551:560  priceFeed */\n      dup2\n        /* \"contracts/converter.sol\":551:576  priceFeed.latestRoundData */\n      0xffffffffffffffffffffffffffffffffffffffff\n      and\n      0xfeaf968c\n        /* \"contracts/converter.sol\":551:578  priceFeed.latestRoundData() */\n      mload(0x40)\n      dup2\n      0xffffffff\n      and\n      0xe0\n      shl\n      dup2\n      mstore\n      0x04\n      add\n      0xa0\n      mload(0x40)\n      dup1\n      dup4\n      sub\n      dup2\n      dup7\n      gas\n      staticcall\n      iszero\n      dup1\n      iszero\n      tag_81\n      jumpi\n      returndatacopy(0x00, 0x00, returndatasize)\n      revert(0x00, returndatasize)\n    tag_81:\n      pop\n      pop\n      pop\n      pop\n      mload(0x40)\n      returndatasize\n      not(0x1f)\n      0x1f\n      dup3\n      add\n      and\n      dup3\n      add\n      dup1\n      0x40\n      mstore\n      pop\n      dup2\n      add\n      swap1\n      tag_82\n      swap2\n      swap1\n      tag_83\n      jump\t// in\n    tag_82:\n        /* \"contracts/converter.sol\":530:578  (,int256 price,,,) = priceFeed.latestRoundData() */\n      pop\n      pop\n      pop\n      swap2\n      pop\n      pop\n        /* \"contracts/converter.sol\":649:653  1e10 */\n      0x02540be400\n        /* \"contracts/converter.sol\":641:646  price */\n      dup2\n        /* \"contracts/converter.sol\":641:653  price * 1e10 */\n      tag_84\n      swap2\n      swap1\n      tag_85\n      jump\t// in\n    tag_84:\n        /* \"contracts/converter.sol\":626:654  return uint256(price * 1e10) */\n      swap3\n      pop\n      pop\n      pop\n        /* \"contracts/converter.sol\":193:661  function getPrice() internal view returns(uint256) {... */\n      swap1\n      jump\t// out\n    tag_52:\n      dup3\n      dup1\n      sload\n      dup3\n      dup3\n      sstore\n      swap1\n      0x00\n      mstore\n      keccak256(0x00, 0x20)\n      swap1\n      dup2\n      add\n      swap3\n      dup3\n      iszero\n      tag_86\n      jumpi\n      swap2\n      0x20\n      mul\n      dup3\n      add\n    tag_87:\n      dup3\n      dup2\n      gt\n      iszero\n      tag_88\n      jumpi\n      dup3\n      mload\n      dup3\n      exp(0x0100, 0x00)\n      dup2\n      sload\n      dup2\n      0xffffffffffffffffffffffffffffffffffffffff\n      mul\n      not\n      and\n      swap1\n      dup4\n      0xffffffffffffffffffffffffffffffffffffffff\n      and\n      mul\n      or\n      swap1\n      sstore\n      pop\n      swap2\n      0x20\n      add\n      swap2\n      swap1\n      0x01\n      add\n      swap1\n      jump(tag_87)\n    tag_88:\n    tag_86:\n      pop\n      swap1\n      pop\n      tag_89\n      swap2\n      swap1\n      tag_90\n      jump\t// in\n    tag_89:\n      pop\n      swap1\n      jump\t// out\n    tag_90:\n    tag_91:\n      dup1\n      dup3\n      gt\n      iszero\n      tag_92\n      jumpi\n      0x00\n      dup2\n      0x00\n      swap1\n      sstore\n      pop\n      0x01\n      add\n      jump(tag_91)\n    tag_92:\n      pop\n      swap1\n      jump\t// out\n        /* \"#utility.yul\":88:205   */\n    tag_94:\n        /* \"#utility.yul\":197:198   */\n      0x00\n        /* \"#utility.yul\":194:195   */\n      0x00\n        /* \"#utility.yul\":187:199   */\n      revert\n        /* \"#utility.yul\":334:460   */\n    tag_96:\n        /* \"#utility.yul\":371:378   */\n      0x00\n        /* \"#utility.yul\":411:453   */\n      0xffffffffffffffffffffffffffffffffffffffff\n        /* \"#utility.yul\":404:409   */\n      dup3\n        /* \"#utility.yul\":400:454   */\n      and\n        /* \"#utility.yul\":389:454   */\n      swap1\n      pop\n        /* \"#utility.yul\":334:460   */\n      swap2\n      swap1\n      pop\n      jump\t// out\n        /* \"#utility.yul\":466:562   */\n    tag_97:\n        /* \"#utility.yul\":503:510   */\n      0x00\n        /* \"#utility.yul\":532:556   */\n      tag_130\n        /* \"#utility.yul\":550:555   */\n      dup3\n        /* \"#utility.yul\":532:556   */\n      tag_96\n      jump\t// in\n    tag_130:\n        /* \"#utility.yul\":521:556   */\n      swap1\n      pop\n        /* \"#utility.yul\":466:562   */\n      swap2\n      swap1\n      pop\n      jump\t// out\n        /* \"#utility.yul\":568:690   */\n    tag_98:\n        /* \"#utility.yul\":641:665   */\n      tag_132\n        /* \"#utility.yul\":659:664   */\n      dup2\n        /* \"#utility.yul\":641:665   */\n      tag_97\n      jump\t// in\n    tag_132:\n        /* \"#utility.yul\":634:639   */\n      dup2\n        /* \"#utility.yul\":631:666   */\n      eq\n        /* \"#utility.yul\":621:684   */\n      tag_133\n      jumpi\n        /* \"#utility.yul\":680:681   */\n      0x00\n        /* \"#utility.yul\":677:678   */\n      0x00\n        /* \"#utility.yul\":670:682   */\n      revert\n        /* \"#utility.yul\":621:684   */\n    tag_133:\n        /* \"#utility.yul\":568:690   */\n      pop\n      jump\t// out\n        /* \"#utility.yul\":696:835   */\n    tag_99:\n        /* \"#utility.yul\":742:747   */\n      0x00\n        /* \"#utility.yul\":780:786   */\n      dup2\n        /* \"#utility.yul\":767:787   */\n      calldataload\n        /* \"#utility.yul\":758:787   */\n      swap1\n      pop\n        /* \"#utility.yul\":796:829   */\n      tag_135\n        /* \"#utility.yul\":823:828   */\n      dup2\n        /* \"#utility.yul\":796:829   */\n      tag_98\n      jump\t// in\n    tag_135:\n        /* \"#utility.yul\":696:835   */\n      swap3\n      swap2\n      pop\n      pop\n      jump\t// out\n        /* \"#utility.yul\":841:1170   */\n    tag_14:\n        /* \"#utility.yul\":900:906   */\n      0x00\n        /* \"#utility.yul\":949:951   */\n      0x20\n        /* \"#utility.yul\":937:946   */\n      dup3\n        /* \"#utility.yul\":928:935   */\n      dup5\n        /* \"#utility.yul\":924:947   */\n      sub\n        /* \"#utility.yul\":920:952   */\n      slt\n        /* \"#utility.yul\":917:1036   */\n      iszero\n      tag_137\n      jumpi\n        /* \"#utility.yul\":955:1034   */\n      tag_138\n      tag_94\n      jump\t// in\n    tag_138:\n        /* \"#utility.yul\":917:1036   */\n    tag_137:\n        /* \"#utility.yul\":1075:1076   */\n      0x00\n        /* \"#utility.yul\":1100:1153   */\n      tag_139\n        /* \"#utility.yul\":1145:1152   */\n      dup5\n        /* \"#utility.yul\":1136:1142   */\n      dup3\n        /* \"#utility.yul\":1125:1134   */\n      dup6\n        /* \"#utility.yul\":1121:1143   */\n      add\n        /* \"#utility.yul\":1100:1153   */\n      tag_99\n      jump\t// in\n    tag_139:\n        /* \"#utility.yul\":1090:1153   */\n      swap2\n      pop\n        /* \"#utility.yul\":1046:1163   */\n      pop\n        /* \"#utility.yul\":841:1170   */\n      swap3\n      swap2\n      pop\n      pop\n      jump\t// out\n        /* \"#utility.yul\":1176:1253   */\n    tag_100:\n        /* \"#utility.yul\":1213:1220   */\n      0x00\n        /* \"#utility.yul\":1242:1247   */\n      dup2\n        /* \"#utility.yul\":1231:1247   */\n      swap1\n      pop\n        /* \"#utility.yul\":1176:1253   */\n      swap2\n      swap1\n      pop\n      jump\t// out\n        /* \"#utility.yul\":1259:1377   */\n    tag_101:\n        /* \"#utility.yul\":1346:1370   */\n      tag_142\n        /* \"#utility.yul\":1364:1369   */\n      dup2\n        /* \"#utility.yul\":1346:1370   */\n      tag_100\n      jump\t// in\n    tag_142:\n        /* \"#utility.yul\":1341:1344   */\n      dup3\n        /* \"#utility.yul\":1334:1371   */\n      mstore\n        /* \"#utility.yul\":1259:1377   */\n      pop\n      pop\n      jump\t// out\n        /* \"#utility.yul\":1383:1605   */\n    tag_17:\n        /* \"#utility.yul\":1476:1480   */\n      0x00\n        /* \"#utility.yul\":1514:1516   */\n      0x20\n        /* \"#utility.yul\":1503:1512   */\n      dup3\n        /* \"#utility.yul\":1499:1517   */\n      add\n        /* \"#utility.yul\":1491:1517   */\n      swap1\n      pop\n        /* \"#utility.yul\":1527:1598   */\n      tag_144\n        /* \"#utility.yul\":1595:1596   */\n      0x00\n        /* \"#utility.yul\":1584:1593   */\n      dup4\n        /* \"#utility.yul\":1580:1597   */\n      add\n        /* \"#utility.yul\":1571:1577   */\n      dup5\n        /* \"#utility.yul\":1527:1598   */\n      tag_101\n      jump\t// in\n    tag_144:\n        /* \"#utility.yul\":1383:1605   */\n      swap3\n      swap2\n      pop\n      pop\n      jump\t// out\n        /* \"#utility.yul\":1611:1729   */\n    tag_102:\n        /* \"#utility.yul\":1698:1722   */\n      tag_146\n        /* \"#utility.yul\":1716:1721   */\n      dup2\n        /* \"#utility.yul\":1698:1722   */\n      tag_97\n      jump\t// in\n    tag_146:\n        /* \"#utility.yul\":1693:1696   */\n      dup3\n        /* \"#utility.yul\":1686:1723   */\n      mstore\n        /* \"#utility.yul\":1611:1729   */\n      pop\n      pop\n      jump\t// out\n        /* \"#utility.yul\":1735:1957   */\n    tag_26:\n        /* \"#utility.yul\":1828:1832   */\n      0x00\n        /* \"#utility.yul\":1866:1868   */\n      0x20\n        /* \"#utility.yul\":1855:1864   */\n      dup3\n        /* \"#utility.yul\":1851:1869   */\n      add\n        /* \"#utility.yul\":1843:1869   */\n      swap1\n      pop\n        /* \"#utility.yul\":1879:1950   */\n      tag_148\n        /* \"#utility.yul\":1947:1948   */\n      0x00\n        /* \"#utility.yul\":1936:1945   */\n      dup4\n        /* \"#utility.yul\":1932:1949   */\n      add\n        /* \"#utility.yul\":1923:1929   */\n      dup5\n        /* \"#utility.yul\":1879:1950   */\n      tag_102\n      jump\t// in\n    tag_148:\n        /* \"#utility.yul\":1735:1957   */\n      swap3\n      swap2\n      pop\n      pop\n      jump\t// out\n        /* \"#utility.yul\":1963:2085   */\n    tag_103:\n        /* \"#utility.yul\":2036:2060   */\n      tag_150\n        /* \"#utility.yul\":2054:2059   */\n      dup2\n        /* \"#utility.yul\":2036:2060   */\n      tag_100\n      jump\t// in\n    tag_150:\n        /* \"#utility.yul\":2029:2034   */\n      dup2\n        /* \"#utility.yul\":2026:2061   */\n      eq\n        /* \"#utility.yul\":2016:2079   */\n      tag_151\n      jumpi\n        /* \"#utility.yul\":2075:2076   */\n      0x00\n        /* \"#utility.yul\":2072:2073   */\n      0x00\n        /* \"#utility.yul\":2065:2077   */\n      revert\n        /* \"#utility.yul\":2016:2079   */\n    tag_151:\n        /* \"#utility.yul\":1963:2085   */\n      pop\n      jump\t// out\n        /* \"#utility.yul\":2091:2230   */\n    tag_104:\n        /* \"#utility.yul\":2137:2142   */\n      0x00\n        /* \"#utility.yul\":2175:2181   */\n      dup2\n        /* \"#utility.yul\":2162:2182   */\n      calldataload\n        /* \"#utility.yul\":2153:2182   */\n      swap1\n      pop\n        /* \"#utility.yul\":2191:2224   */\n      tag_153\n        /* \"#utility.yul\":2218:2223   */\n      dup2\n        /* \"#utility.yul\":2191:2224   */\n      tag_103\n      jump\t// in\n    tag_153:\n        /* \"#utility.yul\":2091:2230   */\n      swap3\n      swap2\n      pop\n      pop\n      jump\t// out\n        /* \"#utility.yul\":2236:2565   */\n    tag_32:\n        /* \"#utility.yul\":2295:2301   */\n      0x00\n        /* \"#utility.yul\":2344:2346   */\n      0x20\n        /* \"#utility.yul\":2332:2341   */\n      dup3\n        /* \"#utility.yul\":2323:2330   */\n      dup5\n        /* \"#utility.yul\":2319:2342   */\n      sub\n        /* \"#utility.yul\":2315:2347   */\n      slt\n        /* \"#utility.yul\":2312:2431   */\n      iszero\n      tag_155\n      jumpi\n        /* \"#utility.yul\":2350:2429   */\n      tag_156\n      tag_94\n      jump\t// in\n    tag_156:\n        /* \"#utility.yul\":2312:2431   */\n    tag_155:\n        /* \"#utility.yul\":2470:2471   */\n      0x00\n        /* \"#utility.yul\":2495:2548   */\n      tag_157\n        /* \"#utility.yul\":2540:2547   */\n      dup5\n        /* \"#utility.yul\":2531:2537   */\n      dup3\n        /* \"#utility.yul\":2520:2529   */\n      dup6\n        /* \"#utility.yul\":2516:2538   */\n      add\n        /* \"#utility.yul\":2495:2548   */\n      tag_104\n      jump\t// in\n    tag_157:\n        /* \"#utility.yul\":2485:2548   */\n      swap2\n      pop\n        /* \"#utility.yul\":2441:2558   */\n      pop\n        /* \"#utility.yul\":2236:2565   */\n      swap3\n      swap2\n      pop\n      pop\n      jump\t// out\n        /* \"#utility.yul\":2571:2740   */\n    tag_105:\n        /* \"#utility.yul\":2655:2666   */\n      0x00\n        /* \"#utility.yul\":2689:2695   */\n      dup3\n        /* \"#utility.yul\":2684:2687   */\n      dup3\n        /* \"#utility.yul\":2677:2696   */\n      mstore\n        /* \"#utility.yul\":2729:2733   */\n      0x20\n        /* \"#utility.yul\":2724:2727   */\n      dup3\n        /* \"#utility.yul\":2720:2734   */\n      add\n        /* \"#utility.yul\":2705:2734   */\n      swap1\n      pop\n        /* \"#utility.yul\":2571:2740   */\n      swap3\n      swap2\n      pop\n      pop\n      jump\t// out\n        /* \"#utility.yul\":2746:2913   */\n    tag_106:\n        /* \"#utility.yul\":2886:2905   */\n      0x4d75737420626520746865206f776e6572000000000000000000000000000000\n        /* \"#utility.yul\":2882:2883   */\n      0x00\n        /* \"#utility.yul\":2874:2880   */\n      dup3\n        /* \"#utility.yul\":2870:2884   */\n      add\n        /* \"#utility.yul\":2863:2906   */\n      mstore\n        /* \"#utility.yul\":2746:2913   */\n      pop\n      jump\t// out\n        /* \"#utility.yul\":2919:3285   */\n    tag_107:\n        /* \"#utility.yul\":3061:3064   */\n      0x00\n        /* \"#utility.yul\":3082:3149   */\n      tag_161\n        /* \"#utility.yul\":3146:3148   */\n      0x11\n        /* \"#utility.yul\":3141:3144   */\n      dup4\n        /* \"#utility.yul\":3082:3149   */\n      tag_105\n      jump\t// in\n    tag_161:\n        /* \"#utility.yul\":3075:3149   */\n      swap2\n      pop\n        /* \"#utility.yul\":3158:3251   */\n      tag_162\n        /* \"#utility.yul\":3247:3250   */\n      dup3\n        /* \"#utility.yul\":3158:3251   */\n      tag_106\n      jump\t// in\n    tag_162:\n        /* \"#utility.yul\":3276:3278   */\n      0x20\n        /* \"#utility.yul\":3271:3274   */\n      dup3\n        /* \"#utility.yul\":3267:3279   */\n      add\n        /* \"#utility.yul\":3260:3279   */\n      swap1\n      pop\n        /* \"#utility.yul\":2919:3285   */\n      swap2\n      swap1\n      pop\n      jump\t// out\n        /* \"#utility.yul\":3291:3710   */\n    tag_38:\n        /* \"#utility.yul\":3457:3461   */\n      0x00\n        /* \"#utility.yul\":3495:3497   */\n      0x20\n        /* \"#utility.yul\":3484:3493   */\n      dup3\n        /* \"#utility.yul\":3480:3498   */\n      add\n        /* \"#utility.yul\":3472:3498   */\n      swap1\n      pop\n        /* \"#utility.yul\":3544:3553   */\n      dup2\n        /* \"#utility.yul\":3538:3542   */\n      dup2\n        /* \"#utility.yul\":3534:3554   */\n      sub\n        /* \"#utility.yul\":3530:3531   */\n      0x00\n        /* \"#utility.yul\":3519:3528   */\n      dup4\n        /* \"#utility.yul\":3515:3532   */\n      add\n        /* \"#utility.yul\":3508:3555   */\n      mstore\n        /* \"#utility.yul\":3572:3703   */\n      tag_164\n        /* \"#utility.yul\":3698:3702   */\n      dup2\n        /* \"#utility.yul\":3572:3703   */\n      tag_107\n      jump\t// in\n    tag_164:\n        /* \"#utility.yul\":3564:3703   */\n      swap1\n      pop\n        /* \"#utility.yul\":3291:3710   */\n      swap2\n      swap1\n      pop\n      jump\t// out\n        /* \"#utility.yul\":3716:3896   */\n    tag_45:\n        /* \"#utility.yul\":3764:3841   */\n      0x4e487b7100000000000000000000000000000000000000000000000000000000\n        /* \"#utility.yul\":3761:3762   */\n      0x00\n        /* \"#utility.yul\":3754:3842   */\n      mstore\n        /* \"#utility.yul\":3861:3865   */\n      0x32\n        /* \"#utility.yul\":3858:3859   */\n      0x04\n        /* \"#utility.yul\":3851:3866   */\n      mstore\n        /* \"#utility.yul\":3885:3889   */\n      0x24\n        /* \"#utility.yul\":3882:3883   */\n      0x00\n        /* \"#utility.yul\":3875:3890   */\n      revert\n        /* \"#utility.yul\":3902:4082   */\n    tag_49:\n        /* \"#utility.yul\":3950:4027   */\n      0x4e487b7100000000000000000000000000000000000000000000000000000000\n        /* \"#utility.yul\":3947:3948   */\n      0x00\n        /* \"#utility.yul\":3940:4028   */\n      mstore\n        /* \"#utility.yul\":4047:4051   */\n      0x41\n        /* \"#utility.yul\":4044:4045   */\n      0x04\n        /* \"#utility.yul\":4037:4052   */\n      mstore\n        /* \"#utility.yul\":4071:4075   */\n      0x24\n        /* \"#utility.yul\":4068:4069   */\n      0x00\n        /* \"#utility.yul\":4061:4076   */\n      revert\n        /* \"#utility.yul\":4088:4235   */\n    tag_108:\n        /* \"#utility.yul\":4189:4200   */\n      0x00\n        /* \"#utility.yul\":4226:4229   */\n      dup2\n        /* \"#utility.yul\":4211:4229   */\n      swap1\n      pop\n        /* \"#utility.yul\":4088:4235   */\n      swap3\n      swap2\n      pop\n      pop\n      jump\t// out\n        /* \"#utility.yul\":4241:4355   */\n    tag_109:\n      pop\n      jump\t// out\n        /* \"#utility.yul\":4361:4759   */\n    tag_110:\n        /* \"#utility.yul\":4520:4523   */\n      0x00\n        /* \"#utility.yul\":4541:4624   */\n      tag_170\n        /* \"#utility.yul\":4622:4623   */\n      0x00\n        /* \"#utility.yul\":4617:4620   */\n      dup4\n        /* \"#utility.yul\":4541:4624   */\n      tag_108\n      jump\t// in\n    tag_170:\n        /* \"#utility.yul\":4534:4624   */\n      swap2\n      pop\n        /* \"#utility.yul\":4633:4726   */\n      tag_171\n        /* \"#utility.yul\":4722:4725   */\n      dup3\n        /* \"#utility.yul\":4633:4726   */\n      tag_109\n      jump\t// in\n    tag_171:\n        /* \"#utility.yul\":4751:4752   */\n      0x00\n        /* \"#utility.yul\":4746:4749   */\n      dup3\n        /* \"#utility.yul\":4742:4753   */\n      add\n        /* \"#utility.yul\":4735:4753   */\n      swap1\n      pop\n        /* \"#utility.yul\":4361:4759   */\n      swap2\n      swap1\n      pop\n      jump\t// out\n        /* \"#utility.yul\":4765:5144   */\n    tag_54:\n        /* \"#utility.yul\":4949:4952   */\n      0x00\n        /* \"#utility.yul\":4971:5118   */\n      tag_173\n        /* \"#utility.yul\":5114:5117   */\n      dup3\n        /* \"#utility.yul\":4971:5118   */\n      tag_110\n      jump\t// in\n    tag_173:\n        /* \"#utility.yul\":4964:5118   */\n      swap2\n      pop\n        /* \"#utility.yul\":5135:5138   */\n      dup2\n        /* \"#utility.yul\":5128:5138   */\n      swap1\n      pop\n        /* \"#utility.yul\":4765:5144   */\n      swap2\n      swap1\n      pop\n      jump\t// out\n        /* \"#utility.yul\":5150:5311   */\n    tag_111:\n        /* \"#utility.yul\":5290:5303   */\n      0x43616c6c206661696c6564000000000000000000000000000000000000000000\n        /* \"#utility.yul\":5286:5287   */\n      0x00\n        /* \"#utility.yul\":5278:5284   */\n      dup3\n        /* \"#utility.yul\":5274:5288   */\n      add\n        /* \"#utility.yul\":5267:5304   */\n      mstore\n        /* \"#utility.yul\":5150:5311   */\n      pop\n      jump\t// out\n        /* \"#utility.yul\":5317:5683   */\n    tag_112:\n        /* \"#utility.yul\":5459:5462   */\n      0x00\n        /* \"#utility.yul\":5480:5547   */\n      tag_176\n        /* \"#utility.yul\":5544:5546   */\n      0x0b\n        /* \"#utility.yul\":5539:5542   */\n      dup4\n        /* \"#utility.yul\":5480:5547   */\n      tag_105\n      jump\t// in\n    tag_176:\n        /* \"#utility.yul\":5473:5547   */\n      swap2\n      pop\n        /* \"#utility.yul\":5556:5649   */\n      tag_177\n        /* \"#utility.yul\":5645:5648   */\n      dup3\n        /* \"#utility.yul\":5556:5649   */\n      tag_111\n      jump\t// in\n    tag_177:\n        /* \"#utility.yul\":5674:5676   */\n      0x20\n        /* \"#utility.yul\":5669:5672   */\n      dup3\n        /* \"#utility.yul\":5665:5677   */\n      add\n        /* \"#utility.yul\":5658:5677   */\n      swap1\n      pop\n        /* \"#utility.yul\":5317:5683   */\n      swap2\n      swap1\n      pop\n      jump\t// out\n        /* \"#utility.yul\":5689:6108   */\n    tag_60:\n        /* \"#utility.yul\":5855:5859   */\n      0x00\n        /* \"#utility.yul\":5893:5895   */\n      0x20\n        /* \"#utility.yul\":5882:5891   */\n      dup3\n        /* \"#utility.yul\":5878:5896   */\n      add\n        /* \"#utility.yul\":5870:5896   */\n      swap1\n      pop\n        /* \"#utility.yul\":5942:5951   */\n      dup2\n        /* \"#utility.yul\":5936:5940   */\n      dup2\n        /* \"#utility.yul\":5932:5952   */\n      sub\n        /* \"#utility.yul\":5928:5929   */\n      0x00\n        /* \"#utility.yul\":5917:5926   */\n      dup4\n        /* \"#utility.yul\":5913:5930   */\n      add\n        /* \"#utility.yul\":5906:5953   */\n      mstore\n        /* \"#utility.yul\":5970:6101   */\n      tag_179\n        /* \"#utility.yul\":6096:6100   */\n      dup2\n        /* \"#utility.yul\":5970:6101   */\n      tag_112\n      jump\t// in\n    tag_179:\n        /* \"#utility.yul\":5962:6101   */\n      swap1\n      pop\n        /* \"#utility.yul\":5689:6108   */\n      swap2\n      swap1\n      pop\n      jump\t// out\n        /* \"#utility.yul\":6114:6286   */\n    tag_113:\n        /* \"#utility.yul\":6254:6278   */\n      0x6469646e27742073656e6420656e6f7567682045544800000000000000000000\n        /* \"#utility.yul\":6250:6251   */\n      0x00\n        /* \"#utility.yul\":6242:6248   */\n      dup3\n        /* \"#utility.yul\":6238:6252   */\n      add\n        /* \"#utility.yul\":6231:6279   */\n      mstore\n        /* \"#utility.yul\":6114:6286   */\n      pop\n      jump\t// out\n        /* \"#utility.yul\":6292:6658   */\n    tag_114:\n        /* \"#utility.yul\":6434:6437   */\n      0x00\n        /* \"#utility.yul\":6455:6522   */\n      tag_182\n        /* \"#utility.yul\":6519:6521   */\n      0x16\n        /* \"#utility.yul\":6514:6517   */\n      dup4\n        /* \"#utility.yul\":6455:6522   */\n      tag_105\n      jump\t// in\n    tag_182:\n        /* \"#utility.yul\":6448:6522   */\n      swap2\n      pop\n        /* \"#utility.yul\":6531:6624   */\n      tag_183\n        /* \"#utility.yul\":6620:6623   */\n      dup3\n        /* \"#utility.yul\":6531:6624   */\n      tag_113\n      jump\t// in\n    tag_183:\n        /* \"#utility.yul\":6649:6651   */\n      0x20\n        /* \"#utility.yul\":6644:6647   */\n      dup3\n        /* \"#utility.yul\":6640:6652   */\n      add\n        /* \"#utility.yul\":6633:6652   */\n      swap1\n      pop\n        /* \"#utility.yul\":6292:6658   */\n      swap2\n      swap1\n      pop\n      jump\t// out\n        /* \"#utility.yul\":6664:7083   */\n    tag_66:\n        /* \"#utility.yul\":6830:6834   */\n      0x00\n        /* \"#utility.yul\":6868:6870   */\n      0x20\n        /* \"#utility.yul\":6857:6866   */\n      dup3\n        /* \"#utility.yul\":6853:6871   */\n      add\n        /* \"#utility.yul\":6845:6871   */\n      swap1\n      pop\n        /* \"#utility.yul\":6917:6926   */\n      dup2\n        /* \"#utility.yul\":6911:6915   */\n      dup2\n        /* \"#utility.yul\":6907:6927   */\n      sub\n        /* \"#utility.yul\":6903:6904   */\n      0x00\n        /* \"#utility.yul\":6892:6901   */\n      dup4\n        /* \"#utility.yul\":6888:6905   */\n      add\n        /* \"#utility.yul\":6881:6928   */\n      mstore\n        /* \"#utility.yul\":6945:7076   */\n      tag_185\n        /* \"#utility.yul\":7071:7075   */\n      dup2\n        /* \"#utility.yul\":6945:7076   */\n      tag_114\n      jump\t// in\n    tag_185:\n        /* \"#utility.yul\":6937:7076   */\n      swap1\n      pop\n        /* \"#utility.yul\":6664:7083   */\n      swap2\n      swap1\n      pop\n      jump\t// out\n        /* \"#utility.yul\":7089:7269   */\n    tag_115:\n        /* \"#utility.yul\":7137:7214   */\n      0x4e487b7100000000000000000000000000000000000000000000000000000000\n        /* \"#utility.yul\":7134:7135   */\n      0x00\n        /* \"#utility.yul\":7127:7215   */\n      mstore\n        /* \"#utility.yul\":7234:7238   */\n      0x11\n        /* \"#utility.yul\":7231:7232   */\n      0x04\n        /* \"#utility.yul\":7224:7239   */\n      mstore\n        /* \"#utility.yul\":7258:7262   */\n      0x24\n        /* \"#utility.yul\":7255:7256   */\n      0x00\n        /* \"#utility.yul\":7248:7263   */\n      revert\n        /* \"#utility.yul\":7275:7466   */\n    tag_69:\n        /* \"#utility.yul\":7315:7318   */\n      0x00\n        /* \"#utility.yul\":7334:7354   */\n      tag_188\n        /* \"#utility.yul\":7352:7353   */\n      dup3\n        /* \"#utility.yul\":7334:7354   */\n      tag_100\n      jump\t// in\n    tag_188:\n        /* \"#utility.yul\":7329:7354   */\n      swap2\n      pop\n        /* \"#utility.yul\":7368:7388   */\n      tag_189\n        /* \"#utility.yul\":7386:7387   */\n      dup4\n        /* \"#utility.yul\":7368:7388   */\n      tag_100\n      jump\t// in\n    tag_189:\n        /* \"#utility.yul\":7363:7388   */\n      swap3\n      pop\n        /* \"#utility.yul\":7411:7412   */\n      dup3\n        /* \"#utility.yul\":7408:7409   */\n      dup3\n        /* \"#utility.yul\":7404:7413   */\n      add\n        /* \"#utility.yul\":7397:7413   */\n      swap1\n      pop\n        /* \"#utility.yul\":7432:7435   */\n      dup1\n        /* \"#utility.yul\":7429:7430   */\n      dup3\n        /* \"#utility.yul\":7426:7436   */\n      gt\n        /* \"#utility.yul\":7423:7459   */\n      iszero\n      tag_190\n      jumpi\n        /* \"#utility.yul\":7439:7457   */\n      tag_191\n      tag_115\n      jump\t// in\n    tag_191:\n        /* \"#utility.yul\":7423:7459   */\n    tag_190:\n        /* \"#utility.yul\":7275:7466   */\n      swap3\n      swap2\n      pop\n      pop\n      jump\t// out\n        /* \"#utility.yul\":7472:7882   */\n    tag_76:\n        /* \"#utility.yul\":7512:7519   */\n      0x00\n        /* \"#utility.yul\":7535:7555   */\n      tag_193\n        /* \"#utility.yul\":7553:7554   */\n      dup3\n        /* \"#utility.yul\":7535:7555   */\n      tag_100\n      jump\t// in\n    tag_193:\n        /* \"#utility.yul\":7530:7555   */\n      swap2\n      pop\n        /* \"#utility.yul\":7569:7589   */\n      tag_194\n        /* \"#utility.yul\":7587:7588   */\n      dup4\n        /* \"#utility.yul\":7569:7589   */\n      tag_100\n      jump\t// in\n    tag_194:\n        /* \"#utility.yul\":7564:7589   */\n      swap3\n      pop\n        /* \"#utility.yul\":7624:7625   */\n      dup3\n        /* \"#utility.yul\":7621:7622   */\n      dup3\n        /* \"#utility.yul\":7617:7626   */\n      mul\n        /* \"#utility.yul\":7646:7676   */\n      tag_195\n        /* \"#utility.yul\":7664:7675   */\n      dup2\n        /* \"#utility.yul\":7646:7676   */\n      tag_100\n      jump\t// in\n    tag_195:\n        /* \"#utility.yul\":7635:7676   */\n      swap2\n      pop\n        /* \"#utility.yul\":7825:7826   */\n      dup3\n        /* \"#utility.yul\":7816:7823   */\n      dup3\n        /* \"#utility.yul\":7812:7827   */\n      div\n        /* \"#utility.yul\":7809:7810   */\n      dup5\n        /* \"#utility.yul\":7806:7828   */\n      eq\n        /* \"#utility.yul\":7786:7787   */\n      dup4\n        /* \"#utility.yul\":7779:7788   */\n      iszero\n        /* \"#utility.yul\":7759:7842   */\n      or\n        /* \"#utility.yul\":7736:7875   */\n      tag_196\n      jumpi\n        /* \"#utility.yul\":7855:7873   */\n      tag_197\n      tag_115\n      jump\t// in\n    tag_197:\n        /* \"#utility.yul\":7736:7875   */\n    tag_196:\n        /* \"#utility.yul\":7520:7882   */\n      pop\n        /* \"#utility.yul\":7472:7882   */\n      swap3\n      swap2\n      pop\n      pop\n      jump\t// out\n        /* \"#utility.yul\":7888:8068   */\n    tag_116:\n        /* \"#utility.yul\":7936:8013   */\n      0x4e487b7100000000000000000000000000000000000000000000000000000000\n        /* \"#utility.yul\":7933:7934   */\n      0x00\n        /* \"#utility.yul\":7926:8014   */\n      mstore\n        /* \"#utility.yul\":8033:8037   */\n      0x12\n        /* \"#utility.yul\":8030:8031   */\n      0x04\n        /* \"#utility.yul\":8023:8038   */\n      mstore\n        /* \"#utility.yul\":8057:8061   */\n      0x24\n        /* \"#utility.yul\":8054:8055   */\n      0x00\n        /* \"#utility.yul\":8047:8062   */\n      revert\n        /* \"#utility.yul\":8074:8259   */\n    tag_78:\n        /* \"#utility.yul\":8114:8115   */\n      0x00\n        /* \"#utility.yul\":8131:8151   */\n      tag_200\n        /* \"#utility.yul\":8149:8150   */\n      dup3\n        /* \"#utility.yul\":8131:8151   */\n      tag_100\n      jump\t// in\n    tag_200:\n        /* \"#utility.yul\":8126:8151   */\n      swap2\n      pop\n        /* \"#utility.yul\":8165:8185   */\n      tag_201\n        /* \"#utility.yul\":8183:8184   */\n      dup4\n        /* \"#utility.yul\":8165:8185   */\n      tag_100\n      jump\t// in\n    tag_201:\n        /* \"#utility.yul\":8160:8185   */\n      swap3\n      pop\n        /* \"#utility.yul\":8204:8205   */\n      dup3\n        /* \"#utility.yul\":8194:8229   */\n      tag_202\n      jumpi\n        /* \"#utility.yul\":8209:8227   */\n      tag_203\n      tag_116\n      jump\t// in\n    tag_203:\n        /* \"#utility.yul\":8194:8229   */\n    tag_202:\n        /* \"#utility.yul\":8251:8252   */\n      dup3\n        /* \"#utility.yul\":8248:8249   */\n      dup3\n        /* \"#utility.yul\":8244:8253   */\n      div\n        /* \"#utility.yul\":8239:8253   */\n      swap1\n      pop\n        /* \"#utility.yul\":8074:8259   */\n      swap3\n      swap2\n      pop\n      pop\n      jump\t// out\n        /* \"#utility.yul\":8265:8370   */\n    tag_117:\n        /* \"#utility.yul\":8301:8308   */\n      0x00\n        /* \"#utility.yul\":8341:8363   */\n      0xffffffffffffffffffff\n        /* \"#utility.yul\":8334:8339   */\n      dup3\n        /* \"#utility.yul\":8330:8364   */\n      and\n        /* \"#utility.yul\":8319:8364   */\n      swap1\n      pop\n        /* \"#utility.yul\":8265:8370   */\n      swap2\n      swap1\n      pop\n      jump\t// out\n        /* \"#utility.yul\":8376:8496   */\n    tag_118:\n        /* \"#utility.yul\":8448:8471   */\n      tag_206\n        /* \"#utility.yul\":8465:8470   */\n      dup2\n        /* \"#utility.yul\":8448:8471   */\n      tag_117\n      jump\t// in\n    tag_206:\n        /* \"#utility.yul\":8441:8446   */\n      dup2\n        /* \"#utility.yul\":8438:8472   */\n      eq\n        /* \"#utility.yul\":8428:8490   */\n      tag_207\n      jumpi\n        /* \"#utility.yul\":8486:8487   */\n      0x00\n        /* \"#utility.yul\":8483:8484   */\n      0x00\n        /* \"#utility.yul\":8476:8488   */\n      revert\n        /* \"#utility.yul\":8428:8490   */\n    tag_207:\n        /* \"#utility.yul\":8376:8496   */\n      pop\n      jump\t// out\n        /* \"#utility.yul\":8502:8643   */\n    tag_119:\n        /* \"#utility.yul\":8558:8563   */\n      0x00\n        /* \"#utility.yul\":8589:8595   */\n      dup2\n        /* \"#utility.yul\":8583:8596   */\n      mload\n        /* \"#utility.yul\":8574:8596   */\n      swap1\n      pop\n        /* \"#utility.yul\":8605:8637   */\n      tag_209\n        /* \"#utility.yul\":8631:8636   */\n      dup2\n        /* \"#utility.yul\":8605:8637   */\n      tag_118\n      jump\t// in\n    tag_209:\n        /* \"#utility.yul\":8502:8643   */\n      swap3\n      swap2\n      pop\n      pop\n      jump\t// out\n        /* \"#utility.yul\":8649:8725   */\n    tag_120:\n        /* \"#utility.yul\":8685:8692   */\n      0x00\n        /* \"#utility.yul\":8714:8719   */\n      dup2\n        /* \"#utility.yul\":8703:8719   */\n      swap1\n      pop\n        /* \"#utility.yul\":8649:8725   */\n      swap2\n      swap1\n      pop\n      jump\t// out\n        /* \"#utility.yul\":8731:8851   */\n    tag_121:\n        /* \"#utility.yul\":8803:8826   */\n      tag_212\n        /* \"#utility.yul\":8820:8825   */\n      dup2\n        /* \"#utility.yul\":8803:8826   */\n      tag_120\n      jump\t// in\n    tag_212:\n        /* \"#utility.yul\":8796:8801   */\n      dup2\n        /* \"#utility.yul\":8793:8827   */\n      eq\n        /* \"#utility.yul\":8783:8845   */\n      tag_213\n      jumpi\n        /* \"#utility.yul\":8841:8842   */\n      0x00\n        /* \"#utility.yul\":8838:8839   */\n      0x00\n        /* \"#utility.yul\":8831:8843   */\n      revert\n        /* \"#utility.yul\":8783:8845   */\n    tag_213:\n        /* \"#utility.yul\":8731:8851   */\n      pop\n      jump\t// out\n        /* \"#utility.yul\":8857:8998   */\n    tag_122:\n        /* \"#utility.yul\":8913:8918   */\n      0x00\n        /* \"#utility.yul\":8944:8950   */\n      dup2\n        /* \"#utility.yul\":8938:8951   */\n      mload\n        /* \"#utility.yul\":8929:8951   */\n      swap1\n      pop\n        /* \"#utility.yul\":8960:8992   */\n      tag_215\n        /* \"#utility.yul\":8986:8991   */\n      dup2\n        /* \"#utility.yul\":8960:8992   */\n      tag_121\n      jump\t// in\n    tag_215:\n        /* \"#utility.yul\":8857:8998   */\n      swap3\n      swap2\n      pop\n      pop\n      jump\t// out\n        /* \"#utility.yul\":9004:9147   */\n    tag_123:\n        /* \"#utility.yul\":9061:9066   */\n      0x00\n        /* \"#utility.yul\":9092:9098   */\n      dup2\n        /* \"#utility.yul\":9086:9099   */\n      mload\n        /* \"#utility.yul\":9077:9099   */\n      swap1\n      pop\n        /* \"#utility.yul\":9108:9141   */\n      tag_217\n        /* \"#utility.yul\":9135:9140   */\n      dup2\n        /* \"#utility.yul\":9108:9141   */\n      tag_103\n      jump\t// in\n    tag_217:\n        /* \"#utility.yul\":9004:9147   */\n      swap3\n      swap2\n      pop\n      pop\n      jump\t// out\n        /* \"#utility.yul\":9153:10124   */\n    tag_83:\n        /* \"#utility.yul\":9256:9262   */\n      0x00\n        /* \"#utility.yul\":9264:9270   */\n      0x00\n        /* \"#utility.yul\":9272:9278   */\n      0x00\n        /* \"#utility.yul\":9280:9286   */\n      0x00\n        /* \"#utility.yul\":9288:9294   */\n      0x00\n        /* \"#utility.yul\":9337:9340   */\n      0xa0\n        /* \"#utility.yul\":9325:9334   */\n      dup7\n        /* \"#utility.yul\":9316:9323   */\n      dup9\n        /* \"#utility.yul\":9312:9335   */\n      sub\n        /* \"#utility.yul\":9308:9341   */\n      slt\n        /* \"#utility.yul\":9305:9425   */\n      iszero\n      tag_219\n      jumpi\n        /* \"#utility.yul\":9344:9423   */\n      tag_220\n      tag_94\n      jump\t// in\n    tag_220:\n        /* \"#utility.yul\":9305:9425   */\n    tag_219:\n        /* \"#utility.yul\":9464:9465   */\n      0x00\n        /* \"#utility.yul\":9489:9552   */\n      tag_221\n        /* \"#utility.yul\":9544:9551   */\n      dup9\n        /* \"#utility.yul\":9535:9541   */\n      dup3\n        /* \"#utility.yul\":9524:9533   */\n      dup10\n        /* \"#utility.yul\":9520:9542   */\n      add\n        /* \"#utility.yul\":9489:9552   */\n      tag_119\n      jump\t// in\n    tag_221:\n        /* \"#utility.yul\":9479:9552   */\n      swap6\n      pop\n        /* \"#utility.yul\":9435:9562   */\n      pop\n        /* \"#utility.yul\":9601:9603   */\n      0x20\n        /* \"#utility.yul\":9627:9690   */\n      tag_222\n        /* \"#utility.yul\":9682:9689   */\n      dup9\n        /* \"#utility.yul\":9673:9679   */\n      dup3\n        /* \"#utility.yul\":9662:9671   */\n      dup10\n        /* \"#utility.yul\":9658:9680   */\n      add\n        /* \"#utility.yul\":9627:9690   */\n      tag_122\n      jump\t// in\n    tag_222:\n        /* \"#utility.yul\":9617:9690   */\n      swap5\n      pop\n        /* \"#utility.yul\":9572:9700   */\n      pop\n        /* \"#utility.yul\":9739:9741   */\n      0x40\n        /* \"#utility.yul\":9765:9829   */\n      tag_223\n        /* \"#utility.yul\":9821:9828   */\n      dup9\n        /* \"#utility.yul\":9812:9818   */\n      dup3\n        /* \"#utility.yul\":9801:9810   */\n      dup10\n        /* \"#utility.yul\":9797:9819   */\n      add\n        /* \"#utility.yul\":9765:9829   */\n      tag_123\n      jump\t// in\n    tag_223:\n        /* \"#utility.yul\":9755:9829   */\n      swap4\n      pop\n        /* \"#utility.yul\":9710:9839   */\n      pop\n        /* \"#utility.yul\":9878:9880   */\n      0x60\n        /* \"#utility.yul\":9904:9968   */\n      tag_224\n        /* \"#utility.yul\":9960:9967   */\n      dup9\n        /* \"#utility.yul\":9951:9957   */\n      dup3\n        /* \"#utility.yul\":9940:9949   */\n      dup10\n        /* \"#utility.yul\":9936:9958   */\n      add\n        /* \"#utility.yul\":9904:9968   */\n      tag_123\n      jump\t// in\n    tag_224:\n        /* \"#utility.yul\":9894:9968   */\n      swap3\n      pop\n        /* \"#utility.yul\":9849:9978   */\n      pop\n        /* \"#utility.yul\":10017:10020   */\n      0x80\n        /* \"#utility.yul\":10044:10107   */\n      tag_225\n        /* \"#utility.yul\":10099:10106   */\n      dup9\n        /* \"#utility.yul\":10090:10096   */\n      dup3\n        /* \"#utility.yul\":10079:10088   */\n      dup10\n        /* \"#utility.yul\":10075:10097   */\n      add\n        /* \"#utility.yul\":10044:10107   */\n      tag_119\n      jump\t// in\n    tag_225:\n        /* \"#utility.yul\":10034:10107   */\n      swap2\n      pop\n        /* \"#utility.yul\":9988:10117   */\n      pop\n        /* \"#utility.yul\":9153:10124   */\n      swap3\n      swap6\n      pop\n      swap3\n      swap6\n      swap1\n      swap4\n      pop\n      jump\t// out\n        /* \"#utility.yul\":10130:10686   */\n    tag_85:\n        /* \"#utility.yul\":10169:10176   */\n      0x00\n        /* \"#utility.yul\":10192:10211   */\n      tag_227\n        /* \"#utility.yul\":10209:10210   */\n      dup3\n        /* \"#utility.yul\":10192:10211   */\n      tag_120\n      jump\t// in\n    tag_227:\n        /* \"#utility.yul\":10187:10211   */\n      swap2\n      pop\n        /* \"#utility.yul\":10225:10244   */\n      tag_228\n        /* \"#utility.yul\":10242:10243   */\n      dup4\n        /* \"#utility.yul\":10225:10244   */\n      tag_120\n      jump\t// in\n    tag_228:\n        /* \"#utility.yul\":10220:10244   */\n      swap3\n      pop\n        /* \"#utility.yul\":10279:10280   */\n      dup3\n        /* \"#utility.yul\":10276:10277   */\n      dup3\n        /* \"#utility.yul\":10272:10281   */\n      mul\n        /* \"#utility.yul\":10301:10330   */\n      tag_229\n        /* \"#utility.yul\":10318:10329   */\n      dup2\n        /* \"#utility.yul\":10301:10330   */\n      tag_120\n      jump\t// in\n    tag_229:\n        /* \"#utility.yul\":10290:10330   */\n      swap2\n      pop\n        /* \"#utility.yul\":10388:10454   */\n      0x8000000000000000000000000000000000000000000000000000000000000000\n        /* \"#utility.yul\":10385:10386   */\n      dup5\n        /* \"#utility.yul\":10382:10455   */\n      eq\n        /* \"#utility.yul\":10378:10379   */\n      0x00\n        /* \"#utility.yul\":10375:10376   */\n      dup5\n        /* \"#utility.yul\":10371:10380   */\n      slt\n        /* \"#utility.yul\":10367:10456   */\n      and\n        /* \"#utility.yul\":10364:10479   */\n      iszero\n      tag_230\n      jumpi\n        /* \"#utility.yul\":10459:10477   */\n      tag_231\n      tag_115\n      jump\t// in\n    tag_231:\n        /* \"#utility.yul\":10364:10479   */\n    tag_230:\n        /* \"#utility.yul\":10629:10630   */\n      dup3\n        /* \"#utility.yul\":10620:10627   */\n      dup3\n        /* \"#utility.yul\":10615:10631   */\n      sdiv\n        /* \"#utility.yul\":10612:10613   */\n      dup5\n        /* \"#utility.yul\":10609:10632   */\n      eq\n        /* \"#utility.yul\":10589:10590   */\n      dup4\n        /* \"#utility.yul\":10582:10591   */\n      iszero\n        /* \"#utility.yul\":10562:10646   */\n      or\n        /* \"#utility.yul\":10539:10679   */\n      tag_232\n      jumpi\n        /* \"#utility.yul\":10659:10677   */\n      tag_233\n      tag_115\n      jump\t// in\n    tag_233:\n        /* \"#utility.yul\":10539:10679   */\n    tag_232:\n        /* \"#utility.yul\":10177:10686   */\n      pop\n        /* \"#utility.yul\":10130:10686   */\n      swap3\n      swap2\n      pop\n      pop\n      jump\t// out\n\n    auxdata: 0xa26469706673582212204ba110d780aaafd5dee752050b4675ec8d2eb1af767cd34869de8d5ef760393664736f6c634300081e0033\n}\n",
				"bytecode": {
					"linkReferences": {},
					"object": "6080604052674563918244f400005f553480156019575f5ffd5b503360035f6101000a81548173ffffffffffffffffffffffffffffffffffffffff021916908373ffffffffffffffffffffffffffffffffffffffff160217905550610c71806100675f395ff3fe608060405260043610610054575f3560e01c80633ccfd60b146100585780633e47d6f31461006e57806351b80e41146100aa5780638da5cb5b146100d4578063b60d4288146100fe578063dc0d3dff14610108575b5f5ffd5b348015610063575f5ffd5b5061006c610144565b005b348015610079575f5ffd5b50610094600480360381019061008f919061070e565b61037f565b6040516100a19190610751565b60405180910390f35b3480156100b5575f5ffd5b506100be610394565b6040516100cb9190610751565b60405180910390f35b3480156100df575f5ffd5b506100e8610399565b6040516100f59190610779565b60405180910390f35b6101066103be565b005b348015610113575f5ffd5b5061012e600480360381019061012991906107bc565b6104f6565b60405161013b9190610779565b60405180910390f35b60035f9054906101000a900473ffffffffffffffffffffffffffffffffffffffff1673ffffffffffffffffffffffffffffffffffffffff163373ffffffffffffffffffffffffffffffffffffffff16146101d3576040517f08c379a00000000000000000000000000000000000000000000000000000000081526004016101ca90610841565b60405180910390fd5b5f5f90505b600180549050811015610274575f600182815481106101fa576101f961085f565b5b905f5260205f20015f9054906101000a900473ffffffffffffffffffffffffffffffffffffffff1690505f60025f8373ffffffffffffffffffffffffffffffffffffffff1673ffffffffffffffffffffffffffffffffffffffff1681526020019081526020015f20819055505080806001019150506101d8565b505f67ffffffffffffffff81111561028f5761028e61088c565b5b6040519080825280602002602001820160405280156102bd5781602001602082028036833780820191505090505b50600190805190602001906102d392919061060e565b505f3373ffffffffffffffffffffffffffffffffffffffff16476040516102f9906108e6565b5f6040518083038185875af1925050503d805f8114610333576040519150601f19603f3d011682016040523d82523d5f602084013e610338565b606091505b505090508061037c576040517f08c379a000000000000000000000000000000000000000000000000000000000815260040161037390610944565b60405180910390fd5b50565b6002602052805f5260405f205f915090505481565b5f5481565b60035f9054906101000a900473ffffffffffffffffffffffffffffffffffffffff1681565b5f546103c934610531565b101561040a576040517f08c379a0000000000000000000000000000000000000000000000000000000008152600401610401906109ac565b60405180910390fd5b600133908060018154018082558091505060019003905f5260205f20015f9091909190916101000a81548173ffffffffffffffffffffffffffffffffffffffff021916908373ffffffffffffffffffffffffffffffffffffffff1602179055503460025f3373ffffffffffffffffffffffffffffffffffffffff1673ffffffffffffffffffffffffffffffffffffffff1681526020019081526020015f20546104b391906109f7565b60025f3373ffffffffffffffffffffffffffffffffffffffff1673ffffffffffffffffffffffffffffffffffffffff1681526020019081526020015f2081905550565b60018181548110610505575f80fd5b905f5260205f20015f915054906101000a900473ffffffffffffffffffffffffffffffffffffffff1681565b5f5f61053b610569565b90505f670de0b6b3a764000084836105539190610a2a565b61055d9190610a98565b90508092505050919050565b5f5f73694aa1769357215de4fac081bf1f309adc32530690505f8173ffffffffffffffffffffffffffffffffffffffff1663feaf968c6040518163ffffffff1660e01b815260040160a060405180830381865afa1580156105cc573d5f5f3e3d5ffd5b505050506040513d601f19601f820116820180604052508101906105f09190610b4e565b5050509150506402540be400816106079190610bc5565b9250505090565b828054828255905f5260205f20908101928215610684579160200282015b82811115610683578251825f6101000a81548173ffffffffffffffffffffffffffffffffffffffff021916908373ffffffffffffffffffffffffffffffffffffffff1602179055509160200191906001019061062c565b5b5090506106919190610695565b5090565b5b808211156106ac575f815f905550600101610696565b5090565b5f5ffd5b5f73ffffffffffffffffffffffffffffffffffffffff82169050919050565b5f6106dd826106b4565b9050919050565b6106ed816106d3565b81146106f7575f5ffd5b50565b5f81359050610708816106e4565b92915050565b5f60208284031215610723576107226106b0565b5b5f610730848285016106fa565b91505092915050565b5f819050919050565b61074b81610739565b82525050565b5f6020820190506107645f830184610742565b92915050565b610773816106d3565b82525050565b5f60208201905061078c5f83018461076a565b92915050565b61079b81610739565b81146107a5575f5ffd5b50565b5f813590506107b681610792565b92915050565b5f602082840312156107d1576107d06106b0565b5b5f6107de848285016107a8565b91505092915050565b5f82825260208201905092915050565b7f4d75737420626520746865206f776e65720000000000000000000000000000005f82015250565b5f61082b6011836107e7565b9150610836826107f7565b602082019050919050565b5f6020820190508181035f8301526108588161081f565b9050919050565b7f4e487b71000000000000000000000000000000000000000000000000000000005f52603260045260245ffd5b7f4e487b71000000000000000000000000000000000000000000000000000000005f52604160045260245ffd5b5f81905092915050565b50565b5f6108d15f836108b9565b91506108dc826108c3565b5f82019050919050565b5f6108f0826108c6565b9150819050919050565b7f43616c6c206661696c65640000000000000000000000000000000000000000005f82015250565b5f61092e600b836107e7565b9150610939826108fa565b602082019050919050565b5f6020820190508181035f83015261095b81610922565b9050919050565b7f6469646e27742073656e6420656e6f75676820455448000000000000000000005f82015250565b5f6109966016836107e7565b91506109a182610962565b602082019050919050565b5f6020820190508181035f8301526109c38161098a565b9050919050565b7f4e487b71000000000000000000000000000000000000000000000000000000005f52601160045260245ffd5b5f610a0182610739565b9150610a0c83610739565b9250828201905080821115610a2457610a236109ca565b5b92915050565b5f610a3482610739565b9150610a3f83610739565b9250828202610a4d81610739565b91508282048414831517610a6457610a636109ca565b5b5092915050565b7f4e487b71000000000000000000000000000000000000000000000000000000005f52601260045260245ffd5b5f610aa282610739565b9150610aad83610739565b925082610abd57610abc610a6b565b5b828204905092915050565b5f69ffffffffffffffffffff82169050919050565b610ae681610ac8565b8114610af0575f5ffd5b50565b5f81519050610b0181610add565b92915050565b5f819050919050565b610b1981610b07565b8114610b23575f5ffd5b50565b5f81519050610b3481610b10565b92915050565b5f81519050610b4881610792565b92915050565b5f5f5f5f5f60a08688031215610b6757610b666106b0565b5b5f610b7488828901610af3565b9550506020610b8588828901610b26565b9450506040610b9688828901610b3a565b9350506060610ba788828901610b3a565b9250506080610bb888828901610af3565b9150509295509295909350565b5f610bcf82610b07565b9150610bda83610b07565b9250828202610be881610b07565b91507f800000000000000000000000000000000000000000000000000000000000000084145f84121615610c1f57610c1e6109ca565b5b8282058414831517610c3457610c336109ca565b5b509291505056fea26469706673582212204ba110d780aaafd5dee752050b4675ec8d2eb1af767cd34869de8d5ef760393664736f6c634300081e0033",
					"opcodes": "PUSH1 0x80 PUSH1 0x40 MSTORE PUSH8 0x4563918244F40000 PUSH0 SSTORE CALLVALUE DUP1 ISZERO PUSH1 0x19 JUMPI PUSH0 PUSH0 REVERT JUMPDEST POP CALLER PUSH1 0x3 PUSH0 PUSH2 0x100 EXP DUP2 SLOAD DUP2 PUSH20 0xFFFFFFFFFFFFFFFFFFFFFFFFFFFFFFFFFFFFFFFF MUL NOT AND SWAP1 DUP4 PUSH20 0xFFFFFFFFFFFFFFFFFFFFFFFFFFFFFFFFFFFFFFFF AND MUL OR SWAP1 SSTORE POP PUSH2 0xC71 DUP1 PUSH2 0x67 PUSH0 CODECOPY PUSH0 RETURN INVALID PUSH1 0x80 PUSH1 0x40 MSTORE PUSH1 0x4 CALLDATASIZE LT PUSH2 0x54 JUMPI PUSH0 CALLDATALOAD PUSH1 0xE0 SHR DUP1 PUSH4 0x3CCFD60B EQ PUSH2 0x58 JUMPI DUP1 PUSH4 0x3E47D6F3 EQ PUSH2 0x6E JUMPI DUP1 PUSH4 0x51B80E41 EQ PUSH2 0xAA JUMPI DUP1 PUSH4 0x8DA5CB5B EQ PUSH2 0xD4 JUMPI DUP1 PUSH4 0xB60D4288 EQ PUSH2 0xFE JUMPI DUP1 PUSH4 0xDC0D3DFF EQ PUSH2 0x108 JUMPI JUMPDEST PUSH0 PUSH0 REVERT JUMPDEST CALLVALUE DUP1 ISZERO PUSH2 0x63 JUMPI PUSH0 PUSH0 REVERT JUMPDEST POP PUSH2 0x6C PUSH2 0x144 JUMP JUMPDEST STOP JUMPDEST CALLVALUE DUP1 ISZERO PUSH2 0x79 JUMPI PUSH0 PUSH0 REVERT JUMPDEST POP PUSH2 0x94 PUSH1 0x4 DUP1 CALLDATASIZE SUB DUP2 ADD SWAP1 PUSH2 0x8F SWAP2 SWAP1 PUSH2 0x70E JUMP JUMPDEST PUSH2 0x37F JUMP JUMPDEST PUSH1 0x40 MLOAD PUSH2 0xA1 SWAP2 SWAP1 PUSH2 0x751 JUMP JUMPDEST PUSH1 0x40 MLOAD DUP1 SWAP2 SUB SWAP1 RETURN JUMPDEST CALLVALUE DUP1 ISZERO PUSH2 0xB5 JUMPI PUSH0 PUSH0 REVERT JUMPDEST POP PUSH2 0xBE PUSH2 0x394 JUMP JUMPDEST PUSH1 0x40 MLOAD PUSH2 0xCB SWAP2 SWAP1 PUSH2 0x751 JUMP JUMPDEST PUSH1 0x40 MLOAD DUP1 SWAP2 SUB SWAP1 RETURN JUMPDEST CALLVALUE DUP1 ISZERO PUSH2 0xDF JUMPI PUSH0 PUSH0 REVERT JUMPDEST POP PUSH2 0xE8 PUSH2 0x399 JUMP JUMPDEST PUSH1 0x40 MLOAD PUSH2 0xF5 SWAP2 SWAP1 PUSH2 0x779 JUMP JUMPDEST PUSH1 0x40 MLOAD DUP1 SWAP2 SUB SWAP1 RETURN JUMPDEST PUSH2 0x106 PUSH2 0x3BE JUMP JUMPDEST STOP JUMPDEST CALLVALUE DUP1 ISZERO PUSH2 0x113 JUMPI PUSH0 PUSH0 REVERT JUMPDEST POP PUSH2 0x12E PUSH1 0x4 DUP1 CALLDATASIZE SUB DUP2 ADD SWAP1 PUSH2 0x129 SWAP2 SWAP1 PUSH2 0x7BC JUMP JUMPDEST PUSH2 0x4F6 JUMP JUMPDEST PUSH1 0x40 MLOAD PUSH2 0x13B SWAP2 SWAP1 PUSH2 0x779 JUMP JUMPDEST PUSH1 0x40 MLOAD DUP1 SWAP2 SUB SWAP1 RETURN JUMPDEST PUSH1 0x3 PUSH0 SWAP1 SLOAD SWAP1 PUSH2 0x100 EXP SWAP1 DIV PUSH20 0xFFFFFFFFFFFFFFFFFFFFFFFFFFFFFFFFFFFFFFFF AND PUSH20 0xFFFFFFFFFFFFFFFFFFFFFFFFFFFFFFFFFFFFFFFF AND CALLER PUSH20 0xFFFFFFFFFFFFFFFFFFFFFFFFFFFFFFFFFFFFFFFF AND EQ PUSH2 0x1D3 JUMPI PUSH1 0x40 MLOAD PUSH32 0x8C379A000000000000000000000000000000000000000000000000000000000 DUP2 MSTORE PUSH1 0x4 ADD PUSH2 0x1CA SWAP1 PUSH2 0x841 JUMP JUMPDEST PUSH1 0x40 MLOAD DUP1 SWAP2 SUB SWAP1 REVERT JUMPDEST PUSH0 PUSH0 SWAP1 POP JUMPDEST PUSH1 0x1 DUP1 SLOAD SWAP1 POP DUP2 LT ISZERO PUSH2 0x274 JUMPI PUSH0 PUSH1 0x1 DUP3 DUP2 SLOAD DUP2 LT PUSH2 0x1FA JUMPI PUSH2 0x1F9 PUSH2 0x85F JUMP JUMPDEST JUMPDEST SWAP1 PUSH0 MSTORE PUSH1 0x20 PUSH0 KECCAK256 ADD PUSH0 SWAP1 SLOAD SWAP1 PUSH2 0x100 EXP SWAP1 DIV PUSH20 0xFFFFFFFFFFFFFFFFFFFFFFFFFFFFFFFFFFFFFFFF AND SWAP1 POP PUSH0 PUSH1 0x2 PUSH0 DUP4 PUSH20 0xFFFFFFFFFFFFFFFFFFFFFFFFFFFFFFFFFFFFFFFF AND PUSH20 0xFFFFFFFFFFFFFFFFFFFFFFFFFFFFFFFFFFFFFFFF AND DUP2 MSTORE PUSH1 0x20 ADD SWAP1 DUP2 MSTORE PUSH1 0x20 ADD PUSH0 KECCAK256 DUP2 SWAP1 SSTORE POP POP DUP1 DUP1 PUSH1 0x1 ADD SWAP2 POP POP PUSH2 0x1D8 JUMP JUMPDEST POP PUSH0 PUSH8 0xFFFFFFFFFFFFFFFF DUP2 GT ISZERO PUSH2 0x28F JUMPI PUSH2 0x28E PUSH2 0x88C JUMP JUMPDEST JUMPDEST PUSH1 0x40 MLOAD SWAP1 DUP1 DUP3 MSTORE DUP1 PUSH1 0x20 MUL PUSH1 0x20 ADD DUP3 ADD PUSH1 0x40 MSTORE DUP1 ISZERO PUSH2 0x2BD JUMPI DUP2 PUSH1 0x20 ADD PUSH1 0x20 DUP3 MUL DUP1 CALLDATASIZE DUP4 CALLDATACOPY DUP1 DUP3 ADD SWAP2 POP POP SWAP1 POP JUMPDEST POP PUSH1 0x1 SWAP1 DUP1 MLOAD SWAP1 PUSH1 0x20 ADD SWAP1 PUSH2 0x2D3 SWAP3 SWAP2 SWAP1 PUSH2 0x60E JUMP JUMPDEST POP PUSH0 CALLER PUSH20 0xFFFFFFFFFFFFFFFFFFFFFFFFFFFFFFFFFFFFFFFF AND SELFBALANCE PUSH1 0x40 MLOAD PUSH2 0x2F9 SWAP1 PUSH2 0x8E6 JUMP JUMPDEST PUSH0 PUSH1 0x40 MLOAD DUP1 DUP4 SUB DUP2 DUP6 DUP8 GAS CALL SWAP3 POP POP POP RETURNDATASIZE DUP1 PUSH0 DUP2 EQ PUSH2 0x333 JUMPI PUSH1 0x40 MLOAD SWAP2 POP PUSH1 0x1F NOT PUSH1 0x3F RETURNDATASIZE ADD AND DUP3 ADD PUSH1 0x40 MSTORE RETURNDATASIZE DUP3 MSTORE RETURNDATASIZE PUSH0 PUSH1 0x20 DUP5 ADD RETURNDATACOPY PUSH2 0x338 JUMP JUMPDEST PUSH1 0x60 SWAP2 POP JUMPDEST POP POP SWAP1 POP DUP1 PUSH2 0x37C JUMPI PUSH1 0x40 MLOAD PUSH32 0x8C379A000000000000000000000000000000000000000000000000000000000 DUP2 MSTORE PUSH1 0x4 ADD PUSH2 0x373 SWAP1 PUSH2 0x944 JUMP JUMPDEST PUSH1 0x40 MLOAD DUP1 SWAP2 SUB SWAP1 REVERT JUMPDEST POP JUMP JUMPDEST PUSH1 0x2 PUSH1 0x20 MSTORE DUP1 PUSH0 MSTORE PUSH1 0x40 PUSH0 KECCAK256 PUSH0 SWAP2 POP SWAP1 POP SLOAD DUP2 JUMP JUMPDEST PUSH0 SLOAD DUP2 JUMP JUMPDEST PUSH1 0x3 PUSH0 SWAP1 SLOAD SWAP1 PUSH2 0x100 EXP SWAP1 DIV PUSH20 0xFFFFFFFFFFFFFFFFFFFFFFFFFFFFFFFFFFFFFFFF AND DUP2 JUMP JUMPDEST PUSH0 SLOAD PUSH2 0x3C9 CALLVALUE PUSH2 0x531 JUMP JUMPDEST LT ISZERO PUSH2 0x40A JUMPI PUSH1 0x40 MLOAD PUSH32 0x8C379A000000000000000000000000000000000000000000000000000000000 DUP2 MSTORE PUSH1 0x4 ADD PUSH2 0x401 SWAP1 PUSH2 0x9AC JUMP JUMPDEST PUSH1 0x40 MLOAD DUP1 SWAP2 SUB SWAP1 REVERT JUMPDEST PUSH1 0x1 CALLER SWAP1 DUP1 PUSH1 0x1 DUP2 SLOAD ADD DUP1 DUP3 SSTORE DUP1 SWAP2 POP POP PUSH1 0x1 SWAP1 SUB SWAP1 PUSH0 MSTORE PUSH1 0x20 PUSH0 KECCAK256 ADD PUSH0 SWAP1 SWAP2 SWAP1 SWAP2 SWAP1 SWAP2 PUSH2 0x100 EXP DUP2 SLOAD DUP2 PUSH20 0xFFFFFFFFFFFFFFFFFFFFFFFFFFFFFFFFFFFFFFFF MUL NOT AND SWAP1 DUP4 PUSH20 0xFFFFFFFFFFFFFFFFFFFFFFFFFFFFFFFFFFFFFFFF AND MUL OR SWAP1 SSTORE POP CALLVALUE PUSH1 0x2 PUSH0 CALLER PUSH20 0xFFFFFFFFFFFFFFFFFFFFFFFFFFFFFFFFFFFFFFFF AND PUSH20 0xFFFFFFFFFFFFFFFFFFFFFFFFFFFFFFFFFFFFFFFF AND DUP2 MSTORE PUSH1 0x20 ADD SWAP1 DUP2 MSTORE PUSH1 0x20 ADD PUSH0 KECCAK256 SLOAD PUSH2 0x4B3 SWAP2 SWAP1 PUSH2 0x9F7 JUMP JUMPDEST PUSH1 0x2 PUSH0 CALLER PUSH20 0xFFFFFFFFFFFFFFFFFFFFFFFFFFFFFFFFFFFFFFFF AND PUSH20 0xFFFFFFFFFFFFFFFFFFFFFFFFFFFFFFFFFFFFFFFF AND DUP2 MSTORE PUSH1 0x20 ADD SWAP1 DUP2 MSTORE PUSH1 0x20 ADD PUSH0 KECCAK256 DUP2 SWAP1 SSTORE POP JUMP JUMPDEST PUSH1 0x1 DUP2 DUP2 SLOAD DUP2 LT PUSH2 0x505 JUMPI PUSH0 DUP1 REVERT JUMPDEST SWAP1 PUSH0 MSTORE PUSH1 0x20 PUSH0 KECCAK256 ADD PUSH0 SWAP2 POP SLOAD SWAP1 PUSH2 0x100 EXP SWAP1 DIV PUSH20 0xFFFFFFFFFFFFFFFFFFFFFFFFFFFFFFFFFFFFFFFF AND DUP2 JUMP JUMPDEST PUSH0 PUSH0 PUSH2 0x53B PUSH2 0x569 JUMP JUMPDEST SWAP1 POP PUSH0 PUSH8 0xDE0B6B3A7640000 DUP5 DUP4 PUSH2 0x553 SWAP2 SWAP1 PUSH2 0xA2A JUMP JUMPDEST PUSH2 0x55D SWAP2 SWAP1 PUSH2 0xA98 JUMP JUMPDEST SWAP1 POP DUP1 SWAP3 POP POP POP SWAP2 SWAP1 POP JUMP JUMPDEST PUSH0 PUSH0 PUSH20 0x694AA1769357215DE4FAC081BF1F309ADC325306 SWAP1 POP PUSH0 DUP2 PUSH20 0xFFFFFFFFFFFFFFFFFFFFFFFFFFFFFFFFFFFFFFFF AND PUSH4 0xFEAF968C PUSH1 0x40 MLOAD DUP2 PUSH4 0xFFFFFFFF AND PUSH1 0xE0 SHL DUP2 MSTORE PUSH1 0x4 ADD PUSH1 0xA0 PUSH1 0x40 MLOAD DUP1 DUP4 SUB DUP2 DUP7 GAS STATICCALL ISZERO DUP1 ISZERO PUSH2 0x5CC JUMPI RETURNDATASIZE PUSH0 PUSH0 RETURNDATACOPY RETURNDATASIZE PUSH0 REVERT JUMPDEST POP POP POP POP PUSH1 0x40 MLOAD RETURNDATASIZE PUSH1 0x1F NOT PUSH1 0x1F DUP3 ADD AND DUP3 ADD DUP1 PUSH1 0x40 MSTORE POP DUP2 ADD SWAP1 PUSH2 0x5F0 SWAP2 SWAP1 PUSH2 0xB4E JUMP JUMPDEST POP POP POP SWAP2 POP POP PUSH5 0x2540BE400 DUP2 PUSH2 0x607 SWAP2 SWAP1 PUSH2 0xBC5 JUMP JUMPDEST SWAP3 POP POP POP SWAP1 JUMP JUMPDEST DUP3 DUP1 SLOAD DUP3 DUP3 SSTORE SWAP1 PUSH0 MSTORE PUSH1 0x20 PUSH0 KECCAK256 SWAP1 DUP2 ADD SWAP3 DUP3 ISZERO PUSH2 0x684 JUMPI SWAP2 PUSH1 0x20 MUL DUP3 ADD JUMPDEST DUP3 DUP2 GT ISZERO PUSH2 0x683 JUMPI DUP3 MLOAD DUP3 PUSH0 PUSH2 0x100 EXP DUP2 SLOAD DUP2 PUSH20 0xFFFFFFFFFFFFFFFFFFFFFFFFFFFFFFFFFFFFFFFF MUL NOT AND SWAP1 DUP4 PUSH20 0xFFFFFFFFFFFFFFFFFFFFFFFFFFFFFFFFFFFFFFFF AND MUL OR SWAP1 SSTORE POP SWAP2 PUSH1 0x20 ADD SWAP2 SWAP1 PUSH1 0x1 ADD SWAP1 PUSH2 0x62C JUMP JUMPDEST JUMPDEST POP SWAP1 POP PUSH2 0x691 SWAP2 SWAP1 PUSH2 0x695 JUMP JUMPDEST POP SWAP1 JUMP JUMPDEST JUMPDEST DUP1 DUP3 GT ISZERO PUSH2 0x6AC JUMPI PUSH0 DUP2 PUSH0 SWAP1 SSTORE POP PUSH1 0x1 ADD PUSH2 0x696 JUMP JUMPDEST POP SWAP1 JUMP JUMPDEST PUSH0 PUSH0 REVERT JUMPDEST PUSH0 PUSH20 0xFFFFFFFFFFFFFFFFFFFFFFFFFFFFFFFFFFFFFFFF DUP3 AND SWAP1 POP SWAP2 SWAP1 POP JUMP JUMPDEST PUSH0 PUSH2 0x6DD DUP3 PUSH2 0x6B4 JUMP JUMPDEST SWAP1 POP SWAP2 SWAP1 POP JUMP JUMPDEST PUSH2 0x6ED DUP2 PUSH2 0x6D3 JUMP JUMPDEST DUP2 EQ PUSH2 0x6F7 JUMPI PUSH0 PUSH0 REVERT JUMPDEST POP JUMP JUMPDEST PUSH0 DUP2 CALLDATALOAD SWAP1 POP PUSH2 0x708 DUP2 PUSH2 0x6E4 JUMP JUMPDEST SWAP3 SWAP2 POP POP JUMP JUMPDEST PUSH0 PUSH1 0x20 DUP3 DUP5 SUB SLT ISZERO PUSH2 0x723 JUMPI PUSH2 0x722 PUSH2 0x6B0 JUMP JUMPDEST JUMPDEST PUSH0 PUSH2 0x730 DUP5 DUP3 DUP6 ADD PUSH2 0x6FA JUMP JUMPDEST SWAP2 POP POP SWAP3 SWAP2 POP POP JUMP JUMPDEST PUSH0 DUP2 SWAP1 POP SWAP2 SWAP1 POP JUMP JUMPDEST PUSH2 0x74B DUP2 PUSH2 0x739 JUMP JUMPDEST DUP3 MSTORE POP POP JUMP JUMPDEST PUSH0 PUSH1 0x20 DUP3 ADD SWAP1 POP PUSH2 0x764 PUSH0 DUP4 ADD DUP5 PUSH2 0x742 JUMP JUMPDEST SWAP3 SWAP2 POP POP JUMP JUMPDEST PUSH2 0x773 DUP2 PUSH2 0x6D3 JUMP JUMPDEST DUP3 MSTORE POP POP JUMP JUMPDEST PUSH0 PUSH1 0x20 DUP3 ADD SWAP1 POP PUSH2 0x78C PUSH0 DUP4 ADD DUP5 PUSH2 0x76A JUMP JUMPDEST SWAP3 SWAP2 POP POP JUMP JUMPDEST PUSH2 0x79B DUP2 PUSH2 0x739 JUMP JUMPDEST DUP2 EQ PUSH2 0x7A5 JUMPI PUSH0 PUSH0 REVERT JUMPDEST POP JUMP JUMPDEST PUSH0 DUP2 CALLDATALOAD SWAP1 POP PUSH2 0x7B6 DUP2 PUSH2 0x792 JUMP JUMPDEST SWAP3 SWAP2 POP POP JUMP JUMPDEST PUSH0 PUSH1 0x20 DUP3 DUP5 SUB SLT ISZERO PUSH2 0x7D1 JUMPI PUSH2 0x7D0 PUSH2 0x6B0 JUMP JUMPDEST JUMPDEST PUSH0 PUSH2 0x7DE DUP5 DUP3 DUP6 ADD PUSH2 0x7A8 JUMP JUMPDEST SWAP2 POP POP SWAP3 SWAP2 POP POP JUMP JUMPDEST PUSH0 DUP3 DUP3 MSTORE PUSH1 0x20 DUP3 ADD SWAP1 POP SWAP3 SWAP2 POP POP JUMP JUMPDEST PUSH32 0x4D75737420626520746865206F776E6572000000000000000000000000000000 PUSH0 DUP3 ADD MSTORE POP JUMP JUMPDEST PUSH0 PUSH2 0x82B PUSH1 0x11 DUP4 PUSH2 0x7E7 JUMP JUMPDEST SWAP2 POP PUSH2 0x836 DUP3 PUSH2 0x7F7 JUMP JUMPDEST PUSH1 0x20 DUP3 ADD SWAP1 POP SWAP2 SWAP1 POP JUMP JUMPDEST PUSH0 PUSH1 0x20 DUP3 ADD SWAP1 POP DUP2 DUP2 SUB PUSH0 DUP4 ADD MSTORE PUSH2 0x858 DUP2 PUSH2 0x81F JUMP JUMPDEST SWAP1 POP SWAP2 SWAP1 POP JUMP JUMPDEST PUSH32 0x4E487B7100000000000000000000000000000000000000000000000000000000 PUSH0 MSTORE PUSH1 0x32 PUSH1 0x4 MSTORE PUSH1 0x24 PUSH0 REVERT JUMPDEST PUSH32 0x4E487B7100000000000000000000000000000000000000000000000000000000 PUSH0 MSTORE PUSH1 0x41 PUSH1 0x4 MSTORE PUSH1 0x24 PUSH0 REVERT JUMPDEST PUSH0 DUP2 SWAP1 POP SWAP3 SWAP2 POP POP JUMP JUMPDEST POP JUMP JUMPDEST PUSH0 PUSH2 0x8D1 PUSH0 DUP4 PUSH2 0x8B9 JUMP JUMPDEST SWAP2 POP PUSH2 0x8DC DUP3 PUSH2 0x8C3 JUMP JUMPDEST PUSH0 DUP3 ADD SWAP1 POP SWAP2 SWAP1 POP JUMP JUMPDEST PUSH0 PUSH2 0x8F0 DUP3 PUSH2 0x8C6 JUMP JUMPDEST SWAP2 POP DUP2 SWAP1 POP SWAP2 SWAP1 POP JUMP JUMPDEST PUSH32 0x43616C6C206661696C6564000000000000000000000000000000000000000000 PUSH0 DUP3 ADD MSTORE POP JUMP JUMPDEST PUSH0 PUSH2 0x92E PUSH1 0xB DUP4 PUSH2 0x7E7 JUMP JUMPDEST SWAP2 POP PUSH2 0x939 DUP3 PUSH2 0x8FA JUMP JUMPDEST PUSH1 0x20 DUP3 ADD SWAP1 POP SWAP2 SWAP1 POP JUMP JUMPDEST PUSH0 PUSH1 0x20 DUP3 ADD SWAP1 POP DUP2 DUP2 SUB PUSH0 DUP4 ADD MSTORE PUSH2 0x95B DUP2 PUSH2 0x922 JUMP JUMPDEST SWAP1 POP SWAP2 SWAP1 POP JUMP JUMPDEST PUSH32 0x6469646E27742073656E6420656E6F7567682045544800000000000000000000 PUSH0 DUP3 ADD MSTORE POP JUMP JUMPDEST PUSH0 PUSH2 0x996 PUSH1 0x16 DUP4 PUSH2 0x7E7 JUMP JUMPDEST SWAP2 POP PUSH2 0x9A1 DUP3 PUSH2 0x962 JUMP JUMPDEST PUSH1 0x20 DUP3 ADD SWAP1 POP SWAP2 SWAP1 POP JUMP JUMPDEST PUSH0 PUSH1 0x20 DUP3 ADD SWAP1 POP DUP2 DUP2 SUB PUSH0 DUP4 ADD MSTORE PUSH2 0x9C3 DUP2 PUSH2 0x98A JUMP JUMPDEST SWAP1 POP SWAP2 SWAP1 POP JUMP JUMPDEST PUSH32 0x4E487B7100000000000000000000000000000000000000000000000000000000 PUSH0 MSTORE PUSH1 0x11 PUSH1 0x4 MSTORE PUSH1 0x24 PUSH0 REVERT JUMPDEST PUSH0 PUSH2 0xA01 DUP3 PUSH2 0x739 JUMP JUMPDEST SWAP2 POP PUSH2 0xA0C DUP4 PUSH2 0x739 JUMP JUMPDEST SWAP3 POP DUP3 DUP3 ADD SWAP1 POP DUP1 DUP3 GT ISZERO PUSH2 0xA24 JUMPI PUSH2 0xA23 PUSH2 0x9CA JUMP JUMPDEST JUMPDEST SWAP3 SWAP2 POP POP JUMP JUMPDEST PUSH0 PUSH2 0xA34 DUP3 PUSH2 0x739 JUMP JUMPDEST SWAP2 POP PUSH2 0xA3F DUP4 PUSH2 0x739 JUMP JUMPDEST SWAP3 POP DUP3 DUP3 MUL PUSH2 0xA4D DUP2 PUSH2 0x739 JUMP JUMPDEST SWAP2 POP DUP3 DUP3 DIV DUP5 EQ DUP4 ISZERO OR PUSH2 0xA64 JUMPI PUSH2 0xA63 PUSH2 0x9CA JUMP JUMPDEST JUMPDEST POP SWAP3 SWAP2 POP POP JUMP JUMPDEST PUSH32 0x4E487B7100000000000000000000000000000000000000000000000000000000 PUSH0 MSTORE PUSH1 0x12 PUSH1 0x4 MSTORE PUSH1 0x24 PUSH0 REVERT JUMPDEST PUSH0 PUSH2 0xAA2 DUP3 PUSH2 0x739 JUMP JUMPDEST SWAP2 POP PUSH2 0xAAD DUP4 PUSH2 0x739 JUMP JUMPDEST SWAP3 POP DUP3 PUSH2 0xABD JUMPI PUSH2 0xABC PUSH2 0xA6B JUMP JUMPDEST JUMPDEST DUP3 DUP3 DIV SWAP1 POP SWAP3 SWAP2 POP POP JUMP JUMPDEST PUSH0 PUSH10 0xFFFFFFFFFFFFFFFFFFFF DUP3 AND SWAP1 POP SWAP2 SWAP1 POP JUMP JUMPDEST PUSH2 0xAE6 DUP2 PUSH2 0xAC8 JUMP JUMPDEST DUP2 EQ PUSH2 0xAF0 JUMPI PUSH0 PUSH0 REVERT JUMPDEST POP JUMP JUMPDEST PUSH0 DUP2 MLOAD SWAP1 POP PUSH2 0xB01 DUP2 PUSH2 0xADD JUMP JUMPDEST SWAP3 SWAP2 POP POP JUMP JUMPDEST PUSH0 DUP2 SWAP1 POP SWAP2 SWAP1 POP JUMP JUMPDEST PUSH2 0xB19 DUP2 PUSH2 0xB07 JUMP JUMPDEST DUP2 EQ PUSH2 0xB23 JUMPI PUSH0 PUSH0 REVERT JUMPDEST POP JUMP JUMPDEST PUSH0 DUP2 MLOAD SWAP1 POP PUSH2 0xB34 DUP2 PUSH2 0xB10 JUMP JUMPDEST SWAP3 SWAP2 POP POP JUMP JUMPDEST PUSH0 DUP2 MLOAD SWAP1 POP PUSH2 0xB48 DUP2 PUSH2 0x792 JUMP JUMPDEST SWAP3 SWAP2 POP POP JUMP JUMPDEST PUSH0 PUSH0 PUSH0 PUSH0 PUSH0 PUSH1 0xA0 DUP7 DUP9 SUB SLT ISZERO PUSH2 0xB67 JUMPI PUSH2 0xB66 PUSH2 0x6B0 JUMP JUMPDEST JUMPDEST PUSH0 PUSH2 0xB74 DUP9 DUP3 DUP10 ADD PUSH2 0xAF3 JUMP JUMPDEST SWAP6 POP POP PUSH1 0x20 PUSH2 0xB85 DUP9 DUP3 DUP10 ADD PUSH2 0xB26 JUMP JUMPDEST SWAP5 POP POP PUSH1 0x40 PUSH2 0xB96 DUP9 DUP3 DUP10 ADD PUSH2 0xB3A JUMP JUMPDEST SWAP4 POP POP PUSH1 0x60 PUSH2 0xBA7 DUP9 DUP3 DUP10 ADD PUSH2 0xB3A JUMP JUMPDEST SWAP3 POP POP PUSH1 0x80 PUSH2 0xBB8 DUP9 DUP3 DUP10 ADD PUSH2 0xAF3 JUMP JUMPDEST SWAP2 POP POP SWAP3 SWAP6 POP SWAP3 SWAP6 SWAP1 SWAP4 POP JUMP JUMPDEST PUSH0 PUSH2 0xBCF DUP3 PUSH2 0xB07 JUMP JUMPDEST SWAP2 POP PUSH2 0xBDA DUP4 PUSH2 0xB07 JUMP JUMPDEST SWAP3 POP DUP3 DUP3 MUL PUSH2 0xBE8 DUP2 PUSH2 0xB07 JUMP JUMPDEST SWAP2 POP PUSH32 0x8000000000000000000000000000000000000000000000000000000000000000 DUP5 EQ PUSH0 DUP5 SLT AND ISZERO PUSH2 0xC1F JUMPI PUSH2 0xC1E PUSH2 0x9CA JUMP JUMPDEST JUMPDEST DUP3 DUP3 SDIV DUP5 EQ DUP4 ISZERO OR PUSH2 0xC34 JUMPI PUSH2 0xC33 PUSH2 0x9CA JUMP JUMPDEST JUMPDEST POP SWAP3 SWAP2 POP POP JUMP INVALID LOG2 PUSH5 0x6970667358 0x22 SLT KECCAK256 0x4B LOG1 LT 0xD7 DUP1 0xAA 0xAF 0xD5 0xDE SWAPN 0x52 SDIV SIGNEXTEND CHAINID PUSH22 0xEC8D2EB1AF767CD34869DE8D5EF760393664736F6C63 NUMBER STOP ADDMOD 0x1E STOP CALLER "
				},
				"gasEstimates": {
					"creation": {
						"codeDepositCost": "637000",
						"executionCost": "47038",
						"totalCost": "684038"
					},
					"external": {
						"addressToAmountFunded(address)": "2802",
						"fund()": "infinite",
						"funders(uint256)": "5032",
						"minUsd()": "2446",
						"owner()": "2552",
						"withdraw()": "infinite"
					}
				},
				"methodIdentifiers": {
					"addressToAmountFunded(address)": "3e47d6f3",
					"fund()": "b60d4288",
					"funders(uint256)": "dc0d3dff",
					"minUsd()": "51b80e41",
					"owner()": "8da5cb5b",
					"withdraw()": "3ccfd60b"
				}
			},
			"storageLayout": {
				"storage": [
					{
						"astId": 55,
						"contract": "contracts/FundMe.sol:FundMe",
						"label": "minUsd",
						"offset": 0,
						"slot": "0",
						"type": "t_uint256"
					},
					{
						"astId": 58,
						"contract": "contracts/FundMe.sol:FundMe",
						"label": "funders",
						"offset": 0,
						"slot": "1",
						"type": "t_array(t_address)dyn_storage"
					},
					{
						"astId": 62,
						"contract": "contracts/FundMe.sol:FundMe",
						"label": "addressToAmountFunded",
						"offset": 0,
						"slot": "2",
						"type": "t_mapping(t_address,t_uint256)"
					},
					{
						"astId": 64,
						"contract": "contracts/FundMe.sol:FundMe",
						"label": "owner",
						"offset": 0,
						"slot": "3",
						"type": "t_address"
					}
				],
				"types": {
					"t_address": {
						"encoding": "inplace",
						"label": "address",
						"numberOfBytes": "20"
					},
					"t_array(t_address)dyn_storage": {
						"base": "t_address",
						"encoding": "dynamic_array",
						"label": "address[]",
						"numberOfBytes": "32"
					},
					"t_mapping(t_address,t_uint256)": {
						"encoding": "mapping",
						"key": "t_address",
						"label": "mapping(address => uint256)",
						"numberOfBytes": "32",
						"value": "t_uint256"
					},
					"t_uint256": {
						"encoding": "inplace",
						"label": "uint256",
						"numberOfBytes": "32"
					}
				}
			},
			"userdoc": {
				"kind": "user",
				"methods": {},
				"version": 1
			}
		}
	}
}