{
	"data": {
		"bytecode": {
			"linkReferences": {},
			"object": "6080604052348015600e575f5ffd5b5060015f819055506118d3806100235f395ff3fe608060405260043610610048575f3560e01c80623668b01461004c5780633da0e66e146100745780637249fbb6146100b7578063944eff63146100df578063eb84e7f21461010f575b5f5ffd5b348015610057575f5ffd5b50610072600480360381019061006d9190610e49565b610153565b005b34801561007f575f5ffd5b5061009a60048036038101906100959190610edf565b6105ac565b6040516100ae989796959493929190610f81565b60405180910390f35b3480156100c2575f5ffd5b506100dd60048036038101906100d89190610edf565b610662565b005b6100f960048036038101906100f49190611027565b6108d9565b6040516101069190611077565b60405180910390f35b34801561011a575f5ffd5b5061013560048036038101906101309190610edf565b610be3565b60405161014a99989796959493929190611090565b60405180910390f35b61015b610c84565b5f60015f8881526020019081526020015f2090503373ffffffffffffffffffffffffffffffffffffffff16816001015f9054906101000a900473ffffffffffffffffffffffffffffffffffffffff1673ffffffffffffffffffffffffffffffffffffffff1614610200576040517f08c379a00000000000000000000000000000000000000000000000000000000081526004016101f790611175565b60405180910390fd5b806004015f9054906101000a900460ff1615610251576040517f08c379a0000000000000000000000000000000000000000000000000000000008152600401610248906111dd565b60405180910390fd5b8060040160019054906101000a900460ff16156102a3576040517f08c379a000000000000000000000000000000000000000000000000000000000815260040161029a90611245565b60405180910390fd5b80600301544211156102ea576040517f08c379a00000000000000000000000000000000000000000000000000000000081526004016102e1906112ad565b60405180910390fd5b806008015f8781526020019081526020015f205f9054906101000a900460ff161561034a576040517f08c379a000000000000000000000000000000000000000000000000000000000815260040161034190611315565b60405180910390fd5b5f841161038c576040517f08c379a00000000000000000000000000000000000000000000000000000000081526004016103839061137d565b60405180910390fd5b80600201548482600601546103a191906113c8565b11156103e2576040517f08c379a00000000000000000000000000000000000000000000000000000000081526004016103d990611445565b60405180910390fd5b5f856040516020016103f49190611483565b60405160208183030381529060405280519060200120905061041c8484846007015484610cc8565b61045b576040517f08c379a0000000000000000000000000000000000000000000000000000000008152600401610452906114e7565b60405180910390fd5b6001826008015f8981526020019081526020015f205f6101000a81548160ff02191690831515021790555084826006015f82825461049991906113c8565b92505081905550816001015f9054906101000a900473ffffffffffffffffffffffffffffffffffffffff1673ffffffffffffffffffffffffffffffffffffffff166108fc8690811502906040515f60405180830381858888f19350505050158015610506573d5f5f3e3d5ffd5b50877f0ca5b540b3daa5d9b266dfbf04d6fcb0301717843077f98994e9a4ac0088e4a38689604051610539929190611505565b60405180910390a2816002015482600601541061059a576001826004015f6101000a81548160ff021916908315150217905550877f1c9e1a3c2781084195b6838791927140d8ead9ddf7562fb4cac1646ae302957960405160405180910390a25b50506105a4610ce0565b505050505050565b5f5f5f5f5f5f5f5f5f60015f8b81526020019081526020015f209050805f015f9054906101000a900473ffffffffffffffffffffffffffffffffffffffff16816001015f9054906101000a900473ffffffffffffffffffffffffffffffffffffffff16826002015483600601548460030154856004015f9054906101000a900460ff168660040160019054906101000a900460ff1687600701549850985098509850985098509850985050919395975091939597565b61066a610c84565b5f60015f8381526020019081526020015f2090503373ffffffffffffffffffffffffffffffffffffffff16815f015f9054906101000a900473ffffffffffffffffffffffffffffffffffffffff1673ffffffffffffffffffffffffffffffffffffffff161461070e576040517f08c379a000000000000000000000000000000000000000000000000000000000815260040161070590611576565b60405180910390fd5b806004015f9054906101000a900460ff161561075f576040517f08c379a0000000000000000000000000000000000000000000000000000000008152600401610756906115de565b60405180910390fd5b8060040160019054906101000a900460ff16156107b1576040517f08c379a00000000000000000000000000000000000000000000000000000000081526004016107a890611245565b60405180910390fd5b80600301544210156107f8576040517f08c379a00000000000000000000000000000000000000000000000000000000081526004016107ef906112ad565b60405180910390fd5b60018160040160016101000a81548160ff0219169083151502179055505f8160060154826002015461082a91906115fc565b90505f81111561089f57815f015f9054906101000a900473ffffffffffffffffffffffffffffffffffffffff1673ffffffffffffffffffffffffffffffffffffffff166108fc836002015490811502906040515f60405180830381858888f1935050505015801561089d573d5f5f3e3d5ffd5b505b827ffe509803c09416b28ff3d8f690c8b0c61462a892c46d5430c8fb20abe472daf060405160405180910390a250506108d6610ce0565b50565b5f6108e2610c84565b5f3411610924576040517f08c379a000000000000000000000000000000000000000000000000000000000815260040161091b90611679565b60405180910390fd5b5f73ffffffffffffffffffffffffffffffffffffffff168473ffffffffffffffffffffffffffffffffffffffff1603610992576040517f08c379a0000000000000000000000000000000000000000000000000000000008152600401610989906116e1565b60405180910390fd5b5f824261099f91906113c8565b90503385853484436040516020016109bc96959493929190611764565b6040516020818303038152906040528051906020012091505f73ffffffffffffffffffffffffffffffffffffffff1660015f8481526020019081526020015f205f015f9054906101000a900473ffffffffffffffffffffffffffffffffffffffff1673ffffffffffffffffffffffffffffffffffffffff1614610a74576040517f08c379a0000000000000000000000000000000000000000000000000000000008152600401610a6b9061181d565b60405180910390fd5b5f60015f8481526020019081526020015f20905033815f015f6101000a81548173ffffffffffffffffffffffffffffffffffffffff021916908373ffffffffffffffffffffffffffffffffffffffff16021790555085816001015f6101000a81548173ffffffffffffffffffffffffffffffffffffffff021916908373ffffffffffffffffffffffffffffffffffffffff1602179055503481600201819055508181600301819055508481600701819055505f816004015f6101000a81548160ff0219169083151502179055505f8160040160016101000a81548160ff0219169083151502179055505f5f1b81600501819055508573ffffffffffffffffffffffffffffffffffffffff163373ffffffffffffffffffffffffffffffffffffffff16847fc35d7a5ad43fd14fe3d5652b28c58b33108de061c81fd30ae23bf53b9dac2ce534868a604051610bca9392919061183b565b60405180910390a45050610bdc610ce0565b9392505050565b6001602052805f5260405f205f91509050805f015f9054906101000a900473ffffffffffffffffffffffffffffffffffffffff1690806001015f9054906101000a900473ffffffffffffffffffffffffffffffffffffffff1690806002015490806003015490806004015f9054906101000a900460ff16908060040160019054906101000a900460ff16908060050154908060060154908060070154905089565b60025f5403610cbf576040517f3ee5aeb500000000000000000000000000000000000000000000000000000000815260040160405180910390fd5b60025f81905550565b5f82610cd5868685610ce9565b149050949350505050565b60015f81905550565b5f5f8290505f5f90505b85859050811015610d3057610d2182878784818110610d1557610d14611870565b5b90506020020135610d3c565b91508080600101915050610cf3565b50809150509392505050565b5f818310610d5357610d4e8284610d66565b610d5e565b610d5d8383610d66565b5b905092915050565b5f825f528160205260405f20905092915050565b5f5ffd5b5f5ffd5b5f819050919050565b610d9481610d82565b8114610d9e575f5ffd5b50565b5f81359050610daf81610d8b565b92915050565b5f819050919050565b610dc781610db5565b8114610dd1575f5ffd5b50565b5f81359050610de281610dbe565b92915050565b5f5ffd5b5f5ffd5b5f5ffd5b5f5f83601f840112610e0957610e08610de8565b5b8235905067ffffffffffffffff811115610e2657610e25610dec565b5b602083019150836020820283011115610e4257610e41610df0565b5b9250929050565b5f5f5f5f5f5f60a08789031215610e6357610e62610d7a565b5b5f610e7089828a01610da1565b9650506020610e8189828a01610dd4565b9550506040610e9289828a01610da1565b9450506060610ea389828a01610dd4565b935050608087013567ffffffffffffffff811115610ec457610ec3610d7e565b5b610ed089828a01610df4565b92509250509295509295509295565b5f60208284031215610ef457610ef3610d7a565b5b5f610f0184828501610da1565b91505092915050565b5f73ffffffffffffffffffffffffffffffffffffffff82169050919050565b5f610f3382610f0a565b9050919050565b610f4381610f29565b82525050565b610f5281610db5565b82525050565b5f8115159050919050565b610f6c81610f58565b82525050565b610f7b81610d82565b82525050565b5f61010082019050610f955f83018b610f3a565b610fa2602083018a610f3a565b610faf6040830189610f49565b610fbc6060830188610f49565b610fc96080830187610f49565b610fd660a0830186610f63565b610fe360c0830185610f63565b610ff060e0830184610f72565b9998505050505050505050565b61100681610f29565b8114611010575f5ffd5b50565b5f8135905061102181610ffd565b92915050565b5f5f5f6060848603121561103e5761103d610d7a565b5b5f61104b86828701611013565b935050602061105c86828701610da1565b925050604061106d86828701610dd4565b9150509250925092565b5f60208201905061108a5f830184610f72565b92915050565b5f610120820190506110a45f83018c610f3a565b6110b1602083018b610f3a565b6110be604083018a610f49565b6110cb6060830189610f49565b6110d86080830188610f63565b6110e560a0830187610f63565b6110f260c0830186610f72565b6110ff60e0830185610f49565b61110d610100830184610f72565b9a9950505050505050505050565b5f82825260208201905092915050565b7f4e6f7420726563656976657200000000000000000000000000000000000000005f82015250565b5f61115f600c8361111b565b915061116a8261112b565b602082019050919050565b5f6020820190508181035f83015261118c81611153565b9050919050565b7f46756c6c79202077697468647261776e000000000000000000000000000000005f82015250565b5f6111c760108361111b565b91506111d282611193565b602082019050919050565b5f6020820190508181035f8301526111f4816111bb565b9050919050565b7f416c726561647920726566756e646564000000000000000000000000000000005f82015250565b5f61122f60108361111b565b915061123a826111fb565b602082019050919050565b5f6020820190508181035f83015261125c81611223565b9050919050565b7f54696d656c6f636b2065787069726564000000000000000000000000000000005f82015250565b5f61129760108361111b565b91506112a282611263565b602082019050919050565b5f6020820190508181035f8301526112c48161128b565b9050919050565b7f73656372657420616c72656164792075736564000000000000000000000000005f82015250565b5f6112ff60138361111b565b915061130a826112cb565b602082019050919050565b5f6020820190508181035f83015261132c816112f3565b9050919050565b7f5a65726f207769746864726177000000000000000000000000000000000000005f82015250565b5f611367600d8361111b565b915061137282611333565b602082019050919050565b5f6020820190508181035f8301526113948161135b565b9050919050565b7f4e487b71000000000000000000000000000000000000000000000000000000005f52601160045260245ffd5b5f6113d282610db5565b91506113dd83610db5565b92508282019050808211156113f5576113f461139b565b5b92915050565b7f4578636565647320746f74616c000000000000000000000000000000000000005f82015250565b5f61142f600d8361111b565b915061143a826113fb565b602082019050919050565b5f6020820190508181035f83015261145c81611423565b9050919050565b5f819050919050565b61147d61147882610d82565b611463565b82525050565b5f61148e828461146c565b60208201915081905092915050565b7f496e76616c69642070726f6f66000000000000000000000000000000000000005f82015250565b5f6114d1600d8361111b565b91506114dc8261149d565b602082019050919050565b5f6020820190508181035f8301526114fe816114c5565b9050919050565b5f6040820190506115185f830185610f49565b6115256020830184610f49565b9392505050565b7f4e6f742073656e646572000000000000000000000000000000000000000000005f82015250565b5f611560600a8361111b565b915061156b8261152c565b602082019050919050565b5f6020820190508181035f83015261158d81611554565b9050919050565b7f416c72656164792077697468647261776e0000000000000000000000000000005f82015250565b5f6115c860118361111b565b91506115d382611594565b602082019050919050565b5f6020820190508181035f8301526115f5816115bc565b9050919050565b5f61160682610db5565b915061161183610db5565b92508282039050818111156116295761162861139b565b5b92915050565b7f6e6f204554482073656e740000000000000000000000000000000000000000005f82015250565b5f611663600b8361111b565b915061166e8261162f565b602082019050919050565b5f6020820190508181035f83015261169081611657565b9050919050565b7f496e766c696420726563656976657200000000000000000000000000000000005f82015250565b5f6116cb600f8361111b565b91506116d682611697565b602082019050919050565b5f6020820190508181035f8301526116f8816116bf565b9050919050565b5f8160601b9050919050565b5f611715826116ff565b9050919050565b5f6117268261170b565b9050919050565b61173e61173982610f29565b61171c565b82525050565b5f819050919050565b61175e61175982610db5565b611744565b82525050565b5f61176f828961172d565b60148201915061177f828861172d565b60148201915061178f828761146c565b60208201915061179f828661174d565b6020820191506117af828561174d565b6020820191506117bf828461174d565b602082019150819050979650505050505050565b7f5377617020616c726561647920657869737473000000000000000000000000005f82015250565b5f61180760138361111b565b9150611812826117d3565b602082019050919050565b5f6020820190508181035f830152611834816117fb565b9050919050565b5f60608201905061184e5f830186610f49565b61185b6020830185610f49565b6118686040830184610f72565b949350505050565b7f4e487b71000000000000000000000000000000000000000000000000000000005f52603260045260245ffdfea2646970667358221220e0409940867ef6439133c85567c1c0e8c0087e28d0a2b6a12e4a8cb976f70bb664736f6c634300081e0033",
			"opcodes": "PUSH1 0x80 PUSH1 0x40 MSTORE CALLVALUE DUP1 ISZERO PUSH1 0xE JUMPI PUSH0 PUSH0 REVERT JUMPDEST POP PUSH1 0x1 PUSH0 DUP2 SWAP1 SSTORE POP PUSH2 0x18D3 DUP1 PUSH2 0x23 PUSH0 CODECOPY PUSH0 RETURN INVALID PUSH1 0x80 PUSH1 0x40 MSTORE PUSH1 0x4 CALLDATASIZE LT PUSH2 0x48 JUMPI PUSH0 CALLDATALOAD PUSH1 0xE0 SHR DUP1 PUSH3 0x3668B0 EQ PUSH2 0x4C JUMPI DUP1 PUSH4 0x3DA0E66E EQ PUSH2 0x74 JUMPI DUP1 PUSH4 0x7249FBB6 EQ PUSH2 0xB7 JUMPI DUP1 PUSH4 0x944EFF63 EQ PUSH2 0xDF JUMPI DUP1 PUSH4 0xEB84E7F2 EQ PUSH2 0x10F JUMPI JUMPDEST PUSH0 PUSH0 REVERT JUMPDEST CALLVALUE DUP1 ISZERO PUSH2 0x57 JUMPI PUSH0 PUSH0 REVERT JUMPDEST POP PUSH2 0x72 PUSH1 0x4 DUP1 CALLDATASIZE SUB DUP2 ADD SWAP1 PUSH2 0x6D SWAP2 SWAP1 PUSH2 0xE49 JUMP JUMPDEST PUSH2 0x153 JUMP JUMPDEST STOP JUMPDEST CALLVALUE DUP1 ISZERO PUSH2 0x7F JUMPI PUSH0 PUSH0 REVERT JUMPDEST POP PUSH2 0x9A PUSH1 0x4 DUP1 CALLDATASIZE SUB DUP2 ADD SWAP1 PUSH2 0x95 SWAP2 SWAP1 PUSH2 0xEDF JUMP JUMPDEST PUSH2 0x5AC JUMP JUMPDEST PUSH1 0x40 MLOAD PUSH2 0xAE SWAP9 SWAP8 SWAP7 SWAP6 SWAP5 SWAP4 SWAP3 SWAP2 SWAP1 PUSH2 0xF81 JUMP JUMPDEST PUSH1 0x40 MLOAD DUP1 SWAP2 SUB SWAP1 RETURN JUMPDEST CALLVALUE DUP1 ISZERO PUSH2 0xC2 JUMPI PUSH0 PUSH0 REVERT JUMPDEST POP PUSH2 0xDD PUSH1 0x4 DUP1 CALLDATASIZE SUB DUP2 ADD SWAP1 PUSH2 0xD8 SWAP2 SWAP1 PUSH2 0xEDF JUMP JUMPDEST PUSH2 0x662 JUMP JUMPDEST STOP JUMPDEST PUSH2 0xF9 PUSH1 0x4 DUP1 CALLDATASIZE SUB DUP2 ADD SWAP1 PUSH2 0xF4 SWAP2 SWAP1 PUSH2 0x1027 JUMP JUMPDEST PUSH2 0x8D9 JUMP JUMPDEST PUSH1 0x40 MLOAD PUSH2 0x106 SWAP2 SWAP1 PUSH2 0x1077 JUMP JUMPDEST PUSH1 0x40 MLOAD DUP1 SWAP2 SUB SWAP1 RETURN JUMPDEST CALLVALUE DUP1 ISZERO PUSH2 0x11A JUMPI PUSH0 PUSH0 REVERT JUMPDEST POP PUSH2 0x135 PUSH1 0x4 DUP1 CALLDATASIZE SUB DUP2 ADD SWAP1 PUSH2 0x130 SWAP2 SWAP1 PUSH2 0xEDF JUMP JUMPDEST PUSH2 0xBE3 JUMP JUMPDEST PUSH1 0x40 MLOAD PUSH2 0x14A SWAP10 SWAP9 SWAP8 SWAP7 SWAP6 SWAP5 SWAP4 SWAP3 SWAP2 SWAP1 PUSH2 0x1090 JUMP JUMPDEST PUSH1 0x40 MLOAD DUP1 SWAP2 SUB SWAP1 RETURN JUMPDEST PUSH2 0x15B PUSH2 0xC84 JUMP JUMPDEST PUSH0 PUSH1 0x1 PUSH0 DUP9 DUP2 MSTORE PUSH1 0x20 ADD SWAP1 DUP2 MSTORE PUSH1 0x20 ADD PUSH0 KECCAK256 SWAP1 POP CALLER PUSH20 0xFFFFFFFFFFFFFFFFFFFFFFFFFFFFFFFFFFFFFFFF AND DUP2 PUSH1 0x1 ADD PUSH0 SWAP1 SLOAD SWAP1 PUSH2 0x100 EXP SWAP1 DIV PUSH20 0xFFFFFFFFFFFFFFFFFFFFFFFFFFFFFFFFFFFFFFFF AND PUSH20 0xFFFFFFFFFFFFFFFFFFFFFFFFFFFFFFFFFFFFFFFF AND EQ PUSH2 0x200 JUMPI PUSH1 0x40 MLOAD PUSH32 0x8C379A000000000000000000000000000000000000000000000000000000000 DUP2 MSTORE PUSH1 0x4 ADD PUSH2 0x1F7 SWAP1 PUSH2 0x1175 JUMP JUMPDEST PUSH1 0x40 MLOAD DUP1 SWAP2 SUB SWAP1 REVERT JUMPDEST DUP1 PUSH1 0x4 ADD PUSH0 SWAP1 SLOAD SWAP1 PUSH2 0x100 EXP SWAP1 DIV PUSH1 0xFF AND ISZERO PUSH2 0x251 JUMPI PUSH1 0x40 MLOAD PUSH32 0x8C379A000000000000000000000000000000000000000000000000000000000 DUP2 MSTORE PUSH1 0x4 ADD PUSH2 0x248 SWAP1 PUSH2 0x11DD JUMP JUMPDEST PUSH1 0x40 MLOAD DUP1 SWAP2 SUB SWAP1 REVERT JUMPDEST DUP1 PUSH1 0x4 ADD PUSH1 0x1 SWAP1 SLOAD SWAP1 PUSH2 0x100 EXP SWAP1 DIV PUSH1 0xFF AND ISZERO PUSH2 0x2A3 JUMPI PUSH1 0x40 MLOAD PUSH32 0x8C379A000000000000000000000000000000000000000000000000000000000 DUP2 MSTORE PUSH1 0x4 ADD PUSH2 0x29A SWAP1 PUSH2 0x1245 JUMP JUMPDEST PUSH1 0x40 MLOAD DUP1 SWAP2 SUB SWAP1 REVERT JUMPDEST DUP1 PUSH1 0x3 ADD SLOAD TIMESTAMP GT ISZERO PUSH2 0x2EA JUMPI PUSH1 0x40 MLOAD PUSH32 0x8C379A000000000000000000000000000000000000000000000000000000000 DUP2 MSTORE PUSH1 0x4 ADD PUSH2 0x2E1 SWAP1 PUSH2 0x12AD JUMP JUMPDEST PUSH1 0x40 MLOAD DUP1 SWAP2 SUB SWAP1 REVERT JUMPDEST DUP1 PUSH1 0x8 ADD PUSH0 DUP8 DUP2 MSTORE PUSH1 0x20 ADD SWAP1 DUP2 MSTORE PUSH1 0x20 ADD PUSH0 KECCAK256 PUSH0 SWAP1 SLOAD SWAP1 PUSH2 0x100 EXP SWAP1 DIV PUSH1 0xFF AND ISZERO PUSH2 0x34A JUMPI PUSH1 0x40 MLOAD PUSH32 0x8C379A000000000000000000000000000000000000000000000000000000000 DUP2 MSTORE PUSH1 0x4 ADD PUSH2 0x341 SWAP1 PUSH2 0x1315 JUMP JUMPDEST PUSH1 0x40 MLOAD DUP1 SWAP2 SUB SWAP1 REVERT JUMPDEST PUSH0 DUP5 GT PUSH2 0x38C JUMPI PUSH1 0x40 MLOAD PUSH32 0x8C379A000000000000000000000000000000000000000000000000000000000 DUP2 MSTORE PUSH1 0x4 ADD PUSH2 0x383 SWAP1 PUSH2 0x137D JUMP JUMPDEST PUSH1 0x40 MLOAD DUP1 SWAP2 SUB SWAP1 REVERT JUMPDEST DUP1 PUSH1 0x2 ADD SLOAD DUP5 DUP3 PUSH1 0x6 ADD SLOAD PUSH2 0x3A1 SWAP2 SWAP1 PUSH2 0x13C8 JUMP JUMPDEST GT ISZERO PUSH2 0x3E2 JUMPI PUSH1 0x40 MLOAD PUSH32 0x8C379A000000000000000000000000000000000000000000000000000000000 DUP2 MSTORE PUSH1 0x4 ADD PUSH2 0x3D9 SWAP1 PUSH2 0x1445 JUMP JUMPDEST PUSH1 0x40 MLOAD DUP1 SWAP2 SUB SWAP1 REVERT JUMPDEST PUSH0 DUP6 PUSH1 0x40 MLOAD PUSH1 0x20 ADD PUSH2 0x3F4 SWAP2 SWAP1 PUSH2 0x1483 JUMP JUMPDEST PUSH1 0x40 MLOAD PUSH1 0x20 DUP2 DUP4 SUB SUB DUP2 MSTORE SWAP1 PUSH1 0x40 MSTORE DUP1 MLOAD SWAP1 PUSH1 0x20 ADD KECCAK256 SWAP1 POP PUSH2 0x41C DUP5 DUP5 DUP5 PUSH1 0x7 ADD SLOAD DUP5 PUSH2 0xCC8 JUMP JUMPDEST PUSH2 0x45B JUMPI PUSH1 0x40 MLOAD PUSH32 0x8C379A000000000000000000000000000000000000000000000000000000000 DUP2 MSTORE PUSH1 0x4 ADD PUSH2 0x452 SWAP1 PUSH2 0x14E7 JUMP JUMPDEST PUSH1 0x40 MLOAD DUP1 SWAP2 SUB SWAP1 REVERT JUMPDEST PUSH1 0x1 DUP3 PUSH1 0x8 ADD PUSH0 DUP10 DUP2 MSTORE PUSH1 0x20 ADD SWAP1 DUP2 MSTORE PUSH1 0x20 ADD PUSH0 KECCAK256 PUSH0 PUSH2 0x100 EXP DUP2 SLOAD DUP2 PUSH1 0xFF MUL NOT AND SWAP1 DUP4 ISZERO ISZERO MUL OR SWAP1 SSTORE POP DUP5 DUP3 PUSH1 0x6 ADD PUSH0 DUP3 DUP3 SLOAD PUSH2 0x499 SWAP2 SWAP1 PUSH2 0x13C8 JUMP JUMPDEST SWAP3 POP POP DUP2 SWAP1 SSTORE POP DUP2 PUSH1 0x1 ADD PUSH0 SWAP1 SLOAD SWAP1 PUSH2 0x100 EXP SWAP1 DIV PUSH20 0xFFFFFFFFFFFFFFFFFFFFFFFFFFFFFFFFFFFFFFFF AND PUSH20 0xFFFFFFFFFFFFFFFFFFFFFFFFFFFFFFFFFFFFFFFF AND PUSH2 0x8FC DUP7 SWAP1 DUP2 ISZERO MUL SWAP1 PUSH1 0x40 MLOAD PUSH0 PUSH1 0x40 MLOAD DUP1 DUP4 SUB DUP2 DUP6 DUP9 DUP9 CALL SWAP4 POP POP POP POP ISZERO DUP1 ISZERO PUSH2 0x506 JUMPI RETURNDATASIZE PUSH0 PUSH0 RETURNDATACOPY RETURNDATASIZE PUSH0 REVERT JUMPDEST POP DUP8 PUSH32 0xCA5B540B3DAA5D9B266DFBF04D6FCB0301717843077F98994E9A4AC0088E4A3 DUP7 DUP10 PUSH1 0x40 MLOAD PUSH2 0x539 SWAP3 SWAP2 SWAP1 PUSH2 0x1505 JUMP JUMPDEST PUSH1 0x40 MLOAD DUP1 SWAP2 SUB SWAP1 LOG2 DUP2 PUSH1 0x2 ADD SLOAD DUP3 PUSH1 0x6 ADD SLOAD LT PUSH2 0x59A JUMPI PUSH1 0x1 DUP3 PUSH1 0x4 ADD PUSH0 PUSH2 0x100 EXP DUP2 SLOAD DUP2 PUSH1 0xFF MUL NOT AND SWAP1 DUP4 ISZERO ISZERO MUL OR SWAP1 SSTORE POP DUP8 PUSH32 0x1C9E1A3C2781084195B6838791927140D8EAD9DDF7562FB4CAC1646AE3029579 PUSH1 0x40 MLOAD PUSH1 0x40 MLOAD DUP1 SWAP2 SUB SWAP1 LOG2 JUMPDEST POP POP PUSH2 0x5A4 PUSH2 0xCE0 JUMP JUMPDEST POP POP POP POP POP POP JUMP JUMPDEST PUSH0 PUSH0 PUSH0 PUSH0 PUSH0 PUSH0 PUSH0 PUSH0 PUSH0 PUSH1 0x1 PUSH0 DUP12 DUP2 MSTORE PUSH1 0x20 ADD SWAP1 DUP2 MSTORE PUSH1 0x20 ADD PUSH0 KECCAK256 SWAP1 POP DUP1 PUSH0 ADD PUSH0 SWAP1 SLOAD SWAP1 PUSH2 0x100 EXP SWAP1 DIV PUSH20 0xFFFFFFFFFFFFFFFFFFFFFFFFFFFFFFFFFFFFFFFF AND DUP2 PUSH1 0x1 ADD PUSH0 SWAP1 SLOAD SWAP1 PUSH2 0x100 EXP SWAP1 DIV PUSH20 0xFFFFFFFFFFFFFFFFFFFFFFFFFFFFFFFFFFFFFFFF AND DUP3 PUSH1 0x2 ADD SLOAD DUP4 PUSH1 0x6 ADD SLOAD DUP5 PUSH1 0x3 ADD SLOAD DUP6 PUSH1 0x4 ADD PUSH0 SWAP1 SLOAD SWAP1 PUSH2 0x100 EXP SWAP1 DIV PUSH1 0xFF AND DUP7 PUSH1 0x4 ADD PUSH1 0x1 SWAP1 SLOAD SWAP1 PUSH2 0x100 EXP SWAP1 DIV PUSH1 0xFF AND DUP8 PUSH1 0x7 ADD SLOAD SWAP9 POP SWAP9 POP SWAP9 POP SWAP9 POP SWAP9 POP SWAP9 POP SWAP9 POP SWAP9 POP POP SWAP2 SWAP4 SWAP6 SWAP8 POP SWAP2 SWAP4 SWAP6 SWAP8 JUMP JUMPDEST PUSH2 0x66A PUSH2 0xC84 JUMP JUMPDEST PUSH0 PUSH1 0x1 PUSH0 DUP4 DUP2 MSTORE PUSH1 0x20 ADD SWAP1 DUP2 MSTORE PUSH1 0x20 ADD PUSH0 KECCAK256 SWAP1 POP CALLER PUSH20 0xFFFFFFFFFFFFFFFFFFFFFFFFFFFFFFFFFFFFFFFF AND DUP2 PUSH0 ADD PUSH0 SWAP1 SLOAD SWAP1 PUSH2 0x100 EXP SWAP1 DIV PUSH20 0xFFFFFFFFFFFFFFFFFFFFFFFFFFFFFFFFFFFFFFFF AND PUSH20 0xFFFFFFFFFFFFFFFFFFFFFFFFFFFFFFFFFFFFFFFF AND EQ PUSH2 0x70E JUMPI PUSH1 0x40 MLOAD PUSH32 0x8C379A000000000000000000000000000000000000000000000000000000000 DUP2 MSTORE PUSH1 0x4 ADD PUSH2 0x705 SWAP1 PUSH2 0x1576 JUMP JUMPDEST PUSH1 0x40 MLOAD DUP1 SWAP2 SUB SWAP1 REVERT JUMPDEST DUP1 PUSH1 0x4 ADD PUSH0 SWAP1 SLOAD SWAP1 PUSH2 0x100 EXP SWAP1 DIV PUSH1 0xFF AND ISZERO PUSH2 0x75F JUMPI PUSH1 0x40 MLOAD PUSH32 0x8C379A000000000000000000000000000000000000000000000000000000000 DUP2 MSTORE PUSH1 0x4 ADD PUSH2 0x756 SWAP1 PUSH2 0x15DE JUMP JUMPDEST PUSH1 0x40 MLOAD DUP1 SWAP2 SUB SWAP1 REVERT JUMPDEST DUP1 PUSH1 0x4 ADD PUSH1 0x1 SWAP1 SLOAD SWAP1 PUSH2 0x100 EXP SWAP1 DIV PUSH1 0xFF AND ISZERO PUSH2 0x7B1 JUMPI PUSH1 0x40 MLOAD PUSH32 0x8C379A000000000000000000000000000000000000000000000000000000000 DUP2 MSTORE PUSH1 0x4 ADD PUSH2 0x7A8 SWAP1 PUSH2 0x1245 JUMP JUMPDEST PUSH1 0x40 MLOAD DUP1 SWAP2 SUB SWAP1 REVERT JUMPDEST DUP1 PUSH1 0x3 ADD SLOAD TIMESTAMP LT ISZERO PUSH2 0x7F8 JUMPI PUSH1 0x40 MLOAD PUSH32 0x8C379A000000000000000000000000000000000000000000000000000000000 DUP2 MSTORE PUSH1 0x4 ADD PUSH2 0x7EF SWAP1 PUSH2 0x12AD JUMP JUMPDEST PUSH1 0x40 MLOAD DUP1 SWAP2 SUB SWAP1 REVERT JUMPDEST PUSH1 0x1 DUP2 PUSH1 0x4 ADD PUSH1 0x1 PUSH2 0x100 EXP DUP2 SLOAD DUP2 PUSH1 0xFF MUL NOT AND SWAP1 DUP4 ISZERO ISZERO MUL OR SWAP1 SSTORE POP PUSH0 DUP2 PUSH1 0x6 ADD SLOAD DUP3 PUSH1 0x2 ADD SLOAD PUSH2 0x82A SWAP2 SWAP1 PUSH2 0x15FC JUMP JUMPDEST SWAP1 POP PUSH0 DUP2 GT ISZERO PUSH2 0x89F JUMPI DUP2 PUSH0 ADD PUSH0 SWAP1 SLOAD SWAP1 PUSH2 0x100 EXP SWAP1 DIV PUSH20 0xFFFFFFFFFFFFFFFFFFFFFFFFFFFFFFFFFFFFFFFF AND PUSH20 0xFFFFFFFFFFFFFFFFFFFFFFFFFFFFFFFFFFFFFFFF AND PUSH2 0x8FC DUP4 PUSH1 0x2 ADD SLOAD SWAP1 DUP2 ISZERO MUL SWAP1 PUSH1 0x40 MLOAD PUSH0 PUSH1 0x40 MLOAD DUP1 DUP4 SUB DUP2 DUP6 DUP9 DUP9 CALL SWAP4 POP POP POP POP ISZERO DUP1 ISZERO PUSH2 0x89D JUMPI RETURNDATASIZE PUSH0 PUSH0 RETURNDATACOPY RETURNDATASIZE PUSH0 REVERT JUMPDEST POP JUMPDEST DUP3 PUSH32 0xFE509803C09416B28FF3D8F690C8B0C61462A892C46D5430C8FB20ABE472DAF0 PUSH1 0x40 MLOAD PUSH1 0x40 MLOAD DUP1 SWAP2 SUB SWAP1 LOG2 POP POP PUSH2 0x8D6 PUSH2 0xCE0 JUMP JUMPDEST POP JUMP JUMPDEST PUSH0 PUSH2 0x8E2 PUSH2 0xC84 JUMP JUMPDEST PUSH0 CALLVALUE GT PUSH2 0x924 JUMPI PUSH1 0x40 MLOAD PUSH32 0x8C379A000000000000000000000000000000000000000000000000000000000 DUP2 MSTORE PUSH1 0x4 ADD PUSH2 0x91B SWAP1 PUSH2 0x1679 JUMP JUMPDEST PUSH1 0x40 MLOAD DUP1 SWAP2 SUB SWAP1 REVERT JUMPDEST PUSH0 PUSH20 0xFFFFFFFFFFFFFFFFFFFFFFFFFFFFFFFFFFFFFFFF AND DUP5 PUSH20 0xFFFFFFFFFFFFFFFFFFFFFFFFFFFFFFFFFFFFFFFF AND SUB PUSH2 0x992 JUMPI PUSH1 0x40 MLOAD PUSH32 0x8C379A000000000000000000000000000000000000000000000000000000000 DUP2 MSTORE PUSH1 0x4 ADD PUSH2 0x989 SWAP1 PUSH2 0x16E1 JUMP JUMPDEST PUSH1 0x40 MLOAD DUP1 SWAP2 SUB SWAP1 REVERT JUMPDEST PUSH0 DUP3 TIMESTAMP PUSH2 0x99F SWAP2 SWAP1 PUSH2 0x13C8 JUMP JUMPDEST SWAP1 POP CALLER DUP6 DUP6 CALLVALUE DUP5 NUMBER PUSH1 0x40 MLOAD PUSH1 0x20 ADD PUSH2 0x9BC SWAP7 SWAP6 SWAP5 SWAP4 SWAP3 SWAP2 SWAP1 PUSH2 0x1764 JUMP JUMPDEST PUSH1 0x40 MLOAD PUSH1 0x20 DUP2 DUP4 SUB SUB DUP2 MSTORE SWAP1 PUSH1 0x40 MSTORE DUP1 MLOAD SWAP1 PUSH1 0x20 ADD KECCAK256 SWAP2 POP PUSH0 PUSH20 0xFFFFFFFFFFFFFFFFFFFFFFFFFFFFFFFFFFFFFFFF AND PUSH1 0x1 PUSH0 DUP5 DUP2 MSTORE PUSH1 0x20 ADD SWAP1 DUP2 MSTORE PUSH1 0x20 ADD PUSH0 KECCAK256 PUSH0 ADD PUSH0 SWAP1 SLOAD SWAP1 PUSH2 0x100 EXP SWAP1 DIV PUSH20 0xFFFFFFFFFFFFFFFFFFFFFFFFFFFFFFFFFFFFFFFF AND PUSH20 0xFFFFFFFFFFFFFFFFFFFFFFFFFFFFFFFFFFFFFFFF AND EQ PUSH2 0xA74 JUMPI PUSH1 0x40 MLOAD PUSH32 0x8C379A000000000000000000000000000000000000000000000000000000000 DUP2 MSTORE PUSH1 0x4 ADD PUSH2 0xA6B SWAP1 PUSH2 0x181D JUMP JUMPDEST PUSH1 0x40 MLOAD DUP1 SWAP2 SUB SWAP1 REVERT JUMPDEST PUSH0 PUSH1 0x1 PUSH0 DUP5 DUP2 MSTORE PUSH1 0x20 ADD SWAP1 DUP2 MSTORE PUSH1 0x20 ADD PUSH0 KECCAK256 SWAP1 POP CALLER DUP2 PUSH0 ADD PUSH0 PUSH2 0x100 EXP DUP2 SLOAD DUP2 PUSH20 0xFFFFFFFFFFFFFFFFFFFFFFFFFFFFFFFFFFFFFFFF MUL NOT AND SWAP1 DUP4 PUSH20 0xFFFFFFFFFFFFFFFFFFFFFFFFFFFFFFFFFFFFFFFF AND MUL OR SWAP1 SSTORE POP DUP6 DUP2 PUSH1 0x1 ADD PUSH0 PUSH2 0x100 EXP DUP2 SLOAD DUP2 PUSH20 0xFFFFFFFFFFFFFFFFFFFFFFFFFFFFFFFFFFFFFFFF MUL NOT AND SWAP1 DUP4 PUSH20 0xFFFFFFFFFFFFFFFFFFFFFFFFFFFFFFFFFFFFFFFF AND MUL OR SWAP1 SSTORE POP CALLVALUE DUP2 PUSH1 0x2 ADD DUP2 SWAP1 SSTORE POP DUP2 DUP2 PUSH1 0x3 ADD DUP2 SWAP1 SSTORE POP DUP5 DUP2 PUSH1 0x7 ADD DUP2 SWAP1 SSTORE POP PUSH0 DUP2 PUSH1 0x4 ADD PUSH0 PUSH2 0x100 EXP DUP2 SLOAD DUP2 PUSH1 0xFF MUL NOT AND SWAP1 DUP4 ISZERO ISZERO MUL OR SWAP1 SSTORE POP PUSH0 DUP2 PUSH1 0x4 ADD PUSH1 0x1 PUSH2 0x100 EXP DUP2 SLOAD DUP2 PUSH1 0xFF MUL NOT AND SWAP1 DUP4 ISZERO ISZERO MUL OR SWAP1 SSTORE POP PUSH0 PUSH0 SHL DUP2 PUSH1 0x5 ADD DUP2 SWAP1 SSTORE POP DUP6 PUSH20 0xFFFFFFFFFFFFFFFFFFFFFFFFFFFFFFFFFFFFFFFF AND CALLER PUSH20 0xFFFFFFFFFFFFFFFFFFFFFFFFFFFFFFFFFFFFFFFF AND DUP5 PUSH32 0xC35D7A5AD43FD14FE3D5652B28C58B33108DE061C81FD30AE23BF53B9DAC2CE5 CALLVALUE DUP7 DUP11 PUSH1 0x40 MLOAD PUSH2 0xBCA SWAP4 SWAP3 SWAP2 SWAP1 PUSH2 0x183B JUMP JUMPDEST PUSH1 0x40 MLOAD DUP1 SWAP2 SUB SWAP1 LOG4 POP POP PUSH2 0xBDC PUSH2 0xCE0 JUMP JUMPDEST SWAP4 SWAP3 POP POP POP JUMP JUMPDEST PUSH1 0x1 PUSH1 0x20 MSTORE DUP1 PUSH0 MSTORE PUSH1 0x40 PUSH0 KECCAK256 PUSH0 SWAP2 POP SWAP1 POP DUP1 PUSH0 ADD PUSH0 SWAP1 SLOAD SWAP1 PUSH2 0x100 EXP SWAP1 DIV PUSH20 0xFFFFFFFFFFFFFFFFFFFFFFFFFFFFFFFFFFFFFFFF AND SWAP1 DUP1 PUSH1 0x1 ADD PUSH0 SWAP1 SLOAD SWAP1 PUSH2 0x100 EXP SWAP1 DIV PUSH20 0xFFFFFFFFFFFFFFFFFFFFFFFFFFFFFFFFFFFFFFFF AND SWAP1 DUP1 PUSH1 0x2 ADD SLOAD SWAP1 DUP1 PUSH1 0x3 ADD SLOAD SWAP1 DUP1 PUSH1 0x4 ADD PUSH0 SWAP1 SLOAD SWAP1 PUSH2 0x100 EXP SWAP1 DIV PUSH1 0xFF AND SWAP1 DUP1 PUSH1 0x4 ADD PUSH1 0x1 SWAP1 SLOAD SWAP1 PUSH2 0x100 EXP SWAP1 DIV PUSH1 0xFF AND SWAP1 DUP1 PUSH1 0x5 ADD SLOAD SWAP1 DUP1 PUSH1 0x6 ADD SLOAD SWAP1 DUP1 PUSH1 0x7 ADD SLOAD SWAP1 POP DUP10 JUMP JUMPDEST PUSH1 0x2 PUSH0 SLOAD SUB PUSH2 0xCBF JUMPI PUSH1 0x40 MLOAD PUSH32 0x3EE5AEB500000000000000000000000000000000000000000000000000000000 DUP2 MSTORE PUSH1 0x4 ADD PUSH1 0x40 MLOAD DUP1 SWAP2 SUB SWAP1 REVERT JUMPDEST PUSH1 0x2 PUSH0 DUP2 SWAP1 SSTORE POP JUMP JUMPDEST PUSH0 DUP3 PUSH2 0xCD5 DUP7 DUP7 DUP6 PUSH2 0xCE9 JUMP JUMPDEST EQ SWAP1 POP SWAP5 SWAP4 POP POP POP POP JUMP JUMPDEST PUSH1 0x1 PUSH0 DUP2 SWAP1 SSTORE POP JUMP JUMPDEST PUSH0 PUSH0 DUP3 SWAP1 POP PUSH0 PUSH0 SWAP1 POP JUMPDEST DUP6 DUP6 SWAP1 POP DUP2 LT ISZERO PUSH2 0xD30 JUMPI PUSH2 0xD21 DUP3 DUP8 DUP8 DUP5 DUP2 DUP2 LT PUSH2 0xD15 JUMPI PUSH2 0xD14 PUSH2 0x1870 JUMP JUMPDEST JUMPDEST SWAP1 POP PUSH1 0x20 MUL ADD CALLDATALOAD PUSH2 0xD3C JUMP JUMPDEST SWAP2 POP DUP1 DUP1 PUSH1 0x1 ADD SWAP2 POP POP PUSH2 0xCF3 JUMP JUMPDEST POP DUP1 SWAP2 POP POP SWAP4 SWAP3 POP POP POP JUMP JUMPDEST PUSH0 DUP2 DUP4 LT PUSH2 0xD53 JUMPI PUSH2 0xD4E DUP3 DUP5 PUSH2 0xD66 JUMP JUMPDEST PUSH2 0xD5E JUMP JUMPDEST PUSH2 0xD5D DUP4 DUP4 PUSH2 0xD66 JUMP JUMPDEST JUMPDEST SWAP1 POP SWAP3 SWAP2 POP POP JUMP JUMPDEST PUSH0 DUP3 PUSH0 MSTORE DUP2 PUSH1 0x20 MSTORE PUSH1 0x40 PUSH0 KECCAK256 SWAP1 POP SWAP3 SWAP2 POP POP JUMP JUMPDEST PUSH0 PUSH0 REVERT JUMPDEST PUSH0 PUSH0 REVERT JUMPDEST PUSH0 DUP2 SWAP1 POP SWAP2 SWAP1 POP JUMP JUMPDEST PUSH2 0xD94 DUP2 PUSH2 0xD82 JUMP JUMPDEST DUP2 EQ PUSH2 0xD9E JUMPI PUSH0 PUSH0 REVERT JUMPDEST POP JUMP JUMPDEST PUSH0 DUP2 CALLDATALOAD SWAP1 POP PUSH2 0xDAF DUP2 PUSH2 0xD8B JUMP JUMPDEST SWAP3 SWAP2 POP POP JUMP JUMPDEST PUSH0 DUP2 SWAP1 POP SWAP2 SWAP1 POP JUMP JUMPDEST PUSH2 0xDC7 DUP2 PUSH2 0xDB5 JUMP JUMPDEST DUP2 EQ PUSH2 0xDD1 JUMPI PUSH0 PUSH0 REVERT JUMPDEST POP JUMP JUMPDEST PUSH0 DUP2 CALLDATALOAD SWAP1 POP PUSH2 0xDE2 DUP2 PUSH2 0xDBE JUMP JUMPDEST SWAP3 SWAP2 POP POP JUMP JUMPDEST PUSH0 PUSH0 REVERT JUMPDEST PUSH0 PUSH0 REVERT JUMPDEST PUSH0 PUSH0 REVERT JUMPDEST PUSH0 PUSH0 DUP4 PUSH1 0x1F DUP5 ADD SLT PUSH2 0xE09 JUMPI PUSH2 0xE08 PUSH2 0xDE8 JUMP JUMPDEST JUMPDEST DUP3 CALLDATALOAD SWAP1 POP PUSH8 0xFFFFFFFFFFFFFFFF DUP2 GT ISZERO PUSH2 0xE26 JUMPI PUSH2 0xE25 PUSH2 0xDEC JUMP JUMPDEST JUMPDEST PUSH1 0x20 DUP4 ADD SWAP2 POP DUP4 PUSH1 0x20 DUP3 MUL DUP4 ADD GT ISZERO PUSH2 0xE42 JUMPI PUSH2 0xE41 PUSH2 0xDF0 JUMP JUMPDEST JUMPDEST SWAP3 POP SWAP3 SWAP1 POP JUMP JUMPDEST PUSH0 PUSH0 PUSH0 PUSH0 PUSH0 PUSH0 PUSH1 0xA0 DUP8 DUP10 SUB SLT ISZERO PUSH2 0xE63 JUMPI PUSH2 0xE62 PUSH2 0xD7A JUMP JUMPDEST JUMPDEST PUSH0 PUSH2 0xE70 DUP10 DUP3 DUP11 ADD PUSH2 0xDA1 JUMP JUMPDEST SWAP7 POP POP PUSH1 0x20 PUSH2 0xE81 DUP10 DUP3 DUP11 ADD PUSH2 0xDD4 JUMP JUMPDEST SWAP6 POP POP PUSH1 0x40 PUSH2 0xE92 DUP10 DUP3 DUP11 ADD PUSH2 0xDA1 JUMP JUMPDEST SWAP5 POP POP PUSH1 0x60 PUSH2 0xEA3 DUP10 DUP3 DUP11 ADD PUSH2 0xDD4 JUMP JUMPDEST SWAP4 POP POP PUSH1 0x80 DUP8 ADD CALLDATALOAD PUSH8 0xFFFFFFFFFFFFFFFF DUP2 GT ISZERO PUSH2 0xEC4 JUMPI PUSH2 0xEC3 PUSH2 0xD7E JUMP JUMPDEST JUMPDEST PUSH2 0xED0 DUP10 DUP3 DUP11 ADD PUSH2 0xDF4 JUMP JUMPDEST SWAP3 POP SWAP3 POP POP SWAP3 SWAP6 POP SWAP3 SWAP6 POP SWAP3 SWAP6 JUMP JUMPDEST PUSH0 PUSH1 0x20 DUP3 DUP5 SUB SLT ISZERO PUSH2 0xEF4 JUMPI PUSH2 0xEF3 PUSH2 0xD7A JUMP JUMPDEST JUMPDEST PUSH0 PUSH2 0xF01 DUP5 DUP3 DUP6 ADD PUSH2 0xDA1 JUMP JUMPDEST SWAP2 POP POP SWAP3 SWAP2 POP POP JUMP JUMPDEST PUSH0 PUSH20 0xFFFFFFFFFFFFFFFFFFFFFFFFFFFFFFFFFFFFFFFF DUP3 AND SWAP1 POP SWAP2 SWAP1 POP JUMP JUMPDEST PUSH0 PUSH2 0xF33 DUP3 PUSH2 0xF0A JUMP JUMPDEST SWAP1 POP SWAP2 SWAP1 POP JUMP JUMPDEST PUSH2 0xF43 DUP2 PUSH2 0xF29 JUMP JUMPDEST DUP3 MSTORE POP POP JUMP JUMPDEST PUSH2 0xF52 DUP2 PUSH2 0xDB5 JUMP JUMPDEST DUP3 MSTORE POP POP JUMP JUMPDEST PUSH0 DUP2 ISZERO ISZERO SWAP1 POP SWAP2 SWAP1 POP JUMP JUMPDEST PUSH2 0xF6C DUP2 PUSH2 0xF58 JUMP JUMPDEST DUP3 MSTORE POP POP JUMP JUMPDEST PUSH2 0xF7B DUP2 PUSH2 0xD82 JUMP JUMPDEST DUP3 MSTORE POP POP JUMP JUMPDEST PUSH0 PUSH2 0x100 DUP3 ADD SWAP1 POP PUSH2 0xF95 PUSH0 DUP4 ADD DUP12 PUSH2 0xF3A JUMP JUMPDEST PUSH2 0xFA2 PUSH1 0x20 DUP4 ADD DUP11 PUSH2 0xF3A JUMP JUMPDEST PUSH2 0xFAF PUSH1 0x40 DUP4 ADD DUP10 PUSH2 0xF49 JUMP JUMPDEST PUSH2 0xFBC PUSH1 0x60 DUP4 ADD DUP9 PUSH2 0xF49 JUMP JUMPDEST PUSH2 0xFC9 PUSH1 0x80 DUP4 ADD DUP8 PUSH2 0xF49 JUMP JUMPDEST PUSH2 0xFD6 PUSH1 0xA0 DUP4 ADD DUP7 PUSH2 0xF63 JUMP JUMPDEST PUSH2 0xFE3 PUSH1 0xC0 DUP4 ADD DUP6 PUSH2 0xF63 JUMP JUMPDEST PUSH2 0xFF0 PUSH1 0xE0 DUP4 ADD DUP5 PUSH2 0xF72 JUMP JUMPDEST SWAP10 SWAP9 POP POP POP POP POP POP POP POP POP JUMP JUMPDEST PUSH2 0x1006 DUP2 PUSH2 0xF29 JUMP JUMPDEST DUP2 EQ PUSH2 0x1010 JUMPI PUSH0 PUSH0 REVERT JUMPDEST POP JUMP JUMPDEST PUSH0 DUP2 CALLDATALOAD SWAP1 POP PUSH2 0x1021 DUP2 PUSH2 0xFFD JUMP JUMPDEST SWAP3 SWAP2 POP POP JUMP JUMPDEST PUSH0 PUSH0 PUSH0 PUSH1 0x60 DUP5 DUP7 SUB SLT ISZERO PUSH2 0x103E JUMPI PUSH2 0x103D PUSH2 0xD7A JUMP JUMPDEST JUMPDEST PUSH0 PUSH2 0x104B DUP7 DUP3 DUP8 ADD PUSH2 0x1013 JUMP JUMPDEST SWAP4 POP POP PUSH1 0x20 PUSH2 0x105C DUP7 DUP3 DUP8 ADD PUSH2 0xDA1 JUMP JUMPDEST SWAP3 POP POP PUSH1 0x40 PUSH2 0x106D DUP7 DUP3 DUP8 ADD PUSH2 0xDD4 JUMP JUMPDEST SWAP2 POP POP SWAP3 POP SWAP3 POP SWAP3 JUMP JUMPDEST PUSH0 PUSH1 0x20 DUP3 ADD SWAP1 POP PUSH2 0x108A PUSH0 DUP4 ADD DUP5 PUSH2 0xF72 JUMP JUMPDEST SWAP3 SWAP2 POP POP JUMP JUMPDEST PUSH0 PUSH2 0x120 DUP3 ADD SWAP1 POP PUSH2 0x10A4 PUSH0 DUP4 ADD DUP13 PUSH2 0xF3A JUMP JUMPDEST PUSH2 0x10B1 PUSH1 0x20 DUP4 ADD DUP12 PUSH2 0xF3A JUMP JUMPDEST PUSH2 0x10BE PUSH1 0x40 DUP4 ADD DUP11 PUSH2 0xF49 JUMP JUMPDEST PUSH2 0x10CB PUSH1 0x60 DUP4 ADD DUP10 PUSH2 0xF49 JUMP JUMPDEST PUSH2 0x10D8 PUSH1 0x80 DUP4 ADD DUP9 PUSH2 0xF63 JUMP JUMPDEST PUSH2 0x10E5 PUSH1 0xA0 DUP4 ADD DUP8 PUSH2 0xF63 JUMP JUMPDEST PUSH2 0x10F2 PUSH1 0xC0 DUP4 ADD DUP7 PUSH2 0xF72 JUMP JUMPDEST PUSH2 0x10FF PUSH1 0xE0 DUP4 ADD DUP6 PUSH2 0xF49 JUMP JUMPDEST PUSH2 0x110D PUSH2 0x100 DUP4 ADD DUP5 PUSH2 0xF72 JUMP JUMPDEST SWAP11 SWAP10 POP POP POP POP POP POP POP POP POP POP JUMP JUMPDEST PUSH0 DUP3 DUP3 MSTORE PUSH1 0x20 DUP3 ADD SWAP1 POP SWAP3 SWAP2 POP POP JUMP JUMPDEST PUSH32 0x4E6F742072656365697665720000000000000000000000000000000000000000 PUSH0 DUP3 ADD MSTORE POP JUMP JUMPDEST PUSH0 PUSH2 0x115F PUSH1 0xC DUP4 PUSH2 0x111B JUMP JUMPDEST SWAP2 POP PUSH2 0x116A DUP3 PUSH2 0x112B JUMP JUMPDEST PUSH1 0x20 DUP3 ADD SWAP1 POP SWAP2 SWAP1 POP JUMP JUMPDEST PUSH0 PUSH1 0x20 DUP3 ADD SWAP1 POP DUP2 DUP2 SUB PUSH0 DUP4 ADD MSTORE PUSH2 0x118C DUP2 PUSH2 0x1153 JUMP JUMPDEST SWAP1 POP SWAP2 SWAP1 POP JUMP JUMPDEST PUSH32 0x46756C6C79202077697468647261776E00000000000000000000000000000000 PUSH0 DUP3 ADD MSTORE POP JUMP JUMPDEST PUSH0 PUSH2 0x11C7 PUSH1 0x10 DUP4 PUSH2 0x111B JUMP JUMPDEST SWAP2 POP PUSH2 0x11D2 DUP3 PUSH2 0x1193 JUMP JUMPDEST PUSH1 0x20 DUP3 ADD SWAP1 POP SWAP2 SWAP1 POP JUMP JUMPDEST PUSH0 PUSH1 0x20 DUP3 ADD SWAP1 POP DUP2 DUP2 SUB PUSH0 DUP4 ADD MSTORE PUSH2 0x11F4 DUP2 PUSH2 0x11BB JUMP JUMPDEST SWAP1 POP SWAP2 SWAP1 POP JUMP JUMPDEST PUSH32 0x416C726561647920726566756E64656400000000000000000000000000000000 PUSH0 DUP3 ADD MSTORE POP JUMP JUMPDEST PUSH0 PUSH2 0x122F PUSH1 0x10 DUP4 PUSH2 0x111B JUMP JUMPDEST SWAP2 POP PUSH2 0x123A DUP3 PUSH2 0x11FB JUMP JUMPDEST PUSH1 0x20 DUP3 ADD SWAP1 POP SWAP2 SWAP1 POP JUMP JUMPDEST PUSH0 PUSH1 0x20 DUP3 ADD SWAP1 POP DUP2 DUP2 SUB PUSH0 DUP4 ADD MSTORE PUSH2 0x125C DUP2 PUSH2 0x1223 JUMP JUMPDEST SWAP1 POP SWAP2 SWAP1 POP JUMP JUMPDEST PUSH32 0x54696D656C6F636B206578706972656400000000000000000000000000000000 PUSH0 DUP3 ADD MSTORE POP JUMP JUMPDEST PUSH0 PUSH2 0x1297 PUSH1 0x10 DUP4 PUSH2 0x111B JUMP JUMPDEST SWAP2 POP PUSH2 0x12A2 DUP3 PUSH2 0x1263 JUMP JUMPDEST PUSH1 0x20 DUP3 ADD SWAP1 POP SWAP2 SWAP1 POP JUMP JUMPDEST PUSH0 PUSH1 0x20 DUP3 ADD SWAP1 POP DUP2 DUP2 SUB PUSH0 DUP4 ADD MSTORE PUSH2 0x12C4 DUP2 PUSH2 0x128B JUMP JUMPDEST SWAP1 POP SWAP2 SWAP1 POP JUMP JUMPDEST PUSH32 0x73656372657420616C7265616479207573656400000000000000000000000000 PUSH0 DUP3 ADD MSTORE POP JUMP JUMPDEST PUSH0 PUSH2 0x12FF PUSH1 0x13 DUP4 PUSH2 0x111B JUMP JUMPDEST SWAP2 POP PUSH2 0x130A DUP3 PUSH2 0x12CB JUMP JUMPDEST PUSH1 0x20 DUP3 ADD SWAP1 POP SWAP2 SWAP1 POP JUMP JUMPDEST PUSH0 PUSH1 0x20 DUP3 ADD SWAP1 POP DUP2 DUP2 SUB PUSH0 DUP4 ADD MSTORE PUSH2 0x132C DUP2 PUSH2 0x12F3 JUMP JUMPDEST SWAP1 POP SWAP2 SWAP1 POP JUMP JUMPDEST PUSH32 0x5A65726F20776974686472617700000000000000000000000000000000000000 PUSH0 DUP3 ADD MSTORE POP JUMP JUMPDEST PUSH0 PUSH2 0x1367 PUSH1 0xD DUP4 PUSH2 0x111B JUMP JUMPDEST SWAP2 POP PUSH2 0x1372 DUP3 PUSH2 0x1333 JUMP JUMPDEST PUSH1 0x20 DUP3 ADD SWAP1 POP SWAP2 SWAP1 POP JUMP JUMPDEST PUSH0 PUSH1 0x20 DUP3 ADD SWAP1 POP DUP2 DUP2 SUB PUSH0 DUP4 ADD MSTORE PUSH2 0x1394 DUP2 PUSH2 0x135B JUMP JUMPDEST SWAP1 POP SWAP2 SWAP1 POP JUMP JUMPDEST PUSH32 0x4E487B7100000000000000000000000000000000000000000000000000000000 PUSH0 MSTORE PUSH1 0x11 PUSH1 0x4 MSTORE PUSH1 0x24 PUSH0 REVERT JUMPDEST PUSH0 PUSH2 0x13D2 DUP3 PUSH2 0xDB5 JUMP JUMPDEST SWAP2 POP PUSH2 0x13DD DUP4 PUSH2 0xDB5 JUMP JUMPDEST SWAP3 POP DUP3 DUP3 ADD SWAP1 POP DUP1 DUP3 GT ISZERO PUSH2 0x13F5 JUMPI PUSH2 0x13F4 PUSH2 0x139B JUMP JUMPDEST JUMPDEST SWAP3 SWAP2 POP POP JUMP JUMPDEST PUSH32 0x4578636565647320746F74616C00000000000000000000000000000000000000 PUSH0 DUP3 ADD MSTORE POP JUMP JUMPDEST PUSH0 PUSH2 0x142F PUSH1 0xD DUP4 PUSH2 0x111B JUMP JUMPDEST SWAP2 POP PUSH2 0x143A DUP3 PUSH2 0x13FB JUMP JUMPDEST PUSH1 0x20 DUP3 ADD SWAP1 POP SWAP2 SWAP1 POP JUMP JUMPDEST PUSH0 PUSH1 0x20 DUP3 ADD SWAP1 POP DUP2 DUP2 SUB PUSH0 DUP4 ADD MSTORE PUSH2 0x145C DUP2 PUSH2 0x1423 JUMP JUMPDEST SWAP1 POP SWAP2 SWAP1 POP JUMP JUMPDEST PUSH0 DUP2 SWAP1 POP SWAP2 SWAP1 POP JUMP JUMPDEST PUSH2 0x147D PUSH2 0x1478 DUP3 PUSH2 0xD82 JUMP JUMPDEST PUSH2 0x1463 JUMP JUMPDEST DUP3 MSTORE POP POP JUMP JUMPDEST PUSH0 PUSH2 0x148E DUP3 DUP5 PUSH2 0x146C JUMP JUMPDEST PUSH1 0x20 DUP3 ADD SWAP2 POP DUP2 SWAP1 POP SWAP3 SWAP2 POP POP JUMP JUMPDEST PUSH32 0x496E76616C69642070726F6F6600000000000000000000000000000000000000 PUSH0 DUP3 ADD MSTORE POP JUMP JUMPDEST PUSH0 PUSH2 0x14D1 PUSH1 0xD DUP4 PUSH2 0x111B JUMP JUMPDEST SWAP2 POP PUSH2 0x14DC DUP3 PUSH2 0x149D JUMP JUMPDEST PUSH1 0x20 DUP3 ADD SWAP1 POP SWAP2 SWAP1 POP JUMP JUMPDEST PUSH0 PUSH1 0x20 DUP3 ADD SWAP1 POP DUP2 DUP2 SUB PUSH0 DUP4 ADD MSTORE PUSH2 0x14FE DUP2 PUSH2 0x14C5 JUMP JUMPDEST SWAP1 POP SWAP2 SWAP1 POP JUMP JUMPDEST PUSH0 PUSH1 0x40 DUP3 ADD SWAP1 POP PUSH2 0x1518 PUSH0 DUP4 ADD DUP6 PUSH2 0xF49 JUMP JUMPDEST PUSH2 0x1525 PUSH1 0x20 DUP4 ADD DUP5 PUSH2 0xF49 JUMP JUMPDEST SWAP4 SWAP3 POP POP POP JUMP JUMPDEST PUSH32 0x4E6F742073656E64657200000000000000000000000000000000000000000000 PUSH0 DUP3 ADD MSTORE POP JUMP JUMPDEST PUSH0 PUSH2 0x1560 PUSH1 0xA DUP4 PUSH2 0x111B JUMP JUMPDEST SWAP2 POP PUSH2 0x156B DUP3 PUSH2 0x152C JUMP JUMPDEST PUSH1 0x20 DUP3 ADD SWAP1 POP SWAP2 SWAP1 POP JUMP JUMPDEST PUSH0 PUSH1 0x20 DUP3 ADD SWAP1 POP DUP2 DUP2 SUB PUSH0 DUP4 ADD MSTORE PUSH2 0x158D DUP2 PUSH2 0x1554 JUMP JUMPDEST SWAP1 POP SWAP2 SWAP1 POP JUMP JUMPDEST PUSH32 0x416C72656164792077697468647261776E000000000000000000000000000000 PUSH0 DUP3 ADD MSTORE POP JUMP JUMPDEST PUSH0 PUSH2 0x15C8 PUSH1 0x11 DUP4 PUSH2 0x111B JUMP JUMPDEST SWAP2 POP PUSH2 0x15D3 DUP3 PUSH2 0x1594 JUMP JUMPDEST PUSH1 0x20 DUP3 ADD SWAP1 POP SWAP2 SWAP1 POP JUMP JUMPDEST PUSH0 PUSH1 0x20 DUP3 ADD SWAP1 POP DUP2 DUP2 SUB PUSH0 DUP4 ADD MSTORE PUSH2 0x15F5 DUP2 PUSH2 0x15BC JUMP JUMPDEST SWAP1 POP SWAP2 SWAP1 POP JUMP JUMPDEST PUSH0 PUSH2 0x1606 DUP3 PUSH2 0xDB5 JUMP JUMPDEST SWAP2 POP PUSH2 0x1611 DUP4 PUSH2 0xDB5 JUMP JUMPDEST SWAP3 POP DUP3 DUP3 SUB SWAP1 POP DUP2 DUP2 GT ISZERO PUSH2 0x1629 JUMPI PUSH2 0x1628 PUSH2 0x139B JUMP JUMPDEST JUMPDEST SWAP3 SWAP2 POP POP JUMP JUMPDEST PUSH32 0x6E6F204554482073656E74000000000000000000000000000000000000000000 PUSH0 DUP3 ADD MSTORE POP JUMP JUMPDEST PUSH0 PUSH2 0x1663 PUSH1 0xB DUP4 PUSH2 0x111B JUMP JUMPDEST SWAP2 POP PUSH2 0x166E DUP3 PUSH2 0x162F JUMP JUMPDEST PUSH1 0x20 DUP3 ADD SWAP1 POP SWAP2 SWAP1 POP JUMP JUMPDEST PUSH0 PUSH1 0x20 DUP3 ADD SWAP1 POP DUP2 DUP2 SUB PUSH0 DUP4 ADD MSTORE PUSH2 0x1690 DUP2 PUSH2 0x1657 JUMP JUMPDEST SWAP1 POP SWAP2 SWAP1 POP JUMP JUMPDEST PUSH32 0x496E766C69642072656365697665720000000000000000000000000000000000 PUSH0 DUP3 ADD MSTORE POP JUMP JUMPDEST PUSH0 PUSH2 0x16CB PUSH1 0xF DUP4 PUSH2 0x111B JUMP JUMPDEST SWAP2 POP PUSH2 0x16D6 DUP3 PUSH2 0x1697 JUMP JUMPDEST PUSH1 0x20 DUP3 ADD SWAP1 POP SWAP2 SWAP1 POP JUMP JUMPDEST PUSH0 PUSH1 0x20 DUP3 ADD SWAP1 POP DUP2 DUP2 SUB PUSH0 DUP4 ADD MSTORE PUSH2 0x16F8 DUP2 PUSH2 0x16BF JUMP JUMPDEST SWAP1 POP SWAP2 SWAP1 POP JUMP JUMPDEST PUSH0 DUP2 PUSH1 0x60 SHL SWAP1 POP SWAP2 SWAP1 POP JUMP JUMPDEST PUSH0 PUSH2 0x1715 DUP3 PUSH2 0x16FF JUMP JUMPDEST SWAP1 POP SWAP2 SWAP1 POP JUMP JUMPDEST PUSH0 PUSH2 0x1726 DUP3 PUSH2 0x170B JUMP JUMPDEST SWAP1 POP SWAP2 SWAP1 POP JUMP JUMPDEST PUSH2 0x173E PUSH2 0x1739 DUP3 PUSH2 0xF29 JUMP JUMPDEST PUSH2 0x171C JUMP JUMPDEST DUP3 MSTORE POP POP JUMP JUMPDEST PUSH0 DUP2 SWAP1 POP SWAP2 SWAP1 POP JUMP JUMPDEST PUSH2 0x175E PUSH2 0x1759 DUP3 PUSH2 0xDB5 JUMP JUMPDEST PUSH2 0x1744 JUMP JUMPDEST DUP3 MSTORE POP POP JUMP JUMPDEST PUSH0 PUSH2 0x176F DUP3 DUP10 PUSH2 0x172D JUMP JUMPDEST PUSH1 0x14 DUP3 ADD SWAP2 POP PUSH2 0x177F DUP3 DUP9 PUSH2 0x172D JUMP JUMPDEST PUSH1 0x14 DUP3 ADD SWAP2 POP PUSH2 0x178F DUP3 DUP8 PUSH2 0x146C JUMP JUMPDEST PUSH1 0x20 DUP3 ADD SWAP2 POP PUSH2 0x179F DUP3 DUP7 PUSH2 0x174D JUMP JUMPDEST PUSH1 0x20 DUP3 ADD SWAP2 POP PUSH2 0x17AF DUP3 DUP6 PUSH2 0x174D JUMP JUMPDEST PUSH1 0x20 DUP3 ADD SWAP2 POP PUSH2 0x17BF DUP3 DUP5 PUSH2 0x174D JUMP JUMPDEST PUSH1 0x20 DUP3 ADD SWAP2 POP DUP2 SWAP1 POP SWAP8 SWAP7 POP POP POP POP POP POP POP JUMP JUMPDEST PUSH32 0x5377617020616C72656164792065786973747300000000000000000000000000 PUSH0 DUP3 ADD MSTORE POP JUMP JUMPDEST PUSH0 PUSH2 0x1807 PUSH1 0x13 DUP4 PUSH2 0x111B JUMP JUMPDEST SWAP2 POP PUSH2 0x1812 DUP3 PUSH2 0x17D3 JUMP JUMPDEST PUSH1 0x20 DUP3 ADD SWAP1 POP SWAP2 SWAP1 POP JUMP JUMPDEST PUSH0 PUSH1 0x20 DUP3 ADD SWAP1 POP DUP2 DUP2 SUB PUSH0 DUP4 ADD MSTORE PUSH2 0x1834 DUP2 PUSH2 0x17FB JUMP JUMPDEST SWAP1 POP SWAP2 SWAP1 POP JUMP JUMPDEST PUSH0 PUSH1 0x60 DUP3 ADD SWAP1 POP PUSH2 0x184E PUSH0 DUP4 ADD DUP7 PUSH2 0xF49 JUMP JUMPDEST PUSH2 0x185B PUSH1 0x20 DUP4 ADD DUP6 PUSH2 0xF49 JUMP JUMPDEST PUSH2 0x1868 PUSH1 0x40 DUP4 ADD DUP5 PUSH2 0xF72 JUMP JUMPDEST SWAP5 SWAP4 POP POP POP POP JUMP JUMPDEST PUSH32 0x4E487B7100000000000000000000000000000000000000000000000000000000 PUSH0 MSTORE PUSH1 0x32 PUSH1 0x4 MSTORE PUSH1 0x24 PUSH0 REVERT INVALID LOG2 PUSH5 0x6970667358 0x22 SLT KECCAK256 RJUMP 0x4099 BLOCKHASH DUP7 PUSH31 0xF6439133C85567C1C0E8C0087E28D0A2B6A12E4A8CB976F70BB664736F6C63 NUMBER STOP ADDMOD 0x1E STOP CALLER "
		},
		"gasEstimates": {
			"creation": {
				"codeDepositCost": "1271000",
				"executionCost": "23433",
				"totalCost": "1294433"
			},
			"external": {
				"createSwap(address,bytes32,uint256)": "infinite",
				"getSwap(bytes32)": "infinite",
				"refund(bytes32)": "infinite",
				"swaps(bytes32)": "infinite",
				"withdrawParts(bytes32,uint256,bytes32,uint256,bytes32[])": "infinite"
			}
		},
		"methodIdentifiers": {
			"createSwap(address,bytes32,uint256)": "944eff63",
			"getSwap(bytes32)": "3da0e66e",
			"refund(bytes32)": "7249fbb6",
			"swaps(bytes32)": "eb84e7f2",
			"withdrawParts(bytes32,uint256,bytes32,uint256,bytes32[])": "003668b0"
		}
	},
	"abi": [
		{
			"inputs": [],
			"name": "ReentrancyGuardReentrantCall",
			"type": "error"
		},
		{
			"anonymous": false,
			"inputs": [
				{
					"indexed": true,
					"internalType": "bytes32",
					"name": "swapId",
					"type": "bytes32"
				}
			],
			"name": "Refunded",
			"type": "event"
		},
		{
			"anonymous": false,
			"inputs": [
				{
					"indexed": true,
					"internalType": "bytes32",
					"name": "swapId",
					"type": "bytes32"
				},
				{
					"indexed": true,
					"internalType": "address",
					"name": "sender",
					"type": "address"
				},
				{
					"indexed": true,
					"internalType": "address",
					"name": "receiver",
					"type": "address"
				},
				{
					"indexed": false,
					"internalType": "uint256",
					"name": "amount",
					"type": "uint256"
				},
				{
					"indexed": false,
					"internalType": "uint256",
					"name": "timelock",
					"type": "uint256"
				},
				{
					"indexed": false,
					"internalType": "bytes32",
					"name": "merkleroot",
					"type": "bytes32"
				}
			],
			"name": "SwapCreated",
			"type": "event"
		},
		{
			"anonymous": false,
			"inputs": [
				{
					"indexed": true,
					"internalType": "bytes32",
					"name": "swapId",
					"type": "bytes32"
				}
			],
			"name": "SwapFulllyWithdrawn",
			"type": "event"
		},
		{
			"anonymous": false,
			"inputs": [
				{
					"indexed": true,
					"internalType": "bytes32",
					"name": "swapId",
					"type": "bytes32"
				},
				{
					"indexed": false,
					"internalType": "uint256",
					"name": "amount",
					"type": "uint256"
				},
				{
					"indexed": false,
					"internalType": "uint256",
					"name": "index",
					"type": "uint256"
				}
			],
			"name": "SwapPartlyWithdrawn",
			"type": "event"
		},
		{
			"inputs": [
				{
					"internalType": "address",
					"name": "receiver",
					"type": "address"
				},
				{
					"internalType": "bytes32",
					"name": "merkleroot",
					"type": "bytes32"
				},
				{
					"internalType": "uint256",
					"name": "timelock",
					"type": "uint256"
				}
			],
			"name": "createSwap",
			"outputs": [
				{
					"internalType": "bytes32",
					"name": "swapId",
					"type": "bytes32"
				}
			],
			"stateMutability": "payable",
			"type": "function"
		},
		{
			"inputs": [
				{
					"internalType": "bytes32",
					"name": "swapId",
					"type": "bytes32"
				}
			],
			"name": "getSwap",
			"outputs": [
				{
					"internalType": "address",
					"name": "sender",
					"type": "address"
				},
				{
					"internalType": "address",
					"name": "receiver",
					"type": "address"
				},
				{
					"internalType": "uint256",
					"name": "amount",
					"type": "uint256"
				},
				{
					"internalType": "uint256",
					"name": "withdrawAmount",
					"type": "uint256"
				},
				{
					"internalType": "uint256",
					"name": "timelock",
					"type": "uint256"
				},
				{
					"internalType": "bool",
					"name": "withdrawn",
					"type": "bool"
				},
				{
					"internalType": "bool",
					"name": "refunded",
					"type": "bool"
				},
				{
					"internalType": "bytes32",
					"name": "merkleroot",
					"type": "bytes32"
				}
			],
			"stateMutability": "view",
			"type": "function"
		},
		{
			"inputs": [
				{
					"internalType": "bytes32",
					"name": "swapId",
					"type": "bytes32"
				}
			],
			"name": "refund",
			"outputs": [],
			"stateMutability": "nonpayable",
			"type": "function"
		},
		{
			"inputs": [
				{
					"internalType": "bytes32",
					"name": "",
					"type": "bytes32"
				}
			],
			"name": "swaps",
			"outputs": [
				{
					"internalType": "address",
					"name": "sender",
					"type": "address"
				},
				{
					"internalType": "address",
					"name": "receiver",
					"type": "address"
				},
				{
					"internalType": "uint256",
					"name": "amount",
					"type": "uint256"
				},
				{
					"internalType": "uint256",
					"name": "timelock",
					"type": "uint256"
				},
				{
					"internalType": "bool",
					"name": "withdrawn",
					"type": "bool"
				},
				{
					"internalType": "bool",
					"name": "refunded",
					"type": "bool"
				},
				{
					"internalType": "bytes32",
					"name": "secret",
					"type": "bytes32"
				},
				{
					"internalType": "uint256",
					"name": "withdrawAmount",
					"type": "uint256"
				},
				{
					"internalType": "bytes32",
					"name": "merkleroot",
					"type": "bytes32"
				}
			],
			"stateMutability": "view",
			"type": "function"
		},
		{
			"inputs": [
				{
					"internalType": "bytes32",
					"name": "swapId",
					"type": "bytes32"
				},
				{
					"internalType": "uint256",
					"name": "index",
					"type": "uint256"
				},
				{
					"internalType": "bytes32",
					"name": "secret",
					"type": "bytes32"
				},
				{
					"internalType": "uint256",
					"name": "amountToWithdraw",
					"type": "uint256"
				},
				{
					"internalType": "bytes32[]",
					"name": "proof",
					"type": "bytes32[]"
				}
			],
			"name": "withdrawParts",
			"outputs": [],
			"stateMutability": "nonpayable",
			"type": "function"
		}
	]
}